{
  "_format": "hh-sol-artifact-1",
  "contractName": "MyGovernor2",
  "sourceName": "contracts/standart_token/mocks/wizard/MyGovernor2.sol",
  "abi": [
    {
      "inputs": [
        {
          "internalType": "contract IVotes",
          "name": "_token",
          "type": "address"
        },
        {
          "internalType": "contract TimelockController",
          "name": "_timelock",
          "type": "address"
        }
      ],
      "stateMutability": "nonpayable",
      "type": "constructor"
    },
    {
      "inputs": [],
      "name": "Empty",
      "type": "error"
    },
    {
      "inputs": [
        {
          "internalType": "string",
          "name": "str",
          "type": "string"
        }
      ],
      "name": "StringTooLong",
      "type": "error"
    },
    {
      "anonymous": false,
      "inputs": [],
      "name": "EIP712DomainChanged",
      "type": "event"
    },
    {
      "anonymous": false,
      "inputs": [
        {
          "indexed": false,
          "internalType": "uint256",
          "name": "proposalId",
          "type": "uint256"
        }
      ],
      "name": "ProposalCanceled",
      "type": "event"
    },
    {
      "anonymous": false,
      "inputs": [
        {
          "indexed": false,
          "internalType": "uint256",
          "name": "proposalId",
          "type": "uint256"
        },
        {
          "indexed": false,
          "internalType": "address",
          "name": "proposer",
          "type": "address"
        },
        {
          "indexed": false,
          "internalType": "address[]",
          "name": "targets",
          "type": "address[]"
        },
        {
          "indexed": false,
          "internalType": "uint256[]",
          "name": "values",
          "type": "uint256[]"
        },
        {
          "indexed": false,
          "internalType": "string[]",
          "name": "signatures",
          "type": "string[]"
        },
        {
          "indexed": false,
          "internalType": "bytes[]",
          "name": "calldatas",
          "type": "bytes[]"
        },
        {
          "indexed": false,
          "internalType": "uint256",
          "name": "voteStart",
          "type": "uint256"
        },
        {
          "indexed": false,
          "internalType": "uint256",
          "name": "voteEnd",
          "type": "uint256"
        },
        {
          "indexed": false,
          "internalType": "string",
          "name": "description",
          "type": "string"
        }
      ],
      "name": "ProposalCreated",
      "type": "event"
    },
    {
      "anonymous": false,
      "inputs": [
        {
          "indexed": false,
          "internalType": "uint256",
          "name": "proposalId",
          "type": "uint256"
        }
      ],
      "name": "ProposalExecuted",
      "type": "event"
    },
    {
      "anonymous": false,
      "inputs": [
        {
          "indexed": false,
          "internalType": "uint256",
          "name": "proposalId",
          "type": "uint256"
        },
        {
          "indexed": false,
          "internalType": "uint256",
          "name": "eta",
          "type": "uint256"
        }
      ],
      "name": "ProposalQueued",
      "type": "event"
    },
    {
      "anonymous": false,
      "inputs": [
        {
          "indexed": false,
          "internalType": "uint256",
          "name": "oldQuorumNumerator",
          "type": "uint256"
        },
        {
          "indexed": false,
          "internalType": "uint256",
          "name": "newQuorumNumerator",
          "type": "uint256"
        }
      ],
      "name": "QuorumNumeratorUpdated",
      "type": "event"
    },
    {
      "anonymous": false,
      "inputs": [
        {
          "indexed": false,
          "internalType": "address",
          "name": "oldTimelock",
          "type": "address"
        },
        {
          "indexed": false,
          "internalType": "address",
          "name": "newTimelock",
          "type": "address"
        }
      ],
      "name": "TimelockChange",
      "type": "event"
    },
    {
      "anonymous": false,
      "inputs": [
        {
          "indexed": true,
          "internalType": "address",
          "name": "voter",
          "type": "address"
        },
        {
          "indexed": false,
          "internalType": "uint256",
          "name": "proposalId",
          "type": "uint256"
        },
        {
          "indexed": false,
          "internalType": "uint8",
          "name": "support",
          "type": "uint8"
        },
        {
          "indexed": false,
          "internalType": "uint256",
          "name": "weight",
          "type": "uint256"
        },
        {
          "indexed": false,
          "internalType": "string",
          "name": "reason",
          "type": "string"
        }
      ],
      "name": "VoteCast",
      "type": "event"
    },
    {
      "anonymous": false,
      "inputs": [
        {
          "indexed": true,
          "internalType": "address",
          "name": "voter",
          "type": "address"
        },
        {
          "indexed": false,
          "internalType": "uint256",
          "name": "proposalId",
          "type": "uint256"
        },
        {
          "indexed": false,
          "internalType": "uint8",
          "name": "support",
          "type": "uint8"
        },
        {
          "indexed": false,
          "internalType": "uint256",
          "name": "weight",
          "type": "uint256"
        },
        {
          "indexed": false,
          "internalType": "string",
          "name": "reason",
          "type": "string"
        },
        {
          "indexed": false,
          "internalType": "bytes",
          "name": "params",
          "type": "bytes"
        }
      ],
      "name": "VoteCastWithParams",
      "type": "event"
    },
    {
      "inputs": [],
      "name": "BALLOT_TYPEHASH",
      "outputs": [
        {
          "internalType": "bytes32",
          "name": "",
          "type": "bytes32"
        }
      ],
      "stateMutability": "view",
      "type": "function"
    },
    {
      "inputs": [],
      "name": "CLOCK_MODE",
      "outputs": [
        {
          "internalType": "string",
          "name": "",
          "type": "string"
        }
      ],
      "stateMutability": "view",
      "type": "function"
    },
    {
      "inputs": [],
      "name": "COUNTING_MODE",
      "outputs": [
        {
          "internalType": "string",
          "name": "",
          "type": "string"
        }
      ],
      "stateMutability": "pure",
      "type": "function"
    },
    {
      "inputs": [],
      "name": "EXTENDED_BALLOT_TYPEHASH",
      "outputs": [
        {
          "internalType": "bytes32",
          "name": "",
          "type": "bytes32"
        }
      ],
      "stateMutability": "view",
      "type": "function"
    },
    {
      "inputs": [
        {
          "internalType": "uint256",
          "name": "proposalId",
          "type": "uint256"
        }
      ],
      "name": "cancel",
      "outputs": [],
      "stateMutability": "nonpayable",
      "type": "function"
    },
    {
      "inputs": [
        {
          "internalType": "uint256",
          "name": "proposalId",
          "type": "uint256"
        },
        {
          "internalType": "uint8",
          "name": "support",
          "type": "uint8"
        }
      ],
      "name": "castVote",
      "outputs": [
        {
          "internalType": "uint256",
          "name": "",
          "type": "uint256"
        }
      ],
      "stateMutability": "nonpayable",
      "type": "function"
    },
    {
      "inputs": [
        {
          "internalType": "uint256",
          "name": "proposalId",
          "type": "uint256"
        },
        {
          "internalType": "uint8",
          "name": "support",
          "type": "uint8"
        },
        {
          "internalType": "uint8",
          "name": "v",
          "type": "uint8"
        },
        {
          "internalType": "bytes32",
          "name": "r",
          "type": "bytes32"
        },
        {
          "internalType": "bytes32",
          "name": "s",
          "type": "bytes32"
        }
      ],
      "name": "castVoteBySig",
      "outputs": [
        {
          "internalType": "uint256",
          "name": "",
          "type": "uint256"
        }
      ],
      "stateMutability": "nonpayable",
      "type": "function"
    },
    {
      "inputs": [
        {
          "internalType": "uint256",
          "name": "proposalId",
          "type": "uint256"
        },
        {
          "internalType": "uint8",
          "name": "support",
          "type": "uint8"
        },
        {
          "internalType": "string",
          "name": "reason",
          "type": "string"
        }
      ],
      "name": "castVoteWithReason",
      "outputs": [
        {
          "internalType": "uint256",
          "name": "",
          "type": "uint256"
        }
      ],
      "stateMutability": "nonpayable",
      "type": "function"
    },
    {
      "inputs": [
        {
          "internalType": "uint256",
          "name": "proposalId",
          "type": "uint256"
        },
        {
          "internalType": "uint8",
          "name": "support",
          "type": "uint8"
        },
        {
          "internalType": "string",
          "name": "reason",
          "type": "string"
        },
        {
          "internalType": "bytes",
          "name": "params",
          "type": "bytes"
        }
      ],
      "name": "castVoteWithReasonAndParams",
      "outputs": [
        {
          "internalType": "uint256",
          "name": "",
          "type": "uint256"
        }
      ],
      "stateMutability": "nonpayable",
      "type": "function"
    },
    {
      "inputs": [
        {
          "internalType": "uint256",
          "name": "proposalId",
          "type": "uint256"
        },
        {
          "internalType": "uint8",
          "name": "support",
          "type": "uint8"
        },
        {
          "internalType": "string",
          "name": "reason",
          "type": "string"
        },
        {
          "internalType": "bytes",
          "name": "params",
          "type": "bytes"
        },
        {
          "internalType": "uint8",
          "name": "v",
          "type": "uint8"
        },
        {
          "internalType": "bytes32",
          "name": "r",
          "type": "bytes32"
        },
        {
          "internalType": "bytes32",
          "name": "s",
          "type": "bytes32"
        }
      ],
      "name": "castVoteWithReasonAndParamsBySig",
      "outputs": [
        {
          "internalType": "uint256",
          "name": "",
          "type": "uint256"
        }
      ],
      "stateMutability": "nonpayable",
      "type": "function"
    },
    {
      "inputs": [],
      "name": "clock",
      "outputs": [
        {
          "internalType": "uint48",
          "name": "",
          "type": "uint48"
        }
      ],
      "stateMutability": "view",
      "type": "function"
    },
    {
      "inputs": [],
      "name": "eip712Domain",
      "outputs": [
        {
          "internalType": "bytes1",
          "name": "fields",
          "type": "bytes1"
        },
        {
          "internalType": "string",
          "name": "name",
          "type": "string"
        },
        {
          "internalType": "string",
          "name": "version",
          "type": "string"
        },
        {
          "internalType": "uint256",
          "name": "chainId",
          "type": "uint256"
        },
        {
          "internalType": "address",
          "name": "verifyingContract",
          "type": "address"
        },
        {
          "internalType": "bytes32",
          "name": "salt",
          "type": "bytes32"
        },
        {
          "internalType": "uint256[]",
          "name": "extensions",
          "type": "uint256[]"
        }
      ],
      "stateMutability": "view",
      "type": "function"
    },
    {
      "inputs": [
        {
          "internalType": "address[]",
          "name": "targets",
          "type": "address[]"
        },
        {
          "internalType": "uint256[]",
          "name": "values",
          "type": "uint256[]"
        },
        {
          "internalType": "bytes[]",
          "name": "calldatas",
          "type": "bytes[]"
        },
        {
          "internalType": "bytes32",
          "name": "descriptionHash",
          "type": "bytes32"
        }
      ],
      "name": "execute",
      "outputs": [
        {
          "internalType": "uint256",
          "name": "",
          "type": "uint256"
        }
      ],
      "stateMutability": "payable",
      "type": "function"
    },
    {
      "inputs": [
        {
          "internalType": "address",
          "name": "account",
          "type": "address"
        },
        {
          "internalType": "uint256",
          "name": "timepoint",
          "type": "uint256"
        }
      ],
      "name": "getVotes",
      "outputs": [
        {
          "internalType": "uint256",
          "name": "",
          "type": "uint256"
        }
      ],
      "stateMutability": "view",
      "type": "function"
    },
    {
      "inputs": [
        {
          "internalType": "address",
          "name": "account",
          "type": "address"
        },
        {
          "internalType": "uint256",
          "name": "timepoint",
          "type": "uint256"
        },
        {
          "internalType": "bytes",
          "name": "params",
          "type": "bytes"
        }
      ],
      "name": "getVotesWithParams",
      "outputs": [
        {
          "internalType": "uint256",
          "name": "",
          "type": "uint256"
        }
      ],
      "stateMutability": "view",
      "type": "function"
    },
    {
      "inputs": [
        {
          "internalType": "uint256",
          "name": "proposalId",
          "type": "uint256"
        },
        {
          "internalType": "address",
          "name": "account",
          "type": "address"
        }
      ],
      "name": "hasVoted",
      "outputs": [
        {
          "internalType": "bool",
          "name": "",
          "type": "bool"
        }
      ],
      "stateMutability": "view",
      "type": "function"
    },
    {
      "inputs": [
        {
          "internalType": "address[]",
          "name": "targets",
          "type": "address[]"
        },
        {
          "internalType": "uint256[]",
          "name": "values",
          "type": "uint256[]"
        },
        {
          "internalType": "bytes[]",
          "name": "calldatas",
          "type": "bytes[]"
        },
        {
          "internalType": "bytes32",
          "name": "descriptionHash",
          "type": "bytes32"
        }
      ],
      "name": "hashProposal",
      "outputs": [
        {
          "internalType": "uint256",
          "name": "",
          "type": "uint256"
        }
      ],
      "stateMutability": "pure",
      "type": "function"
    },
    {
      "inputs": [],
      "name": "name",
      "outputs": [
        {
          "internalType": "string",
          "name": "",
          "type": "string"
        }
      ],
      "stateMutability": "view",
      "type": "function"
    },
    {
      "inputs": [
        {
          "internalType": "address",
          "name": "",
          "type": "address"
        },
        {
          "internalType": "address",
          "name": "",
          "type": "address"
        },
        {
          "internalType": "uint256[]",
          "name": "",
          "type": "uint256[]"
        },
        {
          "internalType": "uint256[]",
          "name": "",
          "type": "uint256[]"
        },
        {
          "internalType": "bytes",
          "name": "",
          "type": "bytes"
        }
      ],
      "name": "onERC1155BatchReceived",
      "outputs": [
        {
          "internalType": "bytes4",
          "name": "",
          "type": "bytes4"
        }
      ],
      "stateMutability": "nonpayable",
      "type": "function"
    },
    {
      "inputs": [
        {
          "internalType": "address",
          "name": "",
          "type": "address"
        },
        {
          "internalType": "address",
          "name": "",
          "type": "address"
        },
        {
          "internalType": "uint256",
          "name": "",
          "type": "uint256"
        },
        {
          "internalType": "uint256",
          "name": "",
          "type": "uint256"
        },
        {
          "internalType": "bytes",
          "name": "",
          "type": "bytes"
        }
      ],
      "name": "onERC1155Received",
      "outputs": [
        {
          "internalType": "bytes4",
          "name": "",
          "type": "bytes4"
        }
      ],
      "stateMutability": "nonpayable",
      "type": "function"
    },
    {
      "inputs": [
        {
          "internalType": "address",
          "name": "",
          "type": "address"
        },
        {
          "internalType": "address",
          "name": "",
          "type": "address"
        },
        {
          "internalType": "uint256",
          "name": "",
          "type": "uint256"
        },
        {
          "internalType": "bytes",
          "name": "",
          "type": "bytes"
        }
      ],
      "name": "onERC721Received",
      "outputs": [
        {
          "internalType": "bytes4",
          "name": "",
          "type": "bytes4"
        }
      ],
      "stateMutability": "nonpayable",
      "type": "function"
    },
    {
      "inputs": [
        {
          "internalType": "uint256",
          "name": "proposalId",
          "type": "uint256"
        }
      ],
      "name": "proposalDeadline",
      "outputs": [
        {
          "internalType": "uint256",
          "name": "",
          "type": "uint256"
        }
      ],
      "stateMutability": "view",
      "type": "function"
    },
    {
      "inputs": [
        {
          "internalType": "uint256",
          "name": "proposalId",
          "type": "uint256"
        }
      ],
      "name": "proposalEta",
      "outputs": [
        {
          "internalType": "uint256",
          "name": "",
          "type": "uint256"
        }
      ],
      "stateMutability": "view",
      "type": "function"
    },
    {
      "inputs": [
        {
          "internalType": "uint256",
          "name": "proposalId",
          "type": "uint256"
        }
      ],
      "name": "proposalSnapshot",
      "outputs": [
        {
          "internalType": "uint256",
          "name": "",
          "type": "uint256"
        }
      ],
      "stateMutability": "view",
      "type": "function"
    },
    {
      "inputs": [],
      "name": "proposalThreshold",
      "outputs": [
        {
          "internalType": "uint256",
          "name": "",
          "type": "uint256"
        }
      ],
      "stateMutability": "pure",
      "type": "function"
    },
    {
      "inputs": [
        {
          "internalType": "uint256",
          "name": "proposalId",
          "type": "uint256"
        }
      ],
      "name": "proposalVotes",
      "outputs": [
        {
          "internalType": "uint256",
          "name": "againstVotes",
          "type": "uint256"
        },
        {
          "internalType": "uint256",
          "name": "forVotes",
          "type": "uint256"
        },
        {
          "internalType": "uint256",
          "name": "abstainVotes",
          "type": "uint256"
        }
      ],
      "stateMutability": "view",
      "type": "function"
    },
    {
      "inputs": [
        {
          "internalType": "address[]",
          "name": "targets",
          "type": "address[]"
        },
        {
          "internalType": "uint256[]",
          "name": "values",
          "type": "uint256[]"
        },
        {
          "internalType": "bytes[]",
          "name": "calldatas",
          "type": "bytes[]"
        },
        {
          "internalType": "string",
          "name": "description",
          "type": "string"
        }
      ],
      "name": "propose",
      "outputs": [
        {
          "internalType": "uint256",
          "name": "",
          "type": "uint256"
        }
      ],
      "stateMutability": "nonpayable",
      "type": "function"
    },
    {
      "inputs": [
        {
          "internalType": "address[]",
          "name": "targets",
          "type": "address[]"
        },
        {
          "internalType": "uint256[]",
          "name": "values",
          "type": "uint256[]"
        },
        {
          "internalType": "bytes[]",
          "name": "calldatas",
          "type": "bytes[]"
        },
        {
          "internalType": "bytes32",
          "name": "descriptionHash",
          "type": "bytes32"
        }
      ],
      "name": "queue",
      "outputs": [
        {
          "internalType": "uint256",
          "name": "",
          "type": "uint256"
        }
      ],
      "stateMutability": "nonpayable",
      "type": "function"
    },
    {
      "inputs": [
        {
          "internalType": "uint256",
          "name": "blockNumber",
          "type": "uint256"
        }
      ],
      "name": "quorum",
      "outputs": [
        {
          "internalType": "uint256",
          "name": "",
          "type": "uint256"
        }
      ],
      "stateMutability": "view",
      "type": "function"
    },
    {
      "inputs": [],
      "name": "quorumDenominator",
      "outputs": [
        {
          "internalType": "uint256",
          "name": "",
          "type": "uint256"
        }
      ],
      "stateMutability": "view",
      "type": "function"
    },
    {
      "inputs": [
        {
          "internalType": "uint256",
          "name": "timepoint",
          "type": "uint256"
        }
      ],
      "name": "quorumNumerator",
      "outputs": [
        {
          "internalType": "uint256",
          "name": "",
          "type": "uint256"
        }
      ],
      "stateMutability": "view",
      "type": "function"
    },
    {
      "inputs": [],
      "name": "quorumNumerator",
      "outputs": [
        {
          "internalType": "uint256",
          "name": "",
          "type": "uint256"
        }
      ],
      "stateMutability": "view",
      "type": "function"
    },
    {
      "inputs": [
        {
          "internalType": "address",
          "name": "target",
          "type": "address"
        },
        {
          "internalType": "uint256",
          "name": "value",
          "type": "uint256"
        },
        {
          "internalType": "bytes",
          "name": "data",
          "type": "bytes"
        }
      ],
      "name": "relay",
      "outputs": [],
      "stateMutability": "payable",
      "type": "function"
    },
    {
      "inputs": [
        {
          "internalType": "uint256",
          "name": "proposalId",
          "type": "uint256"
        }
      ],
      "name": "state",
      "outputs": [
        {
          "internalType": "enum IGovernor.ProposalState",
          "name": "",
          "type": "uint8"
        }
      ],
      "stateMutability": "view",
      "type": "function"
    },
    {
      "inputs": [
        {
          "internalType": "bytes4",
          "name": "interfaceId",
          "type": "bytes4"
        }
      ],
      "name": "supportsInterface",
      "outputs": [
        {
          "internalType": "bool",
          "name": "",
          "type": "bool"
        }
      ],
      "stateMutability": "view",
      "type": "function"
    },
    {
      "inputs": [],
      "name": "timelock",
      "outputs": [
        {
          "internalType": "address",
          "name": "",
          "type": "address"
        }
      ],
      "stateMutability": "view",
      "type": "function"
    },
    {
      "inputs": [],
      "name": "token",
      "outputs": [
        {
          "internalType": "contract IERC5805",
          "name": "",
          "type": "address"
        }
      ],
      "stateMutability": "view",
      "type": "function"
    },
    {
      "inputs": [
        {
          "internalType": "uint256",
          "name": "newQuorumNumerator",
          "type": "uint256"
        }
      ],
      "name": "updateQuorumNumerator",
      "outputs": [],
      "stateMutability": "nonpayable",
      "type": "function"
    },
    {
      "inputs": [
        {
          "internalType": "contract TimelockController",
          "name": "newTimelock",
          "type": "address"
        }
      ],
      "name": "updateTimelock",
      "outputs": [],
      "stateMutability": "nonpayable",
      "type": "function"
    },
    {
      "inputs": [],
      "name": "version",
      "outputs": [
        {
          "internalType": "string",
          "name": "",
          "type": "string"
        }
      ],
      "stateMutability": "view",
      "type": "function"
    },
    {
      "inputs": [],
      "name": "votingDelay",
      "outputs": [
        {
          "internalType": "uint256",
          "name": "",
          "type": "uint256"
        }
      ],
      "stateMutability": "pure",
      "type": "function"
    },
    {
      "inputs": [],
      "name": "votingPeriod",
      "outputs": [
        {
          "internalType": "uint256",
          "name": "",
          "type": "uint256"
        }
      ],
      "stateMutability": "pure",
      "type": "function"
    },
    {
      "stateMutability": "payable",
      "type": "receive"
    }
  ],
  "bytecode": "0x6101806040523480156200001257600080fd5b5060405162004b5538038062004b558339810160408190526200003591620007fd565b600482826040518060400160405280600a81526020016926bca3b7bb32b93737b960b11b815250806200006d6200016160201b60201c565b6200007a8260006200017c565b60e0526200008a8160016200017c565b61010052815160208084019190912061012052815190820120610140524660a0526200011a6101205161014051604080517f8b73c3c69bb8fe3d512ecc4cf759cc79239f7b179b0ffacaa9a75d522b39400f60208201529081019290925260608201524660808201523060a082015260009060c00160405160208183030381529060405280519060200120905090565b60805250503060c0526002620001318282620008e3565b506200013f905081620001b5565b506001600160a01b03166101605262000158816200021e565b50505062000a71565b6040805180820190915260018152603160f81b602082015290565b60006020835110156200019c576200019483620003a1565b9050620001af565b81620001a98482620008e3565b50600090505b92915050565b600654604080516001600160a01b03928316815291831660208301527f08f74ea46ef7894f65eabfb5e6e695de773a000b47c529ab559178069b226401910160405180910390a1600680546001600160a01b0319166001600160a01b0392909216919091179055565b6064811115620002a75760405162461bcd60e51b815260206004820152604360248201527f476f7665726e6f72566f74657351756f72756d4672616374696f6e3a2071756f60448201527f72756d4e756d657261746f72206f7665722071756f72756d44656e6f6d696e616064820152623a37b960e91b608482015260a4015b60405180910390fd5b6000620002b3620003e4565b90508015801590620002c55750600954155b156200032d57604080518082019091526000815260099060208101620002eb8462000413565b6001600160e01b0390811690915282546001810184556000938452602093849020835194909301519091166401000000000263ffffffff909316929092179101555b620003626200034d6200033f62000482565b65ffffffffffff16620004f9565b620003588462000413565b6009919062000560565b505060408051828152602081018490527f0553476bf02ef2726e8ce5ced78d63e26e602e4a2257b1f559418e24b4633997910160405180910390a15050565b600080829050601f81511115620003cf578260405163305a27a960e01b81526004016200029e9190620009af565b8051620003dc8262000a00565b179392505050565b600954600090156200040a57620003fc60096200057d565b6001600160e01b0316905090565b6008545b905090565b60006001600160e01b038211156200047e5760405162461bcd60e51b815260206004820152602760248201527f53616665436173743a2076616c756520646f65736e27742066697420696e20326044820152663234206269747360c81b60648201526084016200029e565b5090565b6000610160516001600160a01b03166391ddadf46040518163ffffffff1660e01b8152600401602060405180830381865afa925050508015620004e4575060408051601f3d908101601f19168201909252620004e19181019062000a25565b60015b620004f4576200040e43620005cb565b919050565b600063ffffffff8211156200047e5760405162461bcd60e51b815260206004820152602660248201527f53616665436173743a2076616c756520646f65736e27742066697420696e203360448201526532206269747360d01b60648201526084016200029e565b6000806200057085858562000634565b915091505b935093915050565b80546000908015620005c157620005a9836200059b60018462000a4f565b600091825260209091200190565b5464010000000090046001600160e01b0316620005c4565b60005b9392505050565b600065ffffffffffff8211156200047e5760405162461bcd60e51b815260206004820152602660248201527f53616665436173743a2076616c756520646f65736e27742066697420696e203460448201526538206269747360d01b60648201526084016200029e565b8254600090819080156200078957600062000656876200059b60018562000a4f565b60408051808201909152905463ffffffff8082168084526401000000009092046001600160e01b031660208401529192509087161015620006da5760405162461bcd60e51b815260206004820152601b60248201527f436865636b706f696e743a2064656372656173696e67206b657973000000000060448201526064016200029e565b805163ffffffff808816911603620007285784620006ff886200059b60018662000a4f565b80546001600160e01b03929092166401000000000263ffffffff90921691909117905562000778565b6040805180820190915263ffffffff80881682526001600160e01b0380881660208085019182528b54600181018d5560008d81529190912094519151909216640100000000029216919091179101555b602001519250839150620005759050565b50506040805180820190915263ffffffff80851682526001600160e01b0380851660208085019182528854600181018a5560008a81529182209551925190931664010000000002919093161792019190915590508162000575565b6001600160a01b0381168114620007fa57600080fd5b50565b600080604083850312156200081157600080fd5b82516200081e81620007e4565b60208401519092506200083181620007e4565b809150509250929050565b634e487b7160e01b600052604160045260246000fd5b600181811c908216806200086757607f821691505b6020821081036200088857634e487b7160e01b600052602260045260246000fd5b50919050565b601f821115620008de576000816000526020600020601f850160051c81016020861015620008b95750805b601f850160051c820191505b81811015620008da57828155600101620008c5565b5050505b505050565b81516001600160401b03811115620008ff57620008ff6200083c565b620009178162000910845462000852565b846200088e565b602080601f8311600181146200094f5760008415620009365750858301515b600019600386901b1c1916600185901b178555620008da565b600085815260208120601f198616915b8281101562000980578886015182559484019460019091019084016200095f565b50858210156200099f5787850151600019600388901b60f8161c191681555b5050505050600190811b01905550565b60006020808352835180602085015260005b81811015620009df57858101830151858201604001528201620009c1565b506000604082860101526040601f19601f8301168501019250505092915050565b80516020808301519190811015620008885760001960209190910360031b1b16919050565b60006020828403121562000a3857600080fd5b815165ffffffffffff81168114620005c457600080fd5b81810381811115620001af57634e487b7160e01b600052601160045260246000fd5b60805160a05160c05160e0516101005161012051610140516101605161406262000af3600039600081816108ce01528181610fa50152818161127c01528181611f48015261208a015260006122560152600061222e01526000611228015260006111fe01526000612189015260006121b3015260006121dd01526140626000f3fe6080604052600436106102555760003560e01c80637b3c71d311610139578063bc197c81116100b6578063dd4e2ba51161007a578063dd4e2ba5146107d6578063deaaa7cc1461081c578063eb9019d414610850578063f23a6e6114610870578063f8ce560a1461089c578063fc0c546a146108bc57600080fd5b8063bc197c811461070c578063c01f9e3714610738578063c28bc2fa14610771578063c59057e414610784578063d33219b4146107a457600080fd5b80639a802a6d116100fd5780639a802a6d1461067b578063a7713a701461069b578063a890c910146106b0578063ab58fb8e146106d0578063b58131b0146106f057600080fd5b80637b3c71d3146105d35780637d5e81e2146105f357806384b0196e1461061357806391ddadf41461063b57806397c3d3341461066757600080fd5b80633932abb1116101d25780634bf5d7e9116101965780634bf5d7e9146104df578063544ffc9c146104f457806354fd4d501461054957806356781388146105735780635f398a141461059357806360c4247f146105b357600080fd5b80633932abb1146104145780633bccf4fd146104285780633e4f49e61461044857806340e58ee514610475578063438596321461049557600080fd5b8063150b7a0211610219578063150b7a0214610333578063160cbed7146103775780632656227d146103975780632d63f693146103aa5780632fe3e261146103e057600080fd5b806301ffc9a71461027d57806302a251a3146102b257806303420181146102d157806306f3f9e6146102f157806306fdde031461031157600080fd5b3661027857306102636108f0565b6001600160a01b03161461027657600080fd5b005b600080fd5b34801561028957600080fd5b5061029d6102983660046130de565b610909565b60405190151581526020015b60405180910390f35b3480156102be57600080fd5b5061b2fa5b6040519081526020016102a9565b3480156102dd57600080fd5b506102c36102ec36600461322c565b61091a565b3480156102fd57600080fd5b5061027661030c3660046132d2565b610a12565b34801561031d57600080fd5b50610326610aa5565b6040516102a9919061333b565b34801561033f57600080fd5b5061035e61034e366004613363565b630a85bd0160e11b949350505050565b6040516001600160e01b031990911681526020016102a9565b34801561038357600080fd5b506102c3610392366004613542565b610b37565b6102c36103a5366004613542565b610d37565b3480156103b657600080fd5b506102c36103c53660046132d2565b6000908152600360205260409020546001600160401b031690565b3480156103ec57600080fd5b506102c37fb3b3f3b703cd84ce352197dcff232b1b5d3cfb2025ce47cf04742d0651f1af8881565b34801561042057600080fd5b5060016102c3565b34801561043457600080fd5b506102c36104433660046135d1565b610e29565b34801561045457600080fd5b506104686104633660046132d2565b610e9f565b6040516102a99190613635565b34801561048157600080fd5b506102766104903660046132d2565b610eaa565b3480156104a157600080fd5b5061029d6104b036600461365d565b6000828152600a602090815260408083206001600160a01b038516845260030190915290205460ff1692915050565b3480156104eb57600080fd5b50610326610fa1565b34801561050057600080fd5b5061052e61050f3660046132d2565b6000908152600a60205260409020805460018201546002909201549092565b604080519384526020840192909252908201526060016102a9565b34801561055557600080fd5b506040805180820190915260018152603160f81b6020820152610326565b34801561057f57600080fd5b506102c361058e36600461368d565b611063565b34801561059f57600080fd5b506102c36105ae3660046136b9565b61108c565b3480156105bf57600080fd5b506102c36105ce3660046132d2565b6110d6565b3480156105df57600080fd5b506102c36105ee36600461373c565b611187565b3480156105ff57600080fd5b506102c361060e366004613795565b6111d9565b34801561061f57600080fd5b506106286111f0565b6040516102a99796959493929190613885565b34801561064757600080fd5b50610650611278565b60405165ffffffffffff90911681526020016102a9565b34801561067357600080fd5b5060646102c3565b34801561068757600080fd5b506102c36106963660046138e7565b611301565b3480156106a757600080fd5b506102c3611318565b3480156106bc57600080fd5b506102766106cb36600461393f565b611342565b3480156106dc57600080fd5b506102c36106eb3660046132d2565b6113c9565b3480156106fc57600080fd5b50683635c9adc5dea000006102c3565b34801561071857600080fd5b5061035e61072736600461395c565b63bc197c8160e01b95945050505050565b34801561074457600080fd5b506102c36107533660046132d2565b6000908152600360205260409020600101546001600160401b031690565b61027661077f3660046139ef565b611463565b34801561079057600080fd5b506102c361079f366004613542565b611572565b3480156107b057600080fd5b506006546001600160a01b03165b6040516001600160a01b0390911681526020016102a9565b3480156107e257600080fd5b506040805180820190915260208082527f737570706f72743d627261766f2671756f72756d3d666f722c6162737461696e90820152610326565b34801561082857600080fd5b506102c37f150214d74d59b7d1e90c73fc22ef3d991dd0a76b046543d4d80ab92d2a50328f81565b34801561085c57600080fd5b506102c361086b366004613a32565b6115ac565b34801561087c57600080fd5b5061035e61088b366004613a5e565b63f23a6e6160e01b95945050505050565b3480156108a857600080fd5b506102c36108b73660046132d2565b6115cd565b3480156108c857600080fd5b506107be7f000000000000000000000000000000000000000000000000000000000000000081565b60006109046006546001600160a01b031690565b905090565b6000610914826115d8565b92915050565b6000806109be6109b67fb3b3f3b703cd84ce352197dcff232b1b5d3cfb2025ce47cf04742d0651f1af888c8c8c8c604051610956929190613ac6565b60405180910390208b8051906020012060405160200161099b959493929190948552602085019390935260ff9190911660408401526060830152608082015260a00190565b604051602081830303815290604052805190602001206115fd565b86868661162a565b9050610a048a828b8b8b8080601f0160208091040260200160405190810160405280939291908181526020018383808284376000920191909152508d9250611648915050565b9a9950505050505050505050565b610a1a6108f0565b6001600160a01b0316336001600160a01b031614610a535760405162461bcd60e51b8152600401610a4a90613ad6565b60405180910390fd5b30610a5c6108f0565b6001600160a01b031614610a995760008036604051610a7c929190613ac6565b604051809103902090505b80610a92600461179d565b03610a8757505b610aa28161181c565b50565b606060028054610ab490613b0d565b80601f0160208091040260200160405190810160405280929190818152602001828054610ae090613b0d565b8015610b2d5780601f10610b0257610100808354040283529160200191610b2d565b820191906000526020600020905b815481529060010190602001808311610b1057829003601f168201915b5050505050905090565b600080610b4686868686611572565b90506004610b5382610e9f565b6007811115610b6457610b6461361f565b14610b815760405162461bcd60e51b8152600401610a4a90613b47565b6006546040805163793d064960e11b815290516000926001600160a01b03169163f27a0c929160048083019260209291908290030181865afa158015610bcb573d6000803e3d6000fd5b505050506040513d601f19601f82011682018060405250810190610bef9190613b88565b60065460405163b1c5f42760e01b81529192506001600160a01b03169063b1c5f42790610c29908a908a908a906000908b90600401613c35565b602060405180830381865afa158015610c46573d6000803e3d6000fd5b505050506040513d601f19601f82011682018060405250810190610c6a9190613b88565b6000838152600760205260408082209290925560065491516308f2a0bb60e41b81526001600160a01b0390921691638f2a0bb091610cb5918b918b918b91908b908990600401613c83565b600060405180830381600087803b158015610ccf57600080fd5b505af1158015610ce3573d6000803e3d6000fd5b505050507f9a2e42fd6722813d69113e7d0079d3d940171428df7373df9c7f7617cfda2892828242610d159190613cf1565b6040805192835260208301919091520160405180910390a15095945050505050565b600080610d4686868686611572565b90506000610d5382610e9f565b90506004816007811115610d6957610d6961361f565b1480610d8657506005816007811115610d8457610d8461361f565b145b610da25760405162461bcd60e51b8152600401610a4a90613b47565b60008281526003602052604090819020600201805460ff19166001179055517f712ae1383f79ac853f8d882153778e0260ef8f03b504e2866e0593e04d2b291f90610df09084815260200190565b60405180910390a1610e05828888888861198a565b610e128288888888611a24565b610e1f8288888888611a31565b5095945050505050565b604080517f150214d74d59b7d1e90c73fc22ef3d991dd0a76b046543d4d80ab92d2a50328f602082015290810186905260ff851660608201526000908190610e77906109b69060800161099b565b9050610e9487828860405180602001604052806000815250611a6a565b979650505050505050565b600061091482611a8d565b6000610eb582610e9f565b6007811115610ec657610ec661361f565b14610f135760405162461bcd60e51b815260206004820152601c60248201527f476f7665726e6f723a20746f6f206c61746520746f2063616e63656c000000006044820152606401610a4a565b600081815260036020526040902054600160401b90046001600160a01b0316336001600160a01b031614610f945760405162461bcd60e51b815260206004820152602260248201527f476f7665726e6f723a206f6e6c792070726f706f7365722063616e2063616e63604482015261195b60f21b6064820152608401610a4a565b610f9d81611bd7565b5050565b60607f00000000000000000000000000000000000000000000000000000000000000006001600160a01b0316634bf5d7e96040518163ffffffff1660e01b8152600401600060405180830381865afa92505050801561102257506040513d6000823e601f3d908101601f1916820160405261101f9190810190613d04565b60015b61105e575060408051808201909152601d81527f6d6f64653d626c6f636b6e756d6265722666726f6d3d64656661756c74000000602082015290565b919050565b60008033905061108484828560405180602001604052806000815250611a6a565b949350505050565b600080339050610e9487828888888080601f0160208091040260200160405190810160405280939291908181526020018383808284376000920191909152508a9250611648915050565b6009546000908082036110ed575050600854919050565b600060096110fc600184613d71565b8154811061110c5761110c613d84565b60009182526020918290206040805180820190915291015463ffffffff8116808352600160201b9091046001600160e01b0316928201929092529150841061116257602001516001600160e01b03169392505050565b61117661116e85611ce2565b600990611d4b565b6001600160e01b0316949350505050565b6000803390506111cf86828787878080601f016020809104026020016040519081016040528093929190818152602001838380828437600092019190915250611a6a92505050565b9695505050505050565b60006111e785858585611dfe565b95945050505050565b6000606080828080836112237f000000000000000000000000000000000000000000000000000000000000000083611e0c565b61124e7f00000000000000000000000000000000000000000000000000000000000000006001611e0c565b60408051600080825260208201909252600f60f81b9b939a50919850469750309650945092509050565b60007f00000000000000000000000000000000000000000000000000000000000000006001600160a01b03166391ddadf46040518163ffffffff1660e01b8152600401602060405180830381865afa9250505080156112f4575060408051601f3d908101601f191682019092526112f191810190613d9a565b60015b61105e5761090443611eb8565b600061130e848484611f1f565b90505b9392505050565b6009546000901561133b5761132d6009611fb5565b6001600160e01b0316905090565b5060085490565b61134a6108f0565b6001600160a01b0316336001600160a01b03161461137a5760405162461bcd60e51b8152600401610a4a90613ad6565b306113836108f0565b6001600160a01b0316146113c057600080366040516113a3929190613ac6565b604051809103902090505b806113b9600461179d565b036113ae57505b610aa281611fe5565b60065460008281526007602052604080822054905163d45c443560e01b81526004810191909152909182916001600160a01b039091169063d45c443590602401602060405180830381865afa158015611426573d6000803e3d6000fd5b505050506040513d601f19601f8201168201806040525081019061144a9190613b88565b90508060011461145a5780611311565b60009392505050565b61146b6108f0565b6001600160a01b0316336001600160a01b03161461149b5760405162461bcd60e51b8152600401610a4a90613ad6565b306114a46108f0565b6001600160a01b0316146114e157600080366040516114c4929190613ac6565b604051809103902090505b806114da600461179d565b036114cf57505b600080856001600160a01b03168585856040516114ff929190613ac6565b60006040518083038185875af1925050503d806000811461153c576040519150601f19603f3d011682016040523d82523d6000602084013e611541565b606091505b509150915061156982826040518060600160405280602881526020016140056028913961204e565b50505050505050565b60008484848460405160200161158b9493929190613dc2565b60408051601f19818403018152919052805160209091012095945050505050565b600061131183836115c860408051602081019091526000815290565b611f1f565b600061091482612067565b60006001600160e01b03198216636e665ced60e01b1480610914575061091482612111565b600061091461160a61217c565b8360405161190160f01b8152600281019290925260228201526042902090565b600080600061163b878787876122a7565b91509150610e1f8161236b565b6000858152600360205260408120600161166188610e9f565b60078111156116725761167261361f565b146116cb5760405162461bcd60e51b815260206004820152602360248201527f476f7665726e6f723a20766f7465206e6f742063757272656e746c792061637460448201526269766560e81b6064820152608401610a4a565b80546000906116e59088906001600160401b031686611f1f565b90506116f488888884886124b5565b835160000361174957866001600160a01b03167fb8e138887d0aa13bab447e82de9d5c1777041ecd21ca36ba824ff1e6c07ddda48988848960405161173c9493929190613e0d565b60405180910390a2610e94565b866001600160a01b03167fe2babfbac5889a709b63bb7f598b324e08bc5a4fb9ec647fb3cbc9ec07eb8712898884898960405161178a959493929190613e35565b60405180910390a2979650505050505050565b60006117b88254600f81810b600160801b909204900b131590565b156117d657604051631ed9509560e11b815260040160405180910390fd5b508054600f0b6000818152600180840160205260408220805492905583546fffffffffffffffffffffffffffffffff191692016001600160801b03169190911790915590565b606481111561189f5760405162461bcd60e51b815260206004820152604360248201527f476f7665726e6f72566f74657351756f72756d4672616374696f6e3a2071756f60448201527f72756d4e756d657261746f72206f7665722071756f72756d44656e6f6d696e616064820152623a37b960e91b608482015260a401610a4a565b60006118a9611318565b905080158015906118ba5750600954155b1561191e576040805180820190915260008152600990602081016118dd8461262f565b6001600160e01b039081169091528254600181018455600093845260209384902083519490930151909116600160201b0263ffffffff909316929092179101555b61194b61193961192c611278565b65ffffffffffff16611ce2565b6119428461262f565b60099190612698565b505060408051828152602081018490527f0553476bf02ef2726e8ce5ced78d63e26e602e4a2257b1f559418e24b4633997910160405180910390a15050565b306119936108f0565b6001600160a01b031614611a1d5760005b8451811015611a1b57306001600160a01b03168582815181106119c9576119c9613d84565b60200260200101516001600160a01b031603611a1357611a138382815181106119f4576119f4613d84565b60200260200101518051906020012060046126b390919063ffffffff16565b6001016119a4565b505b5050505050565b611a1d85858585856126ef565b30611a3a6108f0565b6001600160a01b031614611a1d57600454600f81810b600160801b909204900b1315611a1d576000600455611a1d565b60006111e785858585611a8860408051602081019091526000815290565b611648565b600080611a9983612763565b90506004816007811115611aaf57611aaf61361f565b14611aba5792915050565b60008381526007602052604090205480611ad5575092915050565b600654604051632ab0f52960e01b8152600481018390526001600160a01b0390911690632ab0f52990602401602060405180830381865afa158015611b1e573d6000803e3d6000fd5b505050506040513d601f19601f82011682018060405250810190611b429190613e7b565b15611b51575060079392505050565b600654604051632c258a9f60e11b8152600481018390526001600160a01b039091169063584b153e90602401602060405180830381865afa158015611b9a573d6000803e3d6000fd5b505050506040513d601f19601f82011682018060405250810190611bbe9190613e7b565b15611bcd575060059392505050565b5060029392505050565b600080611be383610e9f565b90506002816007811115611bf957611bf961361f565b14158015611c1957506006816007811115611c1657611c1661361f565b14155b8015611c3757506007816007811115611c3457611c3461361f565b14155b611c835760405162461bcd60e51b815260206004820152601d60248201527f476f7665726e6f723a2070726f706f73616c206e6f74206163746976650000006044820152606401610a4a565b60008381526003602052604090819020600201805461ff001916610100179055517f789cf55be980739dad1d0699b93b58e806b51c9d96619bfa8fe0a28abaa7b30c90611cd39085815260200190565b60405180910390a15090919050565b600063ffffffff821115611d475760405162461bcd60e51b815260206004820152602660248201527f53616665436173743a2076616c756520646f65736e27742066697420696e203360448201526532206269747360d01b6064820152608401610a4a565b5090565b815460009081816005811115611da8576000611d66846128a3565b611d709085613d71565b60008881526020902090915081015463ffffffff9081169087161015611d9857809150611da6565b611da3816001613cf1565b92505b505b6000611db68787858561298b565b90508015611df157611ddb87611dcd600184613d71565b600091825260209091200190565b54600160201b90046001600160e01b0316610e94565b6000979650505050505050565b60006111e7858585856129e9565b606060ff831615611e2757611e2083612d67565b9050610914565b818054611e3390613b0d565b80601f0160208091040260200160405190810160405280929190818152602001828054611e5f90613b0d565b8015611eac5780601f10611e8157610100808354040283529160200191611eac565b820191906000526020600020905b815481529060010190602001808311611e8f57829003601f168201915b50505050509050610914565b600065ffffffffffff821115611d475760405162461bcd60e51b815260206004820152602660248201527f53616665436173743a2076616c756520646f65736e27742066697420696e203460448201526538206269747360d01b6064820152608401610a4a565b604051630748d63560e31b81526001600160a01b038481166004830152602482018490526000917f000000000000000000000000000000000000000000000000000000000000000090911690633a46b1a890604401602060405180830381865afa158015611f91573d6000803e3d6000fd5b505050506040513d601f19601f8201168201806040525081019061130e9190613b88565b8054600090801561145a57611fcf83611dcd600184613d71565b54600160201b90046001600160e01b0316611311565b600654604080516001600160a01b03928316815291831660208301527f08f74ea46ef7894f65eabfb5e6e695de773a000b47c529ab559178069b226401910160405180910390a1600680546001600160a01b0319166001600160a01b0392909216919091179055565b6060831561205d575081611311565b6113118383612d9c565b60006064612074836110d6565b604051632394e7a360e21b8152600481018590527f00000000000000000000000000000000000000000000000000000000000000006001600160a01b031690638e539e8c90602401602060405180830381865afa1580156120d9573d6000803e3d6000fd5b505050506040513d601f19601f820116820180604052508101906120fd9190613b88565b6121079190613e9d565b6109149190613eca565b60006001600160e01b0319821663bf26d89760e01b148061214257506001600160e01b031982166379dd796f60e01b145b8061215d57506001600160e01b03198216630271189760e51b145b8061091457506301ffc9a760e01b6001600160e01b0319831614610914565b6000306001600160a01b037f0000000000000000000000000000000000000000000000000000000000000000161480156121d557507f000000000000000000000000000000000000000000000000000000000000000046145b156121ff57507f000000000000000000000000000000000000000000000000000000000000000090565b610904604080517f8b73c3c69bb8fe3d512ecc4cf759cc79239f7b179b0ffacaa9a75d522b39400f60208201527f0000000000000000000000000000000000000000000000000000000000000000918101919091527f000000000000000000000000000000000000000000000000000000000000000060608201524660808201523060a082015260009060c00160405160208183030381529060405280519060200120905090565b6000807f7fffffffffffffffffffffffffffffff5d576e7357a4501ddfe92f46681b20a08311156122de5750600090506003612362565b6040805160008082526020820180845289905260ff881692820192909252606081018690526080810185905260019060a0016020604051602081039080840390855afa158015612332573d6000803e3d6000fd5b5050604051601f1901519150506001600160a01b03811661235b57600060019250925050612362565b9150600090505b94509492505050565b600081600481111561237f5761237f61361f565b036123875750565b600181600481111561239b5761239b61361f565b036123e85760405162461bcd60e51b815260206004820152601860248201527f45434453413a20696e76616c6964207369676e617475726500000000000000006044820152606401610a4a565b60028160048111156123fc576123fc61361f565b036124495760405162461bcd60e51b815260206004820152601f60248201527f45434453413a20696e76616c6964207369676e6174757265206c656e677468006044820152606401610a4a565b600381600481111561245d5761245d61361f565b03610aa25760405162461bcd60e51b815260206004820152602260248201527f45434453413a20696e76616c6964207369676e6174757265202773272076616c604482015261756560f01b6064820152608401610a4a565b6000858152600a602090815260408083206001600160a01b0388168452600381019092529091205460ff161561253d5760405162461bcd60e51b815260206004820152602760248201527f476f7665726e6f72566f74696e6753696d706c653a20766f746520616c726561604482015266191e4818d85cdd60ca1b6064820152608401610a4a565b6001600160a01b03851660009081526003820160205260409020805460ff1916600117905560ff8416612589578281600001600082825461257e9190613cf1565b90915550611a1b9050565b60001960ff8516016125a9578281600101600082825461257e9190613cf1565b60011960ff8516016125c9578281600201600082825461257e9190613cf1565b60405162461bcd60e51b815260206004820152603560248201527f476f7665726e6f72566f74696e6753696d706c653a20696e76616c69642076616044820152746c756520666f7220656e756d20566f74655479706560581b6064820152608401610a4a565b60006001600160e01b03821115611d475760405162461bcd60e51b815260206004820152602760248201527f53616665436173743a2076616c756520646f65736e27742066697420696e20326044820152663234206269747360c81b6064820152608401610a4a565b6000806126a6858585612dc6565b915091505b935093915050565b8154600160801b90819004600f0b6000818152600180860160205260409091209390935583546001600160801b03908116939091011602179055565b60065460405163e38335e560e01b81526001600160a01b039091169063e38335e590349061272a908890889088906000908990600401613c35565b6000604051808303818588803b15801561274357600080fd5b505af1158015612757573d6000803e3d6000fd5b50505050505050505050565b6000818152600360205260408120600281015460ff16156127875750600792915050565b6002810154610100900460ff16156127a25750600292915050565b6000838152600360205260408120546001600160401b03169081900361280a5760405162461bcd60e51b815260206004820152601d60248201527f476f7665726e6f723a20756e6b6e6f776e2070726f706f73616c2069640000006044820152606401610a4a565b6000612814611278565b65ffffffffffff16905080821061283057506000949350505050565b6000858152600360205260409020600101546001600160401b031681811061285e5750600195945050505050565b61286786612f65565b801561288657506000868152600a602052604090208054600190910154115b156128975750600495945050505050565b50600395945050505050565b6000816000036128b557506000919050565b600060016128c284612fb1565b901c6001901b905060018184816128db576128db613eb4565b048201901c905060018184816128f3576128f3613eb4565b048201901c9050600181848161290b5761290b613eb4565b048201901c9050600181848161292357612923613eb4565b048201901c9050600181848161293b5761293b613eb4565b048201901c9050600181848161295357612953613eb4565b048201901c9050600181848161296b5761296b613eb4565b048201901c90506113118182858161298557612985613eb4565b04613045565b60005b818310156129e15760006129a2848461305b565b60008781526020902090915063ffffffff86169082015463ffffffff1611156129cd578092506129db565b6129d8816001613cf1565b93505b5061298e565b509392505050565b600033816129f5611278565b65ffffffffffff169050683635c9adc5dea00000612a188361086b600185613d71565b1015612a805760405162461bcd60e51b815260206004820152603160248201527f476f7665726e6f723a2070726f706f73657220766f7465732062656c6f7720706044820152701c9bdc1bdcd85b081d1a1c995cda1bdb19607a1b6064820152608401610a4a565b6000612a958888888880519060200120611572565b90508651885114612ab85760405162461bcd60e51b8152600401610a4a90613eec565b8551885114612ad95760405162461bcd60e51b8152600401610a4a90613eec565b6000885111612b2a5760405162461bcd60e51b815260206004820152601860248201527f476f7665726e6f723a20656d7074792070726f706f73616c00000000000000006044820152606401610a4a565b600081815260036020526040902054600160401b90046001600160a01b031615612ba05760405162461bcd60e51b815260206004820152602160248201527f476f7665726e6f723a2070726f706f73616c20616c72656164792065786973746044820152607360f81b6064820152608401610a4a565b6000612bad600184613cf1565b90506000612bbd61b2fa83613cf1565b90506040518060e00160405280612bd384613076565b6001600160401b031681526001600160a01b038716602082015260006040820152606001612c0083613076565b6001600160401b039081168252600060208084018290526040808501839052606094850183905288835260038252918290208551815492870151878501519186166001600160e01b031990941693909317600160401b6001600160a01b039094168402176001600160e01b0316600160e01b60e09290921c91909102178155938501516080860151908416921c0217600183015560a08301516002909201805460c09094015161ffff1990941692151561ff00191692909217610100931515939093029290921790558a517f7d84a6263ae0d98d3329bd7b46bb4e8d6f98cd35a7adb45c274c8b7fd5ebd5e091859188918e918e91811115612d0457612d04613161565b604051908082528060200260200182016040528015612d3757816020015b6060815260200190600190039081612d225790505b508d88888f604051612d5199989796959493929190613f2d565b60405180910390a1509098975050505050505050565b60408051602080825281830190925260609160ff84169160009180820181803683375050509182525060208101929092525090565b815115612dac5781518083602001fd5b8060405162461bcd60e51b8152600401610a4a919061333b565b825460009081908015612f0c576000612de487611dcd600185613d71565b60408051808201909152905463ffffffff808216808452600160201b9092046001600160e01b031660208401529192509087161015612e655760405162461bcd60e51b815260206004820152601b60248201527f436865636b706f696e743a2064656372656173696e67206b65797300000000006044820152606401610a4a565b805163ffffffff808816911603612ead5784612e8688611dcd600186613d71565b80546001600160e01b0392909216600160201b0263ffffffff909216919091179055612efc565b6040805180820190915263ffffffff80881682526001600160e01b0380881660208085019182528b54600181018d5560008d81529190912094519151909216600160201b029216919091179101555b6020015192508391506126ab9050565b50506040805180820190915263ffffffff80851682526001600160e01b0380851660208085019182528854600181018a5560008a815291822095519251909316600160201b0291909316179201919091559050816126ab565b6000818152600a6020526040812060028101546001820154612f879190613cf1565b600084815260036020526040902054612fa8906001600160401b03166115cd565b11159392505050565b600080608083901c15612fc657608092831c92015b604083901c15612fd857604092831c92015b602083901c15612fea57602092831c92015b601083901c15612ffc57601092831c92015b600883901c1561300e57600892831c92015b600483901c1561302057600492831c92015b600283901c1561303257600292831c92015b600183901c156109145760010192915050565b60008183106130545781611311565b5090919050565b600061306a6002848418613eca565b61131190848416613cf1565b60006001600160401b03821115611d475760405162461bcd60e51b815260206004820152602660248201527f53616665436173743a2076616c756520646f65736e27742066697420696e203660448201526534206269747360d01b6064820152608401610a4a565b6000602082840312156130f057600080fd5b81356001600160e01b03198116811461131157600080fd5b803560ff8116811461105e57600080fd5b60008083601f84011261312b57600080fd5b5081356001600160401b0381111561314257600080fd5b60208301915083602082850101111561315a57600080fd5b9250929050565b634e487b7160e01b600052604160045260246000fd5b604051601f8201601f191681016001600160401b038111828210171561319f5761319f613161565b604052919050565b60006001600160401b038211156131c0576131c0613161565b50601f01601f191660200190565b60006131e16131dc846131a7565b613177565b90508281528383830111156131f557600080fd5b828260208301376000602084830101529392505050565b600082601f83011261321d57600080fd5b611311838335602085016131ce565b60008060008060008060008060e0898b03121561324857600080fd5b8835975061325860208a01613108565b965060408901356001600160401b038082111561327457600080fd5b6132808c838d01613119565b909850965060608b013591508082111561329957600080fd5b506132a68b828c0161320c565b9450506132b560808a01613108565b925060a0890135915060c089013590509295985092959890939650565b6000602082840312156132e457600080fd5b5035919050565b60005b838110156133065781810151838201526020016132ee565b50506000910152565b600081518084526133278160208601602086016132eb565b601f01601f19169290920160200192915050565b602081526000611311602083018461330f565b6001600160a01b0381168114610aa257600080fd5b6000806000806080858703121561337957600080fd5b84356133848161334e565b935060208501356133948161334e565b92506040850135915060608501356001600160401b038111156133b657600080fd5b6133c28782880161320c565b91505092959194509250565b60006001600160401b038211156133e7576133e7613161565b5060051b60200190565b600082601f83011261340257600080fd5b813560206134126131dc836133ce565b8083825260208201915060208460051b87010193508684111561343457600080fd5b602086015b8481101561345957803561344c8161334e565b8352918301918301613439565b509695505050505050565b600082601f83011261347557600080fd5b813560206134856131dc836133ce565b8083825260208201915060208460051b8701019350868411156134a757600080fd5b602086015b8481101561345957803583529183019183016134ac565b600082601f8301126134d457600080fd5b813560206134e46131dc836133ce565b82815260059290921b8401810191818101908684111561350357600080fd5b8286015b848110156134595780356001600160401b038111156135265760008081fd5b6135348986838b010161320c565b845250918301918301613507565b6000806000806080858703121561355857600080fd5b84356001600160401b038082111561356f57600080fd5b61357b888389016133f1565b9550602087013591508082111561359157600080fd5b61359d88838901613464565b945060408701359150808211156135b357600080fd5b506135c0878288016134c3565b949793965093946060013593505050565b600080600080600060a086880312156135e957600080fd5b853594506135f960208701613108565b935061360760408701613108565b94979396509394606081013594506080013592915050565b634e487b7160e01b600052602160045260246000fd5b602081016008831061365757634e487b7160e01b600052602160045260246000fd5b91905290565b6000806040838503121561367057600080fd5b8235915060208301356136828161334e565b809150509250929050565b600080604083850312156136a057600080fd5b823591506136b060208401613108565b90509250929050565b6000806000806000608086880312156136d157600080fd5b853594506136e160208701613108565b935060408601356001600160401b03808211156136fd57600080fd5b61370989838a01613119565b9095509350606088013591508082111561372257600080fd5b5061372f8882890161320c565b9150509295509295909350565b6000806000806060858703121561375257600080fd5b8435935061376260208601613108565b925060408501356001600160401b0381111561377d57600080fd5b61378987828801613119565b95989497509550505050565b600080600080608085870312156137ab57600080fd5b84356001600160401b03808211156137c257600080fd5b6137ce888389016133f1565b955060208701359150808211156137e457600080fd5b6137f088838901613464565b9450604087013591508082111561380657600080fd5b613812888389016134c3565b9350606087013591508082111561382857600080fd5b508501601f8101871361383a57600080fd5b6133c2878235602084016131ce565b60008151808452602080850194506020840160005b8381101561387a5781518752958201959082019060010161385e565b509495945050505050565b60ff60f81b8816815260e0602082015260006138a460e083018961330f565b82810360408401526138b6818961330f565b606084018890526001600160a01b038716608085015260a0840186905283810360c08501529050610a048185613849565b6000806000606084860312156138fc57600080fd5b83356139078161334e565b92506020840135915060408401356001600160401b0381111561392957600080fd5b6139358682870161320c565b9150509250925092565b60006020828403121561395157600080fd5b81356113118161334e565b600080600080600060a0868803121561397457600080fd5b853561397f8161334e565b9450602086013561398f8161334e565b935060408601356001600160401b03808211156139ab57600080fd5b6139b789838a01613464565b945060608801359150808211156139cd57600080fd5b6139d989838a01613464565b9350608088013591508082111561372257600080fd5b60008060008060608587031215613a0557600080fd5b8435613a108161334e565b93506020850135925060408501356001600160401b0381111561377d57600080fd5b60008060408385031215613a4557600080fd5b8235613a508161334e565b946020939093013593505050565b600080600080600060a08688031215613a7657600080fd5b8535613a818161334e565b94506020860135613a918161334e565b9350604086013592506060860135915060808601356001600160401b03811115613aba57600080fd5b61372f8882890161320c565b8183823760009101908152919050565b60208082526018908201527f476f7665726e6f723a206f6e6c79476f7665726e616e63650000000000000000604082015260600190565b600181811c90821680613b2157607f821691505b602082108103613b4157634e487b7160e01b600052602260045260246000fd5b50919050565b60208082526021908201527f476f7665726e6f723a2070726f706f73616c206e6f74207375636365737366756040820152601b60fa1b606082015260800190565b600060208284031215613b9a57600080fd5b5051919050565b60008151808452602080850194506020840160005b8381101561387a5781516001600160a01b031687529582019590820190600101613bb6565b60008282518085526020808601955060208260051b8401016020860160005b84811015613c2857601f19868403018952613c1683835161330f565b98840198925090830190600101613bfa565b5090979650505050505050565b60a081526000613c4860a0830188613ba1565b8281036020840152613c5a8188613849565b90508281036040840152613c6e8187613bdb565b60608401959095525050608001529392505050565b60c081526000613c9660c0830189613ba1565b8281036020840152613ca88189613849565b90508281036040840152613cbc8188613bdb565b60608401969096525050608081019290925260a0909101529392505050565b634e487b7160e01b600052601160045260246000fd5b8082018082111561091457610914613cdb565b600060208284031215613d1657600080fd5b81516001600160401b03811115613d2c57600080fd5b8201601f81018413613d3d57600080fd5b8051613d4b6131dc826131a7565b818152856020838501011115613d6057600080fd5b6111e78260208301602086016132eb565b8181038181111561091457610914613cdb565b634e487b7160e01b600052603260045260246000fd5b600060208284031215613dac57600080fd5b815165ffffffffffff8116811461131157600080fd5b608081526000613dd56080830187613ba1565b8281036020840152613de78187613849565b90508281036040840152613dfb8186613bdb565b91505082606083015295945050505050565b84815260ff841660208201528260408201526080606082015260006111cf608083018461330f565b85815260ff8516602082015283604082015260a060608201526000613e5d60a083018561330f565b8281036080840152613e6f818561330f565b98975050505050505050565b600060208284031215613e8d57600080fd5b8151801515811461131157600080fd5b808202811582820484141761091457610914613cdb565b634e487b7160e01b600052601260045260246000fd5b600082613ee757634e487b7160e01b600052601260045260246000fd5b500490565b60208082526021908201527f476f7665726e6f723a20696e76616c69642070726f706f73616c206c656e67746040820152600d60fb1b606082015260800190565b60006101208b8352602060018060a01b038c1681850152816040850152613f568285018c613ba1565b91508382036060850152613f6a828b613849565b915083820360808501528189518084528284019150828160051b850101838c0160005b83811015613fbb57601f19878403018552613fa983835161330f565b94860194925090850190600101613f8d565b505086810360a0880152613fcf818c613bdb565b9450505050508560c08401528460e0840152828103610100840152613ff4818561330f565b9c9b50505050505050505050505056fe476f7665726e6f723a2072656c617920726576657274656420776974686f7574206d657373616765a264697066735822122068c81b750b06817d938ed49ca0fc455627e9ec6d0dcee1c9bb479f8c76e5ef2364736f6c63430008180033",
  "linkReferences": {},
  "deployedLinkReferences": {}
}