{
  "_format": "hh-sol-artifact-1",
  "contractName": "MinimalForwarder",
  "sourceName": "contracts/standart_token/metatx/MinimalForwarder.sol",
  "abi": [
    {
      "inputs": [],
      "stateMutability": "nonpayable",
      "type": "constructor"
    },
    {
      "inputs": [
        {
          "internalType": "string",
          "name": "str",
          "type": "string"
        }
      ],
      "name": "StringTooLong",
      "type": "error"
    },
    {
      "anonymous": false,
      "inputs": [],
      "name": "EIP712DomainChanged",
      "type": "event"
    },
    {
      "inputs": [],
      "name": "eip712Domain",
      "outputs": [
        {
          "internalType": "bytes1",
          "name": "fields",
          "type": "bytes1"
        },
        {
          "internalType": "string",
          "name": "name",
          "type": "string"
        },
        {
          "internalType": "string",
          "name": "version",
          "type": "string"
        },
        {
          "internalType": "uint256",
          "name": "chainId",
          "type": "uint256"
        },
        {
          "internalType": "address",
          "name": "verifyingContract",
          "type": "address"
        },
        {
          "internalType": "bytes32",
          "name": "salt",
          "type": "bytes32"
        },
        {
          "internalType": "uint256[]",
          "name": "extensions",
          "type": "uint256[]"
        }
      ],
      "stateMutability": "view",
      "type": "function"
    },
    {
      "inputs": [
        {
          "components": [
            {
              "internalType": "address",
              "name": "from",
              "type": "address"
            },
            {
              "internalType": "address",
              "name": "to",
              "type": "address"
            },
            {
              "internalType": "uint256",
              "name": "value",
              "type": "uint256"
            },
            {
              "internalType": "uint256",
              "name": "gas",
              "type": "uint256"
            },
            {
              "internalType": "uint256",
              "name": "nonce",
              "type": "uint256"
            },
            {
              "internalType": "bytes",
              "name": "data",
              "type": "bytes"
            }
          ],
          "internalType": "struct MinimalForwarder.ForwardRequest",
          "name": "req",
          "type": "tuple"
        },
        {
          "internalType": "bytes",
          "name": "signature",
          "type": "bytes"
        }
      ],
      "name": "execute",
      "outputs": [
        {
          "internalType": "bool",
          "name": "",
          "type": "bool"
        },
        {
          "internalType": "bytes",
          "name": "",
          "type": "bytes"
        }
      ],
      "stateMutability": "payable",
      "type": "function"
    },
    {
      "inputs": [
        {
          "internalType": "address",
          "name": "from",
          "type": "address"
        }
      ],
      "name": "getNonce",
      "outputs": [
        {
          "internalType": "uint256",
          "name": "",
          "type": "uint256"
        }
      ],
      "stateMutability": "view",
      "type": "function"
    },
    {
      "inputs": [
        {
          "components": [
            {
              "internalType": "address",
              "name": "from",
              "type": "address"
            },
            {
              "internalType": "address",
              "name": "to",
              "type": "address"
            },
            {
              "internalType": "uint256",
              "name": "value",
              "type": "uint256"
            },
            {
              "internalType": "uint256",
              "name": "gas",
              "type": "uint256"
            },
            {
              "internalType": "uint256",
              "name": "nonce",
              "type": "uint256"
            },
            {
              "internalType": "bytes",
              "name": "data",
              "type": "bytes"
            }
          ],
          "internalType": "struct MinimalForwarder.ForwardRequest",
          "name": "req",
          "type": "tuple"
        },
        {
          "internalType": "bytes",
          "name": "signature",
          "type": "bytes"
        }
      ],
      "name": "verify",
      "outputs": [
        {
          "internalType": "bool",
          "name": "",
          "type": "bool"
        }
      ],
      "stateMutability": "view",
      "type": "function"
    }
  ],
  "bytecode": "0x6101606040523480156200001257600080fd5b50604080518082018252601081526f26b4b734b6b0b62337b93bb0b93232b960811b60208083019190915282518084019093526005835264302e302e3160d81b90830152906200006482600062000113565b60e0526200007481600162000113565b61010052815160208084019190912061012052815190820120610140524660a052620001046101205161014051604080517f8b73c3c69bb8fe3d512ecc4cf759cc79239f7b179b0ffacaa9a75d522b39400f60208201529081019290925260608201524660808201523060a082015260009060c00160405160208183030381529060405280519060200120905090565b60805250503060c05262000381565b600060208351101562000133576200012b836200014c565b905062000146565b816200014084826200023f565b50600090505b92915050565b600080829050601f8151111562000183578260405163305a27a960e01b81526004016200017a91906200030b565b60405180910390fd5b805162000190826200035c565b179392505050565b634e487b7160e01b600052604160045260246000fd5b600181811c90821680620001c357607f821691505b602082108103620001e457634e487b7160e01b600052602260045260246000fd5b50919050565b601f8211156200023a576000816000526020600020601f850160051c81016020861015620002155750805b601f850160051c820191505b81811015620002365782815560010162000221565b5050505b505050565b81516001600160401b038111156200025b576200025b62000198565b62000273816200026c8454620001ae565b84620001ea565b602080601f831160018114620002ab5760008415620002925750858301515b600019600386901b1c1916600185901b17855562000236565b600085815260208120601f198616915b82811015620002dc57888601518255948401946001909101908401620002bb565b5085821015620002fb5787850151600019600388901b60f8161c191681555b5050505050600190811b01905550565b60006020808352835180602085015260005b818110156200033b578581018301518582016040015282016200031d565b506000604082860101526040601f19601f8301168501019250505092915050565b80516020808301519190811015620001e45760001960209190910360031b1b16919050565b60805160a05160c05160e051610100516101205161014051610c9e620003dc60003960006106b50152600061068d015260006102d8015260006102ae015260006105e8015260006106120152600061063c0152610c9e6000f3fe60806040526004361061003f5760003560e01c80632d0335ab1461004457806347153f821461008d57806384b0196e146100ae578063bf5d3bdb146100d6575b600080fd5b34801561005057600080fd5b5061007a61005f366004610961565b6001600160a01b031660009081526002602052604090205490565b6040519081526020015b60405180910390f35b6100a061009b366004610991565b610106565b604051610084929190610a80565b3480156100ba57600080fd5b506100c36102a0565b6040516100849796959493929190610aa3565b3480156100e257600080fd5b506100f66100f1366004610991565b610328565b6040519015158152602001610084565b60006060610115858585610328565b6101815760405162461bcd60e51b815260206004820152603260248201527f4d696e696d616c466f727761726465723a207369676e617475726520646f6573604482015271081b9bdd081b585d18da081c995c5d595cdd60721b60648201526084015b60405180910390fd5b61019060808601356001610b3c565b600260006101a16020890189610961565b6001600160a01b03166001600160a01b03168152602001908152602001600020819055506000808660200160208101906101db9190610961565b6001600160a01b0316606088013560408901356101fb60a08b018b610b5d565b61020860208d018d610961565b60405160200161021a93929190610ba4565b60408051601f198184030181529082905261023491610bca565b600060405180830381858888f193505050503d8060008114610272576040519150601f19603f3d011682016040523d82523d6000602084013e610277565b606091505b50909250905061028c603f6060890135610be6565b5a1161029457fe5b90969095509350505050565b6000606080828080836102d37f0000000000000000000000000000000000000000000000000000000000000000836104a7565b6102fe7f000000000000000000000000000000000000000000000000000000000000000060016104a7565b60408051600080825260208201909252600f60f81b9b939a50919850469750309650945092509050565b60008061043b84848080601f01602080910402602001604051908101604052809392919081815260200183838082843760009201919091525061043592507fdd8f4b70b0f4393e889bd39128a30628a78b61816a9eb8199759e7a349657e489150610398905060208a018a610961565b6103a860408b0160208c01610961565b60408b013560608c013560808d01356103c460a08f018f610b5d565b6040516103d2929190610c08565b6040805191829003822060208301989098526001600160a01b0396871690820152949093166060850152608084019190915260a083015260c082015260e08101919091526101000160405160208183030381529060405280519060200120610555565b90610582565b90506080850135600260006104536020890189610961565b6001600160a01b03166001600160a01b031681526020019081526020016000205414801561049e57506104896020860186610961565b6001600160a01b0316816001600160a01b0316145b95945050505050565b606060ff8316156104c2576104bb836105a6565b905061054f565b8180546104ce90610c18565b80601f01602080910402602001604051908101604052809291908181526020018280546104fa90610c18565b80156105475780601f1061051c57610100808354040283529160200191610547565b820191906000526020600020905b81548152906001019060200180831161052a57829003601f168201915b505050505090505b92915050565b600061054f6105626105db565b8360405161190160f01b8152600281019290925260228201526042902090565b6000806000610591858561070b565b9150915061059e81610750565b509392505050565b60408051602080825281830190925260609160ff84169160009180820181803683375050509182525060208101929092525090565b6000306001600160a01b037f00000000000000000000000000000000000000000000000000000000000000001614801561063457507f000000000000000000000000000000000000000000000000000000000000000046145b1561065e57507f000000000000000000000000000000000000000000000000000000000000000090565b610706604080517f8b73c3c69bb8fe3d512ecc4cf759cc79239f7b179b0ffacaa9a75d522b39400f60208201527f0000000000000000000000000000000000000000000000000000000000000000918101919091527f000000000000000000000000000000000000000000000000000000000000000060608201524660808201523060a082015260009060c00160405160208183030381529060405280519060200120905090565b905090565b60008082516041036107415760208301516040840151606085015160001a6107358782858561089d565b94509450505050610749565b506000905060025b9250929050565b600081600481111561076457610764610c52565b0361076c5750565b600181600481111561078057610780610c52565b036107cd5760405162461bcd60e51b815260206004820152601860248201527f45434453413a20696e76616c6964207369676e617475726500000000000000006044820152606401610178565b60028160048111156107e1576107e1610c52565b0361082e5760405162461bcd60e51b815260206004820152601f60248201527f45434453413a20696e76616c6964207369676e6174757265206c656e677468006044820152606401610178565b600381600481111561084257610842610c52565b0361089a5760405162461bcd60e51b815260206004820152602260248201527f45434453413a20696e76616c6964207369676e6174757265202773272076616c604482015261756560f01b6064820152608401610178565b50565b6000807f7fffffffffffffffffffffffffffffff5d576e7357a4501ddfe92f46681b20a08311156108d45750600090506003610958565b6040805160008082526020820180845289905260ff881692820192909252606081018690526080810185905260019060a0016020604051602081039080840390855afa158015610928573d6000803e3d6000fd5b5050604051601f1901519150506001600160a01b03811661095157600060019250925050610958565b9150600090505b94509492505050565b60006020828403121561097357600080fd5b81356001600160a01b038116811461098a57600080fd5b9392505050565b6000806000604084860312156109a657600080fd5b833567ffffffffffffffff808211156109be57600080fd5b9085019060c082880312156109d257600080fd5b909350602085013590808211156109e857600080fd5b818601915086601f8301126109fc57600080fd5b813581811115610a0b57600080fd5b876020828501011115610a1d57600080fd5b6020830194508093505050509250925092565b60005b83811015610a4b578181015183820152602001610a33565b50506000910152565b60008151808452610a6c816020860160208601610a30565b601f01601f19169290920160200192915050565b8215158152604060208201526000610a9b6040830184610a54565b949350505050565b60ff60f81b881681526000602060e06020840152610ac460e084018a610a54565b8381036040850152610ad6818a610a54565b606085018990526001600160a01b038816608086015260a0850187905284810360c08601528551808252602080880193509091019060005b81811015610b2a57835183529284019291840191600101610b0e565b50909c9b505050505050505050505050565b8082018082111561054f57634e487b7160e01b600052601160045260246000fd5b6000808335601e19843603018112610b7457600080fd5b83018035915067ffffffffffffffff821115610b8f57600080fd5b60200191503681900382131561074957600080fd5b8284823760609190911b6bffffffffffffffffffffffff19169101908152601401919050565b60008251610bdc818460208701610a30565b9190910192915050565b600082610c0357634e487b7160e01b600052601260045260246000fd5b500490565b8183823760009101908152919050565b600181811c90821680610c2c57607f821691505b602082108103610c4c57634e487b7160e01b600052602260045260246000fd5b50919050565b634e487b7160e01b600052602160045260246000fdfea264697066735822122096a67a3b29812f04aa80763e6fc85544aa1a21e1321f8569119bed2d2893252164736f6c63430008180033",
  "linkReferences": {},
  "deployedLinkReferences": {}
}