{"_format":"hh-sol-artifact-1","contractName":"Contract","sourceName":"contracts/contract.sol","abi":[{"inputs":[],"stateMutability":"nonpayable","type":"constructor"},{"anonymous":false,"inputs":[{"indexed":true,"internalType":"address","name":"owner","type":"address"},{"indexed":true,"internalType":"address","name":"spender","type":"address"},{"indexed":false,"internalType":"uint256","name":"value","type":"uint256"}],"name":"Approval","type":"event"},{"anonymous":false,"inputs":[{"indexed":true,"internalType":"address","name":"account","type":"address"},{"indexed":true,"internalType":"address","name":"operator","type":"address"},{"indexed":false,"internalType":"bool","name":"approved","type":"bool"}],"name":"ApprovalForAll","type":"event"},{"anonymous":false,"inputs":[{"indexed":true,"internalType":"address","name":"from","type":"address"},{"indexed":true,"internalType":"address","name":"to","type":"address"},{"indexed":false,"internalType":"uint256","name":"value","type":"uint256"}],"name":"Transfer","type":"event"},{"anonymous":false,"inputs":[{"indexed":true,"internalType":"address","name":"operator","type":"address"},{"indexed":true,"internalType":"address","name":"from","type":"address"},{"indexed":true,"internalType":"address","name":"to","type":"address"},{"indexed":false,"internalType":"uint256[]","name":"ids","type":"uint256[]"},{"indexed":false,"internalType":"uint256[]","name":"values","type":"uint256[]"}],"name":"TransferBatch","type":"event"},{"anonymous":false,"inputs":[{"indexed":true,"internalType":"address","name":"operator","type":"address"},{"indexed":true,"internalType":"address","name":"from","type":"address"},{"indexed":true,"internalType":"address","name":"to","type":"address"},{"indexed":false,"internalType":"uint256","name":"id","type":"uint256"},{"indexed":false,"internalType":"uint256","name":"value","type":"uint256"}],"name":"TransferSingle","type":"event"},{"anonymous":false,"inputs":[{"indexed":false,"internalType":"string","name":"value","type":"string"},{"indexed":true,"internalType":"uint256","name":"id","type":"uint256"}],"name":"URI","type":"event"},{"inputs":[{"internalType":"address","name":"owner","type":"address"},{"internalType":"address","name":"spender","type":"address"}],"name":"allowance","outputs":[{"internalType":"uint256","name":"","type":"uint256"}],"stateMutability":"view","type":"function"},{"inputs":[{"internalType":"address","name":"spender","type":"address"},{"internalType":"uint256","name":"amount","type":"uint256"}],"name":"approve","outputs":[{"internalType":"bool","name":"","type":"bool"}],"stateMutability":"nonpayable","type":"function"},{"inputs":[],"name":"auth","outputs":[{"components":[{"internalType":"string","name":"Name","type":"string"},{"internalType":"string","name":"RefCode","type":"string"},{"internalType":"string","name":"FriendRefCode","type":"string"},{"internalType":"uint256","name":"Discont","type":"uint256"},{"internalType":"bool","name":"ActiveRefCode","type":"bool"}],"internalType":"struct Contract.User","name":"u","type":"tuple"},{"internalType":"uint256","name":"b","type":"uint256"}],"stateMutability":"view","type":"function"},{"inputs":[{"internalType":"address","name":"account","type":"address"},{"internalType":"uint256","name":"id","type":"uint256"}],"name":"balanceOf","outputs":[{"internalType":"uint256","name":"","type":"uint256"}],"stateMutability":"view","type":"function"},{"inputs":[{"internalType":"address","name":"account","type":"address"}],"name":"balanceOf","outputs":[{"internalType":"uint256","name":"","type":"uint256"}],"stateMutability":"view","type":"function"},{"inputs":[{"internalType":"address[]","name":"accounts","type":"address[]"},{"internalType":"uint256[]","name":"ids","type":"uint256[]"}],"name":"balanceOfBatch","outputs":[{"internalType":"uint256[]","name":"","type":"uint256[]"}],"stateMutability":"view","type":"function"},{"inputs":[{"internalType":"uint256","name":"id","type":"uint256"}],"name":"buyNft","outputs":[],"stateMutability":"nonpayable","type":"function"},{"inputs":[],"name":"decimals","outputs":[{"internalType":"uint8","name":"","type":"uint8"}],"stateMutability":"view","type":"function"},{"inputs":[{"internalType":"address","name":"spender","type":"address"},{"internalType":"uint256","name":"subtractedValue","type":"uint256"}],"name":"decreaseAllowance","outputs":[{"internalType":"bool","name":"","type":"bool"}],"stateMutability":"nonpayable","type":"function"},{"inputs":[{"internalType":"uint256","name":"id","type":"uint256"},{"internalType":"address","name":"sender","type":"address"}],"name":"endAction","outputs":[],"stateMutability":"nonpayable","type":"function"},{"inputs":[{"internalType":"string","name":"code","type":"string"}],"name":"enterRefCode","outputs":[],"stateMutability":"nonpayable","type":"function"},{"inputs":[],"name":"getAcrion","outputs":[{"components":[{"internalType":"uint256","name":"Id","type":"uint256"},{"components":[{"internalType":"uint256","name":"Id","type":"uint256"},{"internalType":"string","name":"Name","type":"string"},{"internalType":"string","name":"Desc","type":"string"},{"internalType":"uint256[]","name":"Nfts","type":"uint256[]"},{"internalType":"uint256[]","name":"AmountNfts","type":"uint256[]"}],"internalType":"struct Contract.Collection","name":"Collection","type":"tuple"},{"internalType":"uint256","name":"Start","type":"uint256"},{"internalType":"uint256","name":"End","type":"uint256"},{"internalType":"uint256","name":"Min","type":"uint256"},{"internalType":"uint256","name":"Max","type":"uint256"}],"internalType":"struct Contract.Action[]","name":"","type":"tuple[]"}],"stateMutability":"view","type":"function"},{"inputs":[{"internalType":"uint256","name":"id","type":"uint256"}],"name":"getBetToAcrion","outputs":[{"components":[{"internalType":"address","name":"Owner","type":"address"},{"internalType":"uint256","name":"Price","type":"uint256"}],"internalType":"struct Contract.Bet[]","name":"","type":"tuple[]"}],"stateMutability":"view","type":"function"},{"inputs":[],"name":"getSellNft","outputs":[{"components":[{"internalType":"uint256","name":"Id","type":"uint256"},{"components":[{"internalType":"uint256","name":"Id","type":"uint256"},{"internalType":"string","name":"Name","type":"string"},{"internalType":"string","name":"Desc","type":"string"},{"internalType":"string","name":"Image","type":"string"},{"internalType":"uint256","name":"Price","type":"uint256"},{"internalType":"uint256","name":"Amount","type":"uint256"},{"internalType":"uint256","name":"TimeSet","type":"uint256"}],"internalType":"struct Contract.NFT","name":"NFT","type":"tuple"},{"internalType":"address","name":"Owner","type":"address"},{"internalType":"string","name":"Name_Col","type":"string"},{"internalType":"string","name":"Desc_Col","type":"string"},{"internalType":"bool","name":"SellOrNot","type":"bool"}],"internalType":"struct Contract.Sell_Nft[]","name":"","type":"tuple[]"}],"stateMutability":"view","type":"function"},{"inputs":[],"name":"getUserCollection","outputs":[{"components":[{"internalType":"uint256","name":"Id","type":"uint256"},{"internalType":"string","name":"Name","type":"string"},{"internalType":"string","name":"Desc","type":"string"},{"internalType":"uint256[]","name":"Nfts","type":"uint256[]"},{"internalType":"uint256[]","name":"AmountNfts","type":"uint256[]"}],"internalType":"struct Contract.Collection[]","name":"","type":"tuple[]"}],"stateMutability":"view","type":"function"},{"inputs":[],"name":"getUserNft","outputs":[{"components":[{"internalType":"uint256","name":"Id","type":"uint256"},{"components":[{"internalType":"uint256","name":"Id","type":"uint256"},{"internalType":"string","name":"Name","type":"string"},{"internalType":"string","name":"Desc","type":"string"},{"internalType":"string","name":"Image","type":"string"},{"internalType":"uint256","name":"Price","type":"uint256"},{"internalType":"uint256","name":"Amount","type":"uint256"},{"internalType":"uint256","name":"TimeSet","type":"uint256"}],"internalType":"struct Contract.NFT","name":"NFT","type":"tuple"},{"internalType":"address","name":"Owner","type":"address"},{"internalType":"string","name":"Name_Col","type":"string"},{"internalType":"string","name":"Desc_Col","type":"string"},{"internalType":"bool","name":"SellOrNot","type":"bool"}],"internalType":"struct Contract.Sell_Nft[]","name":"","type":"tuple[]"}],"stateMutability":"view","type":"function"},{"inputs":[{"internalType":"address","name":"spender","type":"address"},{"internalType":"uint256","name":"addedValue","type":"uint256"}],"name":"increaseAllowance","outputs":[{"internalType":"bool","name":"","type":"bool"}],"stateMutability":"nonpayable","type":"function"},{"inputs":[{"internalType":"address","name":"account","type":"address"},{"internalType":"address","name":"operator","type":"address"}],"name":"isApprovedForAll","outputs":[{"internalType":"bool","name":"","type":"bool"}],"stateMutability":"view","type":"function"},{"inputs":[],"name":"name","outputs":[{"internalType":"string","name":"","type":"string"}],"stateMutability":"view","type":"function"},{"inputs":[{"internalType":"address","name":"from","type":"address"},{"internalType":"address","name":"to","type":"address"},{"internalType":"uint256[]","name":"ids","type":"uint256[]"},{"internalType":"uint256[]","name":"amounts","type":"uint256[]"},{"internalType":"bytes","name":"data","type":"bytes"}],"name":"safeBatchTransferFrom","outputs":[],"stateMutability":"nonpayable","type":"function"},{"inputs":[{"internalType":"address","name":"from","type":"address"},{"internalType":"address","name":"to","type":"address"},{"internalType":"uint256","name":"id","type":"uint256"},{"internalType":"uint256","name":"amount","type":"uint256"},{"internalType":"bytes","name":"data","type":"bytes"}],"name":"safeTransferFrom","outputs":[],"stateMutability":"nonpayable","type":"function"},{"inputs":[{"internalType":"uint256","name":"id","type":"uint256"},{"internalType":"uint256","name":"price","type":"uint256"}],"name":"sellNft","outputs":[],"stateMutability":"nonpayable","type":"function"},{"inputs":[{"internalType":"uint256","name":"id","type":"uint256"},{"internalType":"uint256","name":"start","type":"uint256"},{"internalType":"uint256","name":"end","type":"uint256"},{"internalType":"uint256","name":"min","type":"uint256"},{"internalType":"uint256","name":"max","type":"uint256"}],"name":"setAction","outputs":[],"stateMutability":"nonpayable","type":"function"},{"inputs":[{"internalType":"address","name":"operator","type":"address"},{"internalType":"bool","name":"approved","type":"bool"}],"name":"setApprovalForAll","outputs":[],"stateMutability":"nonpayable","type":"function"},{"inputs":[{"internalType":"uint256","name":"id","type":"uint256"},{"internalType":"uint256","name":"price","type":"uint256"}],"name":"setBet","outputs":[],"stateMutability":"nonpayable","type":"function"},{"inputs":[{"internalType":"string","name":"name","type":"string"},{"internalType":"string","name":"desc","type":"string"}],"name":"setCollection","outputs":[],"stateMutability":"nonpayable","type":"function"},{"inputs":[{"internalType":"string","name":"name","type":"string"},{"internalType":"string","name":"desc","type":"string"},{"internalType":"string","name":"image","type":"string"},{"internalType":"uint256","name":"price","type":"uint256"},{"internalType":"uint256","name":"amount","type":"uint256"},{"internalType":"bool","name":"_sell","type":"bool"}],"name":"setNft","outputs":[],"stateMutability":"nonpayable","type":"function"},{"inputs":[{"internalType":"uint256","name":"id","type":"uint256"},{"internalType":"string","name":"name","type":"string"},{"internalType":"string","name":"desc","type":"string"},{"internalType":"string","name":"image","type":"string"},{"internalType":"uint256","name":"amount","type":"uint256"}],"name":"setNftInCollection","outputs":[],"stateMutability":"nonpayable","type":"function"},{"inputs":[{"internalType":"bytes4","name":"interfaceId","type":"bytes4"}],"name":"supportsInterface","outputs":[{"internalType":"bool","name":"","type":"bool"}],"stateMutability":"view","type":"function"},{"inputs":[],"name":"symbol","outputs":[{"internalType":"string","name":"","type":"string"}],"stateMutability":"view","type":"function"},{"inputs":[],"name":"totalSupply","outputs":[{"internalType":"uint256","name":"","type":"uint256"}],"stateMutability":"view","type":"function"},{"inputs":[{"internalType":"address","name":"to","type":"address"},{"internalType":"uint256","name":"amount","type":"uint256"}],"name":"transfer","outputs":[{"internalType":"bool","name":"","type":"bool"}],"stateMutability":"nonpayable","type":"function"},{"inputs":[{"internalType":"address","name":"from","type":"address"},{"internalType":"address","name":"to","type":"address"},{"internalType":"uint256","name":"amount","type":"uint256"}],"name":"transferFrom","outputs":[{"internalType":"bool","name":"","type":"bool"}],"stateMutability":"nonpayable","type":"function"},{"inputs":[{"internalType":"uint256","name":"id","type":"uint256"},{"internalType":"address","name":"friend","type":"address"}],"name":"transferNftForFriend","outputs":[],"stateMutability":"nonpayable","type":"function"},{"inputs":[{"internalType":"address","name":"friend","type":"address"}],"name":"transferRefCode","outputs":[],"stateMutability":"nonpayable","type":"function"},{"inputs":[{"internalType":"uint256","name":"","type":"uint256"}],"name":"uri","outputs":[{"internalType":"string","name":"","type":"string"}],"stateMutability":"view","type":"function"}],"bytecode":"0x60806040526001600955600a80546001600160a01b03191673f39fd6e51aad88f6f4ce6ab8827279cfffb922661790553480156200003c57600080fd5b50604051806040016040528060098152602001682e2f696d616765732f60b81b8152506040518060400160405280600c81526020016b141c9bd9995cdcda5bdb985b60a21b8152506040518060400160405280600581526020016450524f464960d81b8152508160039081620000b3919062001637565b506004620000c2828262001637565b505050620000d6816200072760201b60201c565b50600a54620000f2906001600160a01b0316620f424062000739565b6040805160e081018252600560a082019081526427bbb732b960d91b60c0830152815281518083018352600d81526c141493d192598cce518c8c0c8d609a1b60208281019190915280830191909152825180820184526000808252838501919091526060830181905260808301819052600a546001600160a01b031681526016909152919091208151819062000189908262001637565b5060208201516001820190620001a0908262001637565b5060408201516002820190620001b7908262001637565b506060828101516003838101919091556080938401516004909301805460ff1916931515939093179092556040805160e08101825260a0810193845262546f6d60e81b60c082015292835280518082018252600d81526c141493d1924dcc0e4e4c8c0c8d609a1b60208281019190915280850191909152815180820183526000808252928501529183018190529282018390527370997970c51812dc3a010c7d01b50e0d17dc79c8909252601690915280517f036c4d5f2328789c15d065927d03f146d47ba1fa706b92abf61ee0e54fa701ec90819062000299908262001637565b5060208201516001820190620002b0908262001637565b5060408201516002820190620002c7908262001637565b50606082015160038201556080909101516004909101805460ff1916911515919091179055600a546200031c906001600160a01b03167370997970c51812dc3a010c7d01b50e0d17dc79c862030d40620007ef565b6040805160e081018252600360a082019081526209ac2f60eb1b60c0830152815281518083018352600d81526c141493d1924cd0cd0d0c8c0c8d609a1b60208281019190915280830191909152825180820184526000808252938301526060820183905260808201839052733c44cdddb6a900fa2b585dd299e03d12fa4293bc909252601690915280517fa793eb62bac9caa40dae7fcaab120df1cc884cbeb55f882a048662d92fba1cf4908190620003d6908262001637565b5060208201516001820190620003ed908262001637565b506040820151600282019062000404908262001637565b50606082015160038201556080909101516004909101805460ff1916911515919091179055600a5462000459906001600160a01b0316733c44cdddb6a900fa2b585dd299e03d12fa4293bc620493e0620007ef565b6040805160e081018252600460a08201908152634a61636b60e01b60c0830152815281518083018352600d81526c141493d1924e4c118dcc8c0c8d609a1b602082810191909152808301919091528251808201845260008082529383015260608201839052608082018390527390f79bf6eb2c4f870365e785982e1f101e93b906909252601690915280517fb677063569f4691df84d463576c0fafb73b01a03529f77673145d2ec5db3ac6a90819062000514908262001637565b50602082015160018201906200052b908262001637565b506040820151600282019062000542908262001637565b50606082015160038201556080909101516004909101805460ff1916911515919091179055600a5462000597906001600160a01b03167390f79bf6eb2c4f870365e785982e1f101e93b90662061a80620007ef565b6200061c60405180604001604052806009815260200168119d5b9b9e4810d85d60ba1b8152506040518060400160405280600f81526020016e2a3434b99021b0ba1034b990333ab760891b8152506040518060400160405280600c81526020016b6361745f6e6674312e706e6760a01b8152506000600a60006200098960201b60201c565b6200069d604051806040016040528060058152602001644875736b7960d81b8152506040518060400160405280600d81526020016c54686973206973206875736b7960981b8152506040518060400160405280600e81526020016d6875736b795f6e6674312e706e6760901b8152506000603260006200098960201b60201c565b62000721604051806040016040528060068152602001652bb0b635b2b960d11b8152506040518060400160405280600e81526020016d2a3434b99034b9903bb0b635b2b960911b8152506040518060400160405280600f81526020016e77616c6b65725f6e6674312e706e6760881b8152506000606460006200098960201b60201c565b620018ed565b600762000735828262001637565b5050565b6001600160a01b038216620007955760405162461bcd60e51b815260206004820152601f60248201527f45524332303a206d696e7420746f20746865207a65726f20616464726573730060448201526064015b60405180910390fd5b8060026000828254620007a9919062001703565b90915550506001600160a01b03821660008181526020818152604080832080548601905551848152600080516020620070a4833981519152910160405180910390a35050565b6001600160a01b038316620008555760405162461bcd60e51b815260206004820152602560248201527f45524332303a207472616e736665722066726f6d20746865207a65726f206164604482015264647265737360d81b60648201526084016200078c565b6001600160a01b038216620008b95760405162461bcd60e51b815260206004820152602360248201527f45524332303a207472616e7366657220746f20746865207a65726f206164647260448201526265737360e81b60648201526084016200078c565b6001600160a01b03831660009081526020819052604090205481811015620009335760405162461bcd60e51b815260206004820152602660248201527f45524332303a207472616e7366657220616d6f756e7420657863656564732062604482015265616c616e636560d01b60648201526084016200078c565b6001600160a01b0384811660008181526020818152604080832087870390559387168083529184902080548701905592518581529092600080516020620070a4833981519152910160405180910390a350505050565b600a546001600160a01b03163314620009da5760405162461bcd60e51b8152602060048201526012602482015271796f7520617265206e6f74204f776e65722160701b60448201526064016200078c565b6000821162000a1d5760405162461bcd60e51b815260206004820152600e60248201526d1a5b9d985b1a5908185b5bdd5b9d60921b60448201526064016200078c565b600a5460085460408051602081019091526000815262000a4a926001600160a01b03169190859062000b6c565b6040805160e08101825260085480825260208083018a81528385018a9052606084018990526080840188905260a084018790524260c08501526000928352600b909152929020815181559151909190600182019062000aaa908262001637565b506040820151600282019062000ac1908262001637565b506060820151600382019062000ad8908262001637565b506080820151600482015560a0820151600582015560c090910151600690910155600a546001600160a01b03166000908152600e6020526040812080546001929062000b2690849062001703565b909155505080151560010362000b455760085462000b45908462000c8c565b60016008600082825462000b5a919062001703565b9091555050505050505050565b505050565b6001600160a01b03841662000bce5760405162461bcd60e51b815260206004820152602160248201527f455243313135353a206d696e7420746f20746865207a65726f206164647265736044820152607360f81b60648201526084016200078c565b33600062000bdc85620012f3565b9050600062000beb85620012f3565b905060008681526005602090815260408083206001600160a01b038b1684529091528120805487929062000c2190849062001703565b909155505060408051878152602081018790526001600160a01b03808a1692600092918716917fc3d58168c5ae7397731d063d5bbf3d657854427343f4c083240f7aacaa2d0f62910160405180910390a462000c838360008989898962001349565b50505050505050565b6000811162000cce5760405162461bcd60e51b815260206004820152600d60248201526c696e76616c696420707269636560981b60448201526064016200078c565b60085482111562000d0f5760405162461bcd60e51b815260206004820152600a6024820152691a5b9d985b1a59081a5960b21b60448201526064016200078c565b6000828152600d602052604090205460ff1615801562000d3a5750600062000d38338462001501565b115b62000dae5760405162461bcd60e51b815260206004820152603360248201527f74686973206e667420616c72656164792073656c6c206f7220796f752061726560448201527f206e6f74206f776e65722074686973206e66740000000000000000000000000060648201526084016200078c565b6000828152600c60205260409020541562000e1f57600a546001600160a01b0316330362000e1f5760405162461bcd60e51b815260206004820152601960248201527f796f752063616e206e6f742073656c6c2074686973206e66740000000000000060448201526064016200078c565b6000828152600b6020818152604080842060048101869055600d8352818520805460ff19166001908117909155825160c081018452600f8054825296899052948452825160e081019093528154835281018054858501948401919062000e8590620015af565b80601f016020809104026020016040519081016040528092919081815260200182805462000eb390620015af565b801562000f045780601f1062000ed85761010080835404028352916020019162000f04565b820191906000526020600020905b81548152906001019060200180831162000ee657829003601f168201915b5050505050815260200160028201805462000f1f90620015af565b80601f016020809104026020016040519081016040528092919081815260200182805462000f4d90620015af565b801562000f9e5780601f1062000f725761010080835404028352916020019162000f9e565b820191906000526020600020905b81548152906001019060200180831162000f8057829003601f168201915b5050505050815260200160038201805462000fb990620015af565b80601f016020809104026020016040519081016040528092919081815260200182805462000fe790620015af565b8015620010385780601f106200100c5761010080835404028352916020019162001038565b820191906000526020600020905b8154815290600101906020018083116200101a57829003601f168201915b5050505050815260200160048201548152602001600582015481526020016006820154815250508152602001336001600160a01b0316815260200160106000600c60008881526020019081526020016000205481526020019081526020016000206001018054620010a990620015af565b80601f0160208091040260200160405190810160405280929190818152602001828054620010d790620015af565b8015620011285780601f10620010fc5761010080835404028352916020019162001128565b820191906000526020600020905b8154815290600101906020018083116200110a57829003601f168201915b50505091835250506000858152600c602090815260408083205483526010825290912060020180549190920191906200116190620015af565b80601f01602080910402602001604051908101604052809291908181526020018280546200118f90620015af565b8015620011e05780601f10620011b457610100808354040283529160200191620011e0565b820191906000526020600020905b815481529060010190602001808311620011c257829003601f168201915b505050918352505060016020918201819052835480820185556000948552938290208351600c9095020193845582820151805191850191825591820151929392600284019062001231908262001637565b506040820151600282019062001248908262001637565b50606082015160038201906200125f908262001637565b506080820151600482015560a0820151600582015560c09091015160069091015560408201516008820180546001600160a01b0319166001600160a01b0390921691909117905560608201516009820190620012bc908262001637565b506080820151600a820190620012d3908262001637565b5060a09190910151600b909101805460ff19169115159190911790555050565b6040805160018082528183019092526060916000919060208083019080368337019050509050828160008151811062001330576200133062001725565b602090810291909101015292915050565b505050505050565b6001600160a01b0384163b15620013415760405163f23a6e6160e01b81526001600160a01b0385169063f23a6e619062001390908990899088908890889060040162001783565b6020604051808303816000875af1925050508015620013ce575060408051601f3d908101601f19168201909252620013cb91810190620017ca565b60015b6200148e57620013dd620017fd565b806308c379a0036200141d5750620013f462001849565b806200140157506200141f565b8060405162461bcd60e51b81526004016200078c9190620018d8565b505b60405162461bcd60e51b815260206004820152603460248201527f455243313135353a207472616e7366657220746f206e6f6e2d4552433131353560448201527f526563656976657220696d706c656d656e74657200000000000000000000000060648201526084016200078c565b6001600160e01b0319811663f23a6e6160e01b1462000c835760405162461bcd60e51b815260206004820152602860248201527f455243313135353a204552433131353552656365697665722072656a656374656044820152676420746f6b656e7360c01b60648201526084016200078c565b60006001600160a01b0383166200156e5760405162461bcd60e51b815260206004820152602a60248201527f455243313135353a2061646472657373207a65726f206973206e6f742061207660448201526930b634b21037bbb732b960b11b60648201526084016200078c565b5060008181526005602090815260408083206001600160a01b03861684529091529020545b92915050565b634e487b7160e01b600052604160045260246000fd5b600181811c90821680620015c457607f821691505b602082108103620015e557634e487b7160e01b600052602260045260246000fd5b50919050565b601f82111562000b67576000816000526020600020601f850160051c81016020861015620016165750805b601f850160051c820191505b81811015620013415782815560010162001622565b81516001600160401b0381111562001653576200165362001599565b6200166b81620016648454620015af565b84620015eb565b602080601f831160018114620016a357600084156200168a5750858301515b600019600386901b1c1916600185901b17855562001341565b600085815260208120601f198616915b82811015620016d457888601518255948401946001909101908401620016b3565b5085821015620016f35787850151600019600388901b60f8161c191681555b5050505050600190811b01905550565b808201808211156200159357634e487b7160e01b600052601160045260246000fd5b634e487b7160e01b600052603260045260246000fd5b6000815180845260005b81811015620017635760208185018101518683018201520162001745565b506000602082860101526020601f19601f83011685010191505092915050565b6001600160a01b03868116825285166020820152604081018490526060810183905260a060808201819052600090620017bf908301846200173b565b979650505050505050565b600060208284031215620017dd57600080fd5b81516001600160e01b031981168114620017f657600080fd5b9392505050565b600060033d1115620018175760046000803e5060005160e01c5b90565b601f8201601f191681016001600160401b038111828210171562001842576200184262001599565b6040525050565b600060443d1015620018585790565b6040516003193d81016004833e81513d6001600160401b0380831160248401831017156200188857505050505090565b8285019150815181811115620018a15750505050505090565b843d8701016020828501011115620018bc5750505050505090565b620018cd602082860101876200181a565b509095945050505050565b602081526000620017f660208301846200173b565b6157a780620018fd6000396000f3fe608060405234801561001057600080fd5b506004361061021b5760003560e01c806354965b8511610125578063dd62ed3e116100ad578063eb21565d1161007c578063eb21565d146104da578063ed6d5b3a146104ef578063eff92d4d14610502578063f242432a1461050a578063fa2c612b1461051d57600080fd5b8063dd62ed3e14610462578063de9375f214610475578063e6b922be1461048b578063e985e9c51461049e57600080fd5b806395d89b41116100f457806395d89b411461040c578063a22cb46514610414578063a457c2d714610427578063a9059cbb1461043a578063c64d369f1461044d57600080fd5b806354965b85146103a857806367b66251146103bb57806370228427146103d057806370a08231146103e357600080fd5b8063243adbdd116101a85780633950935111610177578063395093511461033c5780634084fbda1461034f57806342b8f5b5146103625780634e1273f4146103755780635208eb091461039557600080fd5b8063243adbdd146102f457806329f17f3c146103075780632eb2c2d61461031a578063313ce5671461032d57600080fd5b80630e89341c116101ef5780630e89341c14610291578063121c40ea146102a457806318160ddd146102b9578063211e2fbe146102c157806323b872dd146102e157600080fd5b8062fdd58e1461022057806301ffc9a71461024657806306fdde0314610269578063095ea7b31461027e575b600080fd5b61023361022e366004614656565b610530565b6040519081526020015b60405180910390f35b610259610254366004614696565b6105cb565b604051901515815260200161023d565b61027161061b565b60405161023d919061470a565b61025961028c366004614656565b6106ad565b61027161029f36600461471d565b6106c5565b6102b76102b23660046147eb565b610759565b005b600254610233565b6102d46102cf36600461471d565b6108b6565b60405161023d919061484e565b6102596102ef3660046148a6565b61093e565b6102b761030236600461471d565b610962565b6102b76103153660046148e2565b610d88565b6102b76103283660046149b7565b610f98565b604051600c815260200161023d565b61025961034a366004614656565b610fe4565b6102b761035d366004614a60565b611006565b6102b7610370366004614a9b565b611408565b610388610383366004614ab6565b61149a565b60405161023d9190614bb2565b6102b76103a3366004614bc5565b6115bb565b6102b76103b6366004614bc5565b611bbd565b6103c3611d59565b60405161023d9190614c5c565b6102b76103de366004614cd0565b612050565b6102336103f1366004614a9b565b6001600160a01b031660009081526020819052604090205490565b6102716121f5565b6102b7610422366004614d7a565b612204565b610259610435366004614656565b61220f565b610259610448366004614656565b61228a565b610455612298565b60405161023d9190614dad565b610233610470366004614e4e565b61251b565b61047d612546565b60405161023d929190614e78565b6102b7610499366004614ef1565b612789565b6102596104ac366004614e4e565b6001600160a01b03918216600090815260066020908152604080832093909416825291909152205460ff1690565b6104e26128b7565b60405161023d9190614f14565b6102b76104fd36600461504e565b612c6e565b6104e2612dbb565b6102b76105183660046150e7565b613219565b6102b761052b366004614ef1565b61325e565b60006001600160a01b0383166105a05760405162461bcd60e51b815260206004820152602a60248201527f455243313135353a2061646472657373207a65726f206973206e6f742061207660448201526930b634b21037bbb732b960b11b60648201526084015b60405180910390fd5b5060008181526005602090815260408083206001600160a01b03861684529091529020545b92915050565b60006001600160e01b03198216636cdb3d1360e11b14806105fc57506001600160e01b031982166303a24d0760e21b145b806105c557506301ffc9a760e01b6001600160e01b03198316146105c5565b60606003805461062a9061514b565b80601f01602080910402602001604051908101604052809291908181526020018280546106569061514b565b80156106a35780601f10610678576101008083540402835291602001916106a3565b820191906000526020600020905b81548152906001019060200180831161068657829003601f168201915b5050505050905090565b6000336106bb8185856138bb565b5060019392505050565b6060600780546106d49061514b565b80601f01602080910402602001604051908101604052809291908181526020018280546107009061514b565b801561074d5780601f106107225761010080835404028352916020019161074d565b820191906000526020600020905b81548152906001019060200180831161073057829003601f168201915b50505050509050919050565b600a546001600160a01b031633146107835760405162461bcd60e51b815260040161059790615185565b6040805160a08101825260095480825260208083018681528385018690528451600080825281840187526060860191909152855181815280840187526080860152928352601090915292902081518155915190919060018201906107e790826151f9565b50604082015160028201906107fc90826151f9565b5060608201518051610818916003840191602090910190614418565b5060808201518051610834916004840191602090910190614418565b5050600a546001600160a01b031660009081526013602052604081208054600193509091906108649084906152ce565b9091555050600a5460098054600090815260126020526040812080546001600160a01b0319166001600160a01b03909416939093179092558054600192906108ad9084906152ce565b90915550505050565b606060146000838152602001908152602001600020805480602002602001604051908101604052809291908181526020016000905b82821015610933576000848152602090819020604080518082019091526002850290910180546001600160a01b031682526001908101548284015290835290920191016108eb565b505050509050919050565b60003361094c8582856139e0565b610957858585613a5a565b506001949350505050565b600f5481106109835760405162461bcd60e51b8152600401610597906152e1565b6000600f828154811061099857610998615305565b6000918252602082206008600c909202010154600f80546001600160a01b03909216935090849081106109cd576109cd615305565b90600052602060002090600c020160010160040154905080610a04336001600160a01b031660009081526020819052604090205490565b10158015610a1b5750336001600160a01b03831614155b610a675760405162461bcd60e51b815260206004820152601f60248201527f6e6f74206d6f6e6579206f7220796f75206f776e65722074686973206e6674006044820152606401610597565b610a72338383613a5a565b610adc8233600f8681548110610a8a57610a8a615305565b90600052602060002090600c020160010160000154600f8781548110610ab257610ab2615305565b90600052602060002090600c02016001016005015460405180602001604052806000815250613bfe565b336000908152600e60205260408120805460019290610afc9084906152ce565b90915550506001600160a01b0382166000908152600e60205260408120805460019290610b2a90849061531b565b925050819055506000600d6000600f8681548110610b4a57610b4a615305565b600091825260208083206001600c90930201820154845283019390935260409091019020805492151560ff1990931692909217909155600f80548592610b8f9161531b565b81548110610b9f57610b9f615305565b60009182526020909120600c9091020155600f8054610bc09060019061531b565b81548110610bd057610bd0615305565b90600052602060002090600c0201600f8481548110610bf157610bf1615305565b600091825260209091208254600c909202019081556001808301805491830191825590600280840190610c269086018261532e565b50600281810190610c399084018261532e565b50600381810190610c4c9084018261532e565b50600482810154908201556005808301549082015560069182015491015560088281015490820180546001600160a01b0319166001600160a01b03909216919091179055600980820190610ca29084018261532e565b50600a81810190610cb59084018261532e565b50600b918201549101805460ff191660ff9092161515919091179055600f805480610ce257610ce2615400565b600082815260208120600c600019909301928302018181556001810182815590919081610d126002850182614463565b610d20600283016000614463565b610d2e600383016000614463565b506000600482018190556005820181905560069091018190556008830180546001600160a01b0319169055610d67906009840190614463565b610d75600a83016000614463565b50600b01805460ff191690559055505050565b3360009081526016602052604090206004015460ff16158015610dcb5750601781604051610db69190615416565b9081526040519081900360200190205460ff16155b610e3d5760405162461bcd60e51b815260206004820152603760248201527f796f7520616c7265616479206163746976652072656620636f6465206f72207460448201527f68697320636f646520616c7265616479206163746976650000000000000000006064820152608401610597565b336000908152601660209081526040918290209151610e60926001019101615432565b6040516020818303038152906040528051906020012081604051602001610e87919061470a565b6040516020818303038152906040528051906020012003610ede5760405162461bcd60e51b81526020600482015260116024820152707468697320796f752072656620636f646560781b6044820152606401610597565b3360009081526016602052604090819020600401805460ff191660019081179091559051601790610f10908490615416565b908152604051908190036020019020805491151560ff19909216919091179055610f3b336064613d2c565b600a546001600160a01b031660009081526016602052604090206003908101541015610f9557600a546001600160a01b03166000908152601660205260408120600301805460019290610f8f9084906152ce565b90915550505b50565b6001600160a01b038516331480610fb45750610fb485336104ac565b610fd05760405162461bcd60e51b8152600401610597906154c2565b610fdd8585858585613deb565b5050505050565b6000336106bb818585610ff7838361251b565b61100191906152ce565b6138bb565b600a546001600160a01b031633146110305760405162461bcd60e51b815260040161059790615185565b60095485106110515760405162461bcd60e51b8152600401610597906152e1565b60008581526011602052604090205460ff16156110b05760405162461bcd60e51b815260206004820152601c60248201527f7468697320636f6c6c656374696f6e20616c72656164792073656c6c000000006044820152606401610597565b601580546000908152601460209081526040808320815180830183528481528084018581528254600180820185559387528587209251600290910290920180546001600160a01b0319166001600160a01b039093169290921782555190820155815160c081018352855481528a85526010845293829020825160a08101909352805483529081018054858501948401919061114a9061514b565b80601f01602080910402602001604051908101604052809291908181526020018280546111769061514b565b80156111c35780601f10611198576101008083540402835291602001916111c3565b820191906000526020600020905b8154815290600101906020018083116111a657829003601f168201915b505050505081526020016002820180546111dc9061514b565b80601f01602080910402602001604051908101604052809291908181526020018280546112089061514b565b80156112555780601f1061122a57610100808354040283529160200191611255565b820191906000526020600020905b81548152906001019060200180831161123857829003601f168201915b50505050508152602001600382018054806020026020016040519081016040528092919081815260200182805480156112ad57602002820191906000526020600020905b815481526020019060010190808311611299575b505050505081526020016004820180548060200260200160405190810160405280929190818152602001828054801561130557602002820191906000526020600020905b8154815260200190600101908083116112f1575b5050509190925250505081526020808201889052604082018790526060820186905260809091018490528254600181810185556000948552938290208351600a909202019081558282015180519482019485559182015192939092600284019061136f90826151f9565b506040820151600282019061138490826151f9565b50606082015180516113a0916003840191602090910190614418565b50608082015180516113bc916004840191602090910190614418565b5050506040828101516006830155606083015160078301556080830151600883015560a09092015160099091015560009586526011602052909420805460ff1916600117905550505050565b6001600160a01b038116331480159061142957506001600160a01b03811615155b6114675760405162461bcd60e51b815260206004820152600f60248201526e696e76616c6964206164647265737360881b6044820152606401610597565b336000908152601660205260408082206001600160a01b0384168352912060020190611496906001018261532e565b5050565b606081518351146114ff5760405162461bcd60e51b815260206004820152602960248201527f455243313135353a206163636f756e747320616e6420696473206c656e677468604482015268040dad2e6dac2e8c6d60bb1b6064820152608401610597565b600083516001600160401b0381111561151a5761151a614736565b604051908082528060200260200182016040528015611543578160200160208202803683370190505b50905060005b84518110156115b35761158e85828151811061156757611567615305565b602002602001015185838151811061158157611581615305565b6020026020010151610530565b8282815181106115a0576115a0615305565b6020908102919091010152600101611549565b509392505050565b600081116115fb5760405162461bcd60e51b815260206004820152600d60248201526c696e76616c696420707269636560981b6044820152606401610597565b60085482111561161d5760405162461bcd60e51b8152600401610597906152e1565b6000828152600d602052604090205460ff16158015611645575060006116433384610530565b115b6116ad5760405162461bcd60e51b815260206004820152603360248201527f74686973206e667420616c72656164792073656c6c206f7220796f7520617265604482015272081b9bdd081bdddb995c881d1a1a5cc81b999d606a1b6064820152608401610597565b6000828152600c60205260409020541561171b57600a546001600160a01b0316330361171b5760405162461bcd60e51b815260206004820152601960248201527f796f752063616e206e6f742073656c6c2074686973206e6674000000000000006044820152606401610597565b6000828152600b6020818152604080842060048101869055600d8352818520805460ff19166001908117909155825160c081018452600f8054825296899052948452825160e081019093528154835281018054858501948401919061177f9061514b565b80601f01602080910402602001604051908101604052809291908181526020018280546117ab9061514b565b80156117f85780601f106117cd576101008083540402835291602001916117f8565b820191906000526020600020905b8154815290600101906020018083116117db57829003601f168201915b505050505081526020016002820180546118119061514b565b80601f016020809104026020016040519081016040528092919081815260200182805461183d9061514b565b801561188a5780601f1061185f5761010080835404028352916020019161188a565b820191906000526020600020905b81548152906001019060200180831161186d57829003601f168201915b505050505081526020016003820180546118a39061514b565b80601f01602080910402602001604051908101604052809291908181526020018280546118cf9061514b565b801561191c5780601f106118f15761010080835404028352916020019161191c565b820191906000526020600020905b8154815290600101906020018083116118ff57829003601f168201915b5050505050815260200160048201548152602001600582015481526020016006820154815250508152602001336001600160a01b0316815260200160106000600c6000888152602001908152602001600020548152602001908152602001600020600101805461198b9061514b565b80601f01602080910402602001604051908101604052809291908181526020018280546119b79061514b565b8015611a045780601f106119d957610100808354040283529160200191611a04565b820191906000526020600020905b8154815290600101906020018083116119e757829003601f168201915b50505091835250506000858152600c60209081526040808320548352601082529091206002018054919092019190611a3b9061514b565b80601f0160208091040260200160405190810160405280929190818152602001828054611a679061514b565b8015611ab45780601f10611a8957610100808354040283529160200191611ab4565b820191906000526020600020905b815481529060010190602001808311611a9757829003601f168201915b505050918352505060016020918201819052835480820185556000948552938290208351600c90950201938455828201518051918501918255918201519293926002840190611b0390826151f9565b5060408201516002820190611b1890826151f9565b5060608201516003820190611b2d90826151f9565b506080820151600482015560a0820151600582015560c09091015160069091015560408201516008820180546001600160a01b0319166001600160a01b0390921691909117905560608201516009820190611b8890826151f9565b506080820151600a820190611b9d90826151f9565b5060a09190910151600b909101805460ff19169115159190911790555050565b6015548210611bde5760405162461bcd60e51b8152600401610597906152e1565b60158281548110611bf157611bf1615305565b90600052602060002090600a0201600801548110158015611c36575060158281548110611c2057611c20615305565b90600052602060002090600a0201600901548111155b8015611c7e575060008281526014602052604090208054611c599060019061531b565b81548110611c6957611c69615305565b90600052602060002090600202016001015481115b611cb85760405162461bcd60e51b815260206004820152600b60248201526a1a5b9d985b1a590818995d60aa1b6044820152606401610597565b60008281526014602090815260408083208151808301909252338252818301858152815460018082018455928652939094209151600290930290910180546001600160a01b0319166001600160a01b0390931692909217825591519101556015805483908110611d2a57611d2a615305565b90600052602060002090600a020160090154810361149657600a546114969083906001600160a01b031661325e565b33600090815260136020526040812054606091906001600160401b03811115611d8457611d84614736565b604051908082528060200260200182016040528015611de757816020015b611dd46040518060a0016040528060008152602001606081526020016060815260200160608152602001606081525090565b815260200190600190039081611da25790505b509050600060015b60095481101561204857600081815260126020526040902054336001600160a01b039091160361204057601060008281526020019081526020016000206040518060a001604052908160008201548152602001600182018054611e519061514b565b80601f0160208091040260200160405190810160405280929190818152602001828054611e7d9061514b565b8015611eca5780601f10611e9f57610100808354040283529160200191611eca565b820191906000526020600020905b815481529060010190602001808311611ead57829003601f168201915b50505050508152602001600282018054611ee39061514b565b80601f0160208091040260200160405190810160405280929190818152602001828054611f0f9061514b565b8015611f5c5780601f10611f3157610100808354040283529160200191611f5c565b820191906000526020600020905b815481529060010190602001808311611f3f57829003601f168201915b5050505050815260200160038201805480602002602001604051908101604052809291908181526020018280548015611fb457602002820191906000526020600020905b815481526020019060010190808311611fa0575b505050505081526020016004820180548060200260200160405190810160405280929190818152602001828054801561200c57602002820191906000526020600020905b815481526020019060010190808311611ff8575b50505050508152505083838151811061202757612027615305565b602090810291909101015261203d6001836152ce565b91505b600101611def565b509092915050565b600a546001600160a01b0316331461207a5760405162461bcd60e51b815260040161059790615185565b600082116120bb5760405162461bcd60e51b815260206004820152600e60248201526d1a5b9d985b1a5908185b5bdd5b9d60921b6044820152606401610597565b600a546008546040805160208101909152600081526120e6926001600160a01b031691908590613fc4565b6040805160e08101825260085480825260208083018a81528385018a9052606084018990526080840188905260a084018790524260c08501526000928352600b909152929020815181559151909190600182019061214490826151f9565b506040820151600282019061215990826151f9565b506060820151600382019061216e90826151f9565b506080820151600482015560a0820151600582015560c090910151600690910155600a546001600160a01b03166000908152600e602052604081208054600192906121ba9084906152ce565b90915550508015156001036121d5576121d5600854846115bb565b6001600860008282546121e891906152ce565b9091555050505050505050565b60606004805461062a9061514b565b6114963383836140da565b6000338161221d828661251b565b90508381101561227d5760405162461bcd60e51b815260206004820152602560248201527f45524332303a2064656372656173656420616c6c6f77616e63652062656c6f77604482015264207a65726f60d81b6064820152608401610597565b61095782868684036138bb565b6000336106bb818585613a5a565b60606015805480602002602001604051908101604052809291908181526020016000905b8282101561251257838290600052602060002090600a02016040518060c001604052908160008201548152602001600182016040518060a0016040529081600082015481526020016001820180546123139061514b565b80601f016020809104026020016040519081016040528092919081815260200182805461233f9061514b565b801561238c5780601f106123615761010080835404028352916020019161238c565b820191906000526020600020905b81548152906001019060200180831161236f57829003601f168201915b505050505081526020016002820180546123a59061514b565b80601f01602080910402602001604051908101604052809291908181526020018280546123d19061514b565b801561241e5780601f106123f35761010080835404028352916020019161241e565b820191906000526020600020905b81548152906001019060200180831161240157829003601f168201915b505050505081526020016003820180548060200260200160405190810160405280929190818152602001828054801561247657602002820191906000526020600020905b815481526020019060010190808311612462575b50505050508152602001600482018054806020026020016040519081016040528092919081815260200182805480156124ce57602002820191906000526020600020905b8154815260200190600101908083116124ba575b5050505050815250508152602001600682015481526020016007820154815260200160088201548152602001600982015481525050815260200190600101906122bc565b50505050905090565b6001600160a01b03918216600090815260016020908152604080832093909416825291909152205490565b61257a6040518060a00160405280606081526020016060815260200160608152602001600081526020016000151581525090565b33600090815260166020526040808220815160a081019092528054829082906125a29061514b565b80601f01602080910402602001604051908101604052809291908181526020018280546125ce9061514b565b801561261b5780601f106125f05761010080835404028352916020019161261b565b820191906000526020600020905b8154815290600101906020018083116125fe57829003601f168201915b505050505081526020016001820180546126349061514b565b80601f01602080910402602001604051908101604052809291908181526020018280546126609061514b565b80156126ad5780601f10612682576101008083540402835291602001916126ad565b820191906000526020600020905b81548152906001019060200180831161269057829003601f168201915b505050505081526020016002820180546126c69061514b565b80601f01602080910402602001604051908101604052809291908181526020018280546126f29061514b565b801561273f5780601f106127145761010080835404028352916020019161273f565b820191906000526020600020905b81548152906001019060200180831161272257829003601f168201915b50505091835250506003820154602082015260049091015460ff1615156040909101529150612783336001600160a01b031660009081526020819052604090205490565b90509091565b60085482106127aa5760405162461bcd60e51b8152600401610597906152e1565b60006127b63384610530565b1180156127d257506000828152600d602052604090205460ff16155b6128445760405162461bcd60e51b815260206004820152603760248201527f796f7520617265206e6f74206f776e6572207468697320746f6b656e206f722060448201527f7468697320746f6b656e20616c72656164792073656c6c0000000000000000006064820152608401610597565b6128693382846128543387610530565b60405180602001604052806000815250613bfe565b336000908152600e6020526040812080546001929061288990849061531b565b90915550506001600160a01b0381166000908152600e602052604081208054600192906108ad9084906152ce565b6060600f805480602002602001604051908101604052809291908181526020016000905b8282101561251257838290600052602060002090600c02016040518060c001604052908160008201548152602001600182016040518060e0016040529081600082015481526020016001820180546129329061514b565b80601f016020809104026020016040519081016040528092919081815260200182805461295e9061514b565b80156129ab5780601f10612980576101008083540402835291602001916129ab565b820191906000526020600020905b81548152906001019060200180831161298e57829003601f168201915b505050505081526020016002820180546129c49061514b565b80601f01602080910402602001604051908101604052809291908181526020018280546129f09061514b565b8015612a3d5780601f10612a1257610100808354040283529160200191612a3d565b820191906000526020600020905b815481529060010190602001808311612a2057829003601f168201915b50505050508152602001600382018054612a569061514b565b80601f0160208091040260200160405190810160405280929190818152602001828054612a829061514b565b8015612acf5780601f10612aa457610100808354040283529160200191612acf565b820191906000526020600020905b815481529060010190602001808311612ab257829003601f168201915b50505050508152602001600482015481526020016005820154815260200160068201548152505081526020016008820160009054906101000a90046001600160a01b03166001600160a01b03166001600160a01b03168152602001600982018054612b399061514b565b80601f0160208091040260200160405190810160405280929190818152602001828054612b659061514b565b8015612bb25780601f10612b8757610100808354040283529160200191612bb2565b820191906000526020600020905b815481529060010190602001808311612b9557829003601f168201915b50505050508152602001600a82018054612bcb9061514b565b80601f0160208091040260200160405190810160405280929190818152602001828054612bf79061514b565b8015612c445780601f10612c1957610100808354040283529160200191612c44565b820191906000526020600020905b815481529060010190602001808311612c2757829003601f168201915b5050509183525050600b919091015460ff16151560209182015290825260019290920191016128db565b600a546001600160a01b03163314612c985760405162461bcd60e51b815260040161059790615185565b6009548510612cb95760405162461bcd60e51b8152600401610597906152e1565b60008581526011602052604090205460ff1615612d185760405162461bcd60e51b815260206004820152601c60248201527f7468697320636f6c6c656374696f6e20616c72656164792073656c6c000000006044820152606401610597565b60008111612d595760405162461bcd60e51b815260206004820152600e60248201526d1a5b9d985b1a5908185b5bdd5b9d60921b6044820152606401610597565b6000858152601060209081526040808320600880546003830180546001818101835591885286882001919091556004909201805492830181558552838520909101859055548352600c9091528120869055610fdd908590859085908581612050565b336000908152600e6020526040812054606091906001600160401b03811115612de657612de6614736565b604051908082528060200260200182016040528015612e1f57816020015b612e0c61449d565b815260200190600190039081612e045790505b5090506000805b600854811015612048576000612e3c3383610530565b1115613211576040518060c0016040528060008152602001600b60008481526020019081526020016000206040518060e001604052908160008201548152602001600182018054612e8c9061514b565b80601f0160208091040260200160405190810160405280929190818152602001828054612eb89061514b565b8015612f055780601f10612eda57610100808354040283529160200191612f05565b820191906000526020600020905b815481529060010190602001808311612ee857829003601f168201915b50505050508152602001600282018054612f1e9061514b565b80601f0160208091040260200160405190810160405280929190818152602001828054612f4a9061514b565b8015612f975780601f10612f6c57610100808354040283529160200191612f97565b820191906000526020600020905b815481529060010190602001808311612f7a57829003601f168201915b50505050508152602001600382018054612fb09061514b565b80601f0160208091040260200160405190810160405280929190818152602001828054612fdc9061514b565b80156130295780601f10612ffe57610100808354040283529160200191613029565b820191906000526020600020905b81548152906001019060200180831161300c57829003601f168201915b505050505081526020016004820154815260200160058201548152602001600682015481525050815260200160006001600160a01b0316815260200160106000600c600086815260200190815260200160002054815260200190815260200160002060010180546130999061514b565b80601f01602080910402602001604051908101604052809291908181526020018280546130c59061514b565b80156131125780601f106130e757610100808354040283529160200191613112565b820191906000526020600020905b8154815290600101906020018083116130f557829003601f168201915b50505091835250506000838152600c602090815260408083205483526010825290912060020180549190920191906131499061514b565b80601f01602080910402602001604051908101604052809291908181526020018280546131759061514b565b80156131c25780601f10613197576101008083540402835291602001916131c2565b820191906000526020600020905b8154815290600101906020018083116131a557829003601f168201915b50505091835250506000838152600d602090815260409091205460ff16151591015283518490849081106131f8576131f8615305565b602090810291909101015261320e6001836152ce565b91505b600101612e26565b6001600160a01b038516331480613235575061323585336104ac565b6132515760405162461bcd60e51b8152600401610597906154c2565b610fdd8585858585613bfe565b600a546001600160a01b038281169116146132af5760405162461bcd60e51b81526020600482015260116024820152703cb7ba9030b932903737ba1027bbb732b960791b6044820152606401610597565b60155482106132d05760405162461bcd60e51b8152600401610597906152e1565b600082815260146020526040812080546132ec9060019061531b565b815481106132fc576132fc615305565b6000918252602080832060029092029091015485835260149091526040822080546001600160a01b039092169350906133379060019061531b565b8154811061334757613347615305565b906000526020600020906002020160010154905060006015858154811061337057613370615305565b90600052602060002090600a02016001016040518060a0016040529081600082015481526020016001820180546133a69061514b565b80601f01602080910402602001604051908101604052809291908181526020018280546133d29061514b565b801561341f5780601f106133f45761010080835404028352916020019161341f565b820191906000526020600020905b81548152906001019060200180831161340257829003601f168201915b505050505081526020016002820180546134389061514b565b80601f01602080910402602001604051908101604052809291908181526020018280546134649061514b565b80156134b15780601f10613486576101008083540402835291602001916134b1565b820191906000526020600020905b81548152906001019060200180831161349457829003601f168201915b505050505081526020016003820180548060200260200160405190810160405280929190818152602001828054801561350957602002820191906000526020600020905b8154815260200190600101908083116134f5575b505050505081526020016004820180548060200260200160405190810160405280929190818152602001828054801561356157602002820191906000526020600020905b81548152602001906001019080831161354d575b505050919092525050600a54919250613586918591506001600160a01b031684613a5a565b600a54606082015160808301516040805160208101909152600081526135b9936001600160a01b03169287929091613deb565b606081015151600a546001600160a01b03166000908152600e6020526040812080549091906135e990849061531b565b90915550506060810151516001600160a01b0384166000908152600e60205260408120805490919061361c9084906152ce565b90915550508051600090815260126020908152604080832080546001600160a01b0319166001600160a01b0388811691909117909155600a541683526013909152812080546001929061367090849061531b565b90915550506001600160a01b038316600090815260136020526040812080546001929061369e9084906152ce565b90915550506015546014906000906136b89060019061531b565b81526020808201929092526040908101600090812088825260149093522081546136e29290614510565b50601580548691906136f69060019061531b565b8154811061370657613706615305565b60009182526020909120600a9091020155601580546137279060019061531b565b8154811061373757613737615305565b90600052602060002090600a02016015868154811061375857613758615305565b600091825260209091208254600a90920201908155600180830180549183019182559060028084019061378d9086018261532e565b506002818101906137a09084018261532e565b50600382810180546137b59284019190614584565b50600482810180546137ca9284019190614584565b5050506006828101549082015560078083015490820155600880830154908201556009918201549101556015546014906000906138099060019061531b565b8152602001908152602001600020600061382391906145c4565b601580548061383457613834615400565b600082815260208120600a6000199093019283020181815560018101828155909190816138646002850182614463565b613872600283016000614463565b6138806003830160006145e5565b61388e6004830160006145e5565b50506006820160009055600782016000905560088201600090556009820160009055505090555050505050565b6001600160a01b03831661391d5760405162461bcd60e51b8152602060048201526024808201527f45524332303a20617070726f76652066726f6d20746865207a65726f206164646044820152637265737360e01b6064820152608401610597565b6001600160a01b03821661397e5760405162461bcd60e51b815260206004820152602260248201527f45524332303a20617070726f766520746f20746865207a65726f206164647265604482015261737360f01b6064820152608401610597565b6001600160a01b0383811660008181526001602090815260408083209487168084529482529182902085905590518481527f8c5be1e5ebec7d5bd14f71427d1e84f3dd0314c0f7b2291e5b200ac8c7c3b92591015b60405180910390a3505050565b60006139ec848461251b565b90506000198114613a545781811015613a475760405162461bcd60e51b815260206004820152601d60248201527f45524332303a20696e73756666696369656e7420616c6c6f77616e63650000006044820152606401610597565b613a5484848484036138bb565b50505050565b6001600160a01b038316613abe5760405162461bcd60e51b815260206004820152602560248201527f45524332303a207472616e736665722066726f6d20746865207a65726f206164604482015264647265737360d81b6064820152608401610597565b6001600160a01b038216613b205760405162461bcd60e51b815260206004820152602360248201527f45524332303a207472616e7366657220746f20746865207a65726f206164647260448201526265737360e81b6064820152608401610597565b6001600160a01b03831660009081526020819052604090205481811015613b985760405162461bcd60e51b815260206004820152602660248201527f45524332303a207472616e7366657220616d6f756e7420657863656564732062604482015265616c616e636560d01b6064820152608401610597565b6001600160a01b03848116600081815260208181526040808320878703905593871680835291849020805487019055925185815290927fddf252ad1be2c89b69c2b068fc378daa952ba7f163c4a11628f55a4df523b3ef910160405180910390a3613a54565b6001600160a01b038416613c245760405162461bcd60e51b815260040161059790615510565b336000613c30856141b7565b90506000613c3d856141b7565b905060008681526005602090815260408083206001600160a01b038c16845290915290205485811015613c825760405162461bcd60e51b815260040161059790615555565b60008781526005602090815260408083206001600160a01b038d8116855292528083208985039055908a16825281208054889290613cc19084906152ce565b909155505060408051888152602081018890526001600160a01b03808b16928c821692918816917fc3d58168c5ae7397731d063d5bbf3d657854427343f4c083240f7aacaa2d0f62910160405180910390a4613d21848a8a8a8a8a614202565b505050505050505050565b6001600160a01b038216613d825760405162461bcd60e51b815260206004820152601f60248201527f45524332303a206d696e7420746f20746865207a65726f2061646472657373006044820152606401610597565b8060026000828254613d9491906152ce565b90915550506001600160a01b038216600081815260208181526040808320805486019055518481527fddf252ad1be2c89b69c2b068fc378daa952ba7f163c4a11628f55a4df523b3ef910160405180910390a35050565b8151835114613e4d5760405162461bcd60e51b815260206004820152602860248201527f455243313135353a2069647320616e6420616d6f756e7473206c656e677468206044820152670dad2e6dac2e8c6d60c31b6064820152608401610597565b6001600160a01b038416613e735760405162461bcd60e51b815260040161059790615510565b3360005b8451811015613f56576000858281518110613e9457613e94615305565b602002602001015190506000858381518110613eb257613eb2615305565b60209081029190910181015160008481526005835260408082206001600160a01b038e168352909352919091205490915081811015613f035760405162461bcd60e51b815260040161059790615555565b60008381526005602090815260408083206001600160a01b038e8116855292528083208585039055908b16825281208054849290613f429084906152ce565b909155505060019093019250613e77915050565b50846001600160a01b0316866001600160a01b0316826001600160a01b03167f4a39dc06d4c0dbc64b70af90fd698a233a518aa5d07e595d983b8c0526c8f7fb8787604051613fa692919061559f565b60405180910390a4613fbc81878787878761435d565b505050505050565b6001600160a01b0384166140245760405162461bcd60e51b815260206004820152602160248201527f455243313135353a206d696e7420746f20746865207a65726f206164647265736044820152607360f81b6064820152608401610597565b336000614030856141b7565b9050600061403d856141b7565b905060008681526005602090815260408083206001600160a01b038b168452909152812080548792906140719084906152ce565b909155505060408051878152602081018790526001600160a01b03808a1692600092918716917fc3d58168c5ae7397731d063d5bbf3d657854427343f4c083240f7aacaa2d0f62910160405180910390a46140d183600089898989614202565b50505050505050565b816001600160a01b0316836001600160a01b03160361414d5760405162461bcd60e51b815260206004820152602960248201527f455243313135353a2073657474696e6720617070726f76616c20737461747573604482015268103337b91039b2b63360b91b6064820152608401610597565b6001600160a01b03838116600081815260066020908152604080832094871680845294825291829020805460ff191686151590811790915591519182527f17307eab39ab6107e8899845ad3d59bd9653f200f220920489ca2b5937696c3191016139d3565b505050565b604080516001808252818301909252606091600091906020808301908036833701905050905082816000815181106141f1576141f1615305565b602090810291909101015292915050565b6001600160a01b0384163b15613fbc5760405163f23a6e6160e01b81526001600160a01b0385169063f23a6e619061424690899089908890889088906004016155c4565b6020604051808303816000875af1925050508015614281575060408051601f3d908101601f1916820190925261427e91810190615609565b60015b61432d5761428d615626565b806308c379a0036142c657506142a1615642565b806142ac57506142c8565b8060405162461bcd60e51b8152600401610597919061470a565b505b60405162461bcd60e51b815260206004820152603460248201527f455243313135353a207472616e7366657220746f206e6f6e2d455243313135356044820152732932b1b2b4bb32b91034b6b83632b6b2b73a32b960611b6064820152608401610597565b6001600160e01b0319811663f23a6e6160e01b146140d15760405162461bcd60e51b8152600401610597906156cb565b6001600160a01b0384163b15613fbc5760405163bc197c8160e01b81526001600160a01b0385169063bc197c81906143a19089908990889088908890600401615713565b6020604051808303816000875af19250505080156143dc575060408051601f3d908101601f191682019092526143d991810190615609565b60015b6143e85761428d615626565b6001600160e01b0319811663bc197c8160e01b146140d15760405162461bcd60e51b8152600401610597906156cb565b828054828255906000526020600020908101928215614453579160200282015b82811115614453578251825591602001919060010190614438565b5061445f9291506145ff565b5090565b50805461446f9061514b565b6000825580601f1061447f575050565b601f016020900490600052602060002090810190610f9591906145ff565b6040518060c00160405280600081526020016144ef6040518060e00160405280600081526020016060815260200160608152602001606081526020016000815260200160008152602001600081525090565b81526000602082018190526060604083018190528083015260809091015290565b8280548282559060005260206000209060020281019282156145785760005260206000209160020282015b8281111561457857825482546001600160a01b0319166001600160a01b03909116178255600180840154908301556002928301929091019061453b565b5061445f929150614614565b8280548282559060005260206000209081019282156144535760005260206000209182015b828111156144535782548255916001019190600101906145a9565b5080546000825560020290600052602060002090810190610f959190614614565b5080546000825590600052602060002090810190610f9591905b5b8082111561445f5760008155600101614600565b5b8082111561445f5780546001600160a01b031916815560006001820155600201614615565b80356001600160a01b038116811461465157600080fd5b919050565b6000806040838503121561466957600080fd5b6146728361463a565b946020939093013593505050565b6001600160e01b031981168114610f9557600080fd5b6000602082840312156146a857600080fd5b81356146b381614680565b9392505050565b60005b838110156146d55781810151838201526020016146bd565b50506000910152565b600081518084526146f68160208601602086016146ba565b601f01601f19169290920160200192915050565b6020815260006146b360208301846146de565b60006020828403121561472f57600080fd5b5035919050565b634e487b7160e01b600052604160045260246000fd5b601f8201601f191681016001600160401b038111828210171561477157614771614736565b6040525050565b600082601f83011261478957600080fd5b81356001600160401b038111156147a2576147a2614736565b6040516147b9601f8301601f19166020018261474c565b8181528460208386010111156147ce57600080fd5b816020850160208301376000918101602001919091529392505050565b600080604083850312156147fe57600080fd5b82356001600160401b038082111561481557600080fd5b61482186838701614778565b9350602085013591508082111561483757600080fd5b5061484485828601614778565b9150509250929050565b602080825282518282018190526000919060409081850190868401855b8281101561489957815180516001600160a01b0316855286015186850152928401929085019060010161486b565b5091979650505050505050565b6000806000606084860312156148bb57600080fd5b6148c48461463a565b92506148d26020850161463a565b9150604084013590509250925092565b6000602082840312156148f457600080fd5b81356001600160401b0381111561490a57600080fd5b61491684828501614778565b949350505050565b60006001600160401b0382111561493757614937614736565b5060051b60200190565b600082601f83011261495257600080fd5b8135602061495f8261491e565b60405161496c828261474c565b80915083815260208101915060208460051b87010193508684111561499057600080fd5b602086015b848110156149ac5780358352918301918301614995565b509695505050505050565b600080600080600060a086880312156149cf57600080fd5b6149d88661463a565b94506149e66020870161463a565b935060408601356001600160401b0380821115614a0257600080fd5b614a0e89838a01614941565b94506060880135915080821115614a2457600080fd5b614a3089838a01614941565b93506080880135915080821115614a4657600080fd5b50614a5388828901614778565b9150509295509295909350565b600080600080600060a08688031215614a7857600080fd5b505083359560208501359550604085013594606081013594506080013592509050565b600060208284031215614aad57600080fd5b6146b38261463a565b60008060408385031215614ac957600080fd5b82356001600160401b0380821115614ae057600080fd5b818501915085601f830112614af457600080fd5b81356020614b018261491e565b604051614b0e828261474c565b83815260059390931b8501820192828101915089841115614b2e57600080fd5b948201945b83861015614b5357614b448661463a565b82529482019490820190614b33565b96505086013592505080821115614b6957600080fd5b5061484485828601614941565b60008151808452602080850194506020840160005b83811015614ba757815187529582019590820190600101614b8b565b509495945050505050565b6020815260006146b36020830184614b76565b60008060408385031215614bd857600080fd5b50508035926020909101359150565b805182526000602082015160a06020850152614c0660a08501826146de565b905060408301518482036040860152614c1f82826146de565b91505060608301518482036060860152614c398282614b76565b91505060808301518482036080860152614c538282614b76565b95945050505050565b600060208083016020845280855180835260408601915060408160051b87010192506020870160005b82811015614cb357603f19888603018452614ca1858351614be7565b94509285019290850190600101614c85565b5092979650505050505050565b8035801515811461465157600080fd5b60008060008060008060c08789031215614ce957600080fd5b86356001600160401b0380821115614d0057600080fd5b614d0c8a838b01614778565b97506020890135915080821115614d2257600080fd5b614d2e8a838b01614778565b96506040890135915080821115614d4457600080fd5b50614d5189828a01614778565b9450506060870135925060808701359150614d6e60a08801614cc0565b90509295509295509295565b60008060408385031215614d8d57600080fd5b614d968361463a565b9150614da460208401614cc0565b90509250929050565b600060208083018184528085518083526040925060408601915060408160051b87010184880160005b83811015614e4057603f19898403018552815160c08151855288820151818a870152614e0482870182614be7565b838a0151878b0152606080850151908801526080808501519088015260a093840151939096019290925250509386019390860190600101614dd6565b509098975050505050505050565b60008060408385031215614e6157600080fd5b614e6a8361463a565b9150614da46020840161463a565b604081526000835160a06040840152614e9460e08401826146de565b90506020850151603f1980858403016060860152614eb283836146de565b9250604087015191508085840301608086015250614ed082826146de565b606087015160a0860152608090960151151560c08501525050506020015290565b60008060408385031215614f0457600080fd5b82359150614da46020840161463a565b600060208083018184528085518083526040925060408601915060408160051b87010184880160005b83811015614e4057603f19898403018552815160c08151855288820151818a8701528051828701528981015160e0808189015250614f7f6101a08801826146de565b90508982015160bf1980898403016101008a0152614f9d83836146de565b92506060915081840151818a8503016101208b0152614fbc84826146de565b935050506080808401516101408a015260a0808501516101608b0152858501516101808b01528c8701519550614ffc8d8b01876001600160a01b03169052565b828701519550898403838b015261501384876146de565b9550818701519450898603828b015261502c86866146de565b9681015115159901989098525050509588019550925090860190600101614f3d565b600080600080600060a0868803121561506657600080fd5b8535945060208601356001600160401b038082111561508457600080fd5b61509089838a01614778565b955060408801359150808211156150a657600080fd5b6150b289838a01614778565b945060608801359150808211156150c857600080fd5b506150d588828901614778565b95989497509295608001359392505050565b600080600080600060a086880312156150ff57600080fd5b6151088661463a565b94506151166020870161463a565b9350604086013592506060860135915060808601356001600160401b0381111561513f57600080fd5b614a5388828901614778565b600181811c9082168061515f57607f821691505b60208210810361517f57634e487b7160e01b600052602260045260246000fd5b50919050565b602080825260129082015271796f7520617265206e6f74204f776e65722160701b604082015260600190565b601f8211156141b2576000816000526020600020601f850160051c810160208610156151da5750805b601f850160051c820191505b81811015613fbc578281556001016151e6565b81516001600160401b0381111561521257615212614736565b61522681615220845461514b565b846151b1565b602080601f83116001811461525b57600084156152435750858301515b600019600386901b1c1916600185901b178555613fbc565b600085815260208120601f198616915b8281101561528a5788860151825594840194600190910190840161526b565b50858210156152a85787850151600019600388901b60f8161c191681555b5050505050600190811b01905550565b634e487b7160e01b600052601160045260246000fd5b808201808211156105c5576105c56152b8565b6020808252600a90820152691a5b9d985b1a59081a5960b21b604082015260600190565b634e487b7160e01b600052603260045260246000fd5b818103818111156105c5576105c56152b8565b818103615339575050565b615343825461514b565b6001600160401b0381111561535a5761535a614736565b61536881615220845461514b565b6000601f82116001811461539c57600083156153845750848201545b600019600385901b1c1916600184901b178455610fdd565b600085815260209020601f19841690600086815260209020845b838110156153d657828601548255600195860195909101906020016153b6565b50858310156152a85793015460001960f8600387901b161c19169092555050600190811b01905550565b634e487b7160e01b600052603160045260246000fd5b600082516154288184602087016146ba565b9190910192915050565b60006020808352600084546154468161514b565b80602087015260406001808416600081146154685760018114615484576154b4565b60ff19851660408a0152604084151560051b8a010195506154b4565b89600052602060002060005b858110156154ab5781548b8201860152908301908801615490565b8a016040019650505b509398975050505050505050565b6020808252602e908201527f455243313135353a2063616c6c6572206973206e6f7420746f6b656e206f776e60408201526d195c881bdc88185c1c1c9bdd995960921b606082015260800190565b60208082526025908201527f455243313135353a207472616e7366657220746f20746865207a65726f206164604082015264647265737360d81b606082015260800190565b6020808252602a908201527f455243313135353a20696e73756666696369656e742062616c616e636520666f60408201526939103a3930b739b332b960b11b606082015260800190565b6040815260006155b26040830185614b76565b8281036020840152614c538185614b76565b6001600160a01b03868116825285166020820152604081018490526060810183905260a0608082018190526000906155fe908301846146de565b979650505050505050565b60006020828403121561561b57600080fd5b81516146b381614680565b600060033d111561563f5760046000803e5060005160e01c5b90565b600060443d10156156505790565b6040516003193d81016004833e81513d6001600160401b03816024840111818411171561567f57505050505090565b82850191508151818111156156975750505050505090565b843d87010160208285010111156156b15750505050505090565b6156c06020828601018761474c565b509095945050505050565b60208082526028908201527f455243313135353a204552433131353552656365697665722072656a656374656040820152676420746f6b656e7360c01b606082015260800190565b6001600160a01b0386811682528516602082015260a06040820181905260009061573f90830186614b76565b82810360608401526157518186614b76565b9050828103608084015261576581856146de565b9897505050505050505056fea264697066735822122038fc844570f7ad9481f0d3e71d287ecd24aa94fa48eb743f47ae7b7d58c9705c64736f6c63430008180033ddf252ad1be2c89b69c2b068fc378daa952ba7f163c4a11628f55a4df523b3ef","linkReferences":{},"deployedLinkReferences":{},"address":"0x5FbDB2315678afecb367f032d93F642f64180aa3"}