{
  "_format": "hh-sol-artifact-1",
  "contractName": "ERC20NoReturnMock",
  "sourceName": "contracts/standart_token/mocks/token/ERC20NoReturnMock.sol",
  "abi": [
    {
      "inputs": [
        {
          "internalType": "address",
          "name": "owner",
          "type": "address"
        },
        {
          "internalType": "address",
          "name": "",
          "type": "address"
        }
      ],
      "name": "allowance",
      "outputs": [
        {
          "internalType": "uint256",
          "name": "",
          "type": "uint256"
        }
      ],
      "stateMutability": "view",
      "type": "function"
    },
    {
      "inputs": [
        {
          "internalType": "address",
          "name": "",
          "type": "address"
        },
        {
          "internalType": "uint256",
          "name": "",
          "type": "uint256"
        }
      ],
      "name": "approve",
      "outputs": [],
      "stateMutability": "nonpayable",
      "type": "function"
    },
    {
      "inputs": [
        {
          "internalType": "address",
          "name": "account",
          "type": "address"
        },
        {
          "internalType": "uint256",
          "name": "allowance_",
          "type": "uint256"
        }
      ],
      "name": "setAllowance",
      "outputs": [],
      "stateMutability": "nonpayable",
      "type": "function"
    },
    {
      "inputs": [
        {
          "internalType": "address",
          "name": "",
          "type": "address"
        },
        {
          "internalType": "uint256",
          "name": "",
          "type": "uint256"
        }
      ],
      "name": "transfer",
      "outputs": [],
      "stateMutability": "nonpayable",
      "type": "function"
    },
    {
      "inputs": [
        {
          "internalType": "address",
          "name": "",
          "type": "address"
        },
        {
          "internalType": "address",
          "name": "",
          "type": "address"
        },
        {
          "internalType": "uint256",
          "name": "",
          "type": "uint256"
        }
      ],
      "name": "transferFrom",
      "outputs": [],
      "stateMutability": "nonpayable",
      "type": "function"
    }
  ],
  "bytecode": "0x608060405234801561001057600080fd5b506101d4806100206000396000f3fe608060405234801561001057600080fd5b50600436106100575760003560e01c8063095ea7b31461005c57806323b872dd14610070578063310ec4a714610083578063a9059cbb1461005c578063dd62ed3e146100ad575b600080fd5b61006e61006a366004610105565b5050565b005b61006e61007e36600461012f565b505050565b61006e610091366004610105565b6001600160a01b03909116600090815260208190526040902055565b6100d76100bb36600461016b565b506001600160a01b031660009081526020819052604090205490565b60405190815260200160405180910390f35b80356001600160a01b038116811461010057600080fd5b919050565b6000806040838503121561011857600080fd5b610121836100e9565b946020939093013593505050565b60008060006060848603121561014457600080fd5b61014d846100e9565b925061015b602085016100e9565b9150604084013590509250925092565b6000806040838503121561017e57600080fd5b610187836100e9565b9150610195602084016100e9565b9050925092905056fea26469706673582212205685e21e8ea5ff01b4c82d7abc89837c0e1864594578f4b0be37805992e4f61764736f6c63430008180033",
  "linkReferences": {},
  "deployedLinkReferences": {}
}