{
  "_format": "hh-sol-artifact-1",
  "contractName": "AccessControlCrossChainMock",
  "sourceName": "contracts/standart_token/mocks/AccessControlCrossChainMock.sol",
  "abi": [
    {
      "inputs": [],
      "name": "NotCrossChainCall",
      "type": "error"
    },
    {
      "anonymous": false,
      "inputs": [
        {
          "indexed": true,
          "internalType": "bytes32",
          "name": "role",
          "type": "bytes32"
        },
        {
          "indexed": true,
          "internalType": "bytes32",
          "name": "previousAdminRole",
          "type": "bytes32"
        },
        {
          "indexed": true,
          "internalType": "bytes32",
          "name": "newAdminRole",
          "type": "bytes32"
        }
      ],
      "name": "RoleAdminChanged",
      "type": "event"
    },
    {
      "anonymous": false,
      "inputs": [
        {
          "indexed": true,
          "internalType": "bytes32",
          "name": "role",
          "type": "bytes32"
        },
        {
          "indexed": true,
          "internalType": "address",
          "name": "account",
          "type": "address"
        },
        {
          "indexed": true,
          "internalType": "address",
          "name": "sender",
          "type": "address"
        }
      ],
      "name": "RoleGranted",
      "type": "event"
    },
    {
      "anonymous": false,
      "inputs": [
        {
          "indexed": true,
          "internalType": "bytes32",
          "name": "role",
          "type": "bytes32"
        },
        {
          "indexed": true,
          "internalType": "address",
          "name": "account",
          "type": "address"
        },
        {
          "indexed": true,
          "internalType": "address",
          "name": "sender",
          "type": "address"
        }
      ],
      "name": "RoleRevoked",
      "type": "event"
    },
    {
      "inputs": [],
      "name": "CROSSCHAIN_ALIAS",
      "outputs": [
        {
          "internalType": "bytes32",
          "name": "",
          "type": "bytes32"
        }
      ],
      "stateMutability": "view",
      "type": "function"
    },
    {
      "inputs": [],
      "name": "DEFAULT_ADMIN_ROLE",
      "outputs": [
        {
          "internalType": "bytes32",
          "name": "",
          "type": "bytes32"
        }
      ],
      "stateMutability": "view",
      "type": "function"
    },
    {
      "inputs": [
        {
          "internalType": "bytes32",
          "name": "role",
          "type": "bytes32"
        }
      ],
      "name": "getRoleAdmin",
      "outputs": [
        {
          "internalType": "bytes32",
          "name": "",
          "type": "bytes32"
        }
      ],
      "stateMutability": "view",
      "type": "function"
    },
    {
      "inputs": [
        {
          "internalType": "bytes32",
          "name": "role",
          "type": "bytes32"
        },
        {
          "internalType": "address",
          "name": "account",
          "type": "address"
        }
      ],
      "name": "grantRole",
      "outputs": [],
      "stateMutability": "nonpayable",
      "type": "function"
    },
    {
      "inputs": [
        {
          "internalType": "bytes32",
          "name": "role",
          "type": "bytes32"
        },
        {
          "internalType": "address",
          "name": "account",
          "type": "address"
        }
      ],
      "name": "hasRole",
      "outputs": [
        {
          "internalType": "bool",
          "name": "",
          "type": "bool"
        }
      ],
      "stateMutability": "view",
      "type": "function"
    },
    {
      "inputs": [
        {
          "internalType": "bytes32",
          "name": "role",
          "type": "bytes32"
        },
        {
          "internalType": "address",
          "name": "account",
          "type": "address"
        }
      ],
      "name": "renounceRole",
      "outputs": [],
      "stateMutability": "nonpayable",
      "type": "function"
    },
    {
      "inputs": [
        {
          "internalType": "bytes32",
          "name": "role",
          "type": "bytes32"
        },
        {
          "internalType": "address",
          "name": "account",
          "type": "address"
        }
      ],
      "name": "revokeRole",
      "outputs": [],
      "stateMutability": "nonpayable",
      "type": "function"
    },
    {
      "inputs": [
        {
          "internalType": "bytes4",
          "name": "interfaceId",
          "type": "bytes4"
        }
      ],
      "name": "supportsInterface",
      "outputs": [
        {
          "internalType": "bool",
          "name": "",
          "type": "bool"
        }
      ],
      "stateMutability": "view",
      "type": "function"
    }
  ],
  "bytecode": "0x608060405234801561001057600080fd5b5061095e806100206000396000f3fe608060405234801561001057600080fd5b50600436106100885760003560e01c806391d148541161005b57806391d148541461010e578063a217fddf14610121578063d547741f14610129578063f9d042951461013c57600080fd5b806301ffc9a71461008d578063248a9ca3146100b55780632f2ff15d146100e657806336568abe146100fb575b600080fd5b6100a061009b366004610712565b610163565b60405190151581526020015b60405180910390f35b6100d86100c336600461073c565b60009081526020819052604090206001015490565b6040519081526020016100ac565b6100f96100f436600461076a565b61019a565b005b6100f961010936600461076a565b6101c4565b6100a061011c36600461076a565b610247565b6100d8600081565b6100f961013736600461076a565b610270565b6100d87fe870e9cffded00b0b933338bc23ae12648d8d2d4829802ab37a0908f14773b4d81565b60006001600160e01b03198216637965db0b60e01b148061019457506301ffc9a760e01b6001600160e01b03198316145b92915050565b6000828152602081905260409020600101546101b581610295565b6101bf83836102e1565b505050565b6001600160a01b03811633146102395760405162461bcd60e51b815260206004820152602f60248201527f416363657373436f6e74726f6c3a2063616e206f6e6c792072656e6f756e636560448201526e103937b632b9903337b91039b2b63360891b60648201526084015b60405180910390fd5b6102438282610365565b5050565b6000918252602082815260408084206001600160a01b0393909316845291905290205460ff1690565b60008281526020819052604090206001015461028b81610295565b6101bf8383610365565b61029d6103ca565b156102d8576102d57fe870e9cffded00b0b933338bc23ae12648d8d2d4829802ab37a0908f14773b4d82186102d06103db565b61040c565b50565b6102d581610465565b6102eb8282610247565b610243576000828152602081815260408083206001600160a01b03851684529091529020805460ff191660011790556103213390565b6001600160a01b0316816001600160a01b0316837f2f8788117e7eff1d82e926ec794901d17c78024a50270940304540a733656f0d60405160405180910390a45050565b61036f8282610247565b15610243576000828152602081815260408083206001600160a01b0385168085529252808320805460ff1916905551339285917ff6391f5c32d9c69d2a47ea670b442974b53935d1edc7fd64eb21e047a839171b9190a45050565b60006103d6606461046f565b905090565b60006103e56103ca565b6104025760405163253a6fc960e11b815260040160405180910390fd5b6103d660646104d3565b6104168282610247565b610243576104238161055d565b61042e83602061056f565b60405160200161043f9291906107be565b60408051601f198184030181529082905262461bcd60e51b825261023091600401610833565b6102d5813361040c565b6000816001600160a01b031663175a260b6040518163ffffffff1660e01b8152600401602060405180830381865afa1580156104af573d6000803e3d6000fd5b505050506040513d601f19601f820116820180604052508101906101949190610866565b60006104de8261046f565b6104fb5760405163253a6fc960e11b815260040160405180910390fd5b816001600160a01b031663d74523b36040518163ffffffff1660e01b8152600401602060405180830381865afa158015610539573d6000803e3d6000fd5b505050506040513d601f19601f820116820180604052508101906101949190610888565b60606101946001600160a01b03831660145b6060600061057e8360026108bb565b6105899060026108d2565b67ffffffffffffffff8111156105a1576105a16108e5565b6040519080825280601f01601f1916602001820160405280156105cb576020820181803683370190505b509050600360fc1b816000815181106105e6576105e66108fb565b60200101906001600160f81b031916908160001a905350600f60fb1b81600181518110610615576106156108fb565b60200101906001600160f81b031916908160001a90535060006106398460026108bb565b6106449060016108d2565b90505b60018111156106bc576f181899199a1a9b1b9c1cb0b131b232b360811b85600f1660108110610678576106786108fb565b1a60f81b82828151811061068e5761068e6108fb565b60200101906001600160f81b031916908160001a90535060049490941c936106b581610911565b9050610647565b50831561070b5760405162461bcd60e51b815260206004820181905260248201527f537472696e67733a20686578206c656e67746820696e73756666696369656e746044820152606401610230565b9392505050565b60006020828403121561072457600080fd5b81356001600160e01b03198116811461070b57600080fd5b60006020828403121561074e57600080fd5b5035919050565b6001600160a01b03811681146102d557600080fd5b6000806040838503121561077d57600080fd5b82359150602083013561078f81610755565b809150509250929050565b60005b838110156107b557818101518382015260200161079d565b50506000910152565b7f416363657373436f6e74726f6c3a206163636f756e74200000000000000000008152600083516107f681601785016020880161079a565b7001034b99036b4b9b9b4b733903937b6329607d1b601791840191820152835161082781602884016020880161079a565b01602801949350505050565b602081526000825180602084015261085281604085016020870161079a565b601f01601f19169190910160400192915050565b60006020828403121561087857600080fd5b8151801515811461070b57600080fd5b60006020828403121561089a57600080fd5b815161070b81610755565b634e487b7160e01b600052601160045260246000fd5b8082028115828204841417610194576101946108a5565b80820180821115610194576101946108a5565b634e487b7160e01b600052604160045260246000fd5b634e487b7160e01b600052603260045260246000fd5b600081610920576109206108a5565b50600019019056fea2646970667358221220b2a100f892334ed6dc817ab1c29f66aa220e7d8b4d986b46d639e080de27680964736f6c63430008180033",
  "linkReferences": {},
  "deployedLinkReferences": {}
}