{
  "_format": "hh-sol-artifact-1",
  "contractName": "ChildConstructorInitializableMock",
  "sourceName": "contracts/standart_token/mocks/InitializableMock.sol",
  "abi": [
    {
      "inputs": [],
      "stateMutability": "nonpayable",
      "type": "constructor"
    },
    {
      "anonymous": false,
      "inputs": [
        {
          "indexed": false,
          "internalType": "uint8",
          "name": "version",
          "type": "uint8"
        }
      ],
      "name": "Initialized",
      "type": "event"
    },
    {
      "inputs": [],
      "name": "childInitialize",
      "outputs": [],
      "stateMutability": "nonpayable",
      "type": "function"
    },
    {
      "inputs": [],
      "name": "childInitializerRan",
      "outputs": [
        {
          "internalType": "bool",
          "name": "",
          "type": "bool"
        }
      ],
      "stateMutability": "view",
      "type": "function"
    },
    {
      "inputs": [],
      "name": "initialize",
      "outputs": [],
      "stateMutability": "nonpayable",
      "type": "function"
    },
    {
      "inputs": [],
      "name": "initializeOnlyInitializing",
      "outputs": [],
      "stateMutability": "nonpayable",
      "type": "function"
    },
    {
      "inputs": [],
      "name": "initializerRan",
      "outputs": [
        {
          "internalType": "bool",
          "name": "",
          "type": "bool"
        }
      ],
      "stateMutability": "view",
      "type": "function"
    },
    {
      "inputs": [],
      "name": "onlyInitializingRan",
      "outputs": [
        {
          "internalType": "bool",
          "name": "",
          "type": "bool"
        }
      ],
      "stateMutability": "view",
      "type": "function"
    }
  ],
  "bytecode": "0x608060405234801561001057600080fd5b50600054610100900460ff16158080156100315750600054600160ff909116105b8061004b5750303b15801561004b575060005460ff166001145b6100a15760405162461bcd60e51b815260206004820152602e60248201526000805160206107ef83398151915260448201526d191e481a5b9a5d1a585b1a5e995960921b60648201526084015b60405180910390fd5b6000805460ff1916600117905580156100c4576000805461ff0019166101001790555b6100cc6101f9565b6100d46102f0565b8015610108576000805461ff00191690556040516001815260008051602061080f8339815191529060200160405180910390a15b50600054610100900460ff16158080156101295750600054600160ff909116105b806101435750303b158015610143575060005460ff166001145b6101945760405162461bcd60e51b815260206004820152602e60248201526000805160206107ef83398151915260448201526d191e481a5b9a5d1a585b1a5e995960921b6064820152608401610098565b6000805460ff1916600117905580156101b7576000805461ff0019166101001790555b6101bf610370565b80156101f3576000805461ff00191690556040516001815260008051602061080f8339815191529060200160405180910390a15b50610462565b600054610100900460ff16158080156102195750600054600160ff909116105b806102335750303b158015610233575060005460ff166001145b6102845760405162461bcd60e51b815260206004820152602e60248201526000805160206107ef83398151915260448201526d191e481a5b9a5d1a585b1a5e995960921b6064820152608401610098565b6000805460ff1916600117905580156102a7576000805461ff0019166101001790555b6000805462ff000019166201000017905580156102ed576000805461ff00191690556040516001815260008051602061080f833981519152906020015b60405180910390a15b50565b600054610100900460ff1661035b5760405162461bcd60e51b815260206004820152602b60248201527f496e697469616c697a61626c653a20636f6e7472616374206973206e6f74206960448201526a6e697469616c697a696e6760a81b6064820152608401610098565b6000805463ff00000019166301000000179055565b600054610100900460ff16158080156103905750600054600160ff909116105b806103aa5750303b1580156103aa575060005460ff166001145b6103fb5760405162461bcd60e51b815260206004820152602e60248201526000805160206107ef83398151915260448201526d191e481a5b9a5d1a585b1a5e995960921b6064820152608401610098565b6000805460ff19166001179055801561041e576000805461ff0019166101001790555b6000805460ff60201b191664010000000017905580156102ed576000805461ff00191690556040516001815260008051602061080f833981519152906020016102e4565b61037e806104716000396000f3fe608060405234801561001057600080fd5b50600436106100625760003560e01c806310065ed2146100675780637cffe97a146100715780638129fc1c14610099578063b23d810b146100a1578063c3b8ef2a146100b6578063de74c703146100c9575b600080fd5b61006f6100d1565b005b600054610085906301000000900460ff1681565b604051901515815260200160405180910390f35b61006f610156565b60005461008590640100000000900460ff1681565b6000546100859062010000900460ff1681565b61006f61022a565b600054610100900460ff166101415760405162461bcd60e51b815260206004820152602b60248201527f496e697469616c697a61626c653a20636f6e7472616374206973206e6f74206960448201526a6e697469616c697a696e6760a81b60648201526084015b60405180910390fd5b6000805463ff00000019166301000000179055565b600054610100900460ff16158080156101765750600054600160ff909116105b806101905750303b158015610190575060005460ff166001145b6101ac5760405162461bcd60e51b8152600401610138906102fa565b6000805460ff1916600117905580156101cf576000805461ff0019166101001790555b6000805462ff00001916620100001790558015610227576000805461ff0019169055604051600181527f7f26b83ff96e1f2b6a682f133852f6798a09c465da95921460cefb3847402498906020015b60405180910390a15b50565b600054610100900460ff161580801561024a5750600054600160ff909116105b806102645750303b158015610264575060005460ff166001145b6102805760405162461bcd60e51b8152600401610138906102fa565b6000805460ff1916600117905580156102a3576000805461ff0019166101001790555b6000805464ff0000000019166401000000001790558015610227576000805461ff0019169055604051600181527f7f26b83ff96e1f2b6a682f133852f6798a09c465da95921460cefb38474024989060200161021e565b6020808252602e908201527f496e697469616c697a61626c653a20636f6e747261637420697320616c72656160408201526d191e481a5b9a5d1a585b1a5e995960921b60608201526080019056fea2646970667358221220ad3b38a50b62fe6d49b24c6007bc96bd4234d7120225df7be6e5406c3fbdfbda64736f6c63430008180033496e697469616c697a61626c653a20636f6e747261637420697320616c7265617f26b83ff96e1f2b6a682f133852f6798a09c465da95921460cefb3847402498",
  "linkReferences": {},
  "deployedLinkReferences": {}
}