{
  "_format": "hh-sol-artifact-1",
  "contractName": "ConstructorInitializableMock",
  "sourceName": "contracts/standart_token/mocks/InitializableMock.sol",
  "abi": [
    {
      "inputs": [],
      "stateMutability": "nonpayable",
      "type": "constructor"
    },
    {
      "anonymous": false,
      "inputs": [
        {
          "indexed": false,
          "internalType": "uint8",
          "name": "version",
          "type": "uint8"
        }
      ],
      "name": "Initialized",
      "type": "event"
    },
    {
      "inputs": [],
      "name": "initialize",
      "outputs": [],
      "stateMutability": "nonpayable",
      "type": "function"
    },
    {
      "inputs": [],
      "name": "initializeOnlyInitializing",
      "outputs": [],
      "stateMutability": "nonpayable",
      "type": "function"
    },
    {
      "inputs": [],
      "name": "initializerRan",
      "outputs": [
        {
          "internalType": "bool",
          "name": "",
          "type": "bool"
        }
      ],
      "stateMutability": "view",
      "type": "function"
    },
    {
      "inputs": [],
      "name": "onlyInitializingRan",
      "outputs": [
        {
          "internalType": "bool",
          "name": "",
          "type": "bool"
        }
      ],
      "stateMutability": "view",
      "type": "function"
    }
  ],
  "bytecode": "0x608060405234801561001057600080fd5b50600054610100900460ff16158080156100315750600054600160ff909116105b8061004b5750303b15801561004b575060005460ff166001145b6100a15760405162461bcd60e51b815260206004820152602e602482015260008051602061050683398151915260448201526d191e481a5b9a5d1a585b1a5e995960921b60648201526084015b60405180910390fd5b6000805460ff1916600117905580156100c4576000805461ff0019166101001790555b6100cc61010e565b6100d4610204565b8015610108576000805461ff0019169055604051600181526000805160206105268339815191529060200160405180910390a15b50610284565b600054610100900460ff161580801561012e5750600054600160ff909116105b806101485750303b158015610148575060005460ff166001145b6101995760405162461bcd60e51b815260206004820152602e602482015260008051602061050683398151915260448201526d191e481a5b9a5d1a585b1a5e995960921b6064820152608401610098565b6000805460ff1916600117905580156101bc576000805461ff0019166101001790555b6000805462ff00001916620100001790558015610201576000805461ff0019169055604051600181526000805160206105268339815191529060200160405180910390a15b50565b600054610100900460ff1661026f5760405162461bcd60e51b815260206004820152602b60248201527f496e697469616c697a61626c653a20636f6e7472616374206973206e6f74206960448201526a6e697469616c697a696e6760a81b6064820152608401610098565b6000805463ff00000019166301000000179055565b610273806102936000396000f3fe608060405234801561001057600080fd5b506004361061004c5760003560e01c806310065ed2146100515780637cffe97a1461005b5780638129fc1c14610083578063c3b8ef2a1461008b575b600080fd5b61005961009e565b005b60005461006f906301000000900460ff1681565b604051901515815260200160405180910390f35b610059610123565b60005461006f9062010000900460ff1681565b600054610100900460ff1661010e5760405162461bcd60e51b815260206004820152602b60248201527f496e697469616c697a61626c653a20636f6e7472616374206973206e6f74206960448201526a6e697469616c697a696e6760a81b60648201526084015b60405180910390fd5b6000805463ff00000019166301000000179055565b600054610100900460ff16158080156101435750600054600160ff909116105b8061015d5750303b15801561015d575060005460ff166001145b6101c05760405162461bcd60e51b815260206004820152602e60248201527f496e697469616c697a61626c653a20636f6e747261637420697320616c72656160448201526d191e481a5b9a5d1a585b1a5e995960921b6064820152608401610105565b6000805460ff1916600117905580156101e3576000805461ff0019166101001790555b6000805462ff0000191662010000179055801561023a576000805461ff0019169055604051600181527f7f26b83ff96e1f2b6a682f133852f6798a09c465da95921460cefb38474024989060200160405180910390a15b5056fea2646970667358221220437f9501fba978eee70a6e7a1eace7485aa419d42dac68044dafd33aaf9632a864736f6c63430008180033496e697469616c697a61626c653a20636f6e747261637420697320616c7265617f26b83ff96e1f2b6a682f133852f6798a09c465da95921460cefb3847402498",
  "linkReferences": {},
  "deployedLinkReferences": {}
}