{
  "_format": "hh-sol-artifact-1",
  "contractName": "ERC20PermitNoRevertMock",
  "sourceName": "contracts/standart_token/mocks/token/ERC20PermitNoRevertMock.sol",
  "abi": [
    {
      "inputs": [],
      "stateMutability": "nonpayable",
      "type": "constructor"
    },
    {
      "inputs": [
        {
          "internalType": "string",
          "name": "str",
          "type": "string"
        }
      ],
      "name": "StringTooLong",
      "type": "error"
    },
    {
      "anonymous": false,
      "inputs": [
        {
          "indexed": true,
          "internalType": "address",
          "name": "owner",
          "type": "address"
        },
        {
          "indexed": true,
          "internalType": "address",
          "name": "spender",
          "type": "address"
        },
        {
          "indexed": false,
          "internalType": "uint256",
          "name": "value",
          "type": "uint256"
        }
      ],
      "name": "Approval",
      "type": "event"
    },
    {
      "anonymous": false,
      "inputs": [],
      "name": "EIP712DomainChanged",
      "type": "event"
    },
    {
      "anonymous": false,
      "inputs": [
        {
          "indexed": true,
          "internalType": "address",
          "name": "from",
          "type": "address"
        },
        {
          "indexed": true,
          "internalType": "address",
          "name": "to",
          "type": "address"
        },
        {
          "indexed": false,
          "internalType": "uint256",
          "name": "value",
          "type": "uint256"
        }
      ],
      "name": "Transfer",
      "type": "event"
    },
    {
      "inputs": [],
      "name": "DOMAIN_SEPARATOR",
      "outputs": [
        {
          "internalType": "bytes32",
          "name": "",
          "type": "bytes32"
        }
      ],
      "stateMutability": "view",
      "type": "function"
    },
    {
      "inputs": [
        {
          "internalType": "address",
          "name": "owner",
          "type": "address"
        },
        {
          "internalType": "address",
          "name": "spender",
          "type": "address"
        }
      ],
      "name": "allowance",
      "outputs": [
        {
          "internalType": "uint256",
          "name": "",
          "type": "uint256"
        }
      ],
      "stateMutability": "view",
      "type": "function"
    },
    {
      "inputs": [
        {
          "internalType": "address",
          "name": "spender",
          "type": "address"
        },
        {
          "internalType": "uint256",
          "name": "amount",
          "type": "uint256"
        }
      ],
      "name": "approve",
      "outputs": [
        {
          "internalType": "bool",
          "name": "",
          "type": "bool"
        }
      ],
      "stateMutability": "nonpayable",
      "type": "function"
    },
    {
      "inputs": [
        {
          "internalType": "address",
          "name": "account",
          "type": "address"
        }
      ],
      "name": "balanceOf",
      "outputs": [
        {
          "internalType": "uint256",
          "name": "",
          "type": "uint256"
        }
      ],
      "stateMutability": "view",
      "type": "function"
    },
    {
      "inputs": [],
      "name": "decimals",
      "outputs": [
        {
          "internalType": "uint8",
          "name": "",
          "type": "uint8"
        }
      ],
      "stateMutability": "view",
      "type": "function"
    },
    {
      "inputs": [
        {
          "internalType": "address",
          "name": "spender",
          "type": "address"
        },
        {
          "internalType": "uint256",
          "name": "subtractedValue",
          "type": "uint256"
        }
      ],
      "name": "decreaseAllowance",
      "outputs": [
        {
          "internalType": "bool",
          "name": "",
          "type": "bool"
        }
      ],
      "stateMutability": "nonpayable",
      "type": "function"
    },
    {
      "inputs": [],
      "name": "eip712Domain",
      "outputs": [
        {
          "internalType": "bytes1",
          "name": "fields",
          "type": "bytes1"
        },
        {
          "internalType": "string",
          "name": "name",
          "type": "string"
        },
        {
          "internalType": "string",
          "name": "version",
          "type": "string"
        },
        {
          "internalType": "uint256",
          "name": "chainId",
          "type": "uint256"
        },
        {
          "internalType": "address",
          "name": "verifyingContract",
          "type": "address"
        },
        {
          "internalType": "bytes32",
          "name": "salt",
          "type": "bytes32"
        },
        {
          "internalType": "uint256[]",
          "name": "extensions",
          "type": "uint256[]"
        }
      ],
      "stateMutability": "view",
      "type": "function"
    },
    {
      "inputs": [
        {
          "internalType": "address",
          "name": "spender",
          "type": "address"
        },
        {
          "internalType": "uint256",
          "name": "addedValue",
          "type": "uint256"
        }
      ],
      "name": "increaseAllowance",
      "outputs": [
        {
          "internalType": "bool",
          "name": "",
          "type": "bool"
        }
      ],
      "stateMutability": "nonpayable",
      "type": "function"
    },
    {
      "inputs": [],
      "name": "name",
      "outputs": [
        {
          "internalType": "string",
          "name": "",
          "type": "string"
        }
      ],
      "stateMutability": "view",
      "type": "function"
    },
    {
      "inputs": [
        {
          "internalType": "address",
          "name": "owner",
          "type": "address"
        }
      ],
      "name": "nonces",
      "outputs": [
        {
          "internalType": "uint256",
          "name": "",
          "type": "uint256"
        }
      ],
      "stateMutability": "view",
      "type": "function"
    },
    {
      "inputs": [
        {
          "internalType": "address",
          "name": "owner",
          "type": "address"
        },
        {
          "internalType": "address",
          "name": "spender",
          "type": "address"
        },
        {
          "internalType": "uint256",
          "name": "value",
          "type": "uint256"
        },
        {
          "internalType": "uint256",
          "name": "deadline",
          "type": "uint256"
        },
        {
          "internalType": "uint8",
          "name": "v",
          "type": "uint8"
        },
        {
          "internalType": "bytes32",
          "name": "r",
          "type": "bytes32"
        },
        {
          "internalType": "bytes32",
          "name": "s",
          "type": "bytes32"
        }
      ],
      "name": "permit",
      "outputs": [],
      "stateMutability": "nonpayable",
      "type": "function"
    },
    {
      "inputs": [
        {
          "internalType": "address",
          "name": "owner",
          "type": "address"
        },
        {
          "internalType": "address",
          "name": "spender",
          "type": "address"
        },
        {
          "internalType": "uint256",
          "name": "value",
          "type": "uint256"
        },
        {
          "internalType": "uint256",
          "name": "deadline",
          "type": "uint256"
        },
        {
          "internalType": "uint8",
          "name": "v",
          "type": "uint8"
        },
        {
          "internalType": "bytes32",
          "name": "r",
          "type": "bytes32"
        },
        {
          "internalType": "bytes32",
          "name": "s",
          "type": "bytes32"
        }
      ],
      "name": "permitThatMayRevert",
      "outputs": [],
      "stateMutability": "nonpayable",
      "type": "function"
    },
    {
      "inputs": [],
      "name": "symbol",
      "outputs": [
        {
          "internalType": "string",
          "name": "",
          "type": "string"
        }
      ],
      "stateMutability": "view",
      "type": "function"
    },
    {
      "inputs": [],
      "name": "totalSupply",
      "outputs": [
        {
          "internalType": "uint256",
          "name": "",
          "type": "uint256"
        }
      ],
      "stateMutability": "view",
      "type": "function"
    },
    {
      "inputs": [
        {
          "internalType": "address",
          "name": "to",
          "type": "address"
        },
        {
          "internalType": "uint256",
          "name": "amount",
          "type": "uint256"
        }
      ],
      "name": "transfer",
      "outputs": [
        {
          "internalType": "bool",
          "name": "",
          "type": "bool"
        }
      ],
      "stateMutability": "nonpayable",
      "type": "function"
    },
    {
      "inputs": [
        {
          "internalType": "address",
          "name": "from",
          "type": "address"
        },
        {
          "internalType": "address",
          "name": "to",
          "type": "address"
        },
        {
          "internalType": "uint256",
          "name": "amount",
          "type": "uint256"
        }
      ],
      "name": "transferFrom",
      "outputs": [
        {
          "internalType": "bool",
          "name": "",
          "type": "bool"
        }
      ],
      "stateMutability": "nonpayable",
      "type": "function"
    }
  ],
  "bytecode": "0x6101606040523480156200001257600080fd5b50604051806040016040528060178152602001600080516020620015cf83398151915281525080604051806040016040528060018152602001603160f81b815250604051806040016040528060178152602001600080516020620015cf833981519152815250604051806040016040528060178152602001600080516020620015cf8339815191528152508160039081620000ae9190620002ab565b506004620000bd8282620002ab565b50620000cf915083905060056200017f565b60e052620000df8160066200017f565b61010052815160208084019190912061012052815190820120610140524660a0526200016f6101205161014051604080517f8b73c3c69bb8fe3d512ecc4cf759cc79239f7b179b0ffacaa9a75d522b39400f60208201529081019290925260608201524660808201523060a082015260009060c00160405160208183030381529060405280519060200120905090565b60805250503060c05250620003ed565b60006020835110156200019f576200019783620001b8565b9050620001b2565b81620001ac8482620002ab565b50600090505b92915050565b600080829050601f81511115620001ef578260405163305a27a960e01b8152600401620001e6919062000377565b60405180910390fd5b8051620001fc82620003c8565b179392505050565b634e487b7160e01b600052604160045260246000fd5b600181811c908216806200022f57607f821691505b6020821081036200025057634e487b7160e01b600052602260045260246000fd5b50919050565b601f821115620002a6576000816000526020600020601f850160051c81016020861015620002815750805b601f850160051c820191505b81811015620002a2578281556001016200028d565b5050505b505050565b81516001600160401b03811115620002c757620002c762000204565b620002df81620002d884546200021a565b8462000256565b602080601f831160018114620003175760008415620002fe5750858301515b600019600386901b1c1916600185901b178555620002a2565b600085815260208120601f198616915b82811015620003485788860151825594840194600190910190840162000327565b5085821015620003675787850151600019600388901b60f8161c191681555b5050505050600190811b01905550565b60006020808352835180602085015260005b81811015620003a75785810183015185820160400152820162000389565b506000604082860101526040601f19601f8301168501019250505092915050565b80516020808301519190811015620002505760001960209190910360031b1b16919050565b60805160a05160c05160e0516101005161012051610140516111876200044860003960006109860152600061095e015260006103ad01526000610382015260006108b9015260006108e30152600061090d01526111876000f3fe608060405234801561001057600080fd5b50600436106101005760003560e01c80637ecebe0011610097578063a457c2d711610066578063a457c2d714610209578063a9059cbb1461021c578063d505accf1461022f578063dd62ed3e1461024257600080fd5b80637ecebe00146101be57806384b0196e146101d157806395d89b41146101ec57806396a9fc31146101f457600080fd5b8063313ce567116100d3578063313ce5671461016b5780633644e5151461017a578063395093511461018257806370a082311461019557600080fd5b806306fdde0314610105578063095ea7b31461012357806318160ddd1461014657806323b872dd14610158575b600080fd5b61010d610255565b60405161011a9190610ef0565b60405180910390f35b610136610131366004610f26565b6102e7565b604051901515815260200161011a565b6002545b60405190815260200161011a565b610136610166366004610f50565b610301565b604051600c815260200161011a565b61014a610325565b610136610190366004610f26565b610334565b61014a6101a3366004610f8c565b6001600160a01b031660009081526020819052604090205490565b61014a6101cc366004610f8c565b610356565b6101d9610374565b60405161011a9796959493929190610fa7565b61010d6103fd565b610207610202366004611040565b61040c565b005b610136610217366004610f26565b610424565b61013661022a366004610f26565b6104a4565b61020761023d366004611040565b6104b2565b61014a6102503660046110b3565b61053f565b606060038054610264906110e6565b80601f0160208091040260200160405190810160405280929190818152602001828054610290906110e6565b80156102dd5780601f106102b2576101008083540402835291602001916102dd565b820191906000526020600020905b8154815290600101906020018083116102c057829003601f168201915b5050505050905090565b6000336102f581858561056a565b60019150505b92915050565b60003361030f85828561068e565b61031a858585610708565b506001949350505050565b600061032f6108ac565b905090565b6000336102f5818585610347838361053f565b610351919061111a565b61056a565b6001600160a01b0381166000908152600760205260408120546102fb565b6000606080828080836103a87f000000000000000000000000000000000000000000000000000000000000000060056109d7565b6103d37f000000000000000000000000000000000000000000000000000000000000000060066109d7565b60408051600080825260208201909252600f60f81b9b939a50919850469750309650945092509050565b606060048054610264906110e6565b61041b87878787878787610a83565b50505050505050565b60003381610432828661053f565b9050838110156104975760405162461bcd60e51b815260206004820152602560248201527f45524332303a2064656372656173656420616c6c6f77616e63652062656c6f77604482015264207a65726f60d81b60648201526084015b60405180910390fd5b61031a828686840361056a565b6000336102f5818585610708565b6040516396a9fc3160e01b81526001600160a01b03808916600483015287166024820152604481018690526064810185905260ff8416608482015260a4810183905260c4810182905230906396a9fc319060e401600060405180830381600087803b15801561052057600080fd5b505af1925050508015610531575060015b1561041b5750505050505050565b6001600160a01b03918216600090815260016020908152604080832093909416825291909152205490565b6001600160a01b0383166105cc5760405162461bcd60e51b8152602060048201526024808201527f45524332303a20617070726f76652066726f6d20746865207a65726f206164646044820152637265737360e01b606482015260840161048e565b6001600160a01b03821661062d5760405162461bcd60e51b815260206004820152602260248201527f45524332303a20617070726f766520746f20746865207a65726f206164647265604482015261737360f01b606482015260840161048e565b6001600160a01b0383811660008181526001602090815260408083209487168084529482529182902085905590518481527f8c5be1e5ebec7d5bd14f71427d1e84f3dd0314c0f7b2291e5b200ac8c7c3b925910160405180910390a3505050565b600061069a848461053f565b9050600019811461070257818110156106f55760405162461bcd60e51b815260206004820152601d60248201527f45524332303a20696e73756666696369656e7420616c6c6f77616e6365000000604482015260640161048e565b610702848484840361056a565b50505050565b6001600160a01b03831661076c5760405162461bcd60e51b815260206004820152602560248201527f45524332303a207472616e736665722066726f6d20746865207a65726f206164604482015264647265737360d81b606482015260840161048e565b6001600160a01b0382166107ce5760405162461bcd60e51b815260206004820152602360248201527f45524332303a207472616e7366657220746f20746865207a65726f206164647260448201526265737360e81b606482015260840161048e565b6001600160a01b038316600090815260208190526040902054818110156108465760405162461bcd60e51b815260206004820152602660248201527f45524332303a207472616e7366657220616d6f756e7420657863656564732062604482015265616c616e636560d01b606482015260840161048e565b6001600160a01b03848116600081815260208181526040808320878703905593871680835291849020805487019055925185815290927fddf252ad1be2c89b69c2b068fc378daa952ba7f163c4a11628f55a4df523b3ef910160405180910390a3610702565b6000306001600160a01b037f00000000000000000000000000000000000000000000000000000000000000001614801561090557507f000000000000000000000000000000000000000000000000000000000000000046145b1561092f57507f000000000000000000000000000000000000000000000000000000000000000090565b61032f604080517f8b73c3c69bb8fe3d512ecc4cf759cc79239f7b179b0ffacaa9a75d522b39400f60208201527f0000000000000000000000000000000000000000000000000000000000000000918101919091527f000000000000000000000000000000000000000000000000000000000000000060608201524660808201523060a082015260009060c00160405160208183030381529060405280519060200120905090565b606060ff8316156109f2576109eb83610be7565b90506102fb565b8180546109fe906110e6565b80601f0160208091040260200160405190810160405280929190818152602001828054610a2a906110e6565b8015610a775780601f10610a4c57610100808354040283529160200191610a77565b820191906000526020600020905b815481529060010190602001808311610a5a57829003601f168201915b505050505090506102fb565b83421115610ad35760405162461bcd60e51b815260206004820152601d60248201527f45524332305065726d69743a206578706972656420646561646c696e65000000604482015260640161048e565b60007f6e71edae12b1b97f4d1f60370fef10105fa2faae0126114a169c64845d6126c9888888610b028c610c1c565b6040805160208101969096526001600160a01b0394851690860152929091166060840152608083015260a082015260c0810186905260e0016040516020818303038152906040528051906020012090506000610b5d82610c44565b90506000610b6d82878787610c71565b9050896001600160a01b0316816001600160a01b031614610bd05760405162461bcd60e51b815260206004820152601e60248201527f45524332305065726d69743a20696e76616c6964207369676e61747572650000604482015260640161048e565b610bdb8a8a8a61056a565b50505050505050505050565b60408051602080825281830190925260609160ff84169160009180820181803683375050509182525060208101929092525090565b6001600160a01b03811660009081526007602052604090208054600181018255905b50919050565b60006102fb610c516108ac565b8360405161190160f01b8152600281019290925260228201526042902090565b6000806000610c8287878787610c99565b91509150610c8f81610d5d565b5095945050505050565b6000807f7fffffffffffffffffffffffffffffff5d576e7357a4501ddfe92f46681b20a0831115610cd05750600090506003610d54565b6040805160008082526020820180845289905260ff881692820192909252606081018690526080810185905260019060a0016020604051602081039080840390855afa158015610d24573d6000803e3d6000fd5b5050604051601f1901519150506001600160a01b038116610d4d57600060019250925050610d54565b9150600090505b94509492505050565b6000816004811115610d7157610d7161113b565b03610d795750565b6001816004811115610d8d57610d8d61113b565b03610dda5760405162461bcd60e51b815260206004820152601860248201527f45434453413a20696e76616c6964207369676e61747572650000000000000000604482015260640161048e565b6002816004811115610dee57610dee61113b565b03610e3b5760405162461bcd60e51b815260206004820152601f60248201527f45434453413a20696e76616c6964207369676e6174757265206c656e67746800604482015260640161048e565b6003816004811115610e4f57610e4f61113b565b03610ea75760405162461bcd60e51b815260206004820152602260248201527f45434453413a20696e76616c6964207369676e6174757265202773272076616c604482015261756560f01b606482015260840161048e565b50565b6000815180845260005b81811015610ed057602081850181015186830182015201610eb4565b506000602082860101526020601f19601f83011685010191505092915050565b602081526000610f036020830184610eaa565b9392505050565b80356001600160a01b0381168114610f2157600080fd5b919050565b60008060408385031215610f3957600080fd5b610f4283610f0a565b946020939093013593505050565b600080600060608486031215610f6557600080fd5b610f6e84610f0a565b9250610f7c60208501610f0a565b9150604084013590509250925092565b600060208284031215610f9e57600080fd5b610f0382610f0a565b60ff60f81b881681526000602060e06020840152610fc860e084018a610eaa565b8381036040850152610fda818a610eaa565b606085018990526001600160a01b038816608086015260a0850187905284810360c08601528551808252602080880193509091019060005b8181101561102e57835183529284019291840191600101611012565b50909c9b505050505050505050505050565b600080600080600080600060e0888a03121561105b57600080fd5b61106488610f0a565b965061107260208901610f0a565b95506040880135945060608801359350608088013560ff8116811461109657600080fd5b9699959850939692959460a0840135945060c09093013592915050565b600080604083850312156110c657600080fd5b6110cf83610f0a565b91506110dd60208401610f0a565b90509250929050565b600181811c908216806110fa57607f821691505b602082108103610c3e57634e487b7160e01b600052602260045260246000fd5b808201808211156102fb57634e487b7160e01b600052601160045260246000fd5b634e487b7160e01b600052602160045260246000fdfea2646970667358221220bb2584dc6e6982149bfb901c39251570fd3bb21f01f317552fc47d745303cca164736f6c6343000818003345524332305065726d69744e6f5265766572744d6f636b000000000000000000",
  "linkReferences": {},
  "deployedLinkReferences": {}
}