{
  "_format": "hh-sol-artifact-1",
  "contractName": "Implementation4",
  "sourceName": "contracts/standart_token/mocks/RegressionImplementation.sol",
  "abi": [
    {
      "anonymous": false,
      "inputs": [
        {
          "indexed": false,
          "internalType": "uint8",
          "name": "version",
          "type": "uint8"
        }
      ],
      "name": "Initialized",
      "type": "event"
    },
    {
      "stateMutability": "nonpayable",
      "type": "fallback"
    },
    {
      "inputs": [],
      "name": "getValue",
      "outputs": [
        {
          "internalType": "uint256",
          "name": "",
          "type": "uint256"
        }
      ],
      "stateMutability": "view",
      "type": "function"
    },
    {
      "inputs": [],
      "name": "initialize",
      "outputs": [],
      "stateMutability": "nonpayable",
      "type": "function"
    },
    {
      "inputs": [
        {
          "internalType": "uint256",
          "name": "_number",
          "type": "uint256"
        }
      ],
      "name": "setValue",
      "outputs": [],
      "stateMutability": "nonpayable",
      "type": "function"
    }
  ],
  "bytecode": "0x608060405234801561001057600080fd5b506101d1806100206000396000f3fe608060405234801561001057600080fd5b50600436106100415760003560e01c80632096525514610048578063552410771461005d5780638129fc1c14610072575b6001808055005b60015460405190815260200160405180910390f35b61007061006b366004610182565b600155565b005b610070600054610100900460ff16158080156100955750600054600160ff909116105b806100af5750303b1580156100af575060005460ff166001145b6101165760405162461bcd60e51b815260206004820152602e60248201527f496e697469616c697a61626c653a20636f6e747261637420697320616c72656160448201526d191e481a5b9a5d1a585b1a5e995960921b606482015260840160405180910390fd5b6000805460ff191660011790558015610139576000805461ff0019166101001790555b801561017f576000805461ff0019169055604051600181527f7f26b83ff96e1f2b6a682f133852f6798a09c465da95921460cefb38474024989060200160405180910390a15b50565b60006020828403121561019457600080fd5b503591905056fea26469706673582212205fdb44c189d3b23436f118ac337d55798d10bc103710f63c2a189936d3daf95064736f6c63430008180033",
  "linkReferences": {},
  "deployedLinkReferences": {}
}