{
  "_format": "hh-sol-artifact-1",
  "contractName": "Implementation2",
  "sourceName": "contracts/standart_token/mocks/RegressionImplementation.sol",
  "abi": [
    {
      "anonymous": false,
      "inputs": [
        {
          "indexed": false,
          "internalType": "uint8",
          "name": "version",
          "type": "uint8"
        }
      ],
      "name": "Initialized",
      "type": "event"
    },
    {
      "inputs": [],
      "name": "getValue",
      "outputs": [
        {
          "internalType": "uint256",
          "name": "",
          "type": "uint256"
        }
      ],
      "stateMutability": "view",
      "type": "function"
    },
    {
      "inputs": [],
      "name": "initialize",
      "outputs": [],
      "stateMutability": "nonpayable",
      "type": "function"
    },
    {
      "inputs": [
        {
          "internalType": "uint256",
          "name": "_number",
          "type": "uint256"
        }
      ],
      "name": "setValue",
      "outputs": [],
      "stateMutability": "nonpayable",
      "type": "function"
    }
  ],
  "bytecode": "0x608060405234801561001057600080fd5b506101cf806100206000396000f3fe608060405234801561001057600080fd5b50600436106100415760003560e01c80632096525514610046578063552410771461005b5780638129fc1c14610070575b600080fd5b60015460405190815260200160405180910390f35b61006e610069366004610180565b600155565b005b61006e600054610100900460ff16158080156100935750600054600160ff909116105b806100ad5750303b1580156100ad575060005460ff166001145b6101145760405162461bcd60e51b815260206004820152602e60248201527f496e697469616c697a61626c653a20636f6e747261637420697320616c72656160448201526d191e481a5b9a5d1a585b1a5e995960921b606482015260840160405180910390fd5b6000805460ff191660011790558015610137576000805461ff0019166101001790555b801561017d576000805461ff0019169055604051600181527f7f26b83ff96e1f2b6a682f133852f6798a09c465da95921460cefb38474024989060200160405180910390a15b50565b60006020828403121561019257600080fd5b503591905056fea26469706673582212202bd65f4ba19a9a777c6829297f4b1f705055ac37dce9b8c9e9ce0bf9e58cfcaa64736f6c63430008180033",
  "linkReferences": {},
  "deployedLinkReferences": {}
}