{
  "_format": "hh-sol-artifact-1",
  "contractName": "DummyImplementation",
  "sourceName": "contracts/standart_token/mocks/DummyImplementation.sol",
  "abi": [
    {
      "inputs": [],
      "name": "get",
      "outputs": [
        {
          "internalType": "bool",
          "name": "",
          "type": "bool"
        }
      ],
      "stateMutability": "pure",
      "type": "function"
    },
    {
      "inputs": [
        {
          "internalType": "uint256",
          "name": "_value",
          "type": "uint256"
        },
        {
          "internalType": "string",
          "name": "_text",
          "type": "string"
        },
        {
          "internalType": "uint256[]",
          "name": "_values",
          "type": "uint256[]"
        }
      ],
      "name": "initialize",
      "outputs": [],
      "stateMutability": "nonpayable",
      "type": "function"
    },
    {
      "inputs": [],
      "name": "initializeNonPayable",
      "outputs": [],
      "stateMutability": "nonpayable",
      "type": "function"
    },
    {
      "inputs": [
        {
          "internalType": "uint256",
          "name": "_value",
          "type": "uint256"
        }
      ],
      "name": "initializeNonPayableWithValue",
      "outputs": [],
      "stateMutability": "nonpayable",
      "type": "function"
    },
    {
      "inputs": [],
      "name": "initializePayable",
      "outputs": [],
      "stateMutability": "payable",
      "type": "function"
    },
    {
      "inputs": [
        {
          "internalType": "uint256",
          "name": "_value",
          "type": "uint256"
        }
      ],
      "name": "initializePayableWithValue",
      "outputs": [],
      "stateMutability": "payable",
      "type": "function"
    },
    {
      "inputs": [],
      "name": "reverts",
      "outputs": [],
      "stateMutability": "pure",
      "type": "function"
    },
    {
      "inputs": [],
      "name": "text",
      "outputs": [
        {
          "internalType": "string",
          "name": "",
          "type": "string"
        }
      ],
      "stateMutability": "view",
      "type": "function"
    },
    {
      "inputs": [],
      "name": "value",
      "outputs": [
        {
          "internalType": "uint256",
          "name": "",
          "type": "uint256"
        }
      ],
      "stateMutability": "view",
      "type": "function"
    },
    {
      "inputs": [
        {
          "internalType": "uint256",
          "name": "",
          "type": "uint256"
        }
      ],
      "name": "values",
      "outputs": [
        {
          "internalType": "uint256",
          "name": "",
          "type": "uint256"
        }
      ],
      "stateMutability": "view",
      "type": "function"
    },
    {
      "inputs": [],
      "name": "version",
      "outputs": [
        {
          "internalType": "string",
          "name": "",
          "type": "string"
        }
      ],
      "stateMutability": "pure",
      "type": "function"
    }
  ],
  "bytecode": "0x608060405234801561001057600080fd5b506106d3806100206000396000f3fe60806040526004361061009c5760003560e01c80635e383d21116100645780635e383d21146101495780636d4ce63c14610169578063763e2831146101855780639fba1f9a146101a5578063d31f8b6b146101af578063e79f5bee146101cf57600080fd5b80631f1bd692146100a1578063227367d5146100cc5780633bccbbc9146100e55780633fa4f245146100fa57806354fd4d501461011e575b600080fd5b3480156100ad57600080fd5b506100b66101dd565b6040516100c39190610363565b60405180910390f35b3480156100d857600080fd5b506100e3600a600055565b005b3480156100f157600080fd5b506100e361026b565b34801561010657600080fd5b5061011060005481565b6040519081526020016100c3565b34801561012a57600080fd5b50604080518082019091526002815261563160f01b60208201526100b6565b34801561015557600080fd5b506101106101643660046103b2565b6102b7565b34801561017557600080fd5b50604051600181526020016100c3565b34801561019157600080fd5b506100e36101a03660046103b2565b600055565b6100e36064600055565b3480156101bb57600080fd5b506100e36101ca366004610492565b6102d8565b6100e36101a03660046103b2565b600180546101ea90610552565b80601f016020809104026020016040519081016040528092919081815260200182805461021690610552565b80156102635780601f1061023857610100808354040283529160200191610263565b820191906000526020600020905b81548152906001019060200180831161024657829003601f168201915b505050505081565b60405162461bcd60e51b815260206004820152601c60248201527f44756d6d79496d706c656d656e746174696f6e20726576657274656400000000604482015260640160405180910390fd5b600281815481106102c757600080fd5b600091825260209091200154905081565b600083905560016102e983826105dd565b5080516102fd906002906020840190610303565b50505050565b82805482825590600052602060002090810192821561033e579160200282015b8281111561033e578251825591602001919060010190610323565b5061034a92915061034e565b5090565b5b8082111561034a576000815560010161034f565b60006020808352835180602085015260005b8181101561039157858101830151858201604001528201610375565b506000604082860101526040601f19601f8301168501019250505092915050565b6000602082840312156103c457600080fd5b5035919050565b634e487b7160e01b600052604160045260246000fd5b604051601f8201601f1916810167ffffffffffffffff8111828210171561040a5761040a6103cb565b604052919050565b600082601f83011261042357600080fd5b8135602067ffffffffffffffff82111561043f5761043f6103cb565b8160051b61044e8282016103e1565b928352848101820192828101908785111561046857600080fd5b83870192505b848310156104875782358252918301919083019061046e565b979650505050505050565b6000806000606084860312156104a757600080fd5b8335925060208085013567ffffffffffffffff808211156104c757600080fd5b818701915087601f8301126104db57600080fd5b8135818111156104ed576104ed6103cb565b6104ff601f8201601f191685016103e1565b818152898583860101111561051357600080fd5b81858501868301376000918101909401529193506040860135918083111561053a57600080fd5b505061054886828701610412565b9150509250925092565b600181811c9082168061056657607f821691505b60208210810361058657634e487b7160e01b600052602260045260246000fd5b50919050565b601f8211156105d8576000816000526020600020601f850160051c810160208610156105b55750805b601f850160051c820191505b818110156105d4578281556001016105c1565b5050505b505050565b815167ffffffffffffffff8111156105f7576105f76103cb565b61060b816106058454610552565b8461058c565b602080601f83116001811461064057600084156106285750858301515b600019600386901b1c1916600185901b1785556105d4565b600085815260208120601f198616915b8281101561066f57888601518255948401946001909101908401610650565b508582101561068d5787850151600019600388901b60f8161c191681555b5050505050600190811b0190555056fea26469706673582212206481fadd7efc7f555248d25cd799f6a0cd4508644427b467fddded4e45ce157a64736f6c63430008180033",
  "linkReferences": {},
  "deployedLinkReferences": {}
}