{
  "_format": "hh-sol-artifact-1",
  "contractName": "StorageSlotMock",
  "sourceName": "contracts/standart_token/mocks/StorageSlotMock.sol",
  "abi": [
    {
      "inputs": [
        {
          "internalType": "uint256",
          "name": "",
          "type": "uint256"
        }
      ],
      "name": "bytesMap",
      "outputs": [
        {
          "internalType": "bytes",
          "name": "",
          "type": "bytes"
        }
      ],
      "stateMutability": "view",
      "type": "function"
    },
    {
      "inputs": [
        {
          "internalType": "bytes32",
          "name": "slot",
          "type": "bytes32"
        }
      ],
      "name": "getAddress",
      "outputs": [
        {
          "internalType": "address",
          "name": "",
          "type": "address"
        }
      ],
      "stateMutability": "view",
      "type": "function"
    },
    {
      "inputs": [
        {
          "internalType": "bytes32",
          "name": "slot",
          "type": "bytes32"
        }
      ],
      "name": "getBoolean",
      "outputs": [
        {
          "internalType": "bool",
          "name": "",
          "type": "bool"
        }
      ],
      "stateMutability": "view",
      "type": "function"
    },
    {
      "inputs": [
        {
          "internalType": "bytes32",
          "name": "slot",
          "type": "bytes32"
        }
      ],
      "name": "getBytes",
      "outputs": [
        {
          "internalType": "bytes",
          "name": "",
          "type": "bytes"
        }
      ],
      "stateMutability": "view",
      "type": "function"
    },
    {
      "inputs": [
        {
          "internalType": "bytes32",
          "name": "slot",
          "type": "bytes32"
        }
      ],
      "name": "getBytes32",
      "outputs": [
        {
          "internalType": "bytes32",
          "name": "",
          "type": "bytes32"
        }
      ],
      "stateMutability": "view",
      "type": "function"
    },
    {
      "inputs": [
        {
          "internalType": "uint256",
          "name": "key",
          "type": "uint256"
        }
      ],
      "name": "getBytesStorage",
      "outputs": [
        {
          "internalType": "bytes",
          "name": "",
          "type": "bytes"
        }
      ],
      "stateMutability": "view",
      "type": "function"
    },
    {
      "inputs": [
        {
          "internalType": "bytes32",
          "name": "slot",
          "type": "bytes32"
        }
      ],
      "name": "getString",
      "outputs": [
        {
          "internalType": "string",
          "name": "",
          "type": "string"
        }
      ],
      "stateMutability": "view",
      "type": "function"
    },
    {
      "inputs": [
        {
          "internalType": "uint256",
          "name": "key",
          "type": "uint256"
        }
      ],
      "name": "getStringStorage",
      "outputs": [
        {
          "internalType": "string",
          "name": "",
          "type": "string"
        }
      ],
      "stateMutability": "view",
      "type": "function"
    },
    {
      "inputs": [
        {
          "internalType": "bytes32",
          "name": "slot",
          "type": "bytes32"
        }
      ],
      "name": "getUint256",
      "outputs": [
        {
          "internalType": "uint256",
          "name": "",
          "type": "uint256"
        }
      ],
      "stateMutability": "view",
      "type": "function"
    },
    {
      "inputs": [
        {
          "internalType": "bytes32",
          "name": "slot",
          "type": "bytes32"
        },
        {
          "internalType": "address",
          "name": "value",
          "type": "address"
        }
      ],
      "name": "setAddress",
      "outputs": [],
      "stateMutability": "nonpayable",
      "type": "function"
    },
    {
      "inputs": [
        {
          "internalType": "bytes32",
          "name": "slot",
          "type": "bytes32"
        },
        {
          "internalType": "bool",
          "name": "value",
          "type": "bool"
        }
      ],
      "name": "setBoolean",
      "outputs": [],
      "stateMutability": "nonpayable",
      "type": "function"
    },
    {
      "inputs": [
        {
          "internalType": "bytes32",
          "name": "slot",
          "type": "bytes32"
        },
        {
          "internalType": "bytes",
          "name": "value",
          "type": "bytes"
        }
      ],
      "name": "setBytes",
      "outputs": [],
      "stateMutability": "nonpayable",
      "type": "function"
    },
    {
      "inputs": [
        {
          "internalType": "bytes32",
          "name": "slot",
          "type": "bytes32"
        },
        {
          "internalType": "bytes32",
          "name": "value",
          "type": "bytes32"
        }
      ],
      "name": "setBytes32",
      "outputs": [],
      "stateMutability": "nonpayable",
      "type": "function"
    },
    {
      "inputs": [
        {
          "internalType": "uint256",
          "name": "key",
          "type": "uint256"
        },
        {
          "internalType": "bytes",
          "name": "value",
          "type": "bytes"
        }
      ],
      "name": "setBytesStorage",
      "outputs": [],
      "stateMutability": "nonpayable",
      "type": "function"
    },
    {
      "inputs": [
        {
          "internalType": "bytes32",
          "name": "slot",
          "type": "bytes32"
        },
        {
          "internalType": "string",
          "name": "value",
          "type": "string"
        }
      ],
      "name": "setString",
      "outputs": [],
      "stateMutability": "nonpayable",
      "type": "function"
    },
    {
      "inputs": [
        {
          "internalType": "uint256",
          "name": "key",
          "type": "uint256"
        },
        {
          "internalType": "string",
          "name": "value",
          "type": "string"
        }
      ],
      "name": "setStringStorage",
      "outputs": [],
      "stateMutability": "nonpayable",
      "type": "function"
    },
    {
      "inputs": [
        {
          "internalType": "bytes32",
          "name": "slot",
          "type": "bytes32"
        },
        {
          "internalType": "uint256",
          "name": "value",
          "type": "uint256"
        }
      ],
      "name": "setUint256",
      "outputs": [],
      "stateMutability": "nonpayable",
      "type": "function"
    },
    {
      "inputs": [
        {
          "internalType": "uint256",
          "name": "",
          "type": "uint256"
        }
      ],
      "name": "stringMap",
      "outputs": [
        {
          "internalType": "string",
          "name": "",
          "type": "string"
        }
      ],
      "stateMutability": "view",
      "type": "function"
    }
  ],
  "bytecode": "0x608060405234801561001057600080fd5b50610781806100206000396000f3fe608060405234801561001057600080fd5b50600436106101165760003560e01c80635a46e25d116100a2578063a6ed563e11610071578063a6ed563e1461019f578063c031a1801461021c578063ca446dd914610242578063df6e58d61461026d578063f8715b3e1461028057600080fd5b80635a46e25d146102095780636e8995501461018c578063986e791a1461021c5780639b22f3431461022f57600080fd5b806333598b00116100e957806333598b001461019f5780633848207a146101bf5780633e60bd78146101e45780634e91db08146101f75780634f3029c2146101f757600080fd5b80630afb30ba1461011b5780631e133d0f1461013057806321f8a721146101595780632e28d0841461018c575b600080fd5b61012e61012936600461049c565b61029c565b005b61014361013e3660046104e8565b6102c1565b6040516101509190610547565b60405180910390f35b6101746101673660046104e8565b546001600160a01b031690565b6040516001600160a01b039091168152602001610150565b61012e61019a36600461049c565b61035b565b6101b16101ad3660046104e8565b5490565b604051908152602001610150565b6101d46101cd3660046104e8565b5460ff1690565b6040519015158152602001610150565b61012e6101f236600461049c565b610363565b61012e610205366004610561565b9055565b6101436102173660046104e8565b61037a565b61014361022a3660046104e8565b610393565b61014361023d3660046104e8565b610427565b61012e610250366004610583565b81546001600160a01b0319166001600160a01b0391909116179055565b61014361027b3660046104e8565b61043d565b61012e61028e3660046105bf565b815460ff1916901515179055565b6000838152600160205260409020829082905b916102bb91908361068a565b50505050565b600060208190529081526040902080546102da906105ff565b80601f0160208091040260200160405190810160405280929190818152602001828054610306906105ff565b80156103535780601f1061032857610100808354040283529160200191610353565b820191906000526020600020905b81548152906001019060200180831161033657829003601f168201915b505050505081565b8181846102af565b6000838152602081905260409020829082906102af565b600160205260009081526040902080546102da906105ff565b6060815b80546103a2906105ff565b80601f01602080910402602001604051908101604052809291908181526020018280546103ce906105ff565b801561041b5780601f106103f05761010080835404028352916020019161041b565b820191906000526020600020905b8154815290600101906020018083116103fe57829003601f168201915b50505050509050919050565b6000818152600160205260409020606090610397565b6000818152602081905260409020606090610397565b60008083601f84011261046557600080fd5b50813567ffffffffffffffff81111561047d57600080fd5b60208301915083602082850101111561049557600080fd5b9250929050565b6000806000604084860312156104b157600080fd5b83359250602084013567ffffffffffffffff8111156104cf57600080fd5b6104db86828701610453565b9497909650939450505050565b6000602082840312156104fa57600080fd5b5035919050565b6000815180845260005b818110156105275760208185018101518683018201520161050b565b506000602082860101526020601f19601f83011685010191505092915050565b60208152600061055a6020830184610501565b9392505050565b6000806040838503121561057457600080fd5b50508035926020909101359150565b6000806040838503121561059657600080fd5b8235915060208301356001600160a01b03811681146105b457600080fd5b809150509250929050565b600080604083850312156105d257600080fd5b82359150602083013580151581146105b457600080fd5b634e487b7160e01b600052604160045260246000fd5b600181811c9082168061061357607f821691505b60208210810361063357634e487b7160e01b600052602260045260246000fd5b50919050565b601f821115610685576000816000526020600020601f850160051c810160208610156106625750805b601f850160051c820191505b818110156106815782815560010161066e565b5050505b505050565b67ffffffffffffffff8311156106a2576106a26105e9565b6106b6836106b083546105ff565b83610639565b6000601f8411600181146106ea57600085156106d25750838201355b600019600387901b1c1916600186901b178355610744565b600083815260209020601f19861690835b8281101561071b57868501358255602094850194600190920191016106fb565b50868210156107385760001960f88860031b161c19848701351681555b505060018560011b0183555b505050505056fea2646970667358221220f5dd77558d7d4e6e77080cb6d6f770e1b92b39a89b7e6ccc4201c7798dc4e12464736f6c63430008180033",
  "linkReferences": {},
  "deployedLinkReferences": {}
}