{
  "_format": "hh-sol-artifact-1",
  "contractName": "MigratableMockV2",
  "sourceName": "contracts/standart_token/mocks/SingleInheritanceInitializableMocks.sol",
  "abi": [
    {
      "anonymous": false,
      "inputs": [
        {
          "indexed": false,
          "internalType": "uint8",
          "name": "version",
          "type": "uint8"
        }
      ],
      "name": "Initialized",
      "type": "event"
    },
    {
      "inputs": [
        {
          "internalType": "uint256",
          "name": "value",
          "type": "uint256"
        }
      ],
      "name": "initialize",
      "outputs": [],
      "stateMutability": "payable",
      "type": "function"
    },
    {
      "inputs": [
        {
          "internalType": "uint256",
          "name": "value",
          "type": "uint256"
        },
        {
          "internalType": "uint256",
          "name": "anotherValue",
          "type": "uint256"
        }
      ],
      "name": "migrate",
      "outputs": [],
      "stateMutability": "payable",
      "type": "function"
    },
    {
      "inputs": [],
      "name": "x",
      "outputs": [
        {
          "internalType": "uint256",
          "name": "",
          "type": "uint256"
        }
      ],
      "stateMutability": "view",
      "type": "function"
    },
    {
      "inputs": [],
      "name": "y",
      "outputs": [
        {
          "internalType": "uint256",
          "name": "",
          "type": "uint256"
        }
      ],
      "stateMutability": "view",
      "type": "function"
    }
  ],
  "bytecode": "0x608060405234801561001057600080fd5b50610255806100206000396000f3fe60806040526004361061003f5760003560e01c80630c55699c146100445780633e54bacb1461006c578063a56dfe4a14610081578063fe4b84df14610097575b600080fd5b34801561005057600080fd5b5061005a60015481565b60405190815260200160405180910390f35b61007f61007a3660046101e4565b6100aa565b005b34801561008d57600080fd5b5061005a60035481565b61007f6100a5366004610206565b6100d1565b60025460ff16156100ba57600080fd5b60019182556003556002805460ff19169091179055565b600054610100900460ff16158080156100f15750600054600160ff909116105b8061010b5750303b15801561010b575060005460ff166001145b6101725760405162461bcd60e51b815260206004820152602e60248201527f496e697469616c697a61626c653a20636f6e747261637420697320616c72656160448201526d191e481a5b9a5d1a585b1a5e995960921b606482015260840160405180910390fd5b6000805460ff191660011790558015610195576000805461ff0019166101001790555b600182905580156101e0576000805461ff0019169055604051600181527f7f26b83ff96e1f2b6a682f133852f6798a09c465da95921460cefb38474024989060200160405180910390a15b5050565b600080604083850312156101f757600080fd5b50508035926020909101359150565b60006020828403121561021857600080fd5b503591905056fea26469706673582212205f2d5a856b96265700c3fd12d9e1d9b1ab78a41b189681fd87a4d46d6f274c8f64736f6c63430008180033",
  "linkReferences": {},
  "deployedLinkReferences": {}
}