{
  "_format": "hh-sol-artifact-1",
  "contractName": "MulticallTest",
  "sourceName": "contracts/standart_token/mocks/MulticallTest.sol",
  "abi": [
    {
      "inputs": [
        {
          "internalType": "contract ERC20MulticallMock",
          "name": "multicallToken",
          "type": "address"
        },
        {
          "internalType": "address[]",
          "name": "recipients",
          "type": "address[]"
        },
        {
          "internalType": "uint256[]",
          "name": "amounts",
          "type": "uint256[]"
        }
      ],
      "name": "checkReturnValues",
      "outputs": [],
      "stateMutability": "nonpayable",
      "type": "function"
    }
  ],
  "bytecode": "0x608060405234801561001057600080fd5b50610591806100206000396000f3fe608060405234801561001057600080fd5b506004361061002b5760003560e01c8063b568d01614610030575b600080fd5b61004361003e366004610280565b610045565b005b60008367ffffffffffffffff81111561006057610060610303565b60405190808252806020026020018201604052801561009357816020015b606081526020019060019003908161007e5790505b50905060005b8481101561014f578585828181106100b3576100b3610319565b90506020020160208101906100c8919061032f565b8484838181106100da576100da610319565b6040516001600160a01b039094166024850152602002919091013560448301525060640160408051601f198184030181529190526020810180516001600160e01b031663a9059cbb60e01b179052825183908390811061013c5761013c610319565b6020908102919091010152600101610099565b50604051631592ca1b60e31b81526000906001600160a01b0388169063ac9650d89061017f908590600401610377565b6000604051808303816000875af115801561019e573d6000803e3d6000fd5b505050506040513d6000823e601f3d908101601f191682016040526101c69190810190610422565b905060005b8151811015610212578181815181106101e6576101e6610319565b60200260200101518060200190518101906102019190610539565b61020a57600080fd5b6001016101cb565b5050505050505050565b6001600160a01b038116811461023157600080fd5b50565b60008083601f84011261024657600080fd5b50813567ffffffffffffffff81111561025e57600080fd5b6020830191508360208260051b850101111561027957600080fd5b9250929050565b60008060008060006060868803121561029857600080fd5b85356102a38161021c565b9450602086013567ffffffffffffffff808211156102c057600080fd5b6102cc89838a01610234565b909650945060408801359150808211156102e557600080fd5b506102f288828901610234565b969995985093965092949392505050565b634e487b7160e01b600052604160045260246000fd5b634e487b7160e01b600052603260045260246000fd5b60006020828403121561034157600080fd5b813561034c8161021c565b9392505050565b60005b8381101561036e578181015183820152602001610356565b50506000910152565b6000602080830181845280855180835260408601915060408160051b870101925083870160005b828110156103e457878503603f19018452815180518087526103c5818989018a8501610353565b601f01601f19169590950186019450928501929085019060010161039e565b5092979650505050505050565b604051601f8201601f1916810167ffffffffffffffff8111828210171561041a5761041a610303565b604052919050565b6000602080838503121561043557600080fd5b825167ffffffffffffffff8082111561044d57600080fd5b8185019150601f86601f84011261046357600080fd5b82518281111561047557610475610303565b8060051b6104848682016103f1565b918252848101860191868101908a84111561049e57600080fd5b87870192505b8383101561052b578251868111156104bc5760008081fd5b8701603f81018c136104ce5760008081fd5b888101516040888211156104e4576104e4610303565b6104f5828901601f19168c016103f1565b8281528e8284860101111561050a5760008081fd5b610519838d8301848701610353565b855250505091870191908701906104a4565b9a9950505050505050505050565b60006020828403121561054b57600080fd5b8151801515811461034c57600080fdfea26469706673582212206fd92f9b0b9adc4df1b5b959a7c15c1e83e7d14bd080346b3155b0c1ff0dd03564736f6c63430008180033",
  "linkReferences": {},
  "deployedLinkReferences": {}
}