{
  "_format": "hh-sol-artifact-1",
  "contractName": "ERC1271MaliciousMock",
  "sourceName": "contracts/standart_token/mocks/ERC1271WalletMock.sol",
  "abi": [
    {
      "inputs": [
        {
          "internalType": "bytes32",
          "name": "",
          "type": "bytes32"
        },
        {
          "internalType": "bytes",
          "name": "",
          "type": "bytes"
        }
      ],
      "name": "isValidSignature",
      "outputs": [
        {
          "internalType": "bytes4",
          "name": "",
          "type": "bytes4"
        }
      ],
      "stateMutability": "pure",
      "type": "function"
    }
  ],
  "bytecode": "0x608060405234801561001057600080fd5b50610174806100206000396000f3fe608060405234801561001057600080fd5b506004361061002b5760003560e01c80631626ba7e14610030575b600080fd5b61004361003e366004610083565b610060565b6040516001600160e01b0319909116815260200160405180910390f35b6000801960005260206000f35b634e487b7160e01b600052604160045260246000fd5b6000806040838503121561009657600080fd5b82359150602083013567ffffffffffffffff808211156100b557600080fd5b818501915085601f8301126100c957600080fd5b8135818111156100db576100db61006d565b604051601f8201601f19908116603f011681019083821181831017156101035761010361006d565b8160405282815288602084870101111561011c57600080fd5b826020860160208301376000602084830101528095505050505050925092905056fea26469706673582212209125eba3454d39db9fbd0183380f142c271d0e1c2a53f492ffc54092e958d84f64736f6c63430008180033",
  "linkReferences": {},
  "deployedLinkReferences": {}
}