{
  "_format": "hh-sol-artifact-1",
  "contractName": "MyGovernor1",
  "sourceName": "contracts/standart_token/mocks/wizard/MyGovernor1.sol",
  "abi": [
    {
      "inputs": [
        {
          "internalType": "contract IVotes",
          "name": "_token",
          "type": "address"
        },
        {
          "internalType": "contract TimelockController",
          "name": "_timelock",
          "type": "address"
        }
      ],
      "stateMutability": "nonpayable",
      "type": "constructor"
    },
    {
      "inputs": [],
      "name": "Empty",
      "type": "error"
    },
    {
      "inputs": [
        {
          "internalType": "string",
          "name": "str",
          "type": "string"
        }
      ],
      "name": "StringTooLong",
      "type": "error"
    },
    {
      "anonymous": false,
      "inputs": [],
      "name": "EIP712DomainChanged",
      "type": "event"
    },
    {
      "anonymous": false,
      "inputs": [
        {
          "indexed": false,
          "internalType": "uint256",
          "name": "proposalId",
          "type": "uint256"
        }
      ],
      "name": "ProposalCanceled",
      "type": "event"
    },
    {
      "anonymous": false,
      "inputs": [
        {
          "indexed": false,
          "internalType": "uint256",
          "name": "proposalId",
          "type": "uint256"
        },
        {
          "indexed": false,
          "internalType": "address",
          "name": "proposer",
          "type": "address"
        },
        {
          "indexed": false,
          "internalType": "address[]",
          "name": "targets",
          "type": "address[]"
        },
        {
          "indexed": false,
          "internalType": "uint256[]",
          "name": "values",
          "type": "uint256[]"
        },
        {
          "indexed": false,
          "internalType": "string[]",
          "name": "signatures",
          "type": "string[]"
        },
        {
          "indexed": false,
          "internalType": "bytes[]",
          "name": "calldatas",
          "type": "bytes[]"
        },
        {
          "indexed": false,
          "internalType": "uint256",
          "name": "voteStart",
          "type": "uint256"
        },
        {
          "indexed": false,
          "internalType": "uint256",
          "name": "voteEnd",
          "type": "uint256"
        },
        {
          "indexed": false,
          "internalType": "string",
          "name": "description",
          "type": "string"
        }
      ],
      "name": "ProposalCreated",
      "type": "event"
    },
    {
      "anonymous": false,
      "inputs": [
        {
          "indexed": false,
          "internalType": "uint256",
          "name": "proposalId",
          "type": "uint256"
        }
      ],
      "name": "ProposalExecuted",
      "type": "event"
    },
    {
      "anonymous": false,
      "inputs": [
        {
          "indexed": false,
          "internalType": "uint256",
          "name": "proposalId",
          "type": "uint256"
        },
        {
          "indexed": false,
          "internalType": "uint256",
          "name": "eta",
          "type": "uint256"
        }
      ],
      "name": "ProposalQueued",
      "type": "event"
    },
    {
      "anonymous": false,
      "inputs": [
        {
          "indexed": false,
          "internalType": "uint256",
          "name": "oldQuorumNumerator",
          "type": "uint256"
        },
        {
          "indexed": false,
          "internalType": "uint256",
          "name": "newQuorumNumerator",
          "type": "uint256"
        }
      ],
      "name": "QuorumNumeratorUpdated",
      "type": "event"
    },
    {
      "anonymous": false,
      "inputs": [
        {
          "indexed": false,
          "internalType": "address",
          "name": "oldTimelock",
          "type": "address"
        },
        {
          "indexed": false,
          "internalType": "address",
          "name": "newTimelock",
          "type": "address"
        }
      ],
      "name": "TimelockChange",
      "type": "event"
    },
    {
      "anonymous": false,
      "inputs": [
        {
          "indexed": true,
          "internalType": "address",
          "name": "voter",
          "type": "address"
        },
        {
          "indexed": false,
          "internalType": "uint256",
          "name": "proposalId",
          "type": "uint256"
        },
        {
          "indexed": false,
          "internalType": "uint8",
          "name": "support",
          "type": "uint8"
        },
        {
          "indexed": false,
          "internalType": "uint256",
          "name": "weight",
          "type": "uint256"
        },
        {
          "indexed": false,
          "internalType": "string",
          "name": "reason",
          "type": "string"
        }
      ],
      "name": "VoteCast",
      "type": "event"
    },
    {
      "anonymous": false,
      "inputs": [
        {
          "indexed": true,
          "internalType": "address",
          "name": "voter",
          "type": "address"
        },
        {
          "indexed": false,
          "internalType": "uint256",
          "name": "proposalId",
          "type": "uint256"
        },
        {
          "indexed": false,
          "internalType": "uint8",
          "name": "support",
          "type": "uint8"
        },
        {
          "indexed": false,
          "internalType": "uint256",
          "name": "weight",
          "type": "uint256"
        },
        {
          "indexed": false,
          "internalType": "string",
          "name": "reason",
          "type": "string"
        },
        {
          "indexed": false,
          "internalType": "bytes",
          "name": "params",
          "type": "bytes"
        }
      ],
      "name": "VoteCastWithParams",
      "type": "event"
    },
    {
      "inputs": [],
      "name": "BALLOT_TYPEHASH",
      "outputs": [
        {
          "internalType": "bytes32",
          "name": "",
          "type": "bytes32"
        }
      ],
      "stateMutability": "view",
      "type": "function"
    },
    {
      "inputs": [],
      "name": "CLOCK_MODE",
      "outputs": [
        {
          "internalType": "string",
          "name": "",
          "type": "string"
        }
      ],
      "stateMutability": "view",
      "type": "function"
    },
    {
      "inputs": [],
      "name": "COUNTING_MODE",
      "outputs": [
        {
          "internalType": "string",
          "name": "",
          "type": "string"
        }
      ],
      "stateMutability": "pure",
      "type": "function"
    },
    {
      "inputs": [],
      "name": "EXTENDED_BALLOT_TYPEHASH",
      "outputs": [
        {
          "internalType": "bytes32",
          "name": "",
          "type": "bytes32"
        }
      ],
      "stateMutability": "view",
      "type": "function"
    },
    {
      "inputs": [
        {
          "internalType": "uint256",
          "name": "proposalId",
          "type": "uint256"
        }
      ],
      "name": "cancel",
      "outputs": [],
      "stateMutability": "nonpayable",
      "type": "function"
    },
    {
      "inputs": [
        {
          "internalType": "uint256",
          "name": "proposalId",
          "type": "uint256"
        },
        {
          "internalType": "uint8",
          "name": "support",
          "type": "uint8"
        }
      ],
      "name": "castVote",
      "outputs": [
        {
          "internalType": "uint256",
          "name": "",
          "type": "uint256"
        }
      ],
      "stateMutability": "nonpayable",
      "type": "function"
    },
    {
      "inputs": [
        {
          "internalType": "uint256",
          "name": "proposalId",
          "type": "uint256"
        },
        {
          "internalType": "uint8",
          "name": "support",
          "type": "uint8"
        },
        {
          "internalType": "uint8",
          "name": "v",
          "type": "uint8"
        },
        {
          "internalType": "bytes32",
          "name": "r",
          "type": "bytes32"
        },
        {
          "internalType": "bytes32",
          "name": "s",
          "type": "bytes32"
        }
      ],
      "name": "castVoteBySig",
      "outputs": [
        {
          "internalType": "uint256",
          "name": "",
          "type": "uint256"
        }
      ],
      "stateMutability": "nonpayable",
      "type": "function"
    },
    {
      "inputs": [
        {
          "internalType": "uint256",
          "name": "proposalId",
          "type": "uint256"
        },
        {
          "internalType": "uint8",
          "name": "support",
          "type": "uint8"
        },
        {
          "internalType": "string",
          "name": "reason",
          "type": "string"
        }
      ],
      "name": "castVoteWithReason",
      "outputs": [
        {
          "internalType": "uint256",
          "name": "",
          "type": "uint256"
        }
      ],
      "stateMutability": "nonpayable",
      "type": "function"
    },
    {
      "inputs": [
        {
          "internalType": "uint256",
          "name": "proposalId",
          "type": "uint256"
        },
        {
          "internalType": "uint8",
          "name": "support",
          "type": "uint8"
        },
        {
          "internalType": "string",
          "name": "reason",
          "type": "string"
        },
        {
          "internalType": "bytes",
          "name": "params",
          "type": "bytes"
        }
      ],
      "name": "castVoteWithReasonAndParams",
      "outputs": [
        {
          "internalType": "uint256",
          "name": "",
          "type": "uint256"
        }
      ],
      "stateMutability": "nonpayable",
      "type": "function"
    },
    {
      "inputs": [
        {
          "internalType": "uint256",
          "name": "proposalId",
          "type": "uint256"
        },
        {
          "internalType": "uint8",
          "name": "support",
          "type": "uint8"
        },
        {
          "internalType": "string",
          "name": "reason",
          "type": "string"
        },
        {
          "internalType": "bytes",
          "name": "params",
          "type": "bytes"
        },
        {
          "internalType": "uint8",
          "name": "v",
          "type": "uint8"
        },
        {
          "internalType": "bytes32",
          "name": "r",
          "type": "bytes32"
        },
        {
          "internalType": "bytes32",
          "name": "s",
          "type": "bytes32"
        }
      ],
      "name": "castVoteWithReasonAndParamsBySig",
      "outputs": [
        {
          "internalType": "uint256",
          "name": "",
          "type": "uint256"
        }
      ],
      "stateMutability": "nonpayable",
      "type": "function"
    },
    {
      "inputs": [],
      "name": "clock",
      "outputs": [
        {
          "internalType": "uint48",
          "name": "",
          "type": "uint48"
        }
      ],
      "stateMutability": "view",
      "type": "function"
    },
    {
      "inputs": [],
      "name": "eip712Domain",
      "outputs": [
        {
          "internalType": "bytes1",
          "name": "fields",
          "type": "bytes1"
        },
        {
          "internalType": "string",
          "name": "name",
          "type": "string"
        },
        {
          "internalType": "string",
          "name": "version",
          "type": "string"
        },
        {
          "internalType": "uint256",
          "name": "chainId",
          "type": "uint256"
        },
        {
          "internalType": "address",
          "name": "verifyingContract",
          "type": "address"
        },
        {
          "internalType": "bytes32",
          "name": "salt",
          "type": "bytes32"
        },
        {
          "internalType": "uint256[]",
          "name": "extensions",
          "type": "uint256[]"
        }
      ],
      "stateMutability": "view",
      "type": "function"
    },
    {
      "inputs": [
        {
          "internalType": "address[]",
          "name": "targets",
          "type": "address[]"
        },
        {
          "internalType": "uint256[]",
          "name": "values",
          "type": "uint256[]"
        },
        {
          "internalType": "bytes[]",
          "name": "calldatas",
          "type": "bytes[]"
        },
        {
          "internalType": "bytes32",
          "name": "descriptionHash",
          "type": "bytes32"
        }
      ],
      "name": "execute",
      "outputs": [
        {
          "internalType": "uint256",
          "name": "",
          "type": "uint256"
        }
      ],
      "stateMutability": "payable",
      "type": "function"
    },
    {
      "inputs": [
        {
          "internalType": "address",
          "name": "account",
          "type": "address"
        },
        {
          "internalType": "uint256",
          "name": "timepoint",
          "type": "uint256"
        }
      ],
      "name": "getVotes",
      "outputs": [
        {
          "internalType": "uint256",
          "name": "",
          "type": "uint256"
        }
      ],
      "stateMutability": "view",
      "type": "function"
    },
    {
      "inputs": [
        {
          "internalType": "address",
          "name": "account",
          "type": "address"
        },
        {
          "internalType": "uint256",
          "name": "timepoint",
          "type": "uint256"
        },
        {
          "internalType": "bytes",
          "name": "params",
          "type": "bytes"
        }
      ],
      "name": "getVotesWithParams",
      "outputs": [
        {
          "internalType": "uint256",
          "name": "",
          "type": "uint256"
        }
      ],
      "stateMutability": "view",
      "type": "function"
    },
    {
      "inputs": [
        {
          "internalType": "uint256",
          "name": "proposalId",
          "type": "uint256"
        },
        {
          "internalType": "address",
          "name": "account",
          "type": "address"
        }
      ],
      "name": "hasVoted",
      "outputs": [
        {
          "internalType": "bool",
          "name": "",
          "type": "bool"
        }
      ],
      "stateMutability": "view",
      "type": "function"
    },
    {
      "inputs": [
        {
          "internalType": "address[]",
          "name": "targets",
          "type": "address[]"
        },
        {
          "internalType": "uint256[]",
          "name": "values",
          "type": "uint256[]"
        },
        {
          "internalType": "bytes[]",
          "name": "calldatas",
          "type": "bytes[]"
        },
        {
          "internalType": "bytes32",
          "name": "descriptionHash",
          "type": "bytes32"
        }
      ],
      "name": "hashProposal",
      "outputs": [
        {
          "internalType": "uint256",
          "name": "",
          "type": "uint256"
        }
      ],
      "stateMutability": "pure",
      "type": "function"
    },
    {
      "inputs": [],
      "name": "name",
      "outputs": [
        {
          "internalType": "string",
          "name": "",
          "type": "string"
        }
      ],
      "stateMutability": "view",
      "type": "function"
    },
    {
      "inputs": [
        {
          "internalType": "address",
          "name": "",
          "type": "address"
        },
        {
          "internalType": "address",
          "name": "",
          "type": "address"
        },
        {
          "internalType": "uint256[]",
          "name": "",
          "type": "uint256[]"
        },
        {
          "internalType": "uint256[]",
          "name": "",
          "type": "uint256[]"
        },
        {
          "internalType": "bytes",
          "name": "",
          "type": "bytes"
        }
      ],
      "name": "onERC1155BatchReceived",
      "outputs": [
        {
          "internalType": "bytes4",
          "name": "",
          "type": "bytes4"
        }
      ],
      "stateMutability": "nonpayable",
      "type": "function"
    },
    {
      "inputs": [
        {
          "internalType": "address",
          "name": "",
          "type": "address"
        },
        {
          "internalType": "address",
          "name": "",
          "type": "address"
        },
        {
          "internalType": "uint256",
          "name": "",
          "type": "uint256"
        },
        {
          "internalType": "uint256",
          "name": "",
          "type": "uint256"
        },
        {
          "internalType": "bytes",
          "name": "",
          "type": "bytes"
        }
      ],
      "name": "onERC1155Received",
      "outputs": [
        {
          "internalType": "bytes4",
          "name": "",
          "type": "bytes4"
        }
      ],
      "stateMutability": "nonpayable",
      "type": "function"
    },
    {
      "inputs": [
        {
          "internalType": "address",
          "name": "",
          "type": "address"
        },
        {
          "internalType": "address",
          "name": "",
          "type": "address"
        },
        {
          "internalType": "uint256",
          "name": "",
          "type": "uint256"
        },
        {
          "internalType": "bytes",
          "name": "",
          "type": "bytes"
        }
      ],
      "name": "onERC721Received",
      "outputs": [
        {
          "internalType": "bytes4",
          "name": "",
          "type": "bytes4"
        }
      ],
      "stateMutability": "nonpayable",
      "type": "function"
    },
    {
      "inputs": [
        {
          "internalType": "uint256",
          "name": "proposalId",
          "type": "uint256"
        }
      ],
      "name": "proposalDeadline",
      "outputs": [
        {
          "internalType": "uint256",
          "name": "",
          "type": "uint256"
        }
      ],
      "stateMutability": "view",
      "type": "function"
    },
    {
      "inputs": [
        {
          "internalType": "uint256",
          "name": "proposalId",
          "type": "uint256"
        }
      ],
      "name": "proposalEta",
      "outputs": [
        {
          "internalType": "uint256",
          "name": "",
          "type": "uint256"
        }
      ],
      "stateMutability": "view",
      "type": "function"
    },
    {
      "inputs": [
        {
          "internalType": "uint256",
          "name": "proposalId",
          "type": "uint256"
        }
      ],
      "name": "proposalSnapshot",
      "outputs": [
        {
          "internalType": "uint256",
          "name": "",
          "type": "uint256"
        }
      ],
      "stateMutability": "view",
      "type": "function"
    },
    {
      "inputs": [],
      "name": "proposalThreshold",
      "outputs": [
        {
          "internalType": "uint256",
          "name": "",
          "type": "uint256"
        }
      ],
      "stateMutability": "view",
      "type": "function"
    },
    {
      "inputs": [
        {
          "internalType": "uint256",
          "name": "proposalId",
          "type": "uint256"
        }
      ],
      "name": "proposalVotes",
      "outputs": [
        {
          "internalType": "uint256",
          "name": "againstVotes",
          "type": "uint256"
        },
        {
          "internalType": "uint256",
          "name": "forVotes",
          "type": "uint256"
        },
        {
          "internalType": "uint256",
          "name": "abstainVotes",
          "type": "uint256"
        }
      ],
      "stateMutability": "view",
      "type": "function"
    },
    {
      "inputs": [
        {
          "internalType": "address[]",
          "name": "targets",
          "type": "address[]"
        },
        {
          "internalType": "uint256[]",
          "name": "values",
          "type": "uint256[]"
        },
        {
          "internalType": "bytes[]",
          "name": "calldatas",
          "type": "bytes[]"
        },
        {
          "internalType": "string",
          "name": "description",
          "type": "string"
        }
      ],
      "name": "propose",
      "outputs": [
        {
          "internalType": "uint256",
          "name": "",
          "type": "uint256"
        }
      ],
      "stateMutability": "nonpayable",
      "type": "function"
    },
    {
      "inputs": [
        {
          "internalType": "address[]",
          "name": "targets",
          "type": "address[]"
        },
        {
          "internalType": "uint256[]",
          "name": "values",
          "type": "uint256[]"
        },
        {
          "internalType": "bytes[]",
          "name": "calldatas",
          "type": "bytes[]"
        },
        {
          "internalType": "bytes32",
          "name": "descriptionHash",
          "type": "bytes32"
        }
      ],
      "name": "queue",
      "outputs": [
        {
          "internalType": "uint256",
          "name": "",
          "type": "uint256"
        }
      ],
      "stateMutability": "nonpayable",
      "type": "function"
    },
    {
      "inputs": [
        {
          "internalType": "uint256",
          "name": "blockNumber",
          "type": "uint256"
        }
      ],
      "name": "quorum",
      "outputs": [
        {
          "internalType": "uint256",
          "name": "",
          "type": "uint256"
        }
      ],
      "stateMutability": "view",
      "type": "function"
    },
    {
      "inputs": [],
      "name": "quorumDenominator",
      "outputs": [
        {
          "internalType": "uint256",
          "name": "",
          "type": "uint256"
        }
      ],
      "stateMutability": "view",
      "type": "function"
    },
    {
      "inputs": [
        {
          "internalType": "uint256",
          "name": "timepoint",
          "type": "uint256"
        }
      ],
      "name": "quorumNumerator",
      "outputs": [
        {
          "internalType": "uint256",
          "name": "",
          "type": "uint256"
        }
      ],
      "stateMutability": "view",
      "type": "function"
    },
    {
      "inputs": [],
      "name": "quorumNumerator",
      "outputs": [
        {
          "internalType": "uint256",
          "name": "",
          "type": "uint256"
        }
      ],
      "stateMutability": "view",
      "type": "function"
    },
    {
      "inputs": [
        {
          "internalType": "address",
          "name": "target",
          "type": "address"
        },
        {
          "internalType": "uint256",
          "name": "value",
          "type": "uint256"
        },
        {
          "internalType": "bytes",
          "name": "data",
          "type": "bytes"
        }
      ],
      "name": "relay",
      "outputs": [],
      "stateMutability": "payable",
      "type": "function"
    },
    {
      "inputs": [
        {
          "internalType": "uint256",
          "name": "proposalId",
          "type": "uint256"
        }
      ],
      "name": "state",
      "outputs": [
        {
          "internalType": "enum IGovernor.ProposalState",
          "name": "",
          "type": "uint8"
        }
      ],
      "stateMutability": "view",
      "type": "function"
    },
    {
      "inputs": [
        {
          "internalType": "bytes4",
          "name": "interfaceId",
          "type": "bytes4"
        }
      ],
      "name": "supportsInterface",
      "outputs": [
        {
          "internalType": "bool",
          "name": "",
          "type": "bool"
        }
      ],
      "stateMutability": "view",
      "type": "function"
    },
    {
      "inputs": [],
      "name": "timelock",
      "outputs": [
        {
          "internalType": "address",
          "name": "",
          "type": "address"
        }
      ],
      "stateMutability": "view",
      "type": "function"
    },
    {
      "inputs": [],
      "name": "token",
      "outputs": [
        {
          "internalType": "contract IERC5805",
          "name": "",
          "type": "address"
        }
      ],
      "stateMutability": "view",
      "type": "function"
    },
    {
      "inputs": [
        {
          "internalType": "uint256",
          "name": "newQuorumNumerator",
          "type": "uint256"
        }
      ],
      "name": "updateQuorumNumerator",
      "outputs": [],
      "stateMutability": "nonpayable",
      "type": "function"
    },
    {
      "inputs": [
        {
          "internalType": "contract TimelockController",
          "name": "newTimelock",
          "type": "address"
        }
      ],
      "name": "updateTimelock",
      "outputs": [],
      "stateMutability": "nonpayable",
      "type": "function"
    },
    {
      "inputs": [],
      "name": "version",
      "outputs": [
        {
          "internalType": "string",
          "name": "",
          "type": "string"
        }
      ],
      "stateMutability": "view",
      "type": "function"
    },
    {
      "inputs": [],
      "name": "votingDelay",
      "outputs": [
        {
          "internalType": "uint256",
          "name": "",
          "type": "uint256"
        }
      ],
      "stateMutability": "pure",
      "type": "function"
    },
    {
      "inputs": [],
      "name": "votingPeriod",
      "outputs": [
        {
          "internalType": "uint256",
          "name": "",
          "type": "uint256"
        }
      ],
      "stateMutability": "pure",
      "type": "function"
    },
    {
      "stateMutability": "payable",
      "type": "receive"
    }
  ],
  "bytecode": "0x6101806040523480156200001257600080fd5b5060405162004b3738038062004b378339810160408190526200003591620007fd565b600482826040518060400160405280600a81526020016926bca3b7bb32b93737b960b11b815250806200006d6200016160201b60201c565b6200007a8260006200017c565b60e0526200008a8160016200017c565b61010052815160208084019190912061012052815190820120610140524660a0526200011a6101205161014051604080517f8b73c3c69bb8fe3d512ecc4cf759cc79239f7b179b0ffacaa9a75d522b39400f60208201529081019290925260608201524660808201523060a082015260009060c00160405160208183030381529060405280519060200120905090565b60805250503060c0526002620001318282620008e3565b506200013f905081620001b5565b506001600160a01b03166101605262000158816200021e565b50505062000a71565b6040805180820190915260018152603160f81b602082015290565b60006020835110156200019c576200019483620003a1565b9050620001af565b81620001a98482620008e3565b50600090505b92915050565b600654604080516001600160a01b03928316815291831660208301527f08f74ea46ef7894f65eabfb5e6e695de773a000b47c529ab559178069b226401910160405180910390a1600680546001600160a01b0319166001600160a01b0392909216919091179055565b6064811115620002a75760405162461bcd60e51b815260206004820152604360248201527f476f7665726e6f72566f74657351756f72756d4672616374696f6e3a2071756f60448201527f72756d4e756d657261746f72206f7665722071756f72756d44656e6f6d696e616064820152623a37b960e91b608482015260a4015b60405180910390fd5b6000620002b3620003e4565b90508015801590620002c55750600954155b156200032d57604080518082019091526000815260099060208101620002eb8462000413565b6001600160e01b0390811690915282546001810184556000938452602093849020835194909301519091166401000000000263ffffffff909316929092179101555b620003626200034d6200033f62000482565b65ffffffffffff16620004f9565b620003588462000413565b6009919062000560565b505060408051828152602081018490527f0553476bf02ef2726e8ce5ced78d63e26e602e4a2257b1f559418e24b4633997910160405180910390a15050565b600080829050601f81511115620003cf578260405163305a27a960e01b81526004016200029e9190620009af565b8051620003dc8262000a00565b179392505050565b600954600090156200040a57620003fc60096200057d565b6001600160e01b0316905090565b6008545b905090565b60006001600160e01b038211156200047e5760405162461bcd60e51b815260206004820152602760248201527f53616665436173743a2076616c756520646f65736e27742066697420696e20326044820152663234206269747360c81b60648201526084016200029e565b5090565b6000610160516001600160a01b03166391ddadf46040518163ffffffff1660e01b8152600401602060405180830381865afa925050508015620004e4575060408051601f3d908101601f19168201909252620004e19181019062000a25565b60015b620004f4576200040e43620005cb565b919050565b600063ffffffff8211156200047e5760405162461bcd60e51b815260206004820152602660248201527f53616665436173743a2076616c756520646f65736e27742066697420696e203360448201526532206269747360d01b60648201526084016200029e565b6000806200057085858562000634565b915091505b935093915050565b80546000908015620005c157620005a9836200059b60018462000a4f565b600091825260209091200190565b5464010000000090046001600160e01b0316620005c4565b60005b9392505050565b600065ffffffffffff8211156200047e5760405162461bcd60e51b815260206004820152602660248201527f53616665436173743a2076616c756520646f65736e27742066697420696e203460448201526538206269747360d01b60648201526084016200029e565b8254600090819080156200078957600062000656876200059b60018562000a4f565b60408051808201909152905463ffffffff8082168084526401000000009092046001600160e01b031660208401529192509087161015620006da5760405162461bcd60e51b815260206004820152601b60248201527f436865636b706f696e743a2064656372656173696e67206b657973000000000060448201526064016200029e565b805163ffffffff808816911603620007285784620006ff886200059b60018662000a4f565b80546001600160e01b03929092166401000000000263ffffffff90921691909117905562000778565b6040805180820190915263ffffffff80881682526001600160e01b0380881660208085019182528b54600181018d5560008d81529190912094519151909216640100000000029216919091179101555b602001519250839150620005759050565b50506040805180820190915263ffffffff80851682526001600160e01b0380851660208085019182528854600181018a5560008a81529182209551925190931664010000000002919093161792019190915590508162000575565b6001600160a01b0381168114620007fa57600080fd5b50565b600080604083850312156200081157600080fd5b82516200081e81620007e4565b60208401519092506200083181620007e4565b809150509250929050565b634e487b7160e01b600052604160045260246000fd5b600181811c908216806200086757607f821691505b6020821081036200088857634e487b7160e01b600052602260045260246000fd5b50919050565b601f821115620008de576000816000526020600020601f850160051c81016020861015620008b95750805b601f850160051c820191505b81811015620008da57828155600101620008c5565b5050505b505050565b81516001600160401b03811115620008ff57620008ff6200083c565b620009178162000910845462000852565b846200088e565b602080601f8311600181146200094f5760008415620009365750858301515b600019600386901b1c1916600185901b178555620008da565b600085815260208120601f198616915b8281101562000980578886015182559484019460019091019084016200095f565b50858210156200099f5787850151600019600388901b60f8161c191681555b5050505050600190811b01905550565b60006020808352835180602085015260005b81811015620009df57858101830151858201604001528201620009c1565b506000604082860101526040601f19601f8301168501019250505092915050565b80516020808301519190811015620008885760001960209190910360031b1b16919050565b60006020828403121562000a3857600080fd5b815165ffffffffffff81168114620005c457600080fd5b81810381811115620001af57634e487b7160e01b600052601160045260246000fd5b60805160a05160c05160e0516101005161012051610140516101605161404462000af3600039600081816108c601528181610f9d01528181611274015281816122a801526123ea015260006125b60152600061258e01526000611220015260006111f6015260006124e9015260006125130152600061253d01526140446000f3fe6080604052600436106102555760003560e01c80637b3c71d311610139578063bc197c81116100b6578063dd4e2ba51161007a578063dd4e2ba5146107ce578063deaaa7cc14610814578063eb9019d414610848578063f23a6e6114610868578063f8ce560a14610894578063fc0c546a146108b457600080fd5b8063bc197c8114610704578063c01f9e3714610730578063c28bc2fa14610769578063c59057e41461077c578063d33219b41461079c57600080fd5b80639a802a6d116100fd5780639a802a6d1461067b578063a7713a701461069b578063a890c910146106b0578063ab58fb8e146106d0578063b58131b0146106f057600080fd5b80637b3c71d3146105d35780637d5e81e2146105f357806384b0196e1461061357806391ddadf41461063b57806397c3d3341461066757600080fd5b80633932abb1116101d25780634bf5d7e9116101965780634bf5d7e9146104df578063544ffc9c146104f457806354fd4d501461054957806356781388146105735780635f398a141461059357806360c4247f146105b357600080fd5b80633932abb1146104145780633bccf4fd146104285780633e4f49e61461044857806340e58ee514610475578063438596321461049557600080fd5b8063150b7a0211610219578063150b7a0214610333578063160cbed7146103775780632656227d146103975780632d63f693146103aa5780632fe3e261146103e057600080fd5b806301ffc9a71461027d57806302a251a3146102b257806303420181146102d157806306f3f9e6146102f157806306fdde031461031157600080fd5b3661027857306102636108e8565b6001600160a01b03161461027657600080fd5b005b600080fd5b34801561028957600080fd5b5061029d6102983660046130c0565b610901565b60405190151581526020015b60405180910390f35b3480156102be57600080fd5b5061b2fa5b6040519081526020016102a9565b3480156102dd57600080fd5b506102c36102ec36600461320e565b610912565b3480156102fd57600080fd5b5061027661030c3660046132b4565b610a0a565b34801561031d57600080fd5b50610326610a9d565b6040516102a9919061331d565b34801561033f57600080fd5b5061035e61034e366004613345565b630a85bd0160e11b949350505050565b6040516001600160e01b031990911681526020016102a9565b34801561038357600080fd5b506102c3610392366004613524565b610b2f565b6102c36103a5366004613524565b610d2f565b3480156103b657600080fd5b506102c36103c53660046132b4565b6000908152600360205260409020546001600160401b031690565b3480156103ec57600080fd5b506102c37fb3b3f3b703cd84ce352197dcff232b1b5d3cfb2025ce47cf04742d0651f1af8881565b34801561042057600080fd5b5060016102c3565b34801561043457600080fd5b506102c36104433660046135b3565b610e21565b34801561045457600080fd5b506104686104633660046132b4565b610e97565b6040516102a99190613617565b34801561048157600080fd5b506102766104903660046132b4565b610ea2565b3480156104a157600080fd5b5061029d6104b036600461363f565b6000828152600a602090815260408083206001600160a01b038516845260030190915290205460ff1692915050565b3480156104eb57600080fd5b50610326610f99565b34801561050057600080fd5b5061052e61050f3660046132b4565b6000908152600a60205260409020805460018201546002909201549092565b604080519384526020840192909252908201526060016102a9565b34801561055557600080fd5b506040805180820190915260018152603160f81b6020820152610326565b34801561057f57600080fd5b506102c361058e36600461366f565b61105b565b34801561059f57600080fd5b506102c36105ae36600461369b565b611084565b3480156105bf57600080fd5b506102c36105ce3660046132b4565b6110ce565b3480156105df57600080fd5b506102c36105ee36600461371e565b61117f565b3480156105ff57600080fd5b506102c361060e366004613777565b6111d1565b34801561061f57600080fd5b506106286111e8565b6040516102a99796959493929190613867565b34801561064757600080fd5b50610650611270565b60405165ffffffffffff90911681526020016102a9565b34801561067357600080fd5b5060646102c3565b34801561068757600080fd5b506102c36106963660046138c9565b6112f9565b3480156106a757600080fd5b506102c3611310565b3480156106bc57600080fd5b506102766106cb366004613921565b61133a565b3480156106dc57600080fd5b506102c36106eb3660046132b4565b6113c1565b3480156106fc57600080fd5b5060006102c3565b34801561071057600080fd5b5061035e61071f36600461393e565b63bc197c8160e01b95945050505050565b34801561073c57600080fd5b506102c361074b3660046132b4565b6000908152600360205260409020600101546001600160401b031690565b6102766107773660046139d1565b61145b565b34801561078857600080fd5b506102c3610797366004613524565b61156a565b3480156107a857600080fd5b506006546001600160a01b03165b6040516001600160a01b0390911681526020016102a9565b3480156107da57600080fd5b506040805180820190915260208082527f737570706f72743d627261766f2671756f72756d3d666f722c6162737461696e90820152610326565b34801561082057600080fd5b506102c37f150214d74d59b7d1e90c73fc22ef3d991dd0a76b046543d4d80ab92d2a50328f81565b34801561085457600080fd5b506102c3610863366004613a14565b6115a4565b34801561087457600080fd5b5061035e610883366004613a40565b63f23a6e6160e01b95945050505050565b3480156108a057600080fd5b506102c36108af3660046132b4565b6115c5565b3480156108c057600080fd5b506107b67f000000000000000000000000000000000000000000000000000000000000000081565b60006108fc6006546001600160a01b031690565b905090565b600061090c826115d0565b92915050565b6000806109b66109ae7fb3b3f3b703cd84ce352197dcff232b1b5d3cfb2025ce47cf04742d0651f1af888c8c8c8c60405161094e929190613aa8565b60405180910390208b80519060200120604051602001610993959493929190948552602085019390935260ff9190911660408401526060830152608082015260a00190565b604051602081830303815290604052805190602001206115f5565b868686611622565b90506109fc8a828b8b8b8080601f0160208091040260200160405190810160405280939291908181526020018383808284376000920191909152508d9250611640915050565b9a9950505050505050505050565b610a126108e8565b6001600160a01b0316336001600160a01b031614610a4b5760405162461bcd60e51b8152600401610a4290613ab8565b60405180910390fd5b30610a546108e8565b6001600160a01b031614610a915760008036604051610a74929190613aa8565b604051809103902090505b80610a8a6004611795565b03610a7f57505b610a9a81611814565b50565b606060028054610aac90613aef565b80601f0160208091040260200160405190810160405280929190818152602001828054610ad890613aef565b8015610b255780601f10610afa57610100808354040283529160200191610b25565b820191906000526020600020905b815481529060010190602001808311610b0857829003601f168201915b5050505050905090565b600080610b3e8686868661156a565b90506004610b4b82610e97565b6007811115610b5c57610b5c613601565b14610b795760405162461bcd60e51b8152600401610a4290613b29565b6006546040805163793d064960e11b815290516000926001600160a01b03169163f27a0c929160048083019260209291908290030181865afa158015610bc3573d6000803e3d6000fd5b505050506040513d601f19601f82011682018060405250810190610be79190613b6a565b60065460405163b1c5f42760e01b81529192506001600160a01b03169063b1c5f42790610c21908a908a908a906000908b90600401613c17565b602060405180830381865afa158015610c3e573d6000803e3d6000fd5b505050506040513d601f19601f82011682018060405250810190610c629190613b6a565b6000838152600760205260408082209290925560065491516308f2a0bb60e41b81526001600160a01b0390921691638f2a0bb091610cad918b918b918b91908b908990600401613c65565b600060405180830381600087803b158015610cc757600080fd5b505af1158015610cdb573d6000803e3d6000fd5b505050507f9a2e42fd6722813d69113e7d0079d3d940171428df7373df9c7f7617cfda2892828242610d0d9190613cd3565b6040805192835260208301919091520160405180910390a15095945050505050565b600080610d3e8686868661156a565b90506000610d4b82610e97565b90506004816007811115610d6157610d61613601565b1480610d7e57506005816007811115610d7c57610d7c613601565b145b610d9a5760405162461bcd60e51b8152600401610a4290613b29565b60008281526003602052604090819020600201805460ff19166001179055517f712ae1383f79ac853f8d882153778e0260ef8f03b504e2866e0593e04d2b291f90610de89084815260200190565b60405180910390a1610dfd8288888888611982565b610e0a8288888888611a1c565b610e178288888888611a29565b5095945050505050565b604080517f150214d74d59b7d1e90c73fc22ef3d991dd0a76b046543d4d80ab92d2a50328f602082015290810186905260ff851660608201526000908190610e6f906109ae90608001610993565b9050610e8c87828860405180602001604052806000815250611a62565b979650505050505050565b600061090c82611a85565b6000610ead82610e97565b6007811115610ebe57610ebe613601565b14610f0b5760405162461bcd60e51b815260206004820152601c60248201527f476f7665726e6f723a20746f6f206c61746520746f2063616e63656c000000006044820152606401610a42565b600081815260036020526040902054600160401b90046001600160a01b0316336001600160a01b031614610f8c5760405162461bcd60e51b815260206004820152602260248201527f476f7665726e6f723a206f6e6c792070726f706f7365722063616e2063616e63604482015261195b60f21b6064820152608401610a42565b610f9581611bcf565b5050565b60607f00000000000000000000000000000000000000000000000000000000000000006001600160a01b0316634bf5d7e96040518163ffffffff1660e01b8152600401600060405180830381865afa92505050801561101a57506040513d6000823e601f3d908101601f191682016040526110179190810190613ce6565b60015b611056575060408051808201909152601d81527f6d6f64653d626c6f636b6e756d6265722666726f6d3d64656661756c74000000602082015290565b919050565b60008033905061107c84828560405180602001604052806000815250611a62565b949350505050565b600080339050610e8c87828888888080601f0160208091040260200160405190810160405280939291908181526020018383808284376000920191909152508a9250611640915050565b6009546000908082036110e5575050600854919050565b600060096110f4600184613d53565b8154811061110457611104613d66565b60009182526020918290206040805180820190915291015463ffffffff8116808352600160201b9091046001600160e01b0316928201929092529150841061115a57602001516001600160e01b03169392505050565b61116e61116685611cda565b600990611d43565b6001600160e01b0316949350505050565b6000803390506111c786828787878080601f016020809104026020016040519081016040528093929190818152602001838380828437600092019190915250611a6292505050565b9695505050505050565b60006111df85858585611df6565b95945050505050565b60006060808280808361121b7f00000000000000000000000000000000000000000000000000000000000000008361216c565b6112467f0000000000000000000000000000000000000000000000000000000000000000600161216c565b60408051600080825260208201909252600f60f81b9b939a50919850469750309650945092509050565b60007f00000000000000000000000000000000000000000000000000000000000000006001600160a01b03166391ddadf46040518163ffffffff1660e01b8152600401602060405180830381865afa9250505080156112ec575060408051601f3d908101601f191682019092526112e991810190613d7c565b60015b611056576108fc43612218565b600061130684848461227f565b90505b9392505050565b60095460009015611333576113256009612315565b6001600160e01b0316905090565b5060085490565b6113426108e8565b6001600160a01b0316336001600160a01b0316146113725760405162461bcd60e51b8152600401610a4290613ab8565b3061137b6108e8565b6001600160a01b0316146113b8576000803660405161139b929190613aa8565b604051809103902090505b806113b16004611795565b036113a657505b610a9a81612345565b60065460008281526007602052604080822054905163d45c443560e01b81526004810191909152909182916001600160a01b039091169063d45c443590602401602060405180830381865afa15801561141e573d6000803e3d6000fd5b505050506040513d601f19601f820116820180604052508101906114429190613b6a565b9050806001146114525780611309565b60009392505050565b6114636108e8565b6001600160a01b0316336001600160a01b0316146114935760405162461bcd60e51b8152600401610a4290613ab8565b3061149c6108e8565b6001600160a01b0316146114d957600080366040516114bc929190613aa8565b604051809103902090505b806114d26004611795565b036114c757505b600080856001600160a01b03168585856040516114f7929190613aa8565b60006040518083038185875af1925050503d8060008114611534576040519150601f19603f3d011682016040523d82523d6000602084013e611539565b606091505b50915091506115618282604051806060016040528060288152602001613fe7602891396123ae565b50505050505050565b6000848484846040516020016115839493929190613da4565b60408051601f19818403018152919052805160209091012095945050505050565b600061130983836115c060408051602081019091526000815290565b61227f565b600061090c826123c7565b60006001600160e01b03198216636e665ced60e01b148061090c575061090c82612471565b600061090c6116026124dc565b8360405161190160f01b8152600281019290925260228201526042902090565b600080600061163387878787612607565b91509150610e17816126cb565b6000858152600360205260408120600161165988610e97565b600781111561166a5761166a613601565b146116c35760405162461bcd60e51b815260206004820152602360248201527f476f7665726e6f723a20766f7465206e6f742063757272656e746c792061637460448201526269766560e81b6064820152608401610a42565b80546000906116dd9088906001600160401b03168661227f565b90506116ec8888888488612815565b835160000361174157866001600160a01b03167fb8e138887d0aa13bab447e82de9d5c1777041ecd21ca36ba824ff1e6c07ddda4898884896040516117349493929190613def565b60405180910390a2610e8c565b866001600160a01b03167fe2babfbac5889a709b63bb7f598b324e08bc5a4fb9ec647fb3cbc9ec07eb87128988848989604051611782959493929190613e17565b60405180910390a2979650505050505050565b60006117b08254600f81810b600160801b909204900b131590565b156117ce57604051631ed9509560e11b815260040160405180910390fd5b508054600f0b6000818152600180840160205260408220805492905583546fffffffffffffffffffffffffffffffff191692016001600160801b03169190911790915590565b60648111156118975760405162461bcd60e51b815260206004820152604360248201527f476f7665726e6f72566f74657351756f72756d4672616374696f6e3a2071756f60448201527f72756d4e756d657261746f72206f7665722071756f72756d44656e6f6d696e616064820152623a37b960e91b608482015260a401610a42565b60006118a1611310565b905080158015906118b25750600954155b15611916576040805180820190915260008152600990602081016118d58461298f565b6001600160e01b039081169091528254600181018455600093845260209384902083519490930151909116600160201b0263ffffffff909316929092179101555b611943611931611924611270565b65ffffffffffff16611cda565b61193a8461298f565b600991906129f8565b505060408051828152602081018490527f0553476bf02ef2726e8ce5ced78d63e26e602e4a2257b1f559418e24b4633997910160405180910390a15050565b3061198b6108e8565b6001600160a01b031614611a155760005b8451811015611a1357306001600160a01b03168582815181106119c1576119c1613d66565b60200260200101516001600160a01b031603611a0b57611a0b8382815181106119ec576119ec613d66565b6020026020010151805190602001206004612a1390919063ffffffff16565b60010161199c565b505b5050505050565b611a158585858585612a4f565b30611a326108e8565b6001600160a01b031614611a1557600454600f81810b600160801b909204900b1315611a15576000600455611a15565b60006111df85858585611a8060408051602081019091526000815290565b611640565b600080611a9183612ac3565b90506004816007811115611aa757611aa7613601565b14611ab25792915050565b60008381526007602052604090205480611acd575092915050565b600654604051632ab0f52960e01b8152600481018390526001600160a01b0390911690632ab0f52990602401602060405180830381865afa158015611b16573d6000803e3d6000fd5b505050506040513d601f19601f82011682018060405250810190611b3a9190613e5d565b15611b49575060079392505050565b600654604051632c258a9f60e11b8152600481018390526001600160a01b039091169063584b153e90602401602060405180830381865afa158015611b92573d6000803e3d6000fd5b505050506040513d601f19601f82011682018060405250810190611bb69190613e5d565b15611bc5575060059392505050565b5060029392505050565b600080611bdb83610e97565b90506002816007811115611bf157611bf1613601565b14158015611c1157506006816007811115611c0e57611c0e613601565b14155b8015611c2f57506007816007811115611c2c57611c2c613601565b14155b611c7b5760405162461bcd60e51b815260206004820152601d60248201527f476f7665726e6f723a2070726f706f73616c206e6f74206163746976650000006044820152606401610a42565b60008381526003602052604090819020600201805461ff001916610100179055517f789cf55be980739dad1d0699b93b58e806b51c9d96619bfa8fe0a28abaa7b30c90611ccb9085815260200190565b60405180910390a15090919050565b600063ffffffff821115611d3f5760405162461bcd60e51b815260206004820152602660248201527f53616665436173743a2076616c756520646f65736e27742066697420696e203360448201526532206269747360d01b6064820152608401610a42565b5090565b815460009081816005811115611da0576000611d5e84612c03565b611d689085613d53565b60008881526020902090915081015463ffffffff9081169087161015611d9057809150611d9e565b611d9b816001613cd3565b92505b505b6000611dae87878585612ceb565b90508015611de957611dd387611dc5600184613d53565b600091825260209091200190565b54600160201b90046001600160e01b0316610e8c565b6000979650505050505050565b60003381611e02611270565b65ffffffffffff1690506000611e1d83610863600185613d53565b1015611e855760405162461bcd60e51b815260206004820152603160248201527f476f7665726e6f723a2070726f706f73657220766f7465732062656c6f7720706044820152701c9bdc1bdcd85b081d1a1c995cda1bdb19607a1b6064820152608401610a42565b6000611e9a888888888051906020012061156a565b90508651885114611ebd5760405162461bcd60e51b8152600401610a4290613e7f565b8551885114611ede5760405162461bcd60e51b8152600401610a4290613e7f565b6000885111611f2f5760405162461bcd60e51b815260206004820152601860248201527f476f7665726e6f723a20656d7074792070726f706f73616c00000000000000006044820152606401610a42565b600081815260036020526040902054600160401b90046001600160a01b031615611fa55760405162461bcd60e51b815260206004820152602160248201527f476f7665726e6f723a2070726f706f73616c20616c72656164792065786973746044820152607360f81b6064820152608401610a42565b6000611fb2600184613cd3565b90506000611fc261b2fa83613cd3565b90506040518060e00160405280611fd884612d49565b6001600160401b031681526001600160a01b03871660208201526000604082015260600161200583612d49565b6001600160401b039081168252600060208084018290526040808501839052606094850183905288835260038252918290208551815492870151878501519186166001600160e01b031990941693909317600160401b6001600160a01b039094168402176001600160e01b0316600160e01b60e09290921c91909102178155938501516080860151908416921c0217600183015560a08301516002909201805460c09094015161ffff1990941692151561ff00191692909217610100931515939093029290921790558a517f7d84a6263ae0d98d3329bd7b46bb4e8d6f98cd35a7adb45c274c8b7fd5ebd5e091859188918e918e9181111561210957612109613143565b60405190808252806020026020018201604052801561213c57816020015b60608152602001906001900390816121275790505b508d88888f60405161215699989796959493929190613ec0565b60405180910390a1509098975050505050505050565b606060ff8316156121875761218083612db1565b905061090c565b81805461219390613aef565b80601f01602080910402602001604051908101604052809291908181526020018280546121bf90613aef565b801561220c5780601f106121e15761010080835404028352916020019161220c565b820191906000526020600020905b8154815290600101906020018083116121ef57829003601f168201915b5050505050905061090c565b600065ffffffffffff821115611d3f5760405162461bcd60e51b815260206004820152602660248201527f53616665436173743a2076616c756520646f65736e27742066697420696e203460448201526538206269747360d01b6064820152608401610a42565b604051630748d63560e31b81526001600160a01b038481166004830152602482018490526000917f000000000000000000000000000000000000000000000000000000000000000090911690633a46b1a890604401602060405180830381865afa1580156122f1573d6000803e3d6000fd5b505050506040513d601f19601f820116820180604052508101906113069190613b6a565b805460009080156114525761232f83611dc5600184613d53565b54600160201b90046001600160e01b0316611309565b600654604080516001600160a01b03928316815291831660208301527f08f74ea46ef7894f65eabfb5e6e695de773a000b47c529ab559178069b226401910160405180910390a1600680546001600160a01b0319166001600160a01b0392909216919091179055565b606083156123bd575081611309565b6113098383612de6565b600060646123d4836110ce565b604051632394e7a360e21b8152600481018590527f00000000000000000000000000000000000000000000000000000000000000006001600160a01b031690638e539e8c90602401602060405180830381865afa158015612439573d6000803e3d6000fd5b505050506040513d601f19601f8201168201806040525081019061245d9190613b6a565b6124679190613f97565b61090c9190613fc4565b60006001600160e01b0319821663bf26d89760e01b14806124a257506001600160e01b031982166379dd796f60e01b145b806124bd57506001600160e01b03198216630271189760e51b145b8061090c57506301ffc9a760e01b6001600160e01b031983161461090c565b6000306001600160a01b037f00000000000000000000000000000000000000000000000000000000000000001614801561253557507f000000000000000000000000000000000000000000000000000000000000000046145b1561255f57507f000000000000000000000000000000000000000000000000000000000000000090565b6108fc604080517f8b73c3c69bb8fe3d512ecc4cf759cc79239f7b179b0ffacaa9a75d522b39400f60208201527f0000000000000000000000000000000000000000000000000000000000000000918101919091527f000000000000000000000000000000000000000000000000000000000000000060608201524660808201523060a082015260009060c00160405160208183030381529060405280519060200120905090565b6000807f7fffffffffffffffffffffffffffffff5d576e7357a4501ddfe92f46681b20a083111561263e57506000905060036126c2565b6040805160008082526020820180845289905260ff881692820192909252606081018690526080810185905260019060a0016020604051602081039080840390855afa158015612692573d6000803e3d6000fd5b5050604051601f1901519150506001600160a01b0381166126bb576000600192509250506126c2565b9150600090505b94509492505050565b60008160048111156126df576126df613601565b036126e75750565b60018160048111156126fb576126fb613601565b036127485760405162461bcd60e51b815260206004820152601860248201527f45434453413a20696e76616c6964207369676e617475726500000000000000006044820152606401610a42565b600281600481111561275c5761275c613601565b036127a95760405162461bcd60e51b815260206004820152601f60248201527f45434453413a20696e76616c6964207369676e6174757265206c656e677468006044820152606401610a42565b60038160048111156127bd576127bd613601565b03610a9a5760405162461bcd60e51b815260206004820152602260248201527f45434453413a20696e76616c6964207369676e6174757265202773272076616c604482015261756560f01b6064820152608401610a42565b6000858152600a602090815260408083206001600160a01b0388168452600381019092529091205460ff161561289d5760405162461bcd60e51b815260206004820152602760248201527f476f7665726e6f72566f74696e6753696d706c653a20766f746520616c726561604482015266191e4818d85cdd60ca1b6064820152608401610a42565b6001600160a01b03851660009081526003820160205260409020805460ff1916600117905560ff84166128e957828160000160008282546128de9190613cd3565b90915550611a139050565b60001960ff85160161290957828160010160008282546128de9190613cd3565b60011960ff85160161292957828160020160008282546128de9190613cd3565b60405162461bcd60e51b815260206004820152603560248201527f476f7665726e6f72566f74696e6753696d706c653a20696e76616c69642076616044820152746c756520666f7220656e756d20566f74655479706560581b6064820152608401610a42565b60006001600160e01b03821115611d3f5760405162461bcd60e51b815260206004820152602760248201527f53616665436173743a2076616c756520646f65736e27742066697420696e20326044820152663234206269747360c81b6064820152608401610a42565b600080612a06858585612e10565b915091505b935093915050565b8154600160801b90819004600f0b6000818152600180860160205260409091209390935583546001600160801b03908116939091011602179055565b60065460405163e38335e560e01b81526001600160a01b039091169063e38335e5903490612a8a908890889088906000908990600401613c17565b6000604051808303818588803b158015612aa357600080fd5b505af1158015612ab7573d6000803e3d6000fd5b50505050505050505050565b6000818152600360205260408120600281015460ff1615612ae75750600792915050565b6002810154610100900460ff1615612b025750600292915050565b6000838152600360205260408120546001600160401b031690819003612b6a5760405162461bcd60e51b815260206004820152601d60248201527f476f7665726e6f723a20756e6b6e6f776e2070726f706f73616c2069640000006044820152606401610a42565b6000612b74611270565b65ffffffffffff169050808210612b9057506000949350505050565b6000858152600360205260409020600101546001600160401b0316818110612bbe5750600195945050505050565b612bc786612faf565b8015612be657506000868152600a602052604090208054600190910154115b15612bf75750600495945050505050565b50600395945050505050565b600081600003612c1557506000919050565b60006001612c2284612ffb565b901c6001901b90506001818481612c3b57612c3b613fae565b048201901c90506001818481612c5357612c53613fae565b048201901c90506001818481612c6b57612c6b613fae565b048201901c90506001818481612c8357612c83613fae565b048201901c90506001818481612c9b57612c9b613fae565b048201901c90506001818481612cb357612cb3613fae565b048201901c90506001818481612ccb57612ccb613fae565b048201901c905061130981828581612ce557612ce5613fae565b0461308f565b60005b81831015612d41576000612d0284846130a5565b60008781526020902090915063ffffffff86169082015463ffffffff161115612d2d57809250612d3b565b612d38816001613cd3565b93505b50612cee565b509392505050565b60006001600160401b03821115611d3f5760405162461bcd60e51b815260206004820152602660248201527f53616665436173743a2076616c756520646f65736e27742066697420696e203660448201526534206269747360d01b6064820152608401610a42565b60408051602080825281830190925260609160ff84169160009180820181803683375050509182525060208101929092525090565b815115612df65781518083602001fd5b8060405162461bcd60e51b8152600401610a42919061331d565b825460009081908015612f56576000612e2e87611dc5600185613d53565b60408051808201909152905463ffffffff808216808452600160201b9092046001600160e01b031660208401529192509087161015612eaf5760405162461bcd60e51b815260206004820152601b60248201527f436865636b706f696e743a2064656372656173696e67206b65797300000000006044820152606401610a42565b805163ffffffff808816911603612ef75784612ed088611dc5600186613d53565b80546001600160e01b0392909216600160201b0263ffffffff909216919091179055612f46565b6040805180820190915263ffffffff80881682526001600160e01b0380881660208085019182528b54600181018d5560008d81529190912094519151909216600160201b029216919091179101555b602001519250839150612a0b9050565b50506040805180820190915263ffffffff80851682526001600160e01b0380851660208085019182528854600181018a5560008a815291822095519251909316600160201b029190931617920191909155905081612a0b565b6000818152600a6020526040812060028101546001820154612fd19190613cd3565b600084815260036020526040902054612ff2906001600160401b03166115c5565b11159392505050565b600080608083901c1561301057608092831c92015b604083901c1561302257604092831c92015b602083901c1561303457602092831c92015b601083901c1561304657601092831c92015b600883901c1561305857600892831c92015b600483901c1561306a57600492831c92015b600283901c1561307c57600292831c92015b600183901c1561090c5760010192915050565b600081831061309e5781611309565b5090919050565b60006130b46002848418613fc4565b61130990848416613cd3565b6000602082840312156130d257600080fd5b81356001600160e01b03198116811461130957600080fd5b803560ff8116811461105657600080fd5b60008083601f84011261310d57600080fd5b5081356001600160401b0381111561312457600080fd5b60208301915083602082850101111561313c57600080fd5b9250929050565b634e487b7160e01b600052604160045260246000fd5b604051601f8201601f191681016001600160401b038111828210171561318157613181613143565b604052919050565b60006001600160401b038211156131a2576131a2613143565b50601f01601f191660200190565b60006131c36131be84613189565b613159565b90508281528383830111156131d757600080fd5b828260208301376000602084830101529392505050565b600082601f8301126131ff57600080fd5b611309838335602085016131b0565b60008060008060008060008060e0898b03121561322a57600080fd5b8835975061323a60208a016130ea565b965060408901356001600160401b038082111561325657600080fd5b6132628c838d016130fb565b909850965060608b013591508082111561327b57600080fd5b506132888b828c016131ee565b94505061329760808a016130ea565b925060a0890135915060c089013590509295985092959890939650565b6000602082840312156132c657600080fd5b5035919050565b60005b838110156132e85781810151838201526020016132d0565b50506000910152565b600081518084526133098160208601602086016132cd565b601f01601f19169290920160200192915050565b60208152600061130960208301846132f1565b6001600160a01b0381168114610a9a57600080fd5b6000806000806080858703121561335b57600080fd5b843561336681613330565b9350602085013561337681613330565b92506040850135915060608501356001600160401b0381111561339857600080fd5b6133a4878288016131ee565b91505092959194509250565b60006001600160401b038211156133c9576133c9613143565b5060051b60200190565b600082601f8301126133e457600080fd5b813560206133f46131be836133b0565b8083825260208201915060208460051b87010193508684111561341657600080fd5b602086015b8481101561343b57803561342e81613330565b835291830191830161341b565b509695505050505050565b600082601f83011261345757600080fd5b813560206134676131be836133b0565b8083825260208201915060208460051b87010193508684111561348957600080fd5b602086015b8481101561343b578035835291830191830161348e565b600082601f8301126134b657600080fd5b813560206134c66131be836133b0565b82815260059290921b840181019181810190868411156134e557600080fd5b8286015b8481101561343b5780356001600160401b038111156135085760008081fd5b6135168986838b01016131ee565b8452509183019183016134e9565b6000806000806080858703121561353a57600080fd5b84356001600160401b038082111561355157600080fd5b61355d888389016133d3565b9550602087013591508082111561357357600080fd5b61357f88838901613446565b9450604087013591508082111561359557600080fd5b506135a2878288016134a5565b949793965093946060013593505050565b600080600080600060a086880312156135cb57600080fd5b853594506135db602087016130ea565b93506135e9604087016130ea565b94979396509394606081013594506080013592915050565b634e487b7160e01b600052602160045260246000fd5b602081016008831061363957634e487b7160e01b600052602160045260246000fd5b91905290565b6000806040838503121561365257600080fd5b82359150602083013561366481613330565b809150509250929050565b6000806040838503121561368257600080fd5b82359150613692602084016130ea565b90509250929050565b6000806000806000608086880312156136b357600080fd5b853594506136c3602087016130ea565b935060408601356001600160401b03808211156136df57600080fd5b6136eb89838a016130fb565b9095509350606088013591508082111561370457600080fd5b50613711888289016131ee565b9150509295509295909350565b6000806000806060858703121561373457600080fd5b84359350613744602086016130ea565b925060408501356001600160401b0381111561375f57600080fd5b61376b878288016130fb565b95989497509550505050565b6000806000806080858703121561378d57600080fd5b84356001600160401b03808211156137a457600080fd5b6137b0888389016133d3565b955060208701359150808211156137c657600080fd5b6137d288838901613446565b945060408701359150808211156137e857600080fd5b6137f4888389016134a5565b9350606087013591508082111561380a57600080fd5b508501601f8101871361381c57600080fd5b6133a4878235602084016131b0565b60008151808452602080850194506020840160005b8381101561385c57815187529582019590820190600101613840565b509495945050505050565b60ff60f81b8816815260e06020820152600061388660e08301896132f1565b828103604084015261389881896132f1565b606084018890526001600160a01b038716608085015260a0840186905283810360c085015290506109fc818561382b565b6000806000606084860312156138de57600080fd5b83356138e981613330565b92506020840135915060408401356001600160401b0381111561390b57600080fd5b613917868287016131ee565b9150509250925092565b60006020828403121561393357600080fd5b813561130981613330565b600080600080600060a0868803121561395657600080fd5b853561396181613330565b9450602086013561397181613330565b935060408601356001600160401b038082111561398d57600080fd5b61399989838a01613446565b945060608801359150808211156139af57600080fd5b6139bb89838a01613446565b9350608088013591508082111561370457600080fd5b600080600080606085870312156139e757600080fd5b84356139f281613330565b93506020850135925060408501356001600160401b0381111561375f57600080fd5b60008060408385031215613a2757600080fd5b8235613a3281613330565b946020939093013593505050565b600080600080600060a08688031215613a5857600080fd5b8535613a6381613330565b94506020860135613a7381613330565b9350604086013592506060860135915060808601356001600160401b03811115613a9c57600080fd5b613711888289016131ee565b8183823760009101908152919050565b60208082526018908201527f476f7665726e6f723a206f6e6c79476f7665726e616e63650000000000000000604082015260600190565b600181811c90821680613b0357607f821691505b602082108103613b2357634e487b7160e01b600052602260045260246000fd5b50919050565b60208082526021908201527f476f7665726e6f723a2070726f706f73616c206e6f74207375636365737366756040820152601b60fa1b606082015260800190565b600060208284031215613b7c57600080fd5b5051919050565b60008151808452602080850194506020840160005b8381101561385c5781516001600160a01b031687529582019590820190600101613b98565b60008282518085526020808601955060208260051b8401016020860160005b84811015613c0a57601f19868403018952613bf88383516132f1565b98840198925090830190600101613bdc565b5090979650505050505050565b60a081526000613c2a60a0830188613b83565b8281036020840152613c3c818861382b565b90508281036040840152613c508187613bbd565b60608401959095525050608001529392505050565b60c081526000613c7860c0830189613b83565b8281036020840152613c8a818961382b565b90508281036040840152613c9e8188613bbd565b60608401969096525050608081019290925260a0909101529392505050565b634e487b7160e01b600052601160045260246000fd5b8082018082111561090c5761090c613cbd565b600060208284031215613cf857600080fd5b81516001600160401b03811115613d0e57600080fd5b8201601f81018413613d1f57600080fd5b8051613d2d6131be82613189565b818152856020838501011115613d4257600080fd5b6111df8260208301602086016132cd565b8181038181111561090c5761090c613cbd565b634e487b7160e01b600052603260045260246000fd5b600060208284031215613d8e57600080fd5b815165ffffffffffff8116811461130957600080fd5b608081526000613db76080830187613b83565b8281036020840152613dc9818761382b565b90508281036040840152613ddd8186613bbd565b91505082606083015295945050505050565b84815260ff841660208201528260408201526080606082015260006111c760808301846132f1565b85815260ff8516602082015283604082015260a060608201526000613e3f60a08301856132f1565b8281036080840152613e5181856132f1565b98975050505050505050565b600060208284031215613e6f57600080fd5b8151801515811461130957600080fd5b60208082526021908201527f476f7665726e6f723a20696e76616c69642070726f706f73616c206c656e67746040820152600d60fb1b606082015260800190565b60006101208b8352602060018060a01b038c1681850152816040850152613ee98285018c613b83565b91508382036060850152613efd828b61382b565b915083820360808501528189518084528284019150828160051b850101838c0160005b83811015613f4e57601f19878403018552613f3c8383516132f1565b94860194925090850190600101613f20565b505086810360a0880152613f62818c613bbd565b9450505050508560c08401528460e0840152828103610100840152613f8781856132f1565b9c9b505050505050505050505050565b808202811582820484141761090c5761090c613cbd565b634e487b7160e01b600052601260045260246000fd5b600082613fe157634e487b7160e01b600052601260045260246000fd5b50049056fe476f7665726e6f723a2072656c617920726576657274656420776974686f7574206d657373616765a2646970667358221220cda5355362c4da4c8318af71d723899e19c386d2308be1f303d259c9beeec75164736f6c63430008180033",
  "linkReferences": {},
  "deployedLinkReferences": {}
}