{
  "_format": "hh-sol-artifact-1",
  "contractName": "SampleGramps",
  "sourceName": "contracts/standart_token/mocks/MultipleInheritanceInitializableMocks.sol",
  "abi": [
    {
      "anonymous": false,
      "inputs": [
        {
          "indexed": false,
          "internalType": "uint8",
          "name": "version",
          "type": "uint8"
        }
      ],
      "name": "Initialized",
      "type": "event"
    },
    {
      "inputs": [],
      "name": "gramps",
      "outputs": [
        {
          "internalType": "string",
          "name": "",
          "type": "string"
        }
      ],
      "stateMutability": "view",
      "type": "function"
    },
    {
      "inputs": [],
      "name": "initialize",
      "outputs": [],
      "stateMutability": "nonpayable",
      "type": "function"
    },
    {
      "inputs": [
        {
          "internalType": "string",
          "name": "value",
          "type": "string"
        }
      ],
      "name": "initialize",
      "outputs": [],
      "stateMutability": "nonpayable",
      "type": "function"
    },
    {
      "inputs": [],
      "name": "isHuman",
      "outputs": [
        {
          "internalType": "bool",
          "name": "",
          "type": "bool"
        }
      ],
      "stateMutability": "view",
      "type": "function"
    }
  ],
  "bytecode": "0x608060405234801561001057600080fd5b506106de806100206000396000f3fe608060405234801561001057600080fd5b506004361061004c5760003560e01c80634a6c9db6146100515780638129fc1c14610079578063f62d188814610083578063fa39851f14610096575b600080fd5b6000546100649062010000900460ff1681565b60405190151581526020015b60405180910390f35b6100816100ab565b005b6100816100913660046103c4565b61017e565b61009e61024a565b6040516100709190610475565b600054610100900460ff16158080156100cb5750600054600160ff909116105b806100e55750303b1580156100e5575060005460ff166001145b61010a5760405162461bcd60e51b8152600401610101906104c4565b60405180910390fd5b6000805460ff19166001179055801561012d576000805461ff0019166101001790555b6101356102d8565b801561017b576000805461ff0019169055604051600181527f7f26b83ff96e1f2b6a682f133852f6798a09c465da95921460cefb38474024989060200160405180910390a15b50565b600054610100900460ff161580801561019e5750600054600160ff909116105b806101b85750303b1580156101b8575060005460ff166001145b6101d45760405162461bcd60e51b8152600401610101906104c4565b6000805460ff1916600117905580156101f7576000805461ff0019166101001790555b61020082610309565b8015610246576000805461ff0019169055604051600181527f7f26b83ff96e1f2b6a682f133852f6798a09c465da95921460cefb38474024989060200160405180910390a15b5050565b6001805461025790610512565b80601f016020809104026020016040519081016040528092919081815260200182805461028390610512565b80156102d05780601f106102a5576101008083540402835291602001916102d0565b820191906000526020600020905b8154815290600101906020018083116102b357829003601f168201915b505050505081565b600054610100900460ff166102ff5760405162461bcd60e51b81526004016101019061054c565b610307610341565b565b600054610100900460ff166103305760405162461bcd60e51b81526004016101019061054c565b6103386102d8565b61017b8161037b565b600054610100900460ff166103685760405162461bcd60e51b81526004016101019061054c565b6000805462ff0000191662010000179055565b600054610100900460ff166103a25760405162461bcd60e51b81526004016101019061054c565b600161024682826105e8565b634e487b7160e01b600052604160045260246000fd5b6000602082840312156103d657600080fd5b813567ffffffffffffffff808211156103ee57600080fd5b818401915084601f83011261040257600080fd5b813581811115610414576104146103ae565b604051601f8201601f19908116603f0116810190838211818310171561043c5761043c6103ae565b8160405282815287602084870101111561045557600080fd5b826020860160208301376000928101602001929092525095945050505050565b60006020808352835180602085015260005b818110156104a357858101830151858201604001528201610487565b506000604082860101526040601f19601f8301168501019250505092915050565b6020808252602e908201527f496e697469616c697a61626c653a20636f6e747261637420697320616c72656160408201526d191e481a5b9a5d1a585b1a5e995960921b606082015260800190565b600181811c9082168061052657607f821691505b60208210810361054657634e487b7160e01b600052602260045260246000fd5b50919050565b6020808252602b908201527f496e697469616c697a61626c653a20636f6e7472616374206973206e6f74206960408201526a6e697469616c697a696e6760a81b606082015260800190565b601f8211156105e3576000816000526020600020601f850160051c810160208610156105c05750805b601f850160051c820191505b818110156105df578281556001016105cc565b5050505b505050565b815167ffffffffffffffff811115610602576106026103ae565b610616816106108454610512565b84610597565b602080601f83116001811461064b57600084156106335750858301515b600019600386901b1c1916600185901b1785556105df565b600085815260208120601f198616915b8281101561067a5788860151825594840194600190910190840161065b565b50858210156106985787850151600019600388901b60f8161c191681555b5050505050600190811b0190555056fea2646970667358221220014eef9eb6f04d4273cbb590dab1ece9355d9b0292557fe81db4a0f4e526ddc864736f6c63430008180033",
  "linkReferences": {},
  "deployedLinkReferences": {}
}