{
  "_format": "hh-sol-artifact-1",
  "contractName": "SampleFather",
  "sourceName": "contracts/standart_token/mocks/MultipleInheritanceInitializableMocks.sol",
  "abi": [
    {
      "anonymous": false,
      "inputs": [
        {
          "indexed": false,
          "internalType": "uint8",
          "name": "version",
          "type": "uint8"
        }
      ],
      "name": "Initialized",
      "type": "event"
    },
    {
      "inputs": [],
      "name": "father",
      "outputs": [
        {
          "internalType": "uint256",
          "name": "",
          "type": "uint256"
        }
      ],
      "stateMutability": "view",
      "type": "function"
    },
    {
      "inputs": [],
      "name": "gramps",
      "outputs": [
        {
          "internalType": "string",
          "name": "",
          "type": "string"
        }
      ],
      "stateMutability": "view",
      "type": "function"
    },
    {
      "inputs": [],
      "name": "initialize",
      "outputs": [],
      "stateMutability": "nonpayable",
      "type": "function"
    },
    {
      "inputs": [
        {
          "internalType": "string",
          "name": "_gramps",
          "type": "string"
        },
        {
          "internalType": "uint256",
          "name": "_father",
          "type": "uint256"
        }
      ],
      "name": "initialize",
      "outputs": [],
      "stateMutability": "nonpayable",
      "type": "function"
    },
    {
      "inputs": [
        {
          "internalType": "string",
          "name": "value",
          "type": "string"
        }
      ],
      "name": "initialize",
      "outputs": [],
      "stateMutability": "nonpayable",
      "type": "function"
    },
    {
      "inputs": [],
      "name": "isHuman",
      "outputs": [
        {
          "internalType": "bool",
          "name": "",
          "type": "bool"
        }
      ],
      "stateMutability": "view",
      "type": "function"
    }
  ],
  "bytecode": "0x608060405234801561001057600080fd5b506108ae806100206000396000f3fe608060405234801561001057600080fd5b50600436106100625760003560e01c80631c8aca3b146100675780634a6c9db6146100835780638129fc1c146100a65780638beaf7d7146100b0578063f62d1888146100c3578063fa39851f146100d6575b600080fd5b61007060025481565b6040519081526020015b60405180910390f35b6000546100969062010000900460ff1681565b604051901515815260200161007a565b6100ae6100eb565b005b6100ae6100be3660046105c4565b6101be565b6100ae6100d1366004610609565b61028c565b6100de610358565b60405161007a9190610646565b600054610100900460ff161580801561010b5750600054600160ff909116105b806101255750303b158015610125575060005460ff166001145b61014a5760405162461bcd60e51b815260040161014190610695565b60405180910390fd5b6000805460ff19166001179055801561016d576000805461ff0019166101001790555b6101756103e6565b80156101bb576000805461ff0019169055604051600181527f7f26b83ff96e1f2b6a682f133852f6798a09c465da95921460cefb38474024989060200160405180910390a15b50565b600054610100900460ff16158080156101de5750600054600160ff909116105b806101f85750303b1580156101f8575060005460ff166001145b6102145760405162461bcd60e51b815260040161014190610695565b6000805460ff191660011790558015610237576000805461ff0019166101001790555b6102418383610417565b8015610287576000805461ff0019169055604051600181527f7f26b83ff96e1f2b6a682f133852f6798a09c465da95921460cefb38474024989060200160405180910390a15b505050565b600054610100900460ff16158080156102ac5750600054600160ff909116105b806102c65750303b1580156102c6575060005460ff166001145b6102e25760405162461bcd60e51b815260040161014190610695565b6000805460ff191660011790558015610305576000805461ff0019166101001790555b61030e82610450565b8015610354576000805461ff0019169055604051600181527f7f26b83ff96e1f2b6a682f133852f6798a09c465da95921460cefb38474024989060200160405180910390a15b5050565b60018054610365906106e3565b80601f0160208091040260200160405190810160405280929190818152602001828054610391906106e3565b80156103de5780601f106103b3576101008083540402835291602001916103de565b820191906000526020600020905b8154815290600101906020018083116103c157829003601f168201915b505050505081565b600054610100900460ff1661040d5760405162461bcd60e51b81526004016101419061071d565b610415610488565b565b600054610100900460ff1661043e5760405162461bcd60e51b81526004016101419061071d565b61044782610450565b610354816104c2565b600054610100900460ff166104775760405162461bcd60e51b81526004016101419061071d565b61047f6103e6565b6101bb816104ee565b600054610100900460ff166104af5760405162461bcd60e51b81526004016101419061071d565b6000805462ff0000191662010000179055565b600054610100900460ff166104e95760405162461bcd60e51b81526004016101419061071d565b600255565b600054610100900460ff166105155760405162461bcd60e51b81526004016101419061071d565b600161035482826107b8565b634e487b7160e01b600052604160045260246000fd5b600082601f83011261054857600080fd5b813567ffffffffffffffff8082111561056357610563610521565b604051601f8301601f19908116603f0116810190828211818310171561058b5761058b610521565b816040528381528660208588010111156105a457600080fd5b836020870160208301376000602085830101528094505050505092915050565b600080604083850312156105d757600080fd5b823567ffffffffffffffff8111156105ee57600080fd5b6105fa85828601610537565b95602094909401359450505050565b60006020828403121561061b57600080fd5b813567ffffffffffffffff81111561063257600080fd5b61063e84828501610537565b949350505050565b60006020808352835180602085015260005b8181101561067457858101830151858201604001528201610658565b506000604082860101526040601f19601f8301168501019250505092915050565b6020808252602e908201527f496e697469616c697a61626c653a20636f6e747261637420697320616c72656160408201526d191e481a5b9a5d1a585b1a5e995960921b606082015260800190565b600181811c908216806106f757607f821691505b60208210810361071757634e487b7160e01b600052602260045260246000fd5b50919050565b6020808252602b908201527f496e697469616c697a61626c653a20636f6e7472616374206973206e6f74206960408201526a6e697469616c697a696e6760a81b606082015260800190565b601f821115610287576000816000526020600020601f850160051c810160208610156107915750805b601f850160051c820191505b818110156107b05782815560010161079d565b505050505050565b815167ffffffffffffffff8111156107d2576107d2610521565b6107e6816107e084546106e3565b84610768565b602080601f83116001811461081b57600084156108035750858301515b600019600386901b1c1916600185901b1785556107b0565b600085815260208120601f198616915b8281101561084a5788860151825594840194600190910190840161082b565b50858210156108685787850151600019600388901b60f8161c191681555b5050505050600190811b0190555056fea264697066735822122029b1856545530b0c6eba9b691ecb5a23d089ef9cb7320ac03576fc74c33b3b1464736f6c63430008180033",
  "linkReferences": {},
  "deployedLinkReferences": {}
}