{
  "_format": "hh-sol-artifact-1",
  "contractName": "SampleMother",
  "sourceName": "contracts/standart_token/mocks/MultipleInheritanceInitializableMocks.sol",
  "abi": [
    {
      "anonymous": false,
      "inputs": [
        {
          "indexed": false,
          "internalType": "uint8",
          "name": "version",
          "type": "uint8"
        }
      ],
      "name": "Initialized",
      "type": "event"
    },
    {
      "inputs": [],
      "name": "initialize",
      "outputs": [],
      "stateMutability": "nonpayable",
      "type": "function"
    },
    {
      "inputs": [
        {
          "internalType": "uint256",
          "name": "value",
          "type": "uint256"
        }
      ],
      "name": "initialize",
      "outputs": [],
      "stateMutability": "nonpayable",
      "type": "function"
    },
    {
      "inputs": [],
      "name": "isHuman",
      "outputs": [
        {
          "internalType": "bool",
          "name": "",
          "type": "bool"
        }
      ],
      "stateMutability": "view",
      "type": "function"
    },
    {
      "inputs": [],
      "name": "mother",
      "outputs": [
        {
          "internalType": "uint256",
          "name": "",
          "type": "uint256"
        }
      ],
      "stateMutability": "view",
      "type": "function"
    }
  ],
  "bytecode": "0x608060405234801561001057600080fd5b50610403806100206000396000f3fe608060405234801561001057600080fd5b506004361061004c5760003560e01c80634a6c9db6146100515780638129fc1c14610079578063ed7dfee314610083578063fe4b84df1461009a575b600080fd5b6000546100649062010000900460ff1681565b60405190151581526020015b60405180910390f35b6100816100ad565b005b61008c60015481565b604051908152602001610070565b6100816100a836600461031b565b610180565b600054610100900460ff16158080156100cd5750600054600160ff909116105b806100e75750303b1580156100e7575060005460ff166001145b61010c5760405162461bcd60e51b815260040161010390610334565b60405180910390fd5b6000805460ff19166001179055801561012f576000805461ff0019166101001790555b61013761024c565b801561017d576000805461ff0019169055604051600181527f7f26b83ff96e1f2b6a682f133852f6798a09c465da95921460cefb38474024989060200160405180910390a15b50565b600054610100900460ff16158080156101a05750600054600160ff909116105b806101ba5750303b1580156101ba575060005460ff166001145b6101d65760405162461bcd60e51b815260040161010390610334565b6000805460ff1916600117905580156101f9576000805461ff0019166101001790555b6102028261027d565b8015610248576000805461ff0019169055604051600181527f7f26b83ff96e1f2b6a682f133852f6798a09c465da95921460cefb38474024989060200160405180910390a15b5050565b600054610100900460ff166102735760405162461bcd60e51b815260040161010390610382565b61027b6102b5565b565b600054610100900460ff166102a45760405162461bcd60e51b815260040161010390610382565b6102ac61024c565b61017d816102ef565b600054610100900460ff166102dc5760405162461bcd60e51b815260040161010390610382565b6000805462ff0000191662010000179055565b600054610100900460ff166103165760405162461bcd60e51b815260040161010390610382565b600155565b60006020828403121561032d57600080fd5b5035919050565b6020808252602e908201527f496e697469616c697a61626c653a20636f6e747261637420697320616c72656160408201526d191e481a5b9a5d1a585b1a5e995960921b606082015260800190565b6020808252602b908201527f496e697469616c697a61626c653a20636f6e7472616374206973206e6f74206960408201526a6e697469616c697a696e6760a81b60608201526080019056fea26469706673582212208ee6e109ad949f20bdeb2d3895b2f0b25def2c4d0818a02b21ba791b9d974eee64736f6c63430008180033",
  "linkReferences": {},
  "deployedLinkReferences": {}
}