{
  "_format": "hh-sol-artifact-1",
  "contractName": "ERC721ConsecutiveMock",
  "sourceName": "contracts/standart_token/mocks/token/ERC721ConsecutiveMock.sol",
  "abi": [
    {
      "inputs": [
        {
          "internalType": "string",
          "name": "name",
          "type": "string"
        },
        {
          "internalType": "string",
          "name": "symbol",
          "type": "string"
        },
        {
          "internalType": "address[]",
          "name": "delegates",
          "type": "address[]"
        },
        {
          "internalType": "address[]",
          "name": "receivers",
          "type": "address[]"
        },
        {
          "internalType": "uint96[]",
          "name": "amounts",
          "type": "uint96[]"
        }
      ],
      "stateMutability": "nonpayable",
      "type": "constructor"
    },
    {
      "inputs": [
        {
          "internalType": "string",
          "name": "str",
          "type": "string"
        }
      ],
      "name": "StringTooLong",
      "type": "error"
    },
    {
      "anonymous": false,
      "inputs": [
        {
          "indexed": true,
          "internalType": "address",
          "name": "owner",
          "type": "address"
        },
        {
          "indexed": true,
          "internalType": "address",
          "name": "approved",
          "type": "address"
        },
        {
          "indexed": true,
          "internalType": "uint256",
          "name": "tokenId",
          "type": "uint256"
        }
      ],
      "name": "Approval",
      "type": "event"
    },
    {
      "anonymous": false,
      "inputs": [
        {
          "indexed": true,
          "internalType": "address",
          "name": "owner",
          "type": "address"
        },
        {
          "indexed": true,
          "internalType": "address",
          "name": "operator",
          "type": "address"
        },
        {
          "indexed": false,
          "internalType": "bool",
          "name": "approved",
          "type": "bool"
        }
      ],
      "name": "ApprovalForAll",
      "type": "event"
    },
    {
      "anonymous": false,
      "inputs": [
        {
          "indexed": true,
          "internalType": "uint256",
          "name": "fromTokenId",
          "type": "uint256"
        },
        {
          "indexed": false,
          "internalType": "uint256",
          "name": "toTokenId",
          "type": "uint256"
        },
        {
          "indexed": true,
          "internalType": "address",
          "name": "fromAddress",
          "type": "address"
        },
        {
          "indexed": true,
          "internalType": "address",
          "name": "toAddress",
          "type": "address"
        }
      ],
      "name": "ConsecutiveTransfer",
      "type": "event"
    },
    {
      "anonymous": false,
      "inputs": [
        {
          "indexed": true,
          "internalType": "address",
          "name": "delegator",
          "type": "address"
        },
        {
          "indexed": true,
          "internalType": "address",
          "name": "fromDelegate",
          "type": "address"
        },
        {
          "indexed": true,
          "internalType": "address",
          "name": "toDelegate",
          "type": "address"
        }
      ],
      "name": "DelegateChanged",
      "type": "event"
    },
    {
      "anonymous": false,
      "inputs": [
        {
          "indexed": true,
          "internalType": "address",
          "name": "delegate",
          "type": "address"
        },
        {
          "indexed": false,
          "internalType": "uint256",
          "name": "previousBalance",
          "type": "uint256"
        },
        {
          "indexed": false,
          "internalType": "uint256",
          "name": "newBalance",
          "type": "uint256"
        }
      ],
      "name": "DelegateVotesChanged",
      "type": "event"
    },
    {
      "anonymous": false,
      "inputs": [],
      "name": "EIP712DomainChanged",
      "type": "event"
    },
    {
      "anonymous": false,
      "inputs": [
        {
          "indexed": false,
          "internalType": "address",
          "name": "account",
          "type": "address"
        }
      ],
      "name": "Paused",
      "type": "event"
    },
    {
      "anonymous": false,
      "inputs": [
        {
          "indexed": true,
          "internalType": "address",
          "name": "from",
          "type": "address"
        },
        {
          "indexed": true,
          "internalType": "address",
          "name": "to",
          "type": "address"
        },
        {
          "indexed": true,
          "internalType": "uint256",
          "name": "tokenId",
          "type": "uint256"
        }
      ],
      "name": "Transfer",
      "type": "event"
    },
    {
      "anonymous": false,
      "inputs": [
        {
          "indexed": false,
          "internalType": "address",
          "name": "account",
          "type": "address"
        }
      ],
      "name": "Unpaused",
      "type": "event"
    },
    {
      "inputs": [],
      "name": "CLOCK_MODE",
      "outputs": [
        {
          "internalType": "string",
          "name": "",
          "type": "string"
        }
      ],
      "stateMutability": "view",
      "type": "function"
    },
    {
      "inputs": [],
      "name": "DOMAIN_SEPARATOR",
      "outputs": [
        {
          "internalType": "bytes32",
          "name": "",
          "type": "bytes32"
        }
      ],
      "stateMutability": "view",
      "type": "function"
    },
    {
      "inputs": [
        {
          "internalType": "address",
          "name": "to",
          "type": "address"
        },
        {
          "internalType": "uint256",
          "name": "tokenId",
          "type": "uint256"
        }
      ],
      "name": "approve",
      "outputs": [],
      "stateMutability": "nonpayable",
      "type": "function"
    },
    {
      "inputs": [
        {
          "internalType": "address",
          "name": "owner",
          "type": "address"
        }
      ],
      "name": "balanceOf",
      "outputs": [
        {
          "internalType": "uint256",
          "name": "",
          "type": "uint256"
        }
      ],
      "stateMutability": "view",
      "type": "function"
    },
    {
      "inputs": [],
      "name": "clock",
      "outputs": [
        {
          "internalType": "uint48",
          "name": "",
          "type": "uint48"
        }
      ],
      "stateMutability": "view",
      "type": "function"
    },
    {
      "inputs": [
        {
          "internalType": "address",
          "name": "delegatee",
          "type": "address"
        }
      ],
      "name": "delegate",
      "outputs": [],
      "stateMutability": "nonpayable",
      "type": "function"
    },
    {
      "inputs": [
        {
          "internalType": "address",
          "name": "delegatee",
          "type": "address"
        },
        {
          "internalType": "uint256",
          "name": "nonce",
          "type": "uint256"
        },
        {
          "internalType": "uint256",
          "name": "expiry",
          "type": "uint256"
        },
        {
          "internalType": "uint8",
          "name": "v",
          "type": "uint8"
        },
        {
          "internalType": "bytes32",
          "name": "r",
          "type": "bytes32"
        },
        {
          "internalType": "bytes32",
          "name": "s",
          "type": "bytes32"
        }
      ],
      "name": "delegateBySig",
      "outputs": [],
      "stateMutability": "nonpayable",
      "type": "function"
    },
    {
      "inputs": [
        {
          "internalType": "address",
          "name": "account",
          "type": "address"
        }
      ],
      "name": "delegates",
      "outputs": [
        {
          "internalType": "address",
          "name": "",
          "type": "address"
        }
      ],
      "stateMutability": "view",
      "type": "function"
    },
    {
      "inputs": [],
      "name": "eip712Domain",
      "outputs": [
        {
          "internalType": "bytes1",
          "name": "fields",
          "type": "bytes1"
        },
        {
          "internalType": "string",
          "name": "name",
          "type": "string"
        },
        {
          "internalType": "string",
          "name": "version",
          "type": "string"
        },
        {
          "internalType": "uint256",
          "name": "chainId",
          "type": "uint256"
        },
        {
          "internalType": "address",
          "name": "verifyingContract",
          "type": "address"
        },
        {
          "internalType": "bytes32",
          "name": "salt",
          "type": "bytes32"
        },
        {
          "internalType": "uint256[]",
          "name": "extensions",
          "type": "uint256[]"
        }
      ],
      "stateMutability": "view",
      "type": "function"
    },
    {
      "inputs": [
        {
          "internalType": "uint256",
          "name": "tokenId",
          "type": "uint256"
        }
      ],
      "name": "getApproved",
      "outputs": [
        {
          "internalType": "address",
          "name": "",
          "type": "address"
        }
      ],
      "stateMutability": "view",
      "type": "function"
    },
    {
      "inputs": [
        {
          "internalType": "uint256",
          "name": "timepoint",
          "type": "uint256"
        }
      ],
      "name": "getPastTotalSupply",
      "outputs": [
        {
          "internalType": "uint256",
          "name": "",
          "type": "uint256"
        }
      ],
      "stateMutability": "view",
      "type": "function"
    },
    {
      "inputs": [
        {
          "internalType": "address",
          "name": "account",
          "type": "address"
        },
        {
          "internalType": "uint256",
          "name": "timepoint",
          "type": "uint256"
        }
      ],
      "name": "getPastVotes",
      "outputs": [
        {
          "internalType": "uint256",
          "name": "",
          "type": "uint256"
        }
      ],
      "stateMutability": "view",
      "type": "function"
    },
    {
      "inputs": [
        {
          "internalType": "address",
          "name": "account",
          "type": "address"
        }
      ],
      "name": "getVotes",
      "outputs": [
        {
          "internalType": "uint256",
          "name": "",
          "type": "uint256"
        }
      ],
      "stateMutability": "view",
      "type": "function"
    },
    {
      "inputs": [
        {
          "internalType": "address",
          "name": "owner",
          "type": "address"
        },
        {
          "internalType": "address",
          "name": "operator",
          "type": "address"
        }
      ],
      "name": "isApprovedForAll",
      "outputs": [
        {
          "internalType": "bool",
          "name": "",
          "type": "bool"
        }
      ],
      "stateMutability": "view",
      "type": "function"
    },
    {
      "inputs": [],
      "name": "name",
      "outputs": [
        {
          "internalType": "string",
          "name": "",
          "type": "string"
        }
      ],
      "stateMutability": "view",
      "type": "function"
    },
    {
      "inputs": [
        {
          "internalType": "address",
          "name": "owner",
          "type": "address"
        }
      ],
      "name": "nonces",
      "outputs": [
        {
          "internalType": "uint256",
          "name": "",
          "type": "uint256"
        }
      ],
      "stateMutability": "view",
      "type": "function"
    },
    {
      "inputs": [
        {
          "internalType": "uint256",
          "name": "tokenId",
          "type": "uint256"
        }
      ],
      "name": "ownerOf",
      "outputs": [
        {
          "internalType": "address",
          "name": "",
          "type": "address"
        }
      ],
      "stateMutability": "view",
      "type": "function"
    },
    {
      "inputs": [],
      "name": "paused",
      "outputs": [
        {
          "internalType": "bool",
          "name": "",
          "type": "bool"
        }
      ],
      "stateMutability": "view",
      "type": "function"
    },
    {
      "inputs": [
        {
          "internalType": "address",
          "name": "from",
          "type": "address"
        },
        {
          "internalType": "address",
          "name": "to",
          "type": "address"
        },
        {
          "internalType": "uint256",
          "name": "tokenId",
          "type": "uint256"
        }
      ],
      "name": "safeTransferFrom",
      "outputs": [],
      "stateMutability": "nonpayable",
      "type": "function"
    },
    {
      "inputs": [
        {
          "internalType": "address",
          "name": "from",
          "type": "address"
        },
        {
          "internalType": "address",
          "name": "to",
          "type": "address"
        },
        {
          "internalType": "uint256",
          "name": "tokenId",
          "type": "uint256"
        },
        {
          "internalType": "bytes",
          "name": "data",
          "type": "bytes"
        }
      ],
      "name": "safeTransferFrom",
      "outputs": [],
      "stateMutability": "nonpayable",
      "type": "function"
    },
    {
      "inputs": [
        {
          "internalType": "address",
          "name": "operator",
          "type": "address"
        },
        {
          "internalType": "bool",
          "name": "approved",
          "type": "bool"
        }
      ],
      "name": "setApprovalForAll",
      "outputs": [],
      "stateMutability": "nonpayable",
      "type": "function"
    },
    {
      "inputs": [
        {
          "internalType": "bytes4",
          "name": "interfaceId",
          "type": "bytes4"
        }
      ],
      "name": "supportsInterface",
      "outputs": [
        {
          "internalType": "bool",
          "name": "",
          "type": "bool"
        }
      ],
      "stateMutability": "view",
      "type": "function"
    },
    {
      "inputs": [],
      "name": "symbol",
      "outputs": [
        {
          "internalType": "string",
          "name": "",
          "type": "string"
        }
      ],
      "stateMutability": "view",
      "type": "function"
    },
    {
      "inputs": [
        {
          "internalType": "uint256",
          "name": "tokenId",
          "type": "uint256"
        }
      ],
      "name": "tokenURI",
      "outputs": [
        {
          "internalType": "string",
          "name": "",
          "type": "string"
        }
      ],
      "stateMutability": "view",
      "type": "function"
    },
    {
      "inputs": [
        {
          "internalType": "address",
          "name": "from",
          "type": "address"
        },
        {
          "internalType": "address",
          "name": "to",
          "type": "address"
        },
        {
          "internalType": "uint256",
          "name": "tokenId",
          "type": "uint256"
        }
      ],
      "name": "transferFrom",
      "outputs": [],
      "stateMutability": "nonpayable",
      "type": "function"
    }
  ],
  "bytecode": "0x6101606040523480156200001257600080fd5b5060405162003f7a38038062003f7a833981016040819052620000359162001271565b6040805180820190915260018152603160f81b60208201528590818660006200005f8382620013e2565b5060016200006e8282620013e2565b50506008805460ff191690555062000088826009620001ff565b60e0526200009881600a620001ff565b61010052815160208084019190912061012052815190820120610140524660a052620001286101205161014051604080517f8b73c3c69bb8fe3d512ecc4cf759cc79239f7b179b0ffacaa9a75d522b39400f60208201529081019290925260608201524660808201523060a082015260009060c00160405160208183030381529060405280519060200120905090565b60805250503060c05260005b8351811015620001915762000188848281518110620001575762000157620014ae565b6020026020010151858381518110620001745762000174620014ae565b60200260200101516200023860201b60201c565b60010162000134565b5060005b8251811015620001f357620001e9838281518110620001b857620001b8620014ae565b6020026020010151838381518110620001d557620001d5620014ae565b6020026020010151620002b360201b60201c565b5060010162000195565b505050505050620015f3565b60006020835110156200021f576200021783620004dc565b905062000232565b816200022c8482620013e2565b50600090505b92915050565b6001600160a01b038281166000818152600b602052604080822080548686166001600160a01b0319821681179092559151919094169392849290917f3134e8a2e6d97e929a7e54011ea5485d7d196dd5f0ba4d4ef95803e8e3fc257f9190a4620002ae8183620002a8866200051f565b6200052c565b505050565b600080620002c062000699565b90506001600160601b03831615620004d557303b156200034d5760405162461bcd60e51b815260206004820152603a60248201527f455243373231436f6e73656375746976653a206261746368206d696e74696e6760448201527f207265737472696374656420746f20636f6e7374727563746f7200000000000060648201526084015b60405180910390fd5b6001600160a01b038416620003b95760405162461bcd60e51b815260206004820152602b60248201527f455243373231436f6e73656375746976653a206d696e7420746f20746865207a60448201526a65726f206164647265737360a81b606482015260840162000344565b6113886001600160601b0384161115620004215760405162461bcd60e51b815260206004820152602260248201527f455243373231436f6e73656375746976653a20626174636820746f6f206c6172604482015261676560f01b606482015260840162000344565b6200043c6000856001600160601b03808516908716620006d0565b600060016200044c8584620014da565b62000458919062001504565b90506200046860068287620006e4565b50506040516001600160601b0382811682526001600160a01b038716916000918516907fdeaa91b6123d068f5821d0fb0678463d1a8a6079fe8af5de3ce5e896dcf9133d9060200160405180910390a4620004d36000866001600160601b0380861690881662000701565b505b9392505050565b600080829050601f815111156200050a578260405163305a27a960e01b815260040162000344919062001527565b805162000517826200155c565b179392505050565b600062000232826200070f565b816001600160a01b0316836001600160a01b0316141580156200054f5750600081115b15620002ae576001600160a01b03831615620005f8576001600160a01b0383166000908152600c6020908152604082208291620005a3919062000797901b62000b59176200059d86620007a5565b62000814565b6001600160e01b031691506001600160e01b03169150846001600160a01b031660008051602062003f5a8339815191528383604051620005ed929190918252602082015260400190565b60405180910390a250505b6001600160a01b03821615620002ae576001600160a01b0382166000908152600c602090815260408220829162000640919062000856901b62000b65176200059d86620007a5565b6001600160e01b031691506001600160e01b03169150836001600160a01b031660008051602062003f5a83398151915283836040516200068a929190918252602082015260400190565b60405180910390a25050505050565b60008080620006a9600662000864565b509150915081620006bc576000620006c9565b620006c9816001620014da565b9250505090565b620006de84848484620008fc565b50505050565b600080620006f485858562000973565b915091505b935093915050565b620006de8484848462000b52565b60006001600160a01b0382166200077b5760405162461bcd60e51b815260206004820152602960248201527f4552433732313a2061646472657373207a65726f206973206e6f7420612076616044820152683634b21037bbb732b960b91b606482015260840162000344565b506001600160a01b031660009081526003602052604090205490565b6000620004d5828462001581565b60006001600160e01b03821115620008105760405162461bcd60e51b815260206004820152602760248201527f53616665436173743a2076616c756520646f65736e27742066697420696e20326044820152663234206269747360c81b606482015260840162000344565b5090565b600080620006f4620008376200082962000b6d565b65ffffffffffff1662000b7f565b6200084d620008468862000be6565b868860201c565b87919062000c25565b6000620004d58284620015a4565b8054600090819081908082036200088757600080600093509350935050620008f5565b6000620008a9866200089b600185620015c7565b600091825260209091200190565b6040805180820190915290546001600160601b0381168083526c010000000000000000000000009091046001600160a01b031660209092018290526001965094509250620008f5915050565b9193909250565b6200090a8484848462000c35565b60085460ff1615620006de5760405162461bcd60e51b815260206004820152602b60248201527f4552433732315061757361626c653a20746f6b656e207472616e73666572207760448201526a1a1a5b19481c185d5cd95960aa1b606482015260840162000344565b82546000908190801562000aec57600062000995876200089b600185620015c7565b6040805180820190915290546001600160601b038082168084526c010000000000000000000000009092046001600160a01b03166020840152919250908716101562000a245760405162461bcd60e51b815260206004820152601b60248201527f436865636b706f696e743a2064656372656173696e67206b6579730000000000604482015260640162000344565b80516001600160601b0380881691160362000a80578462000a4c886200089b600186620015c7565b80546001600160a01b03929092166c01000000000000000000000000026001600160601b0390921691909117905562000adb565b604080518082019091526001600160601b0380881682526001600160a01b0380881660208085019182528b54600181018d5560008d815291909120945191519092166c01000000000000000000000000029216919091179101555b602001519250839150620006f99050565b5050604080518082019091526001600160601b0380851682526001600160a01b0380851660208085019182528854600181018a5560008a8152918220955192519093166c01000000000000000000000000029190931617920191909155905081620006f9565b62000b5f84848362000cc4565b620006de8484848462000d56565b600062000b7a4362000e45565b905090565b600063ffffffff821115620008105760405162461bcd60e51b815260206004820152602660248201527f53616665436173743a2076616c756520646f65736e27742066697420696e203360448201526532206269747360d01b606482015260840162000344565b8054600090801562000c1c5762000c04836200089b600184620015c7565b5464010000000090046001600160e01b0316620004d5565b60009392505050565b600080620006f485858562000eae565b6001811115620006de576001600160a01b0384161562000c7f576001600160a01b0384166000908152600360205260408120805483929062000c79908490620015c7565b90915550505b6001600160a01b03831615620006de576001600160a01b0383166000908152600360205260408120805483929062000cb9908490620015dd565b909155505050505050565b6001600160a01b03831662000cf35762000cf0600d62000b656200085660201b176200059d84620007a5565b50505b6001600160a01b03821662000d225762000d1f600d62000b596200079760201b176200059d84620007a5565b50505b6001600160a01b038381166000908152600b6020526040808220548584168352912054620002ae929182169116836200052c565b6001600160a01b03831615801562000d7f575062000d7362000699565b6001600160601b031682105b801562000da55750600882901c600090815260076020526040902054600160ff84161b16155b1562000e31578060011462000e115760405162461bcd60e51b815260206004820152602b60248201527f455243373231436f6e73656375746976653a206261746368206275726e206e6f60448201526a1d081cdd5c1c1bdc9d195960aa1b606482015260840162000344565b600882901c60009081526007602052604090208054600160ff85161b1790555b620006de848484846001600160e01b038516565b600065ffffffffffff821115620008105760405162461bcd60e51b815260206004820152602660248201527f53616665436173743a2076616c756520646f65736e27742066697420696e203460448201526538206269747360d01b606482015260840162000344565b8254600090819080156200100257600062000ed0876200089b600185620015c7565b60408051808201909152905463ffffffff8082168084526401000000009092046001600160e01b03166020840152919250908716101562000f545760405162461bcd60e51b815260206004820152601b60248201527f436865636b706f696e743a2064656372656173696e67206b6579730000000000604482015260640162000344565b805163ffffffff80881691160362000fa2578462000f79886200089b600186620015c7565b80546001600160e01b03929092166401000000000263ffffffff90921691909117905562000adb565b6040805180820190915263ffffffff80881682526001600160e01b0380881660208085019182528b54600181018d5560008d8152919091209451915190921664010000000002921691909117910155602001519250839150620006f99050565b50506040805180820190915263ffffffff80851682526001600160e01b0380851660208085019182528854600181018a5560008a815291822095519251909316640100000000029190931617920191909155905081620006f9565b634e487b7160e01b600052604160045260246000fd5b604051601f8201601f191681016001600160401b03811182821017156200109e576200109e6200105d565b604052919050565b60005b83811015620010c3578181015183820152602001620010a9565b50506000910152565b600082601f830112620010de57600080fd5b81516001600160401b03811115620010fa57620010fa6200105d565b6200110f601f8201601f191660200162001073565b8181528460208386010111156200112557600080fd5b62001138826020830160208701620010a6565b949350505050565b60006001600160401b038211156200115c576200115c6200105d565b5060051b60200190565b600082601f8301126200117857600080fd5b81516020620011916200118b8362001140565b62001073565b8083825260208201915060208460051b870101935086841115620011b457600080fd5b602086015b84811015620011e95780516001600160a01b0381168114620011db5760008081fd5b8352918301918301620011b9565b509695505050505050565b600082601f8301126200120657600080fd5b81516020620012196200118b8362001140565b8083825260208201915060208460051b8701019350868411156200123c57600080fd5b602086015b84811015620011e95780516001600160601b0381168114620012635760008081fd5b835291830191830162001241565b600080600080600060a086880312156200128a57600080fd5b85516001600160401b0380821115620012a257600080fd5b620012b089838a01620010cc565b96506020880151915080821115620012c757600080fd5b620012d589838a01620010cc565b95506040880151915080821115620012ec57600080fd5b620012fa89838a0162001166565b945060608801519150808211156200131157600080fd5b6200131f89838a0162001166565b935060808801519150808211156200133657600080fd5b506200134588828901620011f4565b9150509295509295909350565b600181811c908216806200136757607f821691505b6020821081036200138857634e487b7160e01b600052602260045260246000fd5b50919050565b601f821115620002ae576000816000526020600020601f850160051c81016020861015620013b95750805b601f850160051c820191505b81811015620013da57828155600101620013c5565b505050505050565b81516001600160401b03811115620013fe57620013fe6200105d565b62001416816200140f845462001352565b846200138e565b602080601f8311600181146200144e5760008415620014355750858301515b600019600386901b1c1916600185901b178555620013da565b600085815260208120601f198616915b828110156200147f578886015182559484019460019091019084016200145e565b50858210156200149e5787850151600019600388901b60f8161c191681555b5050505050600190811b01905550565b634e487b7160e01b600052603260045260246000fd5b634e487b7160e01b600052601160045260246000fd5b6001600160601b03818116838216019080821115620014fd57620014fd620014c4565b5092915050565b6001600160601b03828116828216039080821115620014fd57620014fd620014c4565b602081526000825180602084015262001548816040850160208701620010a6565b601f01601f19169190910160400192915050565b80516020808301519190811015620013885760001960209190910360031b1b16919050565b6001600160e01b03828116828216039080821115620014fd57620014fd620014c4565b6001600160e01b03818116838216019080821115620014fd57620014fd620014c4565b81810381811115620002325762000232620014c4565b80820180821115620002325762000232620014c4565b60805160a05160c05160e05161010051610120516101405161290c6200164e6000396000610f0401526000610edc015260006108700152600061084501526000610e3701526000610e6101526000610e8b015261290c6000f3fe608060405234801561001057600080fd5b50600436106101735760003560e01c80636352211e116100de57806395d89b4111610097578063b88d4fde11610071578063b88d4fde1461034a578063c3cda5201461035d578063c87b56dd14610370578063e985e9c51461038357600080fd5b806395d89b411461031c5780639ab24eb014610324578063a22cb4651461033757600080fd5b80636352211e1461029657806370a08231146102a95780637ecebe00146102bc57806384b0196e146102cf5780638e539e8c146102ea57806391ddadf4146102fd57600080fd5b80633a46b1a8116101305780633a46b1a81461021e57806342842e0e146102315780634bf5d7e914610244578063587cde1e1461024c5780635c19a95c146102785780635c975abb1461028b57600080fd5b806301ffc9a71461017857806306fdde03146101a0578063081812fc146101b5578063095ea7b3146101e057806323b872dd146101f55780633644e51514610208575b600080fd5b61018b6101863660046122b4565b6103bf565b60405190151581526020015b60405180910390f35b6101a8610411565b6040516101979190612321565b6101c86101c3366004612334565b6104a3565b6040516001600160a01b039091168152602001610197565b6101f36101ee366004612369565b6104ca565b005b6101f3610203366004612393565b6105e4565b610210610615565b604051908152602001610197565b61021061022c366004612369565b610624565b6101f361023f366004612393565b6106b5565b6101a86106d0565b6101c861025a3660046123cf565b6001600160a01b039081166000908152600b60205260409020541690565b6101f36102863660046123cf565b610725565b60085460ff1661018b565b6101c86102a4366004612334565b610734565b6102106102b73660046123cf565b610793565b6102106102ca3660046123cf565b610819565b6102d7610837565b60405161019797969594939291906123ea565b6102106102f8366004612334565b6108c0565b61030561093a565b60405165ffffffffffff9091168152602001610197565b6101a8610945565b6102106103323660046123cf565b610954565b6101f3610345366004612483565b610975565b6101f36103583660046124d5565b610980565b6101f361036b3660046125b1565b6109b8565b6101a861037e366004612334565b610ae5565b61018b610391366004612611565b6001600160a01b03918216600090815260056020908152604080832093909416825291909152205460ff1690565b60006001600160e01b031982166380ac58cd60e01b14806103f057506001600160e01b03198216635b5e139f60e01b145b8061040b57506301ffc9a760e01b6001600160e01b03198316145b92915050565b60606000805461042090612644565b80601f016020809104026020016040519081016040528092919081815260200182805461044c90612644565b80156104995780601f1061046e57610100808354040283529160200191610499565b820191906000526020600020905b81548152906001019060200180831161047c57829003601f168201915b5050505050905090565b60006104ae82610b71565b506000908152600460205260409020546001600160a01b031690565b60006104d582610734565b9050806001600160a01b0316836001600160a01b0316036105475760405162461bcd60e51b815260206004820152602160248201527f4552433732313a20617070726f76616c20746f2063757272656e74206f776e656044820152603960f91b60648201526084015b60405180910390fd5b336001600160a01b038216148061056357506105638133610391565b6105d55760405162461bcd60e51b815260206004820152603d60248201527f4552433732313a20617070726f76652063616c6c6572206973206e6f7420746f60448201527f6b656e206f776e6572206f7220617070726f76656420666f7220616c6c000000606482015260840161053e565b6105df8383610bc4565b505050565b6105ee3382610c32565b61060a5760405162461bcd60e51b815260040161053e90612678565b6105df838383610cb1565b600061061f610e2a565b905090565b600061062e61093a565b65ffffffffffff16821061067b5760405162461bcd60e51b81526020600482015260146024820152730566f7465733a20667574757265206c6f6f6b75760641b604482015260640161053e565b6106a561068783610f55565b6001600160a01b0385166000908152600c6020526040902090610fbe565b6001600160e01b03169392505050565b6105df83838360405180602001604052806000815250610980565b6060436106db61093a565b65ffffffffffff16146106ed57600080fd5b5060408051808201909152601d81527f6d6f64653d626c6f636b6e756d6265722666726f6d3d64656661756c74000000602082015290565b336107308183611073565b5050565b600080610740836110e5565b90506001600160a01b03811661040b5760405162461bcd60e51b8152602060048201526018602482015277115490cdcc8c4e881a5b9d985b1a59081d1bdad95b88125160421b604482015260640161053e565b60006001600160a01b0382166107fd5760405162461bcd60e51b815260206004820152602960248201527f4552433732313a2061646472657373207a65726f206973206e6f7420612076616044820152683634b21037bbb732b960b91b606482015260840161053e565b506001600160a01b031660009081526003602052604090205490565b6001600160a01b0381166000908152600e602052604081205461040b565b60006060808280808361086b7f000000000000000000000000000000000000000000000000000000000000000060096110f0565b6108967f0000000000000000000000000000000000000000000000000000000000000000600a6110f0565b60408051600080825260208201909252600f60f81b9b939a50919850469750309650945092509050565b60006108ca61093a565b65ffffffffffff1682106109175760405162461bcd60e51b81526020600482015260146024820152730566f7465733a20667574757265206c6f6f6b75760641b604482015260640161053e565b61092b61092383610f55565b600d90610fbe565b6001600160e01b031692915050565b600061061f4361119c565b60606001805461042090612644565b6001600160a01b0381166000908152600c6020526040812061092b90611203565b61073033838361123d565b61098a3383610c32565b6109a65760405162461bcd60e51b815260040161053e90612678565b6109b28484848461130b565b50505050565b83421115610a085760405162461bcd60e51b815260206004820152601860248201527f566f7465733a207369676e617475726520657870697265640000000000000000604482015260640161053e565b604080517fe48329057bfd03d55e49b547132e39cffd9c1820ad7b9d4c5307691425d15adf60208201526001600160a01b038816918101919091526060810186905260808101859052600090610a8290610a7a9060a0016040516020818303038152906040528051906020012061133e565b85858561136b565b9050610a8d81611393565b8614610ad25760405162461bcd60e51b8152602060048201526014602482015273566f7465733a20696e76616c6964206e6f6e636560601b604482015260640161053e565b610adc8188611073565b50505050505050565b6060610af082610b71565b6000610b0760408051602081019091526000815290565b90506000815111610b275760405180602001604052806000815250610b52565b80610b31846113bb565b604051602001610b429291906126c5565b6040516020818303038152906040525b9392505050565b6000610b52828461270a565b6000610b528284612731565b610b7a8161144e565b610bc15760405162461bcd60e51b8152602060048201526018602482015277115490cdcc8c4e881a5b9d985b1a59081d1bdad95b88125160421b604482015260640161053e565b50565b600081815260046020526040902080546001600160a01b0319166001600160a01b0384169081179091558190610bf982610734565b6001600160a01b03167f8c5be1e5ebec7d5bd14f71427d1e84f3dd0314c0f7b2291e5b200ac8c7c3b92560405160405180910390a45050565b600080610c3e83610734565b9050806001600160a01b0316846001600160a01b03161480610c8557506001600160a01b0380821660009081526005602090815260408083209388168352929052205460ff165b80610ca95750836001600160a01b0316610c9e846104a3565b6001600160a01b0316145b949350505050565b826001600160a01b0316610cc482610734565b6001600160a01b031614610cea5760405162461bcd60e51b815260040161053e90612751565b6001600160a01b038216610d4c5760405162461bcd60e51b8152602060048201526024808201527f4552433732313a207472616e7366657220746f20746865207a65726f206164646044820152637265737360e01b606482015260840161053e565b610d59838383600161146b565b826001600160a01b0316610d6c82610734565b6001600160a01b031614610d925760405162461bcd60e51b815260040161053e90612751565b600081815260046020908152604080832080546001600160a01b03199081169091556001600160a01b0387811680865260038552838620805460001901905590871680865283862080546001019055868652600290945282852080549092168417909155905184937fddf252ad1be2c89b69c2b068fc378daa952ba7f163c4a11628f55a4df523b3ef91a46105df8383836001611477565b6000306001600160a01b037f000000000000000000000000000000000000000000000000000000000000000016148015610e8357507f000000000000000000000000000000000000000000000000000000000000000046145b15610ead57507f000000000000000000000000000000000000000000000000000000000000000090565b61061f604080517f8b73c3c69bb8fe3d512ecc4cf759cc79239f7b179b0ffacaa9a75d522b39400f60208201527f0000000000000000000000000000000000000000000000000000000000000000918101919091527f000000000000000000000000000000000000000000000000000000000000000060608201524660808201523060a082015260009060c00160405160208183030381529060405280519060200120905090565b600063ffffffff821115610fba5760405162461bcd60e51b815260206004820152602660248201527f53616665436173743a2076616c756520646f65736e27742066697420696e203360448201526532206269747360d01b606482015260840161053e565b5090565b81546000908181600581111561101b576000610fd984611483565b610fe39085612796565b60008881526020902090915081015463ffffffff908116908716101561100b57809150611019565b6110168160016127a9565b92505b505b60006110298787858561156b565b905080156110655761104e87611040600184612796565b600091825260209091200190565b5464010000000090046001600160e01b0316611068565b60005b979650505050505050565b6001600160a01b038281166000818152600b602052604080822080548686166001600160a01b0319821681179092559151919094169392849290917f3134e8a2e6d97e929a7e54011ea5485d7d196dd5f0ba4d4ef95803e8e3fc257f9190a46105df81836110e0866115c9565b6115d4565b600061040b82611740565b606060ff83161561110b57611104836117a7565b905061040b565b81805461111790612644565b80601f016020809104026020016040519081016040528092919081815260200182805461114390612644565b80156111905780601f1061116557610100808354040283529160200191611190565b820191906000526020600020905b81548152906001019060200180831161117357829003601f168201915b5050505050905061040b565b600065ffffffffffff821115610fba5760405162461bcd60e51b815260206004820152602660248201527f53616665436173743a2076616c756520646f65736e27742066697420696e203460448201526538206269747360d01b606482015260840161053e565b805460009080156112345761121d83611040600184612796565b5464010000000090046001600160e01b0316610b52565b60009392505050565b816001600160a01b0316836001600160a01b03160361129e5760405162461bcd60e51b815260206004820152601960248201527f4552433732313a20617070726f766520746f2063616c6c657200000000000000604482015260640161053e565b6001600160a01b03838116600081815260056020908152604080832094871680845294825291829020805460ff191686151590811790915591519182527f17307eab39ab6107e8899845ad3d59bd9653f200f220920489ca2b5937696c31910160405180910390a3505050565b611316848484610cb1565b611322848484846117dc565b6109b25760405162461bcd60e51b815260040161053e906127bc565b600061040b61134b610e2a565b8360405161190160f01b8152600281019290925260228201526042902090565b600080600061137c878787876118da565b915091506113898161199e565b5095945050505050565b6001600160a01b0381166000908152600e602052604090208054600181018255905b50919050565b606060006113c883611ae8565b600101905060008167ffffffffffffffff8111156113e8576113e86124bf565b6040519080825280601f01601f191660200182016040528015611412576020820181803683370190505b5090508181016020015b600019016f181899199a1a9b1b9c1cb0b131b232b360811b600a86061a8153600a850494508461141c57509392505050565b60008061145a836110e5565b6001600160a01b0316141592915050565b6109b284848484611bc0565b6109b284848484611c33565b60008160000361149557506000919050565b600060016114a284611c4a565b901c6001901b905060018184816114bb576114bb61280e565b048201901c905060018184816114d3576114d361280e565b048201901c905060018184816114eb576114eb61280e565b048201901c905060018184816115035761150361280e565b048201901c9050600181848161151b5761151b61280e565b048201901c905060018184816115335761153361280e565b048201901c9050600181848161154b5761154b61280e565b048201901c9050610b52818285816115655761156561280e565b04611cde565b60005b818310156115c15760006115828484611cf4565b60008781526020902090915063ffffffff86169082015463ffffffff1611156115ad578092506115bb565b6115b88160016127a9565b93505b5061156e565b509392505050565b600061040b82610793565b816001600160a01b0316836001600160a01b0316141580156115f65750600081115b156105df576001600160a01b0383161561169e576001600160a01b0383166000908152600c60205260408120819061163990610b5961163486611d0f565b611d78565b6001600160e01b031691506001600160e01b03169150846001600160a01b03167fdec2bacdd2f05b59de34da9b523dff8be42e5e38e818c82fdb0bae774387a7248383604051611693929190918252602082015260400190565b60405180910390a250505b6001600160a01b038216156105df576001600160a01b0382166000908152600c6020526040812081906116d790610b6561163486611d0f565b6001600160e01b031691506001600160e01b03169150836001600160a01b03167fdec2bacdd2f05b59de34da9b523dff8be42e5e38e818c82fdb0bae774387a7248383604051611731929190918252602082015260400190565b60405180910390a25050505050565b6000818152600260205260408120546001600160a01b03168015158061176c57506001600160601b0383115b156117775792915050565b600883901c600090815260076020526040902054600160ff85161b16611234576117a2600684611dc1565b610b52565b60408051602080825281830190925260609160ff84169160009180820181803683375050509182525060208101929092525090565b60006001600160a01b0384163b156118d257604051630a85bd0160e11b81526001600160a01b0385169063150b7a0290611820903390899088908890600401612824565b6020604051808303816000875af192505050801561185b575060408051601f3d908101601f1916820190925261185891810190612861565b60015b6118b8573d808015611889576040519150601f19603f3d011682016040523d82523d6000602084013e61188e565b606091505b5080516000036118b05760405162461bcd60e51b815260040161053e906127bc565b805181602001fd5b6001600160e01b031916630a85bd0160e11b149050610ca9565b506001610ca9565b6000807f7fffffffffffffffffffffffffffffff5d576e7357a4501ddfe92f46681b20a08311156119115750600090506003611995565b6040805160008082526020820180845289905260ff881692820192909252606081018690526080810185905260019060a0016020604051602081039080840390855afa158015611965573d6000803e3d6000fd5b5050604051601f1901519150506001600160a01b03811661198e57600060019250925050611995565b9150600090505b94509492505050565b60008160048111156119b2576119b261287e565b036119ba5750565b60018160048111156119ce576119ce61287e565b03611a1b5760405162461bcd60e51b815260206004820152601860248201527f45434453413a20696e76616c6964207369676e61747572650000000000000000604482015260640161053e565b6002816004811115611a2f57611a2f61287e565b03611a7c5760405162461bcd60e51b815260206004820152601f60248201527f45434453413a20696e76616c6964207369676e6174757265206c656e67746800604482015260640161053e565b6003816004811115611a9057611a9061287e565b03610bc15760405162461bcd60e51b815260206004820152602260248201527f45434453413a20696e76616c6964207369676e6174757265202773272076616c604482015261756560f01b606482015260840161053e565b60008072184f03e93ff9f4daa797ed6e38ed64bf6a1f0160401b8310611b275772184f03e93ff9f4daa797ed6e38ed64bf6a1f0160401b830492506040015b6d04ee2d6d415b85acef81000000008310611b53576d04ee2d6d415b85acef8100000000830492506020015b662386f26fc100008310611b7157662386f26fc10000830492506010015b6305f5e1008310611b89576305f5e100830492506008015b6127108310611b9d57612710830492506004015b60648310611baf576064830492506002015b600a831061040b5760010192915050565b611bcc84848484611e09565b60085460ff16156109b25760405162461bcd60e51b815260206004820152602b60248201527f4552433732315061757361626c653a20746f6b656e207472616e73666572207760448201526a1a1a5b19481c185d5cd95960aa1b606482015260840161053e565b611c3e848483611e91565b6109b284848484611f07565b600080608083901c15611c5f57608092831c92015b604083901c15611c7157604092831c92015b602083901c15611c8357602092831c92015b601083901c15611c9557601092831c92015b600883901c15611ca757600892831c92015b600483901c15611cb957600492831c92015b600283901c15611ccb57600292831c92015b600183901c1561040b5760010192915050565b6000818310611ced5781610b52565b5090919050565b6000611d036002848418612894565b610b52908484166127a9565b60006001600160e01b03821115610fba5760405162461bcd60e51b815260206004820152602760248201527f53616665436173743a2076616c756520646f65736e27742066697420696e20326044820152663234206269747360c81b606482015260840161053e565b600080611db4611d96611d8961093a565b65ffffffffffff16610f55565b611dac611da288611203565b868863ffffffff16565b879190611fe4565b915091505b935093915050565b815460009081611dd385858385611ff2565b9050818114611dfd57600085815260209020810154600160601b90046001600160a01b0316611e00565b60005b95945050505050565b60018111156109b2576001600160a01b03841615611e4f576001600160a01b03841660009081526003602052604081208054839290611e49908490612796565b90915550505b6001600160a01b038316156109b2576001600160a01b03831660009081526003602052604081208054839290611e869084906127a9565b909155505050505050565b6001600160a01b038316611eb357611eb0600d610b6561163484611d0f565b50505b6001600160a01b038216611ed557611ed2600d610b5961163484611d0f565b50505b6001600160a01b038381166000908152600b60205260408082205485841683529120546105df929182169116836115d4565b6001600160a01b038316158015611f2d5750611f2161204e565b6001600160601b031682105b8015611f525750600882901c600090815260076020526040902054600160ff84161b16155b15611fdf5780600114611fbb5760405162461bcd60e51b815260206004820152602b60248201527f455243373231436f6e73656375746976653a206261746368206275726e206e6f60448201526a1d081cdd5c1c1bdc9d195960aa1b606482015260840161053e565b600882901c60009081526007602052604090208054600160ff85161b1790556109b2565b6109b2565b600080611db4858585612080565b60005b818310156115c15760006120098484611cf4565b6000878152602090209091506001600160601b038616908201546001600160601b031610156120445761203d8160016127a9565b9350612048565b8092505b50611ff5565b600080600061205d6006612223565b50915091508161206e576000612079565b6120798160016128b6565b9250505090565b8254600090819080156121c957600061209e87611040600185612796565b60408051808201909152905463ffffffff8082168084526401000000009092046001600160e01b0316602084015291925090871610156121205760405162461bcd60e51b815260206004820152601b60248201527f436865636b706f696e743a2064656372656173696e67206b6579730000000000604482015260640161053e565b805163ffffffff808816911603612169578461214188611040600186612796565b80546001600160e01b03929092166401000000000263ffffffff9092169190911790556121b9565b6040805180820190915263ffffffff80881682526001600160e01b0380881660208085019182528b54600181018d5560008d81529190912094519151909216640100000000029216919091179101555b602001519250839150611db99050565b50506040805180820190915263ffffffff80851682526001600160e01b0380851660208085019182528854600181018a5560008a815291822095519251909316640100000000029190931617920191909155905081611db9565b80546000908190819080820361224457600080600093509350935050612297565b600061225586611040600185612796565b6040805180820190915290546001600160601b038116808352600160601b9091046001600160a01b031660209092018290526001965094509250612297915050565b9193909250565b6001600160e01b031981168114610bc157600080fd5b6000602082840312156122c657600080fd5b8135610b528161229e565b60005b838110156122ec5781810151838201526020016122d4565b50506000910152565b6000815180845261230d8160208601602086016122d1565b601f01601f19169290920160200192915050565b602081526000610b5260208301846122f5565b60006020828403121561234657600080fd5b5035919050565b80356001600160a01b038116811461236457600080fd5b919050565b6000806040838503121561237c57600080fd5b6123858361234d565b946020939093013593505050565b6000806000606084860312156123a857600080fd5b6123b18461234d565b92506123bf6020850161234d565b9150604084013590509250925092565b6000602082840312156123e157600080fd5b610b528261234d565b60ff60f81b881681526000602060e0602084015261240b60e084018a6122f5565b838103604085015261241d818a6122f5565b606085018990526001600160a01b038816608086015260a0850187905284810360c08601528551808252602080880193509091019060005b8181101561247157835183529284019291840191600101612455565b50909c9b505050505050505050505050565b6000806040838503121561249657600080fd5b61249f8361234d565b9150602083013580151581146124b457600080fd5b809150509250929050565b634e487b7160e01b600052604160045260246000fd5b600080600080608085870312156124eb57600080fd5b6124f48561234d565b93506125026020860161234d565b925060408501359150606085013567ffffffffffffffff8082111561252657600080fd5b818701915087601f83011261253a57600080fd5b81358181111561254c5761254c6124bf565b604051601f8201601f19908116603f01168101908382118183101715612574576125746124bf565b816040528281528a602084870101111561258d57600080fd5b82602086016020830137600060208483010152809550505050505092959194509250565b60008060008060008060c087890312156125ca57600080fd5b6125d38761234d565b95506020870135945060408701359350606087013560ff811681146125f757600080fd5b9598949750929560808101359460a0909101359350915050565b6000806040838503121561262457600080fd5b61262d8361234d565b915061263b6020840161234d565b90509250929050565b600181811c9082168061265857607f821691505b6020821081036113b557634e487b7160e01b600052602260045260246000fd5b6020808252602d908201527f4552433732313a2063616c6c6572206973206e6f7420746f6b656e206f776e6560408201526c1c881bdc88185c1c1c9bdd9959609a1b606082015260800190565b600083516126d78184602088016122d1565b8351908301906126eb8183602088016122d1565b01949350505050565b634e487b7160e01b600052601160045260246000fd5b6001600160e01b0382811682821603908082111561272a5761272a6126f4565b5092915050565b6001600160e01b0381811683821601908082111561272a5761272a6126f4565b60208082526025908201527f4552433732313a207472616e736665722066726f6d20696e636f72726563742060408201526437bbb732b960d91b606082015260800190565b8181038181111561040b5761040b6126f4565b8082018082111561040b5761040b6126f4565b60208082526032908201527f4552433732313a207472616e7366657220746f206e6f6e20455243373231526560408201527131b2b4bb32b91034b6b83632b6b2b73a32b960711b606082015260800190565b634e487b7160e01b600052601260045260246000fd5b6001600160a01b0385811682528416602082015260408101839052608060608201819052600090612857908301846122f5565b9695505050505050565b60006020828403121561287357600080fd5b8151610b528161229e565b634e487b7160e01b600052602160045260246000fd5b6000826128b157634e487b7160e01b600052601260045260246000fd5b500490565b6001600160601b0381811683821601908082111561272a5761272a6126f456fea264697066735822122091ecdba8c357eef56bb1a558475b95d7257f242daaa7155e3df6d1a167f6383d64736f6c63430008180033dec2bacdd2f05b59de34da9b523dff8be42e5e38e818c82fdb0bae774387a724",
  "linkReferences": {},
  "deployedLinkReferences": {}
}