{
  "_format": "hh-sol-artifact-1",
  "contractName": "CrossChainEnabledArbitrumL1Mock",
  "sourceName": "contracts/standart_token/mocks/crosschain/receivers.sol",
  "abi": [
    {
      "inputs": [
        {
          "internalType": "address",
          "name": "bridge",
          "type": "address"
        }
      ],
      "stateMutability": "nonpayable",
      "type": "constructor"
    },
    {
      "inputs": [
        {
          "internalType": "address",
          "name": "actual",
          "type": "address"
        },
        {
          "internalType": "address",
          "name": "expected",
          "type": "address"
        }
      ],
      "name": "InvalidCrossChainSender",
      "type": "error"
    },
    {
      "inputs": [],
      "name": "NotCrossChainCall",
      "type": "error"
    },
    {
      "inputs": [],
      "name": "crossChainOwnerRestricted",
      "outputs": [],
      "stateMutability": "nonpayable",
      "type": "function"
    },
    {
      "inputs": [],
      "name": "crossChainRestricted",
      "outputs": [],
      "stateMutability": "nonpayable",
      "type": "function"
    },
    {
      "inputs": [],
      "name": "owner",
      "outputs": [
        {
          "internalType": "address",
          "name": "",
          "type": "address"
        }
      ],
      "stateMutability": "view",
      "type": "function"
    }
  ],
  "bytecode": "0x60c06040523360805234801561001457600080fd5b5060405161044a38038061044a83398101604081905261003391610044565b6001600160a01b031660a052610074565b60006020828403121561005657600080fd5b81516001600160a01b038116811461006d57600080fd5b9392505050565b60805160a05161039f6100ab6000396000818160a50152818161017201526101b60152600081816055015260e8015261039f6000f3fe608060405234801561001057600080fd5b50600436106100415760003560e01c80634b074af5146100465780638da5cb5b14610050578063f97f518914610093575b600080fd5b61004e61009b565b005b6100777f000000000000000000000000000000000000000000000000000000000000000081565b6040516001600160a01b03909116815260200160405180910390f35b61004e6100e6565b6001600160a01b037f00000000000000000000000000000000000000000000000000000000000000001633146100e45760405163253a6fc960e11b815260040160405180910390fd5b565b7f00000000000000000000000000000000000000000000000000000000000000006000610111610166565b9050806001600160a01b0316826001600160a01b03161461015d5760405163ef25d32b60e01b81526001600160a01b038083166004830152831660248201526044015b60405180910390fd5b5050565b905090565b60006001600160a01b037f00000000000000000000000000000000000000000000000000000000000000001633146101b15760405163253a6fc960e11b815260040160405180910390fd5b6101617f000000000000000000000000000000000000000000000000000000000000000060006001600160a01b03821633146102005760405163253a6fc960e11b815260040160405180910390fd5b6000826001600160a01b031663ab5d89436040518163ffffffff1660e01b8152600401602060405180830381865afa158015610240573d6000803e3d6000fd5b505050506040513d601f19601f820116820180604052508101906102649190610339565b6001600160a01b03166380648b026040518163ffffffff1660e01b8152600401602060405180830381865afa1580156102a1573d6000803e3d6000fd5b505050506040513d601f19601f820116820180604052508101906102c59190610339565b90506001600160a01b0381166103335760405162461bcd60e51b815260206004820152602d60248201527f4c6962417262697472756d4c313a2073797374656d206d65737361676573207760448201526c34ba3437baba1039b2b73232b960991b6064820152608401610154565b92915050565b60006020828403121561034b57600080fd5b81516001600160a01b038116811461036257600080fd5b939250505056fea26469706673582212204ad609d87f2c4e2e6f7ff02ab0c27e6b9e61c548ac9acb0898b69ce83635737064736f6c63430008180033",
  "linkReferences": {},
  "deployedLinkReferences": {}
}