{
  "_format": "hh-sol-artifact-1",
  "contractName": "CrossChainEnabledArbitrumL2Mock",
  "sourceName": "contracts/standart_token/mocks/crosschain/receivers.sol",
  "abi": [
    {
      "inputs": [
        {
          "internalType": "address",
          "name": "actual",
          "type": "address"
        },
        {
          "internalType": "address",
          "name": "expected",
          "type": "address"
        }
      ],
      "name": "InvalidCrossChainSender",
      "type": "error"
    },
    {
      "inputs": [],
      "name": "NotCrossChainCall",
      "type": "error"
    },
    {
      "inputs": [],
      "name": "crossChainOwnerRestricted",
      "outputs": [],
      "stateMutability": "nonpayable",
      "type": "function"
    },
    {
      "inputs": [],
      "name": "crossChainRestricted",
      "outputs": [],
      "stateMutability": "nonpayable",
      "type": "function"
    },
    {
      "inputs": [],
      "name": "owner",
      "outputs": [
        {
          "internalType": "address",
          "name": "",
          "type": "address"
        }
      ],
      "stateMutability": "view",
      "type": "function"
    }
  ],
  "bytecode": "0x60a06040523360805234801561001457600080fd5b506080516102fa610035600039600081816055015260c401526102fa6000f3fe608060405234801561001057600080fd5b50600436106100415760003560e01c80634b074af5146100465780638da5cb5b14610050578063f97f518914610093575b600080fd5b61004e61009b565b005b6100777f000000000000000000000000000000000000000000000000000000000000000081565b6040516001600160a01b03909116815260200160405180910390f35b61004e6100c2565b6100a361013c565b6100c05760405163253a6fc960e11b815260040160405180910390fd5b565b7f000000000000000000000000000000000000000000000000000000000000000060006100ed61014d565b9050806001600160a01b0316826001600160a01b0316146101385760405163ef25d32b60e01b81526001600160a01b0380831660048301528316602482015260440160405180910390fd5b5050565b6000610148606461017e565b905090565b600061015761013c565b6101745760405163253a6fc960e11b815260040160405180910390fd5b61014860646101e8565b6000816001600160a01b031663175a260b6040518163ffffffff1660e01b8152600401602060405180830381865afa1580156101be573d6000803e3d6000fd5b505050506040513d601f19601f820116820180604052508101906101e29190610272565b92915050565b60006101f38261017e565b6102105760405163253a6fc960e11b815260040160405180910390fd5b816001600160a01b031663d74523b36040518163ffffffff1660e01b8152600401602060405180830381865afa15801561024e573d6000803e3d6000fd5b505050506040513d601f19601f820116820180604052508101906101e2919061029b565b60006020828403121561028457600080fd5b8151801515811461029457600080fd5b9392505050565b6000602082840312156102ad57600080fd5b81516001600160a01b038116811461029457600080fdfea2646970667358221220c126249ec8bcc549a2cbf6093a396242a35bf9109f652f7ea9497f810b8787de64736f6c63430008180033",
  "linkReferences": {},
  "deployedLinkReferences": {}
}