{
  "_format": "hh-sol-artifact-1",
  "contractName": "MyGovernor",
  "sourceName": "contracts/standart_token/mocks/wizard/MyGovernor3.sol",
  "abi": [
    {
      "inputs": [
        {
          "internalType": "contract IVotes",
          "name": "_token",
          "type": "address"
        },
        {
          "internalType": "contract TimelockController",
          "name": "_timelock",
          "type": "address"
        }
      ],
      "stateMutability": "nonpayable",
      "type": "constructor"
    },
    {
      "inputs": [],
      "name": "Empty",
      "type": "error"
    },
    {
      "inputs": [
        {
          "internalType": "string",
          "name": "str",
          "type": "string"
        }
      ],
      "name": "StringTooLong",
      "type": "error"
    },
    {
      "anonymous": false,
      "inputs": [],
      "name": "EIP712DomainChanged",
      "type": "event"
    },
    {
      "anonymous": false,
      "inputs": [
        {
          "indexed": false,
          "internalType": "uint256",
          "name": "proposalId",
          "type": "uint256"
        }
      ],
      "name": "ProposalCanceled",
      "type": "event"
    },
    {
      "anonymous": false,
      "inputs": [
        {
          "indexed": false,
          "internalType": "uint256",
          "name": "proposalId",
          "type": "uint256"
        },
        {
          "indexed": false,
          "internalType": "address",
          "name": "proposer",
          "type": "address"
        },
        {
          "indexed": false,
          "internalType": "address[]",
          "name": "targets",
          "type": "address[]"
        },
        {
          "indexed": false,
          "internalType": "uint256[]",
          "name": "values",
          "type": "uint256[]"
        },
        {
          "indexed": false,
          "internalType": "string[]",
          "name": "signatures",
          "type": "string[]"
        },
        {
          "indexed": false,
          "internalType": "bytes[]",
          "name": "calldatas",
          "type": "bytes[]"
        },
        {
          "indexed": false,
          "internalType": "uint256",
          "name": "voteStart",
          "type": "uint256"
        },
        {
          "indexed": false,
          "internalType": "uint256",
          "name": "voteEnd",
          "type": "uint256"
        },
        {
          "indexed": false,
          "internalType": "string",
          "name": "description",
          "type": "string"
        }
      ],
      "name": "ProposalCreated",
      "type": "event"
    },
    {
      "anonymous": false,
      "inputs": [
        {
          "indexed": false,
          "internalType": "uint256",
          "name": "proposalId",
          "type": "uint256"
        }
      ],
      "name": "ProposalExecuted",
      "type": "event"
    },
    {
      "anonymous": false,
      "inputs": [
        {
          "indexed": false,
          "internalType": "uint256",
          "name": "proposalId",
          "type": "uint256"
        },
        {
          "indexed": false,
          "internalType": "uint256",
          "name": "eta",
          "type": "uint256"
        }
      ],
      "name": "ProposalQueued",
      "type": "event"
    },
    {
      "anonymous": false,
      "inputs": [
        {
          "indexed": false,
          "internalType": "uint256",
          "name": "oldQuorumNumerator",
          "type": "uint256"
        },
        {
          "indexed": false,
          "internalType": "uint256",
          "name": "newQuorumNumerator",
          "type": "uint256"
        }
      ],
      "name": "QuorumNumeratorUpdated",
      "type": "event"
    },
    {
      "anonymous": false,
      "inputs": [
        {
          "indexed": false,
          "internalType": "address",
          "name": "oldTimelock",
          "type": "address"
        },
        {
          "indexed": false,
          "internalType": "address",
          "name": "newTimelock",
          "type": "address"
        }
      ],
      "name": "TimelockChange",
      "type": "event"
    },
    {
      "anonymous": false,
      "inputs": [
        {
          "indexed": true,
          "internalType": "address",
          "name": "voter",
          "type": "address"
        },
        {
          "indexed": false,
          "internalType": "uint256",
          "name": "proposalId",
          "type": "uint256"
        },
        {
          "indexed": false,
          "internalType": "uint8",
          "name": "support",
          "type": "uint8"
        },
        {
          "indexed": false,
          "internalType": "uint256",
          "name": "weight",
          "type": "uint256"
        },
        {
          "indexed": false,
          "internalType": "string",
          "name": "reason",
          "type": "string"
        }
      ],
      "name": "VoteCast",
      "type": "event"
    },
    {
      "anonymous": false,
      "inputs": [
        {
          "indexed": true,
          "internalType": "address",
          "name": "voter",
          "type": "address"
        },
        {
          "indexed": false,
          "internalType": "uint256",
          "name": "proposalId",
          "type": "uint256"
        },
        {
          "indexed": false,
          "internalType": "uint8",
          "name": "support",
          "type": "uint8"
        },
        {
          "indexed": false,
          "internalType": "uint256",
          "name": "weight",
          "type": "uint256"
        },
        {
          "indexed": false,
          "internalType": "string",
          "name": "reason",
          "type": "string"
        },
        {
          "indexed": false,
          "internalType": "bytes",
          "name": "params",
          "type": "bytes"
        }
      ],
      "name": "VoteCastWithParams",
      "type": "event"
    },
    {
      "inputs": [],
      "name": "BALLOT_TYPEHASH",
      "outputs": [
        {
          "internalType": "bytes32",
          "name": "",
          "type": "bytes32"
        }
      ],
      "stateMutability": "view",
      "type": "function"
    },
    {
      "inputs": [],
      "name": "CLOCK_MODE",
      "outputs": [
        {
          "internalType": "string",
          "name": "",
          "type": "string"
        }
      ],
      "stateMutability": "view",
      "type": "function"
    },
    {
      "inputs": [],
      "name": "COUNTING_MODE",
      "outputs": [
        {
          "internalType": "string",
          "name": "",
          "type": "string"
        }
      ],
      "stateMutability": "pure",
      "type": "function"
    },
    {
      "inputs": [],
      "name": "EXTENDED_BALLOT_TYPEHASH",
      "outputs": [
        {
          "internalType": "bytes32",
          "name": "",
          "type": "bytes32"
        }
      ],
      "stateMutability": "view",
      "type": "function"
    },
    {
      "inputs": [
        {
          "internalType": "uint256",
          "name": "proposalId",
          "type": "uint256"
        }
      ],
      "name": "cancel",
      "outputs": [],
      "stateMutability": "nonpayable",
      "type": "function"
    },
    {
      "inputs": [
        {
          "internalType": "uint256",
          "name": "proposalId",
          "type": "uint256"
        },
        {
          "internalType": "uint8",
          "name": "support",
          "type": "uint8"
        }
      ],
      "name": "castVote",
      "outputs": [
        {
          "internalType": "uint256",
          "name": "",
          "type": "uint256"
        }
      ],
      "stateMutability": "nonpayable",
      "type": "function"
    },
    {
      "inputs": [
        {
          "internalType": "uint256",
          "name": "proposalId",
          "type": "uint256"
        },
        {
          "internalType": "uint8",
          "name": "support",
          "type": "uint8"
        },
        {
          "internalType": "uint8",
          "name": "v",
          "type": "uint8"
        },
        {
          "internalType": "bytes32",
          "name": "r",
          "type": "bytes32"
        },
        {
          "internalType": "bytes32",
          "name": "s",
          "type": "bytes32"
        }
      ],
      "name": "castVoteBySig",
      "outputs": [
        {
          "internalType": "uint256",
          "name": "",
          "type": "uint256"
        }
      ],
      "stateMutability": "nonpayable",
      "type": "function"
    },
    {
      "inputs": [
        {
          "internalType": "uint256",
          "name": "proposalId",
          "type": "uint256"
        },
        {
          "internalType": "uint8",
          "name": "support",
          "type": "uint8"
        },
        {
          "internalType": "string",
          "name": "reason",
          "type": "string"
        }
      ],
      "name": "castVoteWithReason",
      "outputs": [
        {
          "internalType": "uint256",
          "name": "",
          "type": "uint256"
        }
      ],
      "stateMutability": "nonpayable",
      "type": "function"
    },
    {
      "inputs": [
        {
          "internalType": "uint256",
          "name": "proposalId",
          "type": "uint256"
        },
        {
          "internalType": "uint8",
          "name": "support",
          "type": "uint8"
        },
        {
          "internalType": "string",
          "name": "reason",
          "type": "string"
        },
        {
          "internalType": "bytes",
          "name": "params",
          "type": "bytes"
        }
      ],
      "name": "castVoteWithReasonAndParams",
      "outputs": [
        {
          "internalType": "uint256",
          "name": "",
          "type": "uint256"
        }
      ],
      "stateMutability": "nonpayable",
      "type": "function"
    },
    {
      "inputs": [
        {
          "internalType": "uint256",
          "name": "proposalId",
          "type": "uint256"
        },
        {
          "internalType": "uint8",
          "name": "support",
          "type": "uint8"
        },
        {
          "internalType": "string",
          "name": "reason",
          "type": "string"
        },
        {
          "internalType": "bytes",
          "name": "params",
          "type": "bytes"
        },
        {
          "internalType": "uint8",
          "name": "v",
          "type": "uint8"
        },
        {
          "internalType": "bytes32",
          "name": "r",
          "type": "bytes32"
        },
        {
          "internalType": "bytes32",
          "name": "s",
          "type": "bytes32"
        }
      ],
      "name": "castVoteWithReasonAndParamsBySig",
      "outputs": [
        {
          "internalType": "uint256",
          "name": "",
          "type": "uint256"
        }
      ],
      "stateMutability": "nonpayable",
      "type": "function"
    },
    {
      "inputs": [],
      "name": "clock",
      "outputs": [
        {
          "internalType": "uint48",
          "name": "",
          "type": "uint48"
        }
      ],
      "stateMutability": "view",
      "type": "function"
    },
    {
      "inputs": [],
      "name": "eip712Domain",
      "outputs": [
        {
          "internalType": "bytes1",
          "name": "fields",
          "type": "bytes1"
        },
        {
          "internalType": "string",
          "name": "name",
          "type": "string"
        },
        {
          "internalType": "string",
          "name": "version",
          "type": "string"
        },
        {
          "internalType": "uint256",
          "name": "chainId",
          "type": "uint256"
        },
        {
          "internalType": "address",
          "name": "verifyingContract",
          "type": "address"
        },
        {
          "internalType": "bytes32",
          "name": "salt",
          "type": "bytes32"
        },
        {
          "internalType": "uint256[]",
          "name": "extensions",
          "type": "uint256[]"
        }
      ],
      "stateMutability": "view",
      "type": "function"
    },
    {
      "inputs": [
        {
          "internalType": "address[]",
          "name": "targets",
          "type": "address[]"
        },
        {
          "internalType": "uint256[]",
          "name": "values",
          "type": "uint256[]"
        },
        {
          "internalType": "bytes[]",
          "name": "calldatas",
          "type": "bytes[]"
        },
        {
          "internalType": "bytes32",
          "name": "descriptionHash",
          "type": "bytes32"
        }
      ],
      "name": "execute",
      "outputs": [
        {
          "internalType": "uint256",
          "name": "",
          "type": "uint256"
        }
      ],
      "stateMutability": "payable",
      "type": "function"
    },
    {
      "inputs": [
        {
          "internalType": "uint256",
          "name": "proposalId",
          "type": "uint256"
        }
      ],
      "name": "execute",
      "outputs": [],
      "stateMutability": "payable",
      "type": "function"
    },
    {
      "inputs": [
        {
          "internalType": "uint256",
          "name": "proposalId",
          "type": "uint256"
        }
      ],
      "name": "getActions",
      "outputs": [
        {
          "internalType": "address[]",
          "name": "targets",
          "type": "address[]"
        },
        {
          "internalType": "uint256[]",
          "name": "values",
          "type": "uint256[]"
        },
        {
          "internalType": "string[]",
          "name": "signatures",
          "type": "string[]"
        },
        {
          "internalType": "bytes[]",
          "name": "calldatas",
          "type": "bytes[]"
        }
      ],
      "stateMutability": "view",
      "type": "function"
    },
    {
      "inputs": [
        {
          "internalType": "uint256",
          "name": "proposalId",
          "type": "uint256"
        },
        {
          "internalType": "address",
          "name": "voter",
          "type": "address"
        }
      ],
      "name": "getReceipt",
      "outputs": [
        {
          "components": [
            {
              "internalType": "bool",
              "name": "hasVoted",
              "type": "bool"
            },
            {
              "internalType": "uint8",
              "name": "support",
              "type": "uint8"
            },
            {
              "internalType": "uint96",
              "name": "votes",
              "type": "uint96"
            }
          ],
          "internalType": "struct IGovernorCompatibilityBravo.Receipt",
          "name": "",
          "type": "tuple"
        }
      ],
      "stateMutability": "view",
      "type": "function"
    },
    {
      "inputs": [
        {
          "internalType": "address",
          "name": "account",
          "type": "address"
        },
        {
          "internalType": "uint256",
          "name": "timepoint",
          "type": "uint256"
        }
      ],
      "name": "getVotes",
      "outputs": [
        {
          "internalType": "uint256",
          "name": "",
          "type": "uint256"
        }
      ],
      "stateMutability": "view",
      "type": "function"
    },
    {
      "inputs": [
        {
          "internalType": "address",
          "name": "account",
          "type": "address"
        },
        {
          "internalType": "uint256",
          "name": "timepoint",
          "type": "uint256"
        },
        {
          "internalType": "bytes",
          "name": "params",
          "type": "bytes"
        }
      ],
      "name": "getVotesWithParams",
      "outputs": [
        {
          "internalType": "uint256",
          "name": "",
          "type": "uint256"
        }
      ],
      "stateMutability": "view",
      "type": "function"
    },
    {
      "inputs": [
        {
          "internalType": "uint256",
          "name": "proposalId",
          "type": "uint256"
        },
        {
          "internalType": "address",
          "name": "account",
          "type": "address"
        }
      ],
      "name": "hasVoted",
      "outputs": [
        {
          "internalType": "bool",
          "name": "",
          "type": "bool"
        }
      ],
      "stateMutability": "view",
      "type": "function"
    },
    {
      "inputs": [
        {
          "internalType": "address[]",
          "name": "targets",
          "type": "address[]"
        },
        {
          "internalType": "uint256[]",
          "name": "values",
          "type": "uint256[]"
        },
        {
          "internalType": "bytes[]",
          "name": "calldatas",
          "type": "bytes[]"
        },
        {
          "internalType": "bytes32",
          "name": "descriptionHash",
          "type": "bytes32"
        }
      ],
      "name": "hashProposal",
      "outputs": [
        {
          "internalType": "uint256",
          "name": "",
          "type": "uint256"
        }
      ],
      "stateMutability": "pure",
      "type": "function"
    },
    {
      "inputs": [],
      "name": "name",
      "outputs": [
        {
          "internalType": "string",
          "name": "",
          "type": "string"
        }
      ],
      "stateMutability": "view",
      "type": "function"
    },
    {
      "inputs": [
        {
          "internalType": "address",
          "name": "",
          "type": "address"
        },
        {
          "internalType": "address",
          "name": "",
          "type": "address"
        },
        {
          "internalType": "uint256[]",
          "name": "",
          "type": "uint256[]"
        },
        {
          "internalType": "uint256[]",
          "name": "",
          "type": "uint256[]"
        },
        {
          "internalType": "bytes",
          "name": "",
          "type": "bytes"
        }
      ],
      "name": "onERC1155BatchReceived",
      "outputs": [
        {
          "internalType": "bytes4",
          "name": "",
          "type": "bytes4"
        }
      ],
      "stateMutability": "nonpayable",
      "type": "function"
    },
    {
      "inputs": [
        {
          "internalType": "address",
          "name": "",
          "type": "address"
        },
        {
          "internalType": "address",
          "name": "",
          "type": "address"
        },
        {
          "internalType": "uint256",
          "name": "",
          "type": "uint256"
        },
        {
          "internalType": "uint256",
          "name": "",
          "type": "uint256"
        },
        {
          "internalType": "bytes",
          "name": "",
          "type": "bytes"
        }
      ],
      "name": "onERC1155Received",
      "outputs": [
        {
          "internalType": "bytes4",
          "name": "",
          "type": "bytes4"
        }
      ],
      "stateMutability": "nonpayable",
      "type": "function"
    },
    {
      "inputs": [
        {
          "internalType": "address",
          "name": "",
          "type": "address"
        },
        {
          "internalType": "address",
          "name": "",
          "type": "address"
        },
        {
          "internalType": "uint256",
          "name": "",
          "type": "uint256"
        },
        {
          "internalType": "bytes",
          "name": "",
          "type": "bytes"
        }
      ],
      "name": "onERC721Received",
      "outputs": [
        {
          "internalType": "bytes4",
          "name": "",
          "type": "bytes4"
        }
      ],
      "stateMutability": "nonpayable",
      "type": "function"
    },
    {
      "inputs": [
        {
          "internalType": "uint256",
          "name": "proposalId",
          "type": "uint256"
        }
      ],
      "name": "proposalDeadline",
      "outputs": [
        {
          "internalType": "uint256",
          "name": "",
          "type": "uint256"
        }
      ],
      "stateMutability": "view",
      "type": "function"
    },
    {
      "inputs": [
        {
          "internalType": "uint256",
          "name": "proposalId",
          "type": "uint256"
        }
      ],
      "name": "proposalEta",
      "outputs": [
        {
          "internalType": "uint256",
          "name": "",
          "type": "uint256"
        }
      ],
      "stateMutability": "view",
      "type": "function"
    },
    {
      "inputs": [
        {
          "internalType": "uint256",
          "name": "proposalId",
          "type": "uint256"
        }
      ],
      "name": "proposalSnapshot",
      "outputs": [
        {
          "internalType": "uint256",
          "name": "",
          "type": "uint256"
        }
      ],
      "stateMutability": "view",
      "type": "function"
    },
    {
      "inputs": [],
      "name": "proposalThreshold",
      "outputs": [
        {
          "internalType": "uint256",
          "name": "",
          "type": "uint256"
        }
      ],
      "stateMutability": "pure",
      "type": "function"
    },
    {
      "inputs": [
        {
          "internalType": "uint256",
          "name": "proposalId",
          "type": "uint256"
        }
      ],
      "name": "proposals",
      "outputs": [
        {
          "internalType": "uint256",
          "name": "id",
          "type": "uint256"
        },
        {
          "internalType": "address",
          "name": "proposer",
          "type": "address"
        },
        {
          "internalType": "uint256",
          "name": "eta",
          "type": "uint256"
        },
        {
          "internalType": "uint256",
          "name": "startBlock",
          "type": "uint256"
        },
        {
          "internalType": "uint256",
          "name": "endBlock",
          "type": "uint256"
        },
        {
          "internalType": "uint256",
          "name": "forVotes",
          "type": "uint256"
        },
        {
          "internalType": "uint256",
          "name": "againstVotes",
          "type": "uint256"
        },
        {
          "internalType": "uint256",
          "name": "abstainVotes",
          "type": "uint256"
        },
        {
          "internalType": "bool",
          "name": "canceled",
          "type": "bool"
        },
        {
          "internalType": "bool",
          "name": "executed",
          "type": "bool"
        }
      ],
      "stateMutability": "view",
      "type": "function"
    },
    {
      "inputs": [
        {
          "internalType": "address[]",
          "name": "targets",
          "type": "address[]"
        },
        {
          "internalType": "uint256[]",
          "name": "values",
          "type": "uint256[]"
        },
        {
          "internalType": "bytes[]",
          "name": "calldatas",
          "type": "bytes[]"
        },
        {
          "internalType": "string",
          "name": "description",
          "type": "string"
        }
      ],
      "name": "propose",
      "outputs": [
        {
          "internalType": "uint256",
          "name": "",
          "type": "uint256"
        }
      ],
      "stateMutability": "nonpayable",
      "type": "function"
    },
    {
      "inputs": [
        {
          "internalType": "address[]",
          "name": "targets",
          "type": "address[]"
        },
        {
          "internalType": "uint256[]",
          "name": "values",
          "type": "uint256[]"
        },
        {
          "internalType": "string[]",
          "name": "signatures",
          "type": "string[]"
        },
        {
          "internalType": "bytes[]",
          "name": "calldatas",
          "type": "bytes[]"
        },
        {
          "internalType": "string",
          "name": "description",
          "type": "string"
        }
      ],
      "name": "propose",
      "outputs": [
        {
          "internalType": "uint256",
          "name": "",
          "type": "uint256"
        }
      ],
      "stateMutability": "nonpayable",
      "type": "function"
    },
    {
      "inputs": [
        {
          "internalType": "address[]",
          "name": "targets",
          "type": "address[]"
        },
        {
          "internalType": "uint256[]",
          "name": "values",
          "type": "uint256[]"
        },
        {
          "internalType": "bytes[]",
          "name": "calldatas",
          "type": "bytes[]"
        },
        {
          "internalType": "bytes32",
          "name": "descriptionHash",
          "type": "bytes32"
        }
      ],
      "name": "queue",
      "outputs": [
        {
          "internalType": "uint256",
          "name": "",
          "type": "uint256"
        }
      ],
      "stateMutability": "nonpayable",
      "type": "function"
    },
    {
      "inputs": [
        {
          "internalType": "uint256",
          "name": "proposalId",
          "type": "uint256"
        }
      ],
      "name": "queue",
      "outputs": [],
      "stateMutability": "nonpayable",
      "type": "function"
    },
    {
      "inputs": [
        {
          "internalType": "uint256",
          "name": "blockNumber",
          "type": "uint256"
        }
      ],
      "name": "quorum",
      "outputs": [
        {
          "internalType": "uint256",
          "name": "",
          "type": "uint256"
        }
      ],
      "stateMutability": "view",
      "type": "function"
    },
    {
      "inputs": [],
      "name": "quorumDenominator",
      "outputs": [
        {
          "internalType": "uint256",
          "name": "",
          "type": "uint256"
        }
      ],
      "stateMutability": "view",
      "type": "function"
    },
    {
      "inputs": [
        {
          "internalType": "uint256",
          "name": "timepoint",
          "type": "uint256"
        }
      ],
      "name": "quorumNumerator",
      "outputs": [
        {
          "internalType": "uint256",
          "name": "",
          "type": "uint256"
        }
      ],
      "stateMutability": "view",
      "type": "function"
    },
    {
      "inputs": [],
      "name": "quorumNumerator",
      "outputs": [
        {
          "internalType": "uint256",
          "name": "",
          "type": "uint256"
        }
      ],
      "stateMutability": "view",
      "type": "function"
    },
    {
      "inputs": [],
      "name": "quorumVotes",
      "outputs": [
        {
          "internalType": "uint256",
          "name": "",
          "type": "uint256"
        }
      ],
      "stateMutability": "view",
      "type": "function"
    },
    {
      "inputs": [
        {
          "internalType": "address",
          "name": "target",
          "type": "address"
        },
        {
          "internalType": "uint256",
          "name": "value",
          "type": "uint256"
        },
        {
          "internalType": "bytes",
          "name": "data",
          "type": "bytes"
        }
      ],
      "name": "relay",
      "outputs": [],
      "stateMutability": "payable",
      "type": "function"
    },
    {
      "inputs": [
        {
          "internalType": "uint256",
          "name": "proposalId",
          "type": "uint256"
        }
      ],
      "name": "state",
      "outputs": [
        {
          "internalType": "enum IGovernor.ProposalState",
          "name": "",
          "type": "uint8"
        }
      ],
      "stateMutability": "view",
      "type": "function"
    },
    {
      "inputs": [
        {
          "internalType": "bytes4",
          "name": "interfaceId",
          "type": "bytes4"
        }
      ],
      "name": "supportsInterface",
      "outputs": [
        {
          "internalType": "bool",
          "name": "",
          "type": "bool"
        }
      ],
      "stateMutability": "view",
      "type": "function"
    },
    {
      "inputs": [],
      "name": "timelock",
      "outputs": [
        {
          "internalType": "address",
          "name": "",
          "type": "address"
        }
      ],
      "stateMutability": "view",
      "type": "function"
    },
    {
      "inputs": [],
      "name": "token",
      "outputs": [
        {
          "internalType": "contract IERC5805",
          "name": "",
          "type": "address"
        }
      ],
      "stateMutability": "view",
      "type": "function"
    },
    {
      "inputs": [
        {
          "internalType": "uint256",
          "name": "newQuorumNumerator",
          "type": "uint256"
        }
      ],
      "name": "updateQuorumNumerator",
      "outputs": [],
      "stateMutability": "nonpayable",
      "type": "function"
    },
    {
      "inputs": [
        {
          "internalType": "contract TimelockController",
          "name": "newTimelock",
          "type": "address"
        }
      ],
      "name": "updateTimelock",
      "outputs": [],
      "stateMutability": "nonpayable",
      "type": "function"
    },
    {
      "inputs": [],
      "name": "version",
      "outputs": [
        {
          "internalType": "string",
          "name": "",
          "type": "string"
        }
      ],
      "stateMutability": "view",
      "type": "function"
    },
    {
      "inputs": [],
      "name": "votingDelay",
      "outputs": [
        {
          "internalType": "uint256",
          "name": "",
          "type": "uint256"
        }
      ],
      "stateMutability": "pure",
      "type": "function"
    },
    {
      "inputs": [],
      "name": "votingPeriod",
      "outputs": [
        {
          "internalType": "uint256",
          "name": "",
          "type": "uint256"
        }
      ],
      "stateMutability": "pure",
      "type": "function"
    },
    {
      "stateMutability": "payable",
      "type": "receive"
    }
  ],
  "bytecode": "0x6101806040523480156200001257600080fd5b5060405162005be438038062005be48339810160408190526200003591620007fd565b600482826040518060400160405280600a81526020016926bca3b7bb32b93737b960b11b815250806200006d6200016160201b60201c565b6200007a8260006200017c565b60e0526200008a8160016200017c565b61010052815160208084019190912061012052815190820120610140524660a0526200011a6101205161014051604080517f8b73c3c69bb8fe3d512ecc4cf759cc79239f7b179b0ffacaa9a75d522b39400f60208201529081019290925260608201524660808201523060a082015260009060c00160405160208183030381529060405280519060200120905090565b60805250503060c0526002620001318282620008e3565b506200013f905081620001b5565b506001600160a01b03166101605262000158816200021e565b50505062000a71565b6040805180820190915260018152603160f81b602082015290565b60006020835110156200019c576200019483620003a1565b9050620001af565b81620001a98482620008e3565b50600090505b92915050565b600654604080516001600160a01b03928316815291831660208301527f08f74ea46ef7894f65eabfb5e6e695de773a000b47c529ab559178069b226401910160405180910390a1600680546001600160a01b0319166001600160a01b0392909216919091179055565b6064811115620002a75760405162461bcd60e51b815260206004820152604360248201527f476f7665726e6f72566f74657351756f72756d4672616374696f6e3a2071756f60448201527f72756d4e756d657261746f72206f7665722071756f72756d44656e6f6d696e616064820152623a37b960e91b608482015260a4015b60405180910390fd5b6000620002b3620003e4565b90508015801590620002c55750600a54155b156200032d576040805180820190915260008152600a9060208101620002eb8462000413565b6001600160e01b0390811690915282546001810184556000938452602093849020835194909301519091166401000000000263ffffffff909316929092179101555b620003626200034d6200033f62000482565b65ffffffffffff16620004f9565b620003588462000413565b600a919062000560565b505060408051828152602081018490527f0553476bf02ef2726e8ce5ced78d63e26e602e4a2257b1f559418e24b4633997910160405180910390a15050565b600080829050601f81511115620003cf578260405163305a27a960e01b81526004016200029e9190620009af565b8051620003dc8262000a00565b179392505050565b600a54600090156200040a57620003fc600a6200057d565b6001600160e01b0316905090565b6009545b905090565b60006001600160e01b038211156200047e5760405162461bcd60e51b815260206004820152602760248201527f53616665436173743a2076616c756520646f65736e27742066697420696e20326044820152663234206269747360c81b60648201526084016200029e565b5090565b6000610160516001600160a01b03166391ddadf46040518163ffffffff1660e01b8152600401602060405180830381865afa925050508015620004e4575060408051601f3d908101601f19168201909252620004e19181019062000a25565b60015b620004f4576200040e43620005cb565b919050565b600063ffffffff8211156200047e5760405162461bcd60e51b815260206004820152602660248201527f53616665436173743a2076616c756520646f65736e27742066697420696e203360448201526532206269747360d01b60648201526084016200029e565b6000806200057085858562000634565b915091505b935093915050565b80546000908015620005c157620005a9836200059b60018462000a4f565b600091825260209091200190565b5464010000000090046001600160e01b0316620005c4565b60005b9392505050565b600065ffffffffffff8211156200047e5760405162461bcd60e51b815260206004820152602660248201527f53616665436173743a2076616c756520646f65736e27742066697420696e203460448201526538206269747360d01b60648201526084016200029e565b8254600090819080156200078957600062000656876200059b60018562000a4f565b60408051808201909152905463ffffffff8082168084526401000000009092046001600160e01b031660208401529192509087161015620006da5760405162461bcd60e51b815260206004820152601b60248201527f436865636b706f696e743a2064656372656173696e67206b657973000000000060448201526064016200029e565b805163ffffffff808816911603620007285784620006ff886200059b60018662000a4f565b80546001600160e01b03929092166401000000000263ffffffff90921691909117905562000778565b6040805180820190915263ffffffff80881682526001600160e01b0380881660208085019182528b54600181018d5560008d81529190912094519151909216640100000000029216919091179101555b602001519250839150620005759050565b50506040805180820190915263ffffffff80851682526001600160e01b0380851660208085019182528854600181018a5560008a81529182209551925190931664010000000002919093161792019190915590508162000575565b6001600160a01b0381168114620007fa57600080fd5b50565b600080604083850312156200081157600080fd5b82516200081e81620007e4565b60208401519092506200083181620007e4565b809150509250929050565b634e487b7160e01b600052604160045260246000fd5b600181811c908216806200086757607f821691505b6020821081036200088857634e487b7160e01b600052602260045260246000fd5b50919050565b601f821115620008de576000816000526020600020601f850160051c81016020861015620008b95750805b601f850160051c820191505b81811015620008da57828155600101620008c5565b5050505b505050565b81516001600160401b03811115620008ff57620008ff6200083c565b620009178162000910845462000852565b846200088e565b602080601f8311600181146200094f5760008415620009365750858301515b600019600386901b1c1916600185901b178555620008da565b600085815260208120601f198616915b8281101562000980578886015182559484019460019091019084016200095f565b50858210156200099f5787850151600019600388901b60f8161c191681555b5050505050600190811b01905550565b60006020808352835180602085015260005b81811015620009df57858101830151858201604001528201620009c1565b506000604082860101526040601f19601f8301168501019250505092915050565b80516020808301519190811015620008885760001960209190910360031b1b16919050565b60006020828403121562000a3857600080fd5b815165ffffffffffff81168114620005c457600080fd5b81810381811115620001af57634e487b7160e01b600052601160045260246000fd5b60805160a05160c05160e051610100516101205161014051610160516150f162000af360003960008181610a7e015281816113fd015281816116d4015281816128b50152612bdd01526000612da901526000612d81015260006116800152600061165601526000612cdc01526000612d0601526000612d3001526150f16000f3fe6080604052600436106102975760003560e01c80637d5e81e21161015a578063c59057e4116100c1578063e23a9a521161007a578063e23a9a5214610937578063eb9019d414610a00578063f23a6e6114610a20578063f8ce560a14610a4c578063fc0c546a14610a6c578063fe0d94c114610aa057600080fd5b8063c59057e41461082b578063d33219b41461084b578063da95691a1461087d578063dd4e2ba51461089d578063ddf0b009146108e3578063deaaa7cc1461090357600080fd5b8063a890c91011610113578063a890c91014610757578063ab58fb8e14610777578063b58131b014610797578063bc197c81146107b3578063c01f9e37146107df578063c28bc2fa1461081857600080fd5b80637d5e81e21461069a57806384b0196e146106ba57806391ddadf4146106e257806397c3d3341461070e5780639a802a6d14610722578063a7713a701461074257600080fd5b8063328dd982116101fe5780634bf5d7e9116101b75780634bf5d7e9146105db57806354fd4d50146105f0578063567813881461061a5780635f398a141461063a57806360c4247f1461065a5780637b3c71d31461067a57600080fd5b8063328dd982146104e15780633932abb1146105115780633bccf4fd146105255780633e4f49e61461054557806340e58ee514610572578063438596321461059257600080fd5b8063150b7a0211610250578063150b7a02146103eb578063160cbed71461042f57806324bc1a641461044f5780632656227d146104645780632d63f693146104775780632fe3e261146104ad57600080fd5b8063013cf08b146102bf57806301ffc9a71461033a57806302a251a31461036a578063034201811461038957806306f3f9e6146103a957806306fdde03146103c957600080fd5b366102ba57306102a5610ab3565b6001600160a01b0316146102b857600080fd5b005b600080fd5b3480156102cb57600080fd5b506102df6102da366004613f7c565b610acc565b604080519a8b526001600160a01b0390991660208b0152978901969096526060880194909452608087019290925260a086015260c085015260e084015215156101008301521515610120820152610140015b60405180910390f35b34801561034657600080fd5b5061035a610355366004613f95565b610b98565b6040519015158152602001610331565b34801561037657600080fd5b5061b2fa5b604051908152602001610331565b34801561039557600080fd5b5061037b6103a43660046140db565b610ba9565b3480156103b557600080fd5b506102b86103c4366004613f7c565b610ca1565b3480156103d557600080fd5b506103de610d34565b60405161033191906141d1565b3480156103f757600080fd5b506104166104063660046141f9565b630a85bd0160e11b949350505050565b6040516001600160e01b03199091168152602001610331565b34801561043b57600080fd5b5061037b61044a3660046143d8565b610dc6565b34801561045b57600080fd5b5061037b610fc6565b61037b6104723660046143d8565b610fec565b34801561048357600080fd5b5061037b610492366004613f7c565b6000908152600360205260409020546001600160401b031690565b3480156104b957600080fd5b5061037b7fb3b3f3b703cd84ce352197dcff232b1b5d3cfb2025ce47cf04742d0651f1af8881565b3480156104ed57600080fd5b506105016104fc366004613f7c565b6110de565b6040516103319493929190614537565b34801561051d57600080fd5b50600161037b565b34801561053157600080fd5b5061037b610540366004614584565b61136f565b34801561055157600080fd5b50610565610560366004613f7c565b6113e5565b60405161033191906145e8565b34801561057e57600080fd5b506102b861058d366004613f7c565b6113f0565b34801561059e57600080fd5b5061035a6105ad366004614610565b60008281526008602081815260408084206001600160a01b0386168552909201905290205460ff1692915050565b3480156105e757600080fd5b506103de6113f9565b3480156105fc57600080fd5b506040805180820190915260018152603160f81b60208201526103de565b34801561062657600080fd5b5061037b610635366004614640565b6114bb565b34801561064657600080fd5b5061037b61065536600461466c565b6114e4565b34801561066657600080fd5b5061037b610675366004613f7c565b61152e565b34801561068657600080fd5b5061037b6106953660046146ef565b6115df565b3480156106a657600080fd5b5061037b6106b5366004614748565b611631565b3480156106c657600080fd5b506106cf611648565b60405161033197969594939291906147e8565b3480156106ee57600080fd5b506106f76116d0565b60405165ffffffffffff9091168152602001610331565b34801561071a57600080fd5b50606461037b565b34801561072e57600080fd5b5061037b61073d36600461484a565b611759565b34801561074e57600080fd5b5061037b611770565b34801561076357600080fd5b506102b86107723660046148a2565b61179a565b34801561078357600080fd5b5061037b610792366004613f7c565b611821565b3480156107a357600080fd5b50683635c9adc5dea0000061037b565b3480156107bf57600080fd5b506104166107ce3660046148bf565b63bc197c8160e01b95945050505050565b3480156107eb57600080fd5b5061037b6107fa366004613f7c565b6000908152600360205260409020600101546001600160401b031690565b6102b8610826366004614952565b6118bb565b34801561083757600080fd5b5061037b6108463660046143d8565b6119ca565b34801561085757600080fd5b506006546001600160a01b03165b6040516001600160a01b039091168152602001610331565b34801561088957600080fd5b5061037b610898366004614995565b611a04565b3480156108a957600080fd5b5060408051808201909152601a81527f737570706f72743d627261766f2671756f72756d3d627261766f00000000000060208201526103de565b3480156108ef57600080fd5b506102b86108fe366004613f7c565b611a29565b34801561090f57600080fd5b5061037b7f150214d74d59b7d1e90c73fc22ef3d991dd0a76b046543d4d80ab92d2a50328f81565b34801561094357600080fd5b506109d0610952366004614610565b60408051606081018252600080825260208201819052918101919091525060009182526008602081815260408085206001600160a01b03949094168552929091018152918190208151606081018352905460ff8082161515835261010082041693820193909352620100009092046001600160601b03169082015290565b6040805182511515815260208084015160ff1690820152918101516001600160601b031690820152606001610331565b348015610a0c57600080fd5b5061037b610a1b366004614a36565b611ca5565b348015610a2c57600080fd5b50610416610a3b366004614a62565b63f23a6e6160e01b95945050505050565b348015610a5857600080fd5b5061037b610a67366004613f7c565b611cc6565b348015610a7857600080fd5b506108657f000000000000000000000000000000000000000000000000000000000000000081565b6102b8610aae366004613f7c565b611cd1565b6000610ac76006546001600160a01b031690565b905090565b8060008080808080808080610ae08a611821565b60008c8152600360205260409020549098506001600160401b031660008c8152600360205260409020600101549097506001600160401b031660008c815260086020526040812080546005820154600683015460078401546001600160a01b039093169e50949a509850929650919450610b598d6113e5565b90506002816007811115610b6f57610b6f6145d2565b1493506007816007811115610b8657610b866145d2565b14925050509193959799509193959799565b6000610ba382611f3f565b92915050565b600080610c4d610c457fb3b3f3b703cd84ce352197dcff232b1b5d3cfb2025ce47cf04742d0651f1af888c8c8c8c604051610be5929190614aca565b60405180910390208b80519060200120604051602001610c2a959493929190948552602085019390935260ff9190911660408401526060830152608082015260a00190565b60405160208183030381529060405280519060200120611f64565b868686611f91565b9050610c938a828b8b8b8080601f0160208091040260200160405190810160405280939291908181526020018383808284376000920191909152508d9250611faf915050565b9a9950505050505050505050565b610ca9610ab3565b6001600160a01b0316336001600160a01b031614610ce25760405162461bcd60e51b8152600401610cd990614ada565b60405180910390fd5b30610ceb610ab3565b6001600160a01b031614610d285760008036604051610d0b929190614aca565b604051809103902090505b80610d216004612104565b03610d1657505b610d3181612183565b50565b606060028054610d4390614b11565b80601f0160208091040260200160405190810160405280929190818152602001828054610d6f90614b11565b8015610dbc5780601f10610d9157610100808354040283529160200191610dbc565b820191906000526020600020905b815481529060010190602001808311610d9f57829003601f168201915b5050505050905090565b600080610dd5868686866119ca565b90506004610de2826113e5565b6007811115610df357610df36145d2565b14610e105760405162461bcd60e51b8152600401610cd990614b4b565b6006546040805163793d064960e11b815290516000926001600160a01b03169163f27a0c929160048083019260209291908290030181865afa158015610e5a573d6000803e3d6000fd5b505050506040513d601f19601f82011682018060405250810190610e7e9190614b8c565b60065460405163b1c5f42760e01b81529192506001600160a01b03169063b1c5f42790610eb8908a908a908a906000908b90600401614ba5565b602060405180830381865afa158015610ed5573d6000803e3d6000fd5b505050506040513d601f19601f82011682018060405250810190610ef99190614b8c565b6000838152600760205260408082209290925560065491516308f2a0bb60e41b81526001600160a01b0390921691638f2a0bb091610f44918b918b918b91908b908990600401614bf3565b600060405180830381600087803b158015610f5e57600080fd5b505af1158015610f72573d6000803e3d6000fd5b505050507f9a2e42fd6722813d69113e7d0079d3d940171428df7373df9c7f7617cfda2892828242610fa49190614c61565b6040805192835260208301919091520160405180910390a15095945050505050565b6000610ac76001610fd56116d0565b610fdf9190614c74565b65ffffffffffff16611cc6565b600080610ffb868686866119ca565b90506000611008826113e5565b9050600481600781111561101e5761101e6145d2565b148061103b57506005816007811115611039576110396145d2565b145b6110575760405162461bcd60e51b8152600401610cd990614b4b565b60008281526003602052604090819020600201805460ff19166001179055517f712ae1383f79ac853f8d882153778e0260ef8f03b504e2866e0593e04d2b291f906110a59084815260200190565b60405180910390a16110ba82888888886122f1565b6110c7828888888861238b565b6110d48288888888612398565b5095945050505050565b6060806060806000600860008781526020019081526020016000209050806001018160020182600301836004018380548060200260200160405190810160405280929190818152602001828054801561116057602002820191906000526020600020905b81546001600160a01b03168152600190910190602001808311611142575b50505050509350828054806020026020016040519081016040528092919081815260200182805480156111b257602002820191906000526020600020905b81548152602001906001019080831161119e575b5050505050925081805480602002602001604051908101604052809291908181526020016000905b828210156112865783829060005260206000200180546111f990614b11565b80601f016020809104026020016040519081016040528092919081815260200182805461122590614b11565b80156112725780601f1061124757610100808354040283529160200191611272565b820191906000526020600020905b81548152906001019060200180831161125557829003601f168201915b5050505050815260200190600101906111da565b50505050915080805480602002602001604051908101604052809291908181526020016000905b828210156113595783829060005260206000200180546112cc90614b11565b80601f01602080910402602001604051908101604052809291908181526020018280546112f890614b11565b80156113455780601f1061131a57610100808354040283529160200191611345565b820191906000526020600020905b81548152906001019060200180831161132857829003601f168201915b5050505050815260200190600101906112ad565b5050505090509450945094509450509193509193565b604080517f150214d74d59b7d1e90c73fc22ef3d991dd0a76b046543d4d80ab92d2a50328f602082015290810186905260ff8516606082015260009081906113bd90610c4590608001610c2a565b90506113da878288604051806020016040528060008152506123d1565b979650505050505050565b6000610ba3826123f4565b610d318161253e565b60607f00000000000000000000000000000000000000000000000000000000000000006001600160a01b0316634bf5d7e96040518163ffffffff1660e01b8152600401600060405180830381865afa92505050801561147a57506040513d6000823e601f3d908101601f191682016040526114779190810190614c9a565b60015b6114b6575060408051808201909152601d81527f6d6f64653d626c6f636b6e756d6265722666726f6d3d64656661756c74000000602082015290565b919050565b6000803390506114dc848285604051806020016040528060008152506123d1565b949350505050565b6000803390506113da87828888888080601f0160208091040260200160405190810160405280939291908181526020018383808284376000920191909152508a9250611faf915050565b600a54600090808203611545575050600954919050565b6000600a611554600184614d07565b8154811061156457611564614d1a565b60009182526020918290206040805180820190915291015463ffffffff8116808352600160201b9091046001600160e01b031692820192909252915084106115ba57602001516001600160e01b03169392505050565b6115ce6115c6856125f5565b600a9061265e565b6001600160e01b0316949350505050565b60008033905061162786828787878080601f0160208091040260200160405190810160405280939291908181526020018383808284376000920191909152506123d192505050565b9695505050505050565b600061163f85858585612711565b95945050505050565b60006060808280808361167b7f000000000000000000000000000000000000000000000000000000000000000083612779565b6116a67f00000000000000000000000000000000000000000000000000000000000000006001612779565b60408051600080825260208201909252600f60f81b9b939a50919850469750309650945092509050565b60007f00000000000000000000000000000000000000000000000000000000000000006001600160a01b03166391ddadf46040518163ffffffff1660e01b8152600401602060405180830381865afa92505050801561174c575060408051601f3d908101601f1916820190925261174991810190614d30565b60015b6114b657610ac743612825565b600061176684848461288c565b90505b9392505050565b600a546000901561179357611785600a612922565b6001600160e01b0316905090565b5060095490565b6117a2610ab3565b6001600160a01b0316336001600160a01b0316146117d25760405162461bcd60e51b8152600401610cd990614ada565b306117db610ab3565b6001600160a01b03161461181857600080366040516117fb929190614aca565b604051809103902090505b806118116004612104565b0361180657505b610d3181612952565b60065460008281526007602052604080822054905163d45c443560e01b81526004810191909152909182916001600160a01b039091169063d45c443590602401602060405180830381865afa15801561187e573d6000803e3d6000fd5b505050506040513d601f19601f820116820180604052508101906118a29190614b8c565b9050806001146118b25780611769565b60009392505050565b6118c3610ab3565b6001600160a01b0316336001600160a01b0316146118f35760405162461bcd60e51b8152600401610cd990614ada565b306118fc610ab3565b6001600160a01b031614611939576000803660405161191c929190614aca565b604051809103902090505b806119326004612104565b0361192757505b600080856001600160a01b0316858585604051611957929190614aca565b60006040518083038185875af1925050503d8060008114611994576040519150601f19603f3d011682016040523d82523d6000602084013e611999565b606091505b50915091506119c18282604051806060016040528060288152602001615094602891396129bb565b50505050505050565b6000848484846040516020016119e39493929190614d58565b60408051601f19818403018152919052805160209091012095945050505050565b6000611a143387878787876129d4565b6116278686611a238787612a91565b85611631565b6000818152600860209081526040918290206001810180548451818502810185019095528085529193611ca093909290830182828015611a9257602002820191906000526020600020905b81546001600160a01b03168152600190910190602001808311611a74575b505050505082600201805480602002602001604051908101604052809291908181526020018280548015611ae557602002820191906000526020600020905b815481526020019060010190808311611ad1575b5050505050611c9684600301805480602002602001604051908101604052809291908181526020016000905b82821015611bbd578382906000526020600020018054611b3090614b11565b80601f0160208091040260200160405190810160405280929190818152602001828054611b5c90614b11565b8015611ba95780601f10611b7e57610100808354040283529160200191611ba9565b820191906000526020600020905b815481529060010190602001808311611b8c57829003601f168201915b505050505081526020019060010190611b11565b50505060048701805460408051602080840282018101909252828152935060009084015b82821015611c8d578382906000526020600020018054611c0090614b11565b80601f0160208091040260200160405190810160405280929190818152602001828054611c2c90614b11565b8015611c795780601f10611c4e57610100808354040283529160200191611c79565b820191906000526020600020905b815481529060010190602001808311611c5c57829003601f168201915b505050505081526020019060010190611be1565b50505050612a91565b8460090154610dc6565b505050565b60006117698383611cc160408051602081019091526000815290565b61288c565b6000610ba382612bba565b6000818152600860209081526040918290206001810180548451818502810185019095528085529193611ca093909290830182828015611d3a57602002820191906000526020600020905b81546001600160a01b03168152600190910190602001808311611d1c575b505050505082600201805480602002602001604051908101604052809291908181526020018280548015611d8d57602002820191906000526020600020905b815481526020019060010190808311611d79575b5050505050611f3584600301805480602002602001604051908101604052809291908181526020016000905b82821015611e65578382906000526020600020018054611dd890614b11565b80601f0160208091040260200160405190810160405280929190818152602001828054611e0490614b11565b8015611e515780601f10611e2657610100808354040283529160200191611e51565b820191906000526020600020905b815481529060010190602001808311611e3457829003601f168201915b505050505081526020019060010190611db9565b50505060048701805460408051602080840282018101909252828152935060009084015b82821015611c8d578382906000526020600020018054611ea890614b11565b80601f0160208091040260200160405190810160405280929190818152602001828054611ed490614b11565b8015611f215780601f10611ef657610100808354040283529160200191611f21565b820191906000526020600020905b815481529060010190602001808311611f0457829003601f168201915b505050505081526020019060010190611e89565b8460090154610fec565b60006001600160e01b03198216636e665ced60e01b1480610ba35750610ba382612c64565b6000610ba3611f71612ccf565b8360405161190160f01b8152600281019290925260228201526042902090565b6000806000611fa287878787612dfa565b915091506110d481612ebe565b60008581526003602052604081206001611fc8886113e5565b6007811115611fd957611fd96145d2565b146120325760405162461bcd60e51b815260206004820152602360248201527f476f7665726e6f723a20766f7465206e6f742063757272656e746c792061637460448201526269766560e81b6064820152608401610cd9565b805460009061204c9088906001600160401b03168661288c565b905061205b8888888488613008565b83516000036120b057866001600160a01b03167fb8e138887d0aa13bab447e82de9d5c1777041ecd21ca36ba824ff1e6c07ddda4898884896040516120a39493929190614da3565b60405180910390a26113da565b866001600160a01b03167fe2babfbac5889a709b63bb7f598b324e08bc5a4fb9ec647fb3cbc9ec07eb871289888489896040516120f1959493929190614dcb565b60405180910390a2979650505050505050565b600061211f8254600f81810b600160801b909204900b131590565b1561213d57604051631ed9509560e11b815260040160405180910390fd5b508054600f0b6000818152600180840160205260408220805492905583546fffffffffffffffffffffffffffffffff191692016001600160801b03169190911790915590565b60648111156122065760405162461bcd60e51b815260206004820152604360248201527f476f7665726e6f72566f74657351756f72756d4672616374696f6e3a2071756f60448201527f72756d4e756d657261746f72206f7665722071756f72756d44656e6f6d696e616064820152623a37b960e91b608482015260a401610cd9565b6000612210611770565b905080158015906122215750600a54155b15612285576040805180820190915260008152600a9060208101612244846131a4565b6001600160e01b039081169091528254600181018455600093845260209384902083519490930151909116600160201b0263ffffffff909316929092179101555b6122b26122a06122936116d0565b65ffffffffffff166125f5565b6122a9846131a4565b600a919061320d565b505060408051828152602081018490527f0553476bf02ef2726e8ce5ced78d63e26e602e4a2257b1f559418e24b4633997910160405180910390a15050565b306122fa610ab3565b6001600160a01b0316146123845760005b845181101561238257306001600160a01b031685828151811061233057612330614d1a565b60200260200101516001600160a01b03160361237a5761237a83828151811061235b5761235b614d1a565b602002602001015180519060200120600461322890919063ffffffff16565b60010161230b565b505b5050505050565b6123848585858585613264565b306123a1610ab3565b6001600160a01b03161461238457600454600f81810b600160801b909204900b1315612384576000600455612384565b600061163f858585856123ef60408051602081019091526000815290565b611faf565b600080612400836132d8565b90506004816007811115612416576124166145d2565b146124215792915050565b6000838152600760205260409020548061243c575092915050565b600654604051632ab0f52960e01b8152600481018390526001600160a01b0390911690632ab0f52990602401602060405180830381865afa158015612485573d6000803e3d6000fd5b505050506040513d601f19601f820116820180604052508101906124a99190614e11565b156124b8575060079392505050565b600654604051632c258a9f60e11b8152600481018390526001600160a01b039091169063584b153e90602401602060405180830381865afa158015612501573d6000803e3d6000fd5b505050506040513d601f19601f820116820180604052508101906125259190614e11565b15612534575060059392505050565b5060029392505050565b6000818152600860205260409020546001600160a01b0316338114806125905750683635c9adc5dea0000061258e8260016125776116d0565b6125819190614c74565b65ffffffffffff16611ca5565b105b6125ec5760405162461bcd60e51b815260206004820152602760248201527f476f7665726e6f72427261766f3a2070726f706f7365722061626f76652074686044820152661c995cda1bdb1960ca1b6064820152608401610cd9565b611ca08261341b565b600063ffffffff82111561265a5760405162461bcd60e51b815260206004820152602660248201527f53616665436173743a2076616c756520646f65736e27742066697420696e203360448201526532206269747360d01b6064820152608401610cd9565b5090565b8154600090818160058111156126bb57600061267984613526565b6126839085614d07565b60008881526020902090915081015463ffffffff90811690871610156126ab578091506126b9565b6126b6816001614c61565b92505b505b60006126c98787858561360e565b90508015612704576126ee876126e0600184614d07565b600091825260209091200190565b54600160201b90046001600160e01b03166113da565b6000979650505050505050565b600061276d33868686516001600160401b0381111561273257612732614018565b60405190808252806020026020018201604052801561276557816020015b60608152602001906001900390816127505790505b5087876129d4565b61163f85858585613664565b606060ff8316156127945761278d836139e2565b9050610ba3565b8180546127a090614b11565b80601f01602080910402602001604051908101604052809291908181526020018280546127cc90614b11565b80156128195780601f106127ee57610100808354040283529160200191612819565b820191906000526020600020905b8154815290600101906020018083116127fc57829003601f168201915b50505050509050610ba3565b600065ffffffffffff82111561265a5760405162461bcd60e51b815260206004820152602660248201527f53616665436173743a2076616c756520646f65736e27742066697420696e203460448201526538206269747360d01b6064820152608401610cd9565b604051630748d63560e31b81526001600160a01b038481166004830152602482018490526000917f000000000000000000000000000000000000000000000000000000000000000090911690633a46b1a890604401602060405180830381865afa1580156128fe573d6000803e3d6000fd5b505050506040513d601f19601f820116820180604052508101906117669190614b8c565b805460009080156118b25761293c836126e0600184614d07565b54600160201b90046001600160e01b0316611769565b600654604080516001600160a01b03928316815291831660208301527f08f74ea46ef7894f65eabfb5e6e695de773a000b47c529ab559178069b226401910160405180910390a1600680546001600160a01b0319166001600160a01b0392909216919091179055565b606083156129ca575081611769565b6117698383613a17565b8051602082012060006129f287876129ec8888612a91565b856119ca565b6000818152600860205260409020600981015491925090612a865780546001600160a01b0319166001600160a01b038a161781558751612a3b90600183019060208b0190613db3565b508651612a5190600283019060208a0190613e14565b508551612a679060038301906020890190613e4f565b508451612a7d9060048301906020880190613ea1565b50600981018390555b505050505050505050565b6060600082516001600160401b03811115612aae57612aae614018565b604051908082528060200260200182016040528015612ae157816020015b6060815260200190600190039081612acc5790505b50905060005b8451811015612bb257848181518110612b0257612b02614d1a565b602002602001015151600014612b7257848181518110612b2457612b24614d1a565b602002602001015180519060200120848281518110612b4557612b45614d1a565b6020026020010151604051602001612b5e929190614e33565b604051602081830303815290604052612b8d565b838181518110612b8457612b84614d1a565b60200260200101515b828281518110612b9f57612b9f614d1a565b6020908102919091010152600101612ae7565b509392505050565b60006064612bc78361152e565b604051632394e7a360e21b8152600481018590527f00000000000000000000000000000000000000000000000000000000000000006001600160a01b031690638e539e8c90602401602060405180830381865afa158015612c2c573d6000803e3d6000fd5b505050506040513d601f19601f82011682018060405250810190612c509190614b8c565b612c5a9190614e64565b610ba39190614e91565b60006001600160e01b0319821663bf26d89760e01b1480612c9557506001600160e01b031982166379dd796f60e01b145b80612cb057506001600160e01b03198216630271189760e51b145b80610ba357506301ffc9a760e01b6001600160e01b0319831614610ba3565b6000306001600160a01b037f000000000000000000000000000000000000000000000000000000000000000016148015612d2857507f000000000000000000000000000000000000000000000000000000000000000046145b15612d5257507f000000000000000000000000000000000000000000000000000000000000000090565b610ac7604080517f8b73c3c69bb8fe3d512ecc4cf759cc79239f7b179b0ffacaa9a75d522b39400f60208201527f0000000000000000000000000000000000000000000000000000000000000000918101919091527f000000000000000000000000000000000000000000000000000000000000000060608201524660808201523060a082015260009060c00160405160208183030381529060405280519060200120905090565b6000807f7fffffffffffffffffffffffffffffff5d576e7357a4501ddfe92f46681b20a0831115612e315750600090506003612eb5565b6040805160008082526020820180845289905260ff881692820192909252606081018690526080810185905260019060a0016020604051602081039080840390855afa158015612e85573d6000803e3d6000fd5b5050604051601f1901519150506001600160a01b038116612eae57600060019250925050612eb5565b9150600090505b94509492505050565b6000816004811115612ed257612ed26145d2565b03612eda5750565b6001816004811115612eee57612eee6145d2565b03612f3b5760405162461bcd60e51b815260206004820152601860248201527f45434453413a20696e76616c6964207369676e617475726500000000000000006044820152606401610cd9565b6002816004811115612f4f57612f4f6145d2565b03612f9c5760405162461bcd60e51b815260206004820152601f60248201527f45434453413a20696e76616c6964207369676e6174757265206c656e677468006044820152606401610cd9565b6003816004811115612fb057612fb06145d2565b03610d315760405162461bcd60e51b815260206004820152602260248201527f45434453413a20696e76616c6964207369676e6174757265202773272076616c604482015261756560f01b6064820152608401610cd9565b60008581526008602081815260408084206001600160a01b0389168552928301909152909120805460ff16156130965760405162461bcd60e51b815260206004820152602d60248201527f476f7665726e6f72436f6d7061746962696c697479427261766f3a20766f746560448201526c08185b1c9958591e4818d85cdd609a1b6064820152608401610cd9565b805460ff86166101000261ffff199091161760011781556130b684613a41565b81546001600160601b039190911662010000026dffffffffffffffffffffffff00001990911617815560ff851661310657838260060160008282546130fb9190614c61565b909155506119c19050565b60001960ff86160161312657838260050160008282546130fb9190614c61565b60011960ff86160161314657838260070160008282546130fb9190614c61565b60405162461bcd60e51b815260206004820152602d60248201527f476f7665726e6f72436f6d7061746962696c697479427261766f3a20696e766160448201526c6c696420766f7465207479706560981b6064820152608401610cd9565b60006001600160e01b0382111561265a5760405162461bcd60e51b815260206004820152602760248201527f53616665436173743a2076616c756520646f65736e27742066697420696e20326044820152663234206269747360c81b6064820152608401610cd9565b60008061321b858585613aa9565b915091505b935093915050565b8154600160801b90819004600f0b6000818152600180860160205260409091209390935583546001600160801b03908116939091011602179055565b60065460405163e38335e560e01b81526001600160a01b039091169063e38335e590349061329f908890889088906000908990600401614ba5565b6000604051808303818588803b1580156132b857600080fd5b505af11580156132cc573d6000803e3d6000fd5b50505050505050505050565b6000818152600360205260408120600281015460ff16156132fc5750600792915050565b6002810154610100900460ff16156133175750600292915050565b6000838152600360205260408120546001600160401b03169081900361337f5760405162461bcd60e51b815260206004820152601d60248201527f476f7665726e6f723a20756e6b6e6f776e2070726f706f73616c2069640000006044820152606401610cd9565b60006133896116d0565b65ffffffffffff1690508082106133a557506000949350505050565b6000858152600360205260409020600101546001600160401b03168181106133d35750600195945050505050565b6133dc86613c48565b80156133fe575060008681526008602052604090206006810154600590910154115b1561340f5750600495945050505050565b50600395945050505050565b600080613427836113e5565b9050600281600781111561343d5761343d6145d2565b1415801561345d5750600681600781111561345a5761345a6145d2565b14155b801561347b57506007816007811115613478576134786145d2565b14155b6134c75760405162461bcd60e51b815260206004820152601d60248201527f476f7665726e6f723a2070726f706f73616c206e6f74206163746976650000006044820152606401610cd9565b60008381526003602052604090819020600201805461ff001916610100179055517f789cf55be980739dad1d0699b93b58e806b51c9d96619bfa8fe0a28abaa7b30c906135179085815260200190565b60405180910390a15090919050565b60008160000361353857506000919050565b6000600161354584613c86565b901c6001901b9050600181848161355e5761355e614e7b565b048201901c9050600181848161357657613576614e7b565b048201901c9050600181848161358e5761358e614e7b565b048201901c905060018184816135a6576135a6614e7b565b048201901c905060018184816135be576135be614e7b565b048201901c905060018184816135d6576135d6614e7b565b048201901c905060018184816135ee576135ee614e7b565b048201901c90506117698182858161360857613608614e7b565b04613d1a565b60005b81831015612bb25760006136258484613d30565b60008781526020902090915063ffffffff86169082015463ffffffff1611156136505780925061365e565b61365b816001614c61565b93505b50613611565b600033816136706116d0565b65ffffffffffff169050683635c9adc5dea0000061369383610a1b600185614d07565b10156136fb5760405162461bcd60e51b815260206004820152603160248201527f476f7665726e6f723a2070726f706f73657220766f7465732062656c6f7720706044820152701c9bdc1bdcd85b081d1a1c995cda1bdb19607a1b6064820152608401610cd9565b600061371088888888805190602001206119ca565b905086518851146137335760405162461bcd60e51b8152600401610cd990614eb3565b85518851146137545760405162461bcd60e51b8152600401610cd990614eb3565b60008851116137a55760405162461bcd60e51b815260206004820152601860248201527f476f7665726e6f723a20656d7074792070726f706f73616c00000000000000006044820152606401610cd9565b600081815260036020526040902054600160401b90046001600160a01b03161561381b5760405162461bcd60e51b815260206004820152602160248201527f476f7665726e6f723a2070726f706f73616c20616c72656164792065786973746044820152607360f81b6064820152608401610cd9565b6000613828600184614c61565b9050600061383861b2fa83614c61565b90506040518060e0016040528061384e84613d4b565b6001600160401b031681526001600160a01b03871660208201526000604082015260600161387b83613d4b565b6001600160401b039081168252600060208084018290526040808501839052606094850183905288835260038252918290208551815492870151878501519186166001600160e01b031990941693909317600160401b6001600160a01b039094168402176001600160e01b0316600160e01b60e09290921c91909102178155938501516080860151908416921c0217600183015560a08301516002909201805460c09094015161ffff1990941692151561ff00191692909217610100931515939093029290921790558a517f7d84a6263ae0d98d3329bd7b46bb4e8d6f98cd35a7adb45c274c8b7fd5ebd5e091859188918e918e9181111561397f5761397f614018565b6040519080825280602002602001820160405280156139b257816020015b606081526020019060019003908161399d5790505b508d88888f6040516139cc99989796959493929190614ef4565b60405180910390a1509098975050505050505050565b60408051602080825281830190925260609160ff84169160009180820181803683375050509182525060208101929092525090565b815115613a275781518083602001fd5b8060405162461bcd60e51b8152600401610cd991906141d1565b60006001600160601b0382111561265a5760405162461bcd60e51b815260206004820152602660248201527f53616665436173743a2076616c756520646f65736e27742066697420696e203960448201526536206269747360d01b6064820152608401610cd9565b825460009081908015613bef576000613ac7876126e0600185614d07565b60408051808201909152905463ffffffff808216808452600160201b9092046001600160e01b031660208401529192509087161015613b485760405162461bcd60e51b815260206004820152601b60248201527f436865636b706f696e743a2064656372656173696e67206b65797300000000006044820152606401610cd9565b805163ffffffff808816911603613b905784613b69886126e0600186614d07565b80546001600160e01b0392909216600160201b0263ffffffff909216919091179055613bdf565b6040805180820190915263ffffffff80881682526001600160e01b0380881660208085019182528b54600181018d5560008d81529190912094519151909216600160201b029216919091179101555b6020015192508391506132209050565b50506040805180820190915263ffffffff80851682526001600160e01b0380851660208085019182528854600181018a5560008a815291822095519251909316600160201b029190931617920191909155905081613220565b60008181526008602052604081206005810154613c7d610a67856000908152600360205260409020546001600160401b031690565b11159392505050565b600080608083901c15613c9b57608092831c92015b604083901c15613cad57604092831c92015b602083901c15613cbf57602092831c92015b601083901c15613cd157601092831c92015b600883901c15613ce357600892831c92015b600483901c15613cf557600492831c92015b600283901c15613d0757600292831c92015b600183901c15610ba35760010192915050565b6000818310613d295781611769565b5090919050565b6000613d3f6002848418614e91565b61176990848416614c61565b60006001600160401b0382111561265a5760405162461bcd60e51b815260206004820152602660248201527f53616665436173743a2076616c756520646f65736e27742066697420696e203660448201526534206269747360d01b6064820152608401610cd9565b828054828255906000526020600020908101928215613e08579160200282015b82811115613e0857825182546001600160a01b0319166001600160a01b03909116178255602090920191600190910190613dd3565b5061265a929150613ef3565b828054828255906000526020600020908101928215613e08579160200282015b82811115613e08578251825591602001919060010190613e34565b828054828255906000526020600020908101928215613e95579160200282015b82811115613e955782518290613e859082614fd4565b5091602001919060010190613e6f565b5061265a929150613f08565b828054828255906000526020600020908101928215613ee7579160200282015b82811115613ee75782518290613ed79082614fd4565b5091602001919060010190613ec1565b5061265a929150613f25565b5b8082111561265a5760008155600101613ef4565b8082111561265a576000613f1c8282613f42565b50600101613f08565b8082111561265a576000613f398282613f42565b50600101613f25565b508054613f4e90614b11565b6000825580601f10613f5e575050565b601f016020900490600052602060002090810190610d319190613ef3565b600060208284031215613f8e57600080fd5b5035919050565b600060208284031215613fa757600080fd5b81356001600160e01b03198116811461176957600080fd5b803560ff811681146114b657600080fd5b60008083601f840112613fe257600080fd5b5081356001600160401b03811115613ff957600080fd5b60208301915083602082850101111561401157600080fd5b9250929050565b634e487b7160e01b600052604160045260246000fd5b604051601f8201601f191681016001600160401b038111828210171561405657614056614018565b604052919050565b60006001600160401b0382111561407757614077614018565b50601f01601f191660200190565b600082601f83011261409657600080fd5b81356140a96140a48261405e565b61402e565b8181528460208386010111156140be57600080fd5b816020850160208301376000918101602001919091529392505050565b60008060008060008060008060e0898b0312156140f757600080fd5b8835975061410760208a01613fbf565b965060408901356001600160401b038082111561412357600080fd5b61412f8c838d01613fd0565b909850965060608b013591508082111561414857600080fd5b506141558b828c01614085565b94505061416460808a01613fbf565b925060a0890135915060c089013590509295985092959890939650565b60005b8381101561419c578181015183820152602001614184565b50506000910152565b600081518084526141bd816020860160208601614181565b601f01601f19169290920160200192915050565b60208152600061176960208301846141a5565b6001600160a01b0381168114610d3157600080fd5b6000806000806080858703121561420f57600080fd5b843561421a816141e4565b9350602085013561422a816141e4565b92506040850135915060608501356001600160401b0381111561424c57600080fd5b61425887828801614085565b91505092959194509250565b60006001600160401b0382111561427d5761427d614018565b5060051b60200190565b600082601f83011261429857600080fd5b813560206142a86140a483614264565b8083825260208201915060208460051b8701019350868411156142ca57600080fd5b602086015b848110156142ef5780356142e2816141e4565b83529183019183016142cf565b509695505050505050565b600082601f83011261430b57600080fd5b8135602061431b6140a483614264565b8083825260208201915060208460051b87010193508684111561433d57600080fd5b602086015b848110156142ef5780358352918301918301614342565b600082601f83011261436a57600080fd5b8135602061437a6140a483614264565b82815260059290921b8401810191818101908684111561439957600080fd5b8286015b848110156142ef5780356001600160401b038111156143bc5760008081fd5b6143ca8986838b0101614085565b84525091830191830161439d565b600080600080608085870312156143ee57600080fd5b84356001600160401b038082111561440557600080fd5b61441188838901614287565b9550602087013591508082111561442757600080fd5b614433888389016142fa565b9450604087013591508082111561444957600080fd5b5061445687828801614359565b949793965093946060013593505050565b60008151808452602080850194506020840160005b838110156144a15781516001600160a01b03168752958201959082019060010161447c565b509495945050505050565b60008151808452602080850194506020840160005b838110156144a1578151875295820195908201906001016144c1565b60008282518085526020808601955060208260051b8401016020860160005b8481101561452a57601f198684030189526145188383516141a5565b988401989250908301906001016144fc565b5090979650505050505050565b60808152600061454a6080830187614467565b828103602084015261455c81876144ac565b9050828103604084015261457081866144dd565b905082810360608401526113da81856144dd565b600080600080600060a0868803121561459c57600080fd5b853594506145ac60208701613fbf565b93506145ba60408701613fbf565b94979396509394606081013594506080013592915050565b634e487b7160e01b600052602160045260246000fd5b602081016008831061460a57634e487b7160e01b600052602160045260246000fd5b91905290565b6000806040838503121561462357600080fd5b823591506020830135614635816141e4565b809150509250929050565b6000806040838503121561465357600080fd5b8235915061466360208401613fbf565b90509250929050565b60008060008060006080868803121561468457600080fd5b8535945061469460208701613fbf565b935060408601356001600160401b03808211156146b057600080fd5b6146bc89838a01613fd0565b909550935060608801359150808211156146d557600080fd5b506146e288828901614085565b9150509295509295909350565b6000806000806060858703121561470557600080fd5b8435935061471560208601613fbf565b925060408501356001600160401b0381111561473057600080fd5b61473c87828801613fd0565b95989497509550505050565b6000806000806080858703121561475e57600080fd5b84356001600160401b038082111561477557600080fd5b61478188838901614287565b9550602087013591508082111561479757600080fd5b6147a3888389016142fa565b945060408701359150808211156147b957600080fd5b6147c588838901614359565b935060608701359150808211156147db57600080fd5b5061425887828801614085565b60ff60f81b8816815260e06020820152600061480760e08301896141a5565b828103604084015261481981896141a5565b606084018890526001600160a01b038716608085015260a0840186905283810360c08501529050610c9381856144ac565b60008060006060848603121561485f57600080fd5b833561486a816141e4565b92506020840135915060408401356001600160401b0381111561488c57600080fd5b61489886828701614085565b9150509250925092565b6000602082840312156148b457600080fd5b8135611769816141e4565b600080600080600060a086880312156148d757600080fd5b85356148e2816141e4565b945060208601356148f2816141e4565b935060408601356001600160401b038082111561490e57600080fd5b61491a89838a016142fa565b9450606088013591508082111561493057600080fd5b61493c89838a016142fa565b935060808801359150808211156146d557600080fd5b6000806000806060858703121561496857600080fd5b8435614973816141e4565b93506020850135925060408501356001600160401b0381111561473057600080fd5b600080600080600060a086880312156149ad57600080fd5b85356001600160401b03808211156149c457600080fd5b6149d089838a01614287565b965060208801359150808211156149e657600080fd5b6149f289838a016142fa565b95506040880135915080821115614a0857600080fd5b614a1489838a01614359565b94506060880135915080821115614a2a57600080fd5b61493c89838a01614359565b60008060408385031215614a4957600080fd5b8235614a54816141e4565b946020939093013593505050565b600080600080600060a08688031215614a7a57600080fd5b8535614a85816141e4565b94506020860135614a95816141e4565b9350604086013592506060860135915060808601356001600160401b03811115614abe57600080fd5b6146e288828901614085565b8183823760009101908152919050565b60208082526018908201527f476f7665726e6f723a206f6e6c79476f7665726e616e63650000000000000000604082015260600190565b600181811c90821680614b2557607f821691505b602082108103614b4557634e487b7160e01b600052602260045260246000fd5b50919050565b60208082526021908201527f476f7665726e6f723a2070726f706f73616c206e6f74207375636365737366756040820152601b60fa1b606082015260800190565b600060208284031215614b9e57600080fd5b5051919050565b60a081526000614bb860a0830188614467565b8281036020840152614bca81886144ac565b90508281036040840152614bde81876144dd565b60608401959095525050608001529392505050565b60c081526000614c0660c0830189614467565b8281036020840152614c1881896144ac565b90508281036040840152614c2c81886144dd565b60608401969096525050608081019290925260a0909101529392505050565b634e487b7160e01b600052601160045260246000fd5b80820180821115610ba357610ba3614c4b565b65ffffffffffff828116828216039080821115614c9357614c93614c4b565b5092915050565b600060208284031215614cac57600080fd5b81516001600160401b03811115614cc257600080fd5b8201601f81018413614cd357600080fd5b8051614ce16140a48261405e565b818152856020838501011115614cf657600080fd5b61163f826020830160208601614181565b81810381811115610ba357610ba3614c4b565b634e487b7160e01b600052603260045260246000fd5b600060208284031215614d4257600080fd5b815165ffffffffffff8116811461176957600080fd5b608081526000614d6b6080830187614467565b8281036020840152614d7d81876144ac565b90508281036040840152614d9181866144dd565b91505082606083015295945050505050565b84815260ff8416602082015282604082015260806060820152600061162760808301846141a5565b85815260ff8516602082015283604082015260a060608201526000614df360a08301856141a5565b8281036080840152614e0581856141a5565b98975050505050505050565b600060208284031215614e2357600080fd5b8151801515811461176957600080fd5b6001600160e01b0319831681528151600090614e56816004850160208701614181565b919091016004019392505050565b8082028115828204841417610ba357610ba3614c4b565b634e487b7160e01b600052601260045260246000fd5b600082614eae57634e487b7160e01b600052601260045260246000fd5b500490565b60208082526021908201527f476f7665726e6f723a20696e76616c69642070726f706f73616c206c656e67746040820152600d60fb1b606082015260800190565b8981526001600160a01b038916602082015261012060408201819052600090614f1f8382018b614467565b90508281036060840152614f33818a6144ac565b90508281036080840152614f4781896144dd565b905082810360a0840152614f5b81886144dd565b90508560c08401528460e0840152828103610100840152614f7c81856141a5565b9c9b505050505050505050505050565b601f821115611ca0576000816000526020600020601f850160051c81016020861015614fb55750805b601f850160051c820191505b8181101561238257828155600101614fc1565b81516001600160401b03811115614fed57614fed614018565b61500181614ffb8454614b11565b84614f8c565b602080601f831160018114615036576000841561501e5750858301515b600019600386901b1c1916600185901b178555612382565b600085815260208120601f198616915b8281101561506557888601518255948401946001909101908401615046565b50858210156150835787850151600019600388901b60f8161c191681555b5050505050600190811b0190555056fe476f7665726e6f723a2072656c617920726576657274656420776974686f7574206d657373616765a2646970667358221220fe6af4bd1d706828404426c8d95ba1bb95a0c53f07b035d2582e94d0cb24c27964736f6c63430008180033",
  "linkReferences": {},
  "deployedLinkReferences": {}
}