{
  "_format": "hh-sol-artifact-1",
  "contractName": "ConditionalEscrowMock",
  "sourceName": "contracts/standart_token/mocks/ConditionalEscrowMock.sol",
  "abi": [
    {
      "anonymous": false,
      "inputs": [
        {
          "indexed": true,
          "internalType": "address",
          "name": "payee",
          "type": "address"
        },
        {
          "indexed": false,
          "internalType": "uint256",
          "name": "weiAmount",
          "type": "uint256"
        }
      ],
      "name": "Deposited",
      "type": "event"
    },
    {
      "anonymous": false,
      "inputs": [
        {
          "indexed": true,
          "internalType": "address",
          "name": "previousOwner",
          "type": "address"
        },
        {
          "indexed": true,
          "internalType": "address",
          "name": "newOwner",
          "type": "address"
        }
      ],
      "name": "OwnershipTransferred",
      "type": "event"
    },
    {
      "anonymous": false,
      "inputs": [
        {
          "indexed": true,
          "internalType": "address",
          "name": "payee",
          "type": "address"
        },
        {
          "indexed": false,
          "internalType": "uint256",
          "name": "weiAmount",
          "type": "uint256"
        }
      ],
      "name": "Withdrawn",
      "type": "event"
    },
    {
      "inputs": [
        {
          "internalType": "address",
          "name": "payee",
          "type": "address"
        }
      ],
      "name": "deposit",
      "outputs": [],
      "stateMutability": "payable",
      "type": "function"
    },
    {
      "inputs": [
        {
          "internalType": "address",
          "name": "payee",
          "type": "address"
        }
      ],
      "name": "depositsOf",
      "outputs": [
        {
          "internalType": "uint256",
          "name": "",
          "type": "uint256"
        }
      ],
      "stateMutability": "view",
      "type": "function"
    },
    {
      "inputs": [],
      "name": "owner",
      "outputs": [
        {
          "internalType": "address",
          "name": "",
          "type": "address"
        }
      ],
      "stateMutability": "view",
      "type": "function"
    },
    {
      "inputs": [],
      "name": "renounceOwnership",
      "outputs": [],
      "stateMutability": "nonpayable",
      "type": "function"
    },
    {
      "inputs": [
        {
          "internalType": "address",
          "name": "payee",
          "type": "address"
        },
        {
          "internalType": "bool",
          "name": "allowed",
          "type": "bool"
        }
      ],
      "name": "setAllowed",
      "outputs": [],
      "stateMutability": "nonpayable",
      "type": "function"
    },
    {
      "inputs": [
        {
          "internalType": "address",
          "name": "newOwner",
          "type": "address"
        }
      ],
      "name": "transferOwnership",
      "outputs": [],
      "stateMutability": "nonpayable",
      "type": "function"
    },
    {
      "inputs": [
        {
          "internalType": "address payable",
          "name": "payee",
          "type": "address"
        }
      ],
      "name": "withdraw",
      "outputs": [],
      "stateMutability": "nonpayable",
      "type": "function"
    },
    {
      "inputs": [
        {
          "internalType": "address",
          "name": "payee",
          "type": "address"
        }
      ],
      "name": "withdrawalAllowed",
      "outputs": [
        {
          "internalType": "bool",
          "name": "",
          "type": "bool"
        }
      ],
      "stateMutability": "view",
      "type": "function"
    }
  ],
  "bytecode": "0x608060405234801561001057600080fd5b5061001a3361001f565b61006f565b600080546001600160a01b038381166001600160a01b0319831681178455604051919092169283917f8be0079c531659141344cd1fd0a4f28419497f9722a3daafe3b4186f6b6457e09190a35050565b61068a8061007e6000396000f3fe60806040526004361061007b5760003560e01c80638da5cb5b1161004e5780638da5cb5b1461014b578063e3a9db1a14610173578063f2fde38b146101b7578063f340fa01146101d757600080fd5b80634697f05d1461008057806351cff8d9146100c8578063685ca194146100e8578063715018a614610136575b600080fd5b34801561008c57600080fd5b506100c661009b3660046105cb565b6001600160a01b03919091166000908152600260205260409020805460ff1916911515919091179055565b005b3480156100d457600080fd5b506100c66100e3366004610609565b6101ea565b3480156100f457600080fd5b50610121610103366004610609565b6001600160a01b031660009081526002602052604090205460ff1690565b60405190151581526020015b60405180910390f35b34801561014257600080fd5b506100c661027f565b34801561015757600080fd5b506000546040516001600160a01b03909116815260200161012d565b34801561017f57600080fd5b506101a961018e366004610609565b6001600160a01b031660009081526001602052604090205490565b60405190815260200161012d565b3480156101c357600080fd5b506100c66101d2366004610609565b610293565b6100c66101e5366004610609565b610309565b6001600160a01b03811660009081526002602052604090205460ff166102735760405162461bcd60e51b815260206004820152603360248201527f436f6e646974696f6e616c457363726f773a207061796565206973206e6f7420604482015272616c6c6f77656420746f20776974686472617760681b60648201526084015b60405180910390fd5b61027c81610383565b50565b6102876103ee565b6102916000610448565b565b61029b6103ee565b6001600160a01b0381166103005760405162461bcd60e51b815260206004820152602660248201527f4f776e61626c653a206e6577206f776e657220697320746865207a65726f206160448201526564647265737360d01b606482015260840161026a565b61027c81610448565b6103116103ee565b6001600160a01b03811660009081526001602052604081208054349283929161033b90849061062d565b90915550506040518181526001600160a01b038316907f2da466a7b24304f47e87fa2e1e5a81b9831ce54fec19055ce277ca2f39ba42c4906020015b60405180910390a25050565b61038b6103ee565b6001600160a01b03811660008181526001602052604081208054919055906103b39082610498565b816001600160a01b03167f7084f5476618d8e60b11ef0d7d3f06914655adb8793e28ff7f018d4c76d505d58260405161037791815260200190565b6000546001600160a01b031633146102915760405162461bcd60e51b815260206004820181905260248201527f4f776e61626c653a2063616c6c6572206973206e6f7420746865206f776e6572604482015260640161026a565b600080546001600160a01b038381166001600160a01b0319831681178455604051919092169283917f8be0079c531659141344cd1fd0a4f28419497f9722a3daafe3b4186f6b6457e09190a35050565b804710156104e85760405162461bcd60e51b815260206004820152601d60248201527f416464726573733a20696e73756666696369656e742062616c616e6365000000604482015260640161026a565b6000826001600160a01b03168260405160006040518083038185875af1925050503d8060008114610535576040519150601f19603f3d011682016040523d82523d6000602084013e61053a565b606091505b50509050806105b15760405162461bcd60e51b815260206004820152603a60248201527f416464726573733a20756e61626c6520746f2073656e642076616c75652c207260448201527f6563697069656e74206d61792068617665207265766572746564000000000000606482015260840161026a565b505050565b6001600160a01b038116811461027c57600080fd5b600080604083850312156105de57600080fd5b82356105e9816105b6565b9150602083013580151581146105fe57600080fd5b809150509250929050565b60006020828403121561061b57600080fd5b8135610626816105b6565b9392505050565b8082018082111561064e57634e487b7160e01b600052601160045260246000fd5b9291505056fea2646970667358221220350643960b01f0bdfb80f3b722e4478a8b4ef05c91f32646522f053246783cb164736f6c63430008180033",
  "linkReferences": {},
  "deployedLinkReferences": {}
}