{
  "_format": "hh-sol-artifact-1",
  "contractName": "BridgeArbitrumL1Inbox",
  "sourceName": "contracts/standart_token/mocks/crosschain/bridges.sol",
  "abi": [
    {
      "inputs": [],
      "name": "bridge",
      "outputs": [
        {
          "internalType": "address",
          "name": "",
          "type": "address"
        }
      ],
      "stateMutability": "view",
      "type": "function"
    }
  ],
  "bytecode": "0x60a060405233608052348015601357600080fd5b5060805160a561002c60003960006031015260a56000f3fe6080604052348015600f57600080fd5b506004361060285760003560e01c8063e78cea9214602d575b600080fd5b60537f000000000000000000000000000000000000000000000000000000000000000081565b6040516001600160a01b03909116815260200160405180910390f3fea2646970667358221220c27de5dade78145c9ea8757b8d977fde77f5e0780c2c8f3fd1fb02789680e31f64736f6c63430008180033",
  "linkReferences": {},
  "deployedLinkReferences": {}
}