{
  "_format": "hh-sol-artifact-1",
  "contractName": "BridgeAMBMock",
  "sourceName": "contracts/standart_token/mocks/crosschain/bridges.sol",
  "abi": [
    {
      "inputs": [
        {
          "internalType": "address",
          "name": "sender",
          "type": "address"
        },
        {
          "internalType": "address",
          "name": "expected",
          "type": "address"
        }
      ],
      "name": "InvalidCrossChainSender",
      "type": "error"
    },
    {
      "inputs": [],
      "name": "NotCrossChainCall",
      "type": "error"
    },
    {
      "inputs": [],
      "name": "messageSender",
      "outputs": [
        {
          "internalType": "address",
          "name": "",
          "type": "address"
        }
      ],
      "stateMutability": "view",
      "type": "function"
    },
    {
      "inputs": [
        {
          "internalType": "address",
          "name": "target",
          "type": "address"
        },
        {
          "internalType": "bytes",
          "name": "data",
          "type": "bytes"
        },
        {
          "internalType": "address",
          "name": "sender",
          "type": "address"
        }
      ],
      "name": "relayAs",
      "outputs": [],
      "stateMutability": "nonpayable",
      "type": "function"
    }
  ],
  "bytecode": "0x608060405234801561001057600080fd5b5061034d806100206000396000f3fe608060405234801561001057600080fd5b50600436106100365760003560e01c8063d67bdd251461003b578063fb417a5b1461005a575b600080fd5b600054604080516001600160a01b039092168252519081900360200190f35b61006d610068366004610224565b61006f565b005b600080546001600160a01b038381166001600160a01b03198316178355604051918116929182918816906100a690889088906102b8565b6000604051808303816000865af19150503d80600081146100e3576040519150601f19603f3d011682016040523d82523d6000602084013e6100e8565b606091505b509150915061012e8783836040518060400160405280601781526020017f6c6f772d6c6576656c2063616c6c207265766572746564000000000000000000815250610158565b5050600080546001600160a01b0319166001600160a01b0393909316929092179091555050505050565b606083156101cc5782516000036101c5576001600160a01b0385163b6101c55760405162461bcd60e51b815260206004820152601d60248201527f416464726573733a2063616c6c20746f206e6f6e2d636f6e747261637400000060448201526064015b60405180910390fd5b50816101d6565b6101d683836101de565b949350505050565b8151156101ee5781518083602001fd5b8060405162461bcd60e51b81526004016101bc91906102c8565b80356001600160a01b038116811461021f57600080fd5b919050565b6000806000806060858703121561023a57600080fd5b61024385610208565b9350602085013567ffffffffffffffff8082111561026057600080fd5b818701915087601f83011261027457600080fd5b81358181111561028357600080fd5b88602082850101111561029557600080fd5b6020830195508094505050506102ad60408601610208565b905092959194509250565b8183823760009101908152919050565b60006020808352835180602085015260005b818110156102f6578581018301518582016040015282016102da565b506000604082860101526040601f19601f830116850101925050509291505056fea2646970667358221220c3e104e837d79754d8003b7b93183d87eb3c5ce342e5a62eb63e744f0a31129a64736f6c63430008180033",
  "linkReferences": {},
  "deployedLinkReferences": {}
}