{
  "_format": "hh-sol-artifact-1",
  "contractName": "BridgeArbitrumL1Outbox",
  "sourceName": "contracts/standart_token/mocks/crosschain/bridges.sol",
  "abi": [
    {
      "inputs": [],
      "name": "bridge",
      "outputs": [
        {
          "internalType": "address",
          "name": "",
          "type": "address"
        }
      ],
      "stateMutability": "view",
      "type": "function"
    },
    {
      "inputs": [],
      "name": "l2ToL1Sender",
      "outputs": [
        {
          "internalType": "address",
          "name": "",
          "type": "address"
        }
      ],
      "stateMutability": "view",
      "type": "function"
    }
  ],
  "bytecode": "0x60a06040523360805234801561001457600080fd5b506080516101756100356000396000818160640152608a01526101756000f3fe608060405234801561001057600080fd5b50600436106100365760003560e01c806380648b021461003b578063e78cea921461005f575b600080fd5b610043610086565b6040516001600160a01b03909116815260200160405180910390f35b6100437f000000000000000000000000000000000000000000000000000000000000000081565b60007f00000000000000000000000000000000000000000000000000000000000000006001600160a01b03166370348f3e6040518163ffffffff1660e01b8152600401602060405180830381865afa1580156100e6573d6000803e3d6000fd5b505050506040513d601f19601f8201168201806040525081019061010a919061010f565b905090565b60006020828403121561012157600080fd5b81516001600160a01b038116811461013857600080fd5b939250505056fea2646970667358221220adb7a7b9a89ce5f3828b864d3a653b5ccffd847d2fa007ae4872ca5a471fd36f64736f6c63430008180033",
  "linkReferences": {},
  "deployedLinkReferences": {}
}