{
  "_format": "hh-sol-artifact-1",
  "contractName": "BridgeArbitrumL1Mock",
  "sourceName": "contracts/standart_token/mocks/crosschain/bridges.sol",
  "abi": [
    {
      "inputs": [
        {
          "internalType": "address",
          "name": "sender",
          "type": "address"
        },
        {
          "internalType": "address",
          "name": "expected",
          "type": "address"
        }
      ],
      "name": "InvalidCrossChainSender",
      "type": "error"
    },
    {
      "inputs": [],
      "name": "NotCrossChainCall",
      "type": "error"
    },
    {
      "inputs": [],
      "name": "activeOutbox",
      "outputs": [
        {
          "internalType": "address",
          "name": "",
          "type": "address"
        }
      ],
      "stateMutability": "view",
      "type": "function"
    },
    {
      "inputs": [],
      "name": "currentSender",
      "outputs": [
        {
          "internalType": "address",
          "name": "",
          "type": "address"
        }
      ],
      "stateMutability": "view",
      "type": "function"
    },
    {
      "inputs": [],
      "name": "inbox",
      "outputs": [
        {
          "internalType": "address",
          "name": "",
          "type": "address"
        }
      ],
      "stateMutability": "view",
      "type": "function"
    },
    {
      "inputs": [],
      "name": "outbox",
      "outputs": [
        {
          "internalType": "address",
          "name": "",
          "type": "address"
        }
      ],
      "stateMutability": "view",
      "type": "function"
    },
    {
      "inputs": [
        {
          "internalType": "address",
          "name": "target",
          "type": "address"
        },
        {
          "internalType": "bytes",
          "name": "data",
          "type": "bytes"
        },
        {
          "internalType": "address",
          "name": "sender",
          "type": "address"
        }
      ],
      "name": "relayAs",
      "outputs": [],
      "stateMutability": "nonpayable",
      "type": "function"
    }
  ],
  "bytecode": "0x60c060405260405161001090610080565b604051809103906000f08015801561002c573d6000803e3d6000fd5b506001600160a01b03166080526040516100459061008c565b604051809103906000f080158015610061573d6000803e3d6000fd5b506001600160a01b031660a05234801561007a57600080fd5b50610099565b60d1806104ae83390190565b6101aa8061057f83390190565b60805160a0516103ec6100c2600039600081816087015260b00152600060d701526103ec6000f3fe608060405234801561001057600080fd5b50600436106100575760003560e01c806370348f3e1461005c578063ab5d894314610085578063ce11e6ab146100ab578063fb0e722b146100d2578063fb417a5b146100f9575b600080fd5b6000546001600160a01b03165b6040516001600160a01b03909116815260200160405180910390f35b7f0000000000000000000000000000000000000000000000000000000000000000610069565b6100697f000000000000000000000000000000000000000000000000000000000000000081565b6100697f000000000000000000000000000000000000000000000000000000000000000081565b61010c6101073660046102c3565b61010e565b005b600080546001600160a01b038381166001600160a01b03198316178355604051918116929182918816906101459088908890610357565b6000604051808303816000865af19150503d8060008114610182576040519150601f19603f3d011682016040523d82523d6000602084013e610187565b606091505b50915091506101cd8783836040518060400160405280601781526020017f6c6f772d6c6576656c2063616c6c2072657665727465640000000000000000008152506101f7565b5050600080546001600160a01b0319166001600160a01b0393909316929092179091555050505050565b6060831561026b578251600003610264576001600160a01b0385163b6102645760405162461bcd60e51b815260206004820152601d60248201527f416464726573733a2063616c6c20746f206e6f6e2d636f6e747261637400000060448201526064015b60405180910390fd5b5081610275565b610275838361027d565b949350505050565b81511561028d5781518083602001fd5b8060405162461bcd60e51b815260040161025b9190610367565b80356001600160a01b03811681146102be57600080fd5b919050565b600080600080606085870312156102d957600080fd5b6102e2856102a7565b9350602085013567ffffffffffffffff808211156102ff57600080fd5b818701915087601f83011261031357600080fd5b81358181111561032257600080fd5b88602082850101111561033457600080fd5b60208301955080945050505061034c604086016102a7565b905092959194509250565b8183823760009101908152919050565b60006020808352835180602085015260005b8181101561039557858101830151858201604001528201610379565b506000604082860101526040601f19601f830116850101925050509291505056fea264697066735822122040d94409e8e98af5ca0e1fc2658240aa3c5291094cb3f91c5d79cc12d134472f64736f6c6343000818003360a060405233608052348015601357600080fd5b5060805160a561002c60003960006031015260a56000f3fe6080604052348015600f57600080fd5b506004361060285760003560e01c8063e78cea9214602d575b600080fd5b60537f000000000000000000000000000000000000000000000000000000000000000081565b6040516001600160a01b03909116815260200160405180910390f3fea2646970667358221220c27de5dade78145c9ea8757b8d977fde77f5e0780c2c8f3fd1fb02789680e31f64736f6c6343000818003360a06040523360805234801561001457600080fd5b506080516101756100356000396000818160640152608a01526101756000f3fe608060405234801561001057600080fd5b50600436106100365760003560e01c806380648b021461003b578063e78cea921461005f575b600080fd5b610043610086565b6040516001600160a01b03909116815260200160405180910390f35b6100437f000000000000000000000000000000000000000000000000000000000000000081565b60007f00000000000000000000000000000000000000000000000000000000000000006001600160a01b03166370348f3e6040518163ffffffff1660e01b8152600401602060405180830381865afa1580156100e6573d6000803e3d6000fd5b505050506040513d601f19601f8201168201806040525081019061010a919061010f565b905090565b60006020828403121561012157600080fd5b81516001600160a01b038116811461013857600080fd5b939250505056fea2646970667358221220adb7a7b9a89ce5f3828b864d3a653b5ccffd847d2fa007ae4872ca5a471fd36f64736f6c63430008180033",
  "linkReferences": {},
  "deployedLinkReferences": {}
}