{
  "_format": "hh-sol-artifact-1",
  "contractName": "NonUpgradeableMock",
  "sourceName": "contracts/standart_token/mocks/proxy/UUPSUpgradeableMock.sol",
  "abi": [
    {
      "inputs": [],
      "name": "current",
      "outputs": [
        {
          "internalType": "uint256",
          "name": "",
          "type": "uint256"
        }
      ],
      "stateMutability": "view",
      "type": "function"
    },
    {
      "inputs": [],
      "name": "increment",
      "outputs": [],
      "stateMutability": "nonpayable",
      "type": "function"
    }
  ],
  "bytecode": "0x6080604052348015600f57600080fd5b5060998061001e6000396000f3fe6080604052348015600f57600080fd5b506004361060325760003560e01c80639fa6a6e3146037578063d09de08a14604c575b600080fd5b60005460405190815260200160405180910390f35b60526054565b005b6061600080546001019055565b56fea2646970667358221220f1e3addef73b0da4a6f93b08a5dcb97f567430d93ee7ff4f645d1179ba8522a364736f6c63430008180033",
  "linkReferences": {},
  "deployedLinkReferences": {}
}