{
  "_format": "hh-sol-artifact-1",
  "contractName": "UUPSUpgradeableUnsafeMock",
  "sourceName": "contracts/standart_token/mocks/proxy/UUPSUpgradeableMock.sol",
  "abi": [
    {
      "anonymous": false,
      "inputs": [
        {
          "indexed": false,
          "internalType": "address",
          "name": "previousAdmin",
          "type": "address"
        },
        {
          "indexed": false,
          "internalType": "address",
          "name": "newAdmin",
          "type": "address"
        }
      ],
      "name": "AdminChanged",
      "type": "event"
    },
    {
      "anonymous": false,
      "inputs": [
        {
          "indexed": true,
          "internalType": "address",
          "name": "beacon",
          "type": "address"
        }
      ],
      "name": "BeaconUpgraded",
      "type": "event"
    },
    {
      "anonymous": false,
      "inputs": [
        {
          "indexed": true,
          "internalType": "address",
          "name": "implementation",
          "type": "address"
        }
      ],
      "name": "Upgraded",
      "type": "event"
    },
    {
      "inputs": [],
      "name": "current",
      "outputs": [
        {
          "internalType": "uint256",
          "name": "",
          "type": "uint256"
        }
      ],
      "stateMutability": "view",
      "type": "function"
    },
    {
      "inputs": [],
      "name": "increment",
      "outputs": [],
      "stateMutability": "nonpayable",
      "type": "function"
    },
    {
      "inputs": [],
      "name": "proxiableUUID",
      "outputs": [
        {
          "internalType": "bytes32",
          "name": "",
          "type": "bytes32"
        }
      ],
      "stateMutability": "view",
      "type": "function"
    },
    {
      "inputs": [
        {
          "internalType": "address",
          "name": "newImplementation",
          "type": "address"
        }
      ],
      "name": "upgradeTo",
      "outputs": [],
      "stateMutability": "nonpayable",
      "type": "function"
    },
    {
      "inputs": [
        {
          "internalType": "address",
          "name": "newImplementation",
          "type": "address"
        },
        {
          "internalType": "bytes",
          "name": "data",
          "type": "bytes"
        }
      ],
      "name": "upgradeToAndCall",
      "outputs": [],
      "stateMutability": "payable",
      "type": "function"
    }
  ],
  "bytecode": "0x60a06040523060805234801561001457600080fd5b50608051610625610030600039600061011001526106256000f3fe60806040526004361061004a5760003560e01c80633659cfe61461004f5780634f1ef2861461007157806352d1902d146100845780639fa6a6e3146100ab578063d09de08a146100c0575b600080fd5b34801561005b57600080fd5b5061006f61006a366004610462565b6100d5565b005b61006f61007f366004610493565b6100f3565b34801561009057600080fd5b50610099610103565b60405190815260200160405180910390f35b3480156100b757600080fd5b50600054610099565b3480156100cc57600080fd5b5061006f6101cd565b6100f0816040518060200160405280600081525060006101dd565b50565b6100ff828260006101dd565b5050565b6000306001600160a01b037f000000000000000000000000000000000000000000000000000000000000000016146101a85760405162461bcd60e51b815260206004820152603860248201527f555550535570677261646561626c653a206d757374206e6f742062652063616c60448201527f6c6564207468726f7567682064656c656761746563616c6c000000000000000060648201526084015b60405180910390fd5b507f360894a13ba1a3210667c828492db98dca3e2076cc3735a920a3ca505d382bbc90565b6101db600080546001019055565b565b6101e683610209565b6000825111806101f35750805b15610204576102028383610249565b505b505050565b61021281610275565b6040516001600160a01b038216907fbc7cd75a20ee27fd9adebab32041f755214dbc6bffa90cc0225b39da2e5c2d3b90600090a250565b606061026e83836040518060600160405280602781526020016105c960279139610323565b9392505050565b6001600160a01b0381163b6102e25760405162461bcd60e51b815260206004820152602d60248201527f455243313936373a206e657720696d706c656d656e746174696f6e206973206e60448201526c1bdd08184818dbdb9d1c9858dd609a1b606482015260840161019f565b7f360894a13ba1a3210667c828492db98dca3e2076cc3735a920a3ca505d382bbc80546001600160a01b0319166001600160a01b0392909216919091179055565b6060600080856001600160a01b0316856040516103409190610579565b600060405180830381855af49150503d806000811461037b576040519150601f19603f3d011682016040523d82523d6000602084013e610380565b606091505b50915091506103918683838761039b565b9695505050505050565b6060831561040a578251600003610403576001600160a01b0385163b6104035760405162461bcd60e51b815260206004820152601d60248201527f416464726573733a2063616c6c20746f206e6f6e2d636f6e7472616374000000604482015260640161019f565b5081610414565b610414838361041c565b949350505050565b81511561042c5781518083602001fd5b8060405162461bcd60e51b815260040161019f9190610595565b80356001600160a01b038116811461045d57600080fd5b919050565b60006020828403121561047457600080fd5b61026e82610446565b634e487b7160e01b600052604160045260246000fd5b600080604083850312156104a657600080fd5b6104af83610446565b9150602083013567ffffffffffffffff808211156104cc57600080fd5b818501915085601f8301126104e057600080fd5b8135818111156104f2576104f261047d565b604051601f8201601f19908116603f0116810190838211818310171561051a5761051a61047d565b8160405282815288602084870101111561053357600080fd5b8260208601602083013760006020848301015280955050505050509250929050565b60005b83811015610570578181015183820152602001610558565b50506000910152565b6000825161058b818460208701610555565b9190910192915050565b60208152600082518060208401526105b4816040850160208701610555565b601f01601f1916919091016040019291505056fe416464726573733a206c6f772d6c6576656c2064656c65676174652063616c6c206661696c6564a26469706673582212205bea02b955dfdb7f2de880f4307965b1f592a6dc9bee71ebd24321787baafa7464736f6c63430008180033",
  "linkReferences": {},
  "deployedLinkReferences": {}
}