{
  "_format": "hh-sol-artifact-1",
  "contractName": "ERC2771ContextMock",
  "sourceName": "contracts/standart_token/mocks/ERC2771ContextMock.sol",
  "abi": [
    {
      "inputs": [
        {
          "internalType": "address",
          "name": "trustedForwarder",
          "type": "address"
        }
      ],
      "stateMutability": "nonpayable",
      "type": "constructor"
    },
    {
      "anonymous": false,
      "inputs": [
        {
          "indexed": false,
          "internalType": "bytes",
          "name": "data",
          "type": "bytes"
        },
        {
          "indexed": false,
          "internalType": "uint256",
          "name": "integerValue",
          "type": "uint256"
        },
        {
          "indexed": false,
          "internalType": "string",
          "name": "stringValue",
          "type": "string"
        }
      ],
      "name": "Data",
      "type": "event"
    },
    {
      "anonymous": false,
      "inputs": [
        {
          "indexed": false,
          "internalType": "address",
          "name": "sender",
          "type": "address"
        }
      ],
      "name": "Sender",
      "type": "event"
    },
    {
      "inputs": [
        {
          "internalType": "address",
          "name": "forwarder",
          "type": "address"
        }
      ],
      "name": "isTrustedForwarder",
      "outputs": [
        {
          "internalType": "bool",
          "name": "",
          "type": "bool"
        }
      ],
      "stateMutability": "view",
      "type": "function"
    },
    {
      "inputs": [
        {
          "internalType": "uint256",
          "name": "integerValue",
          "type": "uint256"
        },
        {
          "internalType": "string",
          "name": "stringValue",
          "type": "string"
        }
      ],
      "name": "msgData",
      "outputs": [],
      "stateMutability": "nonpayable",
      "type": "function"
    },
    {
      "inputs": [],
      "name": "msgSender",
      "outputs": [],
      "stateMutability": "nonpayable",
      "type": "function"
    }
  ],
  "bytecode": "0x60a060405234801561001057600080fd5b506040516104d53803806104d583398101604081905261002f916100bc565b6001600160a01b0381166080527fd6558c3ed910d959271054471fd1c326679d9fece99c5091b00ed89627cf2bfc610065610086565b6040516001600160a01b03909116815260200160405180910390a1506100ec565b6000610090610095565b905090565b6080516000906001600160a01b031633036100b7575060131936013560601c90565b503390565b6000602082840312156100ce57600080fd5b81516001600160a01b03811681146100e557600080fd5b9392505050565b6080516103cf610106600039600060d301526103cf6000f3fe608060405234801561001057600080fd5b50600436106100415760003560e01c8063376bf26214610046578063572b6c051461005b578063d737d0c714610082575b600080fd5b6100596100543660046101d8565b61008a565b005b61006e610069366004610293565b6100d1565b604051901515815260200160405180910390f35b610059610103565b7faf235354a0a47c91ee171961326335cb2d1a8e55b8a89859b0e61eb049e50ea06100b3610149565b84846040516100c594939291906102c3565b60405180910390a15050565b7f00000000000000000000000000000000000000000000000000000000000000006001600160a01b0390811691161490565b7fd6558c3ed910d959271054471fd1c326679d9fece99c5091b00ed89627cf2bfc61012c61015c565b6040516001600160a01b03909116815260200160405180910390a1565b36600061015461016b565b915091509091565b60006101666101a0565b905090565b366000610177336100d1565b15610198576000803661018b601482610348565b926101549392919061036f565b600036610154565b60006101ab336100d1565b156101bd575060131936013560601c90565b503390565b634e487b7160e01b600052604160045260246000fd5b600080604083850312156101eb57600080fd5b82359150602083013567ffffffffffffffff8082111561020a57600080fd5b818501915085601f83011261021e57600080fd5b813581811115610230576102306101c2565b604051601f8201601f19908116603f01168101908382118183101715610258576102586101c2565b8160405282815288602084870101111561027157600080fd5b8260208601602083013760006020848301015280955050505050509250929050565b6000602082840312156102a557600080fd5b81356001600160a01b03811681146102bc57600080fd5b9392505050565b60608152836060820152838560808301376000608085830101526000601f1980601f870116830160208660208601526080858303016040860152855180608084015260005b818110156103245787810183015184820160a001528201610308565b50600060a0828501015260a084601f83011684010194505050505095945050505050565b8181038181111561036957634e487b7160e01b600052601160045260246000fd5b92915050565b6000808585111561037f57600080fd5b8386111561038c57600080fd5b505082019391909203915056fea2646970667358221220dfe40349b76c5577af59108a91811f8158e1747da84c886a515e5888a7615ec464736f6c63430008180033",
  "linkReferences": {},
  "deployedLinkReferences": {}
}